:020000040800F2
:10000000680800209D01000811240008F11E000866
:100010006D230008CD020008C12C0008000000007C
:10002000000000000000000000000000152400088F
:100030008D0300080000000013240008412400087C
:10004000B7010008B7010008B7010008B7010008B0
:10005000B7010008B7010008B7010008B7010008A0
:10006000B7010008B7010008B7010008B701000890
:10007000D1020008B7010008DD020008B70100083E
:10008000B7010008B7010008B7010008B701000870
:10009000B7010008B7010008B7010008B701000860
:1000A000B7010008B7010008B7010008B701000850
:1000B00065250008B7010008B7010008B70100086E
:1000C000B7010008B7010008B7010008B701000830
:1000D000B7010008B7010008B7010008892C000823
:1000E000B7010008B7010008B7010008B701000810
:1000F000B7010008B7010008B7010008B701000800
:10010000B7010008B7010008B7010008B7010008EF
:10011000B7010008B701000871250008B701000801
:10012000B7010008B7010008B7010008B7010008CF
:10013000B7010008B7010008B7010008B7010008BF
:10014000B7010008B7010008B7010008B7010008AF
:10015000B7010008B7010008B7010008B70100089F
:10016000B7010008B7010008B7010008B70100088F
:10017000B7010008B7010008B7010008000000003F
:10018000B7010008B7010008DFF80CD000F08CF8C8
:1001900000480047472D00086808002006488047AF
:1001A00006480047FEE7FEE7FEE7FEE7FEE7FEE75C
:1001B000FEE7FEE7FEE7FEE7D92400088901000814
:1001C0002DE9F05F0546002092469B46884606468C
:1001D000814640241BE0284641464746224600F01F
:1001E00053F853465A46C01A914110D31146184647
:1001F000224600F03AF82D1A67EB01084F462246D6
:100200000120002100F031F817EB00094E41201EBB
:10021000A4F10104DFDC484631462A464346BDE8E6
:10022000F09F40EA01039B0703D009E008C9121FB1
:1002300008C0042AFAD203E011F8013B00F8013BA0
:10024000521EF9D27047D2B201E000F8012B491ECC
:10025000FBD270470022F6E710B513460A46044663
:100260001946FFF7F0FF204610BD202A04DB203A94
:1002700000FA02F1002070479140C2F1200320FAF9
:1002800003F3194390407047202A04DB203A21FAF7
:1002900002F00021704721FA02F3D040C2F120029F
:1002A0009140084319467047064C074D06E0E06848
:1002B00040F0010394E8070098471034AC42F6D3AD
:1002C000FFF766FFB0310008D0310008FEE70000FC
:1002D000014800F0B7B80000A4030020014800F076
:1002E000B1B80000040400200168CAB2103A182313
:1002F000B2FBF3F2064B9B5CC3656FF30901032A63
:1003000002D9091D816500E08165806D704700009C
:100310009031000810B5014600208A6A8B694FF0C1
:10032000C074002B0ED0B3F5005F1AD062B3012A5F
:100330002AD0022A28D0032A03D1C96AC90100D5CC
:10034000012010BD1AB1012A06D0022AF9D1C96ACA
:10035000C901F6D5012010BDC96AA142FBD1012017
:1003600010BD52B1012A0AD0022A06D0032AF7D1C1
:10037000C96AA142F4D1012010BD012010BDC96A93
:10038000C901FBD5012010BD012010BD704772B618
:10039000FEE72DE9F0410446A76D00F095FA054609
:1003A00094F835000026022806D08020606584F885
:1003B00034600120BDE8F0812068016821F0160159
:1003C00001602068416921F080014161206C08B919
:1003D000A06C20B12068016821F00801016020684C
:1003E000016821F0010101600BE000F06DFA401B93
:1003F000052806D92020343420620320607026703E
:10040000D8E720680068C007EFD134343F2094F863
:1004100028108840B8600120607026700020C9E76D
:1004200090F83510022903D08021416501207047E2
:10043000052180F835100068016821F00101016094
:10044000002070472DE9F84304464FF00009CDF82D
:1004500000906F484FF416510068B0FBF1F7A56D9E
:100460002E6894F85C00082202FA00F1314210D0A4
:100470002068016849070CD5016821F0040101607A
:1004800094F85C0002FA00F1A960606D40F0010090
:10049000606594F85C104FF0010808FA01F03042F2
:1004A00008D021684969090604D5A860606D40F04C
:1004B0000200606594F85C1004208840304208D047
:1004C00021680968890704D5A860606D40F00400C0
:1004D000606594F85C1010208840304220D021687C
:1004E000096809071CD5A8602068016849030CD574
:1004F0000068000304D4216C91B1204688470FE0C6
:10050000A16C69B1204688470AE00168C90503D497
:10051000016821F008010160216C09B1204688477B
:1005200094F85C102020884030424CD02168096843
:10053000C90648D5A86094F8350005280BD0206876
:100540000168490330D50068000328D4616C51B3B9
:100550002046884737E02068016821F016010160D5
:100560002068416921F080014161206C08B9A06CCC
:1005700020B12068016821F00801016094F85C1046
:100580003F208840A86084F8358084F83490216D3D
:1005900000293BD001B02046BDE8F0430847E16B9D
:1005A00009B1204688470EE00168C90507D40168F3
:1005B00021F01001016084F8358084F83490E16BFB
:1005C00009B120468847606D00281FD0606DC007C4
:1005D00014D0052084F835002068016821F001015D
:1005E00001600098401C0090B84203D82068006861
:1005F000C007F6D184F8358084F83490E16C002986
:1006000004D001B02046BDE8F0430847BDE8F883B8
:10061000480000202DE9F041044600F055F9054658
:100620005CB1022084F83500002684F8346020682C
:10063000016821F0010101600DE00120BDE8F081B9
:1006400000F042F9401B052805D9202060650320F1
:1006500084F83500F2E720680068C007F0D121680F
:100660000A6820480240D4E901031843D4E903355D
:100670002B43184363691843A3691843E36918437C
:10068000236A18431043626A042A03D1D4E90B2376
:100690001A43104308602068406920F00700656A2B
:1006A00029460543012704290DD1A06A0543E06AC4
:1006B00048B12046FFF72EFE28B14020606584F83F
:1006C00035700120BAE7206845612046FFF70CFE2F
:1006D00094F85C203F2191408160666584F8357014
:1006E0000020ABE73F8010F02DE9F84F0022DFF843
:1006F0009C914FF0010803274FF00F0C09F1040AF9
:10070000A9F1040B08FA02F50B682B40AB426ED13D
:100710000C7904F00304012C01D0022C15D1866859
:10072000540007FA04FE26EA0E06D1F80CE00EFA91
:1007300004FE4EEA060EC0F808E04468AC430D79AA
:10074000C5F300159540254345600C79E443A407A3
:1007500008D0C568540007FA04F6B5438E68A64071
:100760002E43C6600C7904F00304022C11D1D40886
:1007700000EB8406356A5407E40E0CFA04FE25EA01
:100780000E05D1F810E00EFA04FE4EEA050EC6F88A
:1007900020E00568540007FA04F6B5430E7906F028
:1007A0000306A6402E4306604C6814F4403F67D011
:1007B000374C256845F480452560246804F480445E
:1007C0000094344C22F003052E19D6F808589407EB
:1007D0004FEA147E0CFA0EF4A5432F4CA04201D12F
:1007E000002424E02D4CA04202D101241FE047E068
:1007F0002B4CA04201D1022419E02A4CA04201D185
:10080000032414E0284CA04201D104240FE0274C1B
:10081000A04201D105240AE0254CA04201D10624C2
:1008200005E0244CA04201D1072400E0082404FA8A
:100830000EF42C43C6F80848D9F800409C434D6894
:10084000ED0200D51C43C9F80040DAF800409C4393
:100850004D68AD0200D51C43CAF80040DBF80040EB
:100860009C434D68AD0300D51C43CBF80040074DB9
:10087000083D2C689C434E68F60300D51C432C6051
:10088000521C102AFFF43EAFBDE8F88F083C01402F
:1008900044380240003001400000024000040240A1
:1008A00000080240000C0240001002400014024008
:1008B00000180240001C0240002A01D081617047EC
:1008C000090481617047000001488068704700009A
:1008D0003C00002002488168027811448160704722
:1008E0003C00002010B50B48016841F40071016024
:1008F000016841F480610160016841F48071016028
:10090000032000F071F80F2000F006F800F026F840
:10091000002010BD003C024070B504460D4D4FF460
:100920007A712878B1FBF0F00B490968B1FBF0F05F
:1009300000F05EFB08B1012070BD102C07D2002230
:100940002146501E00F030F86C60002070BD012080
:1009500070BD00003C0000204800002008B50A4897
:10096000016841F480410160006800F4804000901B
:100970000548001F016841F080510160006800F0E7
:100980008050009008BD000044380240002809DB78
:1009900000F01F02012191404009800000F1E02099
:1009A000C0F8001170470000F0B40D460D4B1B68F5
:1009B000C3F30223C3F10704042C00D90424191D36
:1009C000072901D2002300E0DB1E012606FA04F10C
:1009D000491E294099409E40761E16403143F0BC86
:1009E00002F06FB90CED00E000F00701054A106855
:1009F0004FF6FF03184040EA012003490843106006
:100A0000704700000CED00E00000FA05BFF34F8FC7
:100A100005480168054A01F4E06111430160BFF334
:100A20004F8F00BFFDE700000CED00E00400FA0569
:100A30002DE9F04704460D46002C13D0DFF828912D
:100A4000D9F80000EFB200F00700A8420CD289F8F4
:100A50000070D9F8000000F00700A84204D001207F
:100A6000BDE8F0870120FBE72068404E810712D5E2
:100A7000400703D5306840F4E0503060207800072C
:100A800003D5306840F4604030603068A16820F0E1
:100A9000F000084330602078C00731D033496068E7
:100AA0000839012808D002280BD0032809D009688A
:100AB00089070BD40120D3E70968890306D40120F4
:100AC000CEE70968890101D40120C9E7316821F026
:100AD000030101433160FFF7F7FE804641F2883A97
:100AE00007E0FFF7F1FEA0EB0800504501D9032015
:100AF000B6E73068616800F00C00B0EB810FF0D110
:100B0000D9F8000000F00700A84209D989F8007060
:100B1000D9F8000000F00700A84201D001209FE7AB
:100B20002078400705D53068E16820F4E05008439C
:100B300030602078000706D53068216920F46040D5
:100B400040EAC100306000F03FF83168084AC1F364
:100B50000311515CC8400749086007480068FFF767
:100B6000DBFE00207CE70000003C02400838024029
:100B7000983100084800002040000020014800682B
:100B8000704700004800002000B5FFF7F7FF044958
:100B90000968044AC1F38221515CC84000BD0000CD
:100BA00008380240A831000800B5FFF7E7FF044904
:100BB0000968044AC1F34231515CC84000BD0000DD
:100BC00008380240A831000810B51748006810F036
:100BD0000C01164816D04310042912D0082911D14F
:100BE000114C241F216801F03F02216849020AD5F7
:100BF0002068C0F38810A0FB03010023FFF7E0FA90
:100C000009E0184610BD21680023C1F38811A1FB3B
:100C10000001FFF7D5FA2168C1F30141491C4900E1
:100C2000B0FBF1F010BD0000083802400024F400D1
:100C30002DE9F84F0446002C13D02078DFF8A0836C
:100C4000C007A8F1040556D008F104000168C1F3FB
:100C5000810101290CD00068C0F38100022803D073
:100C60000DE00120BDE8F88FD8F80000400206D55D
:100C7000286880033FD5606870BB0120F2E7606898
:100C8000B0F5803F10D0B0F5A02F12D0286820F426
:100C900080302860286820F4802028606068E0B1F7
:100CA000FFF712FE064614E0286840F48030286002
:100CB000F4E7286840F480202860286840F48030F9
:100CC0002860EBE7FFF700FE801B642801D90320B2
:100CD000C8E728688003F5D50DE0FFF7F5FD064667
:100CE00006E0FFF7F1FD801B642801D90320B9E776
:100CF00028688003F5D42078BA4F80074FF00009A8
:100D000048D5B748001D016811F00C0F08D00068E5
:100D1000C0F38100022813D1D8F8000040020FD49C
:100D20002868800704D5E068012801D0012099E7F0
:100D30002868216920F0F80040EAC100286029E015
:100D4000E068B8B101203860FFF7BEFD064606E056
:100D5000FFF7BAFD801B022801D9032082E728682B
:100D60008007F5D52868216920F0F80040EAC10025
:100D700028600FE0C7F80090FFF7A6FD064606E0E2
:100D8000FFF7A2FD801B022801D903206AE728682B
:100D90008007F5D42078000729D5DFF844A29248CF
:100DA00061690AF1700A89B101210160FFF78CFDC8
:100DB000064606E0FFF788FD801B022801D90320C4
:100DC00050E7DAF800008007F4D510E0C0F8009092
:100DD000FFF77AFD064606E0FFF776FD801B022846
:100DE00001D903203EE7DAF800008007F4D4207828
:100DF000400778D54FF0000A79483C300068C000C1
:100E00000BD477483C30016841F0805101600068A4
:100E100000F0805000904FF0010ADFF8D0B1DBF80D
:100E20000000C00514D4DBF8000040F48070CBF85B
:100E30000000FFF749FD064606E0FFF745FD801B71
:100E4000022801D903200DE7DBF80000C005F4D526
:100E5000634EA0686C3601280FD0052812D0306888
:100E600020F001003060306820F004003060A0689D
:100E7000F8B1FFF729FD834617E0306840F0010024
:100E80003060F4E7306840F004003060306840F0D3
:100E900001003060EBE7FFF717FDA0EB0B0141F21B
:100EA0008830814201D90320DCE630688007F2D522
:100EB00010E0FFF709FD834609E0FFF705FDA0EB11
:100EC0000B0141F28830814201D90320CAE6306823
:100ED0008007F2D4BAF1010F05D141483C300168D6
:100EE00021F080510160A069C0B33D49091D096826
:100EF0004FF0FF36C1F38101022946D0022805D008
:100F0000C7F86090FFF7E0FC04463AE0C7F860904D
:100F1000FFF7DAFC814607E0FFF7D6FCA0EB0900FB
:100F2000022801D903209DE628688001F4D4D4E981
:100F300007010843616AA26A890106EB520241EA8D
:100F40000241084394F82C1040EA0160C8F8000000
:100F500001203866FFF7B8FC044607E03DE0FFF7E4
:100F6000B3FC001B022801D903207BE6286880011E
:100F7000F5D532E0FFF7A8FC001B022801D90320B9
:100F800070E628688001F5D427E0012823D0D8F83E
:100F90000000E26900F4800191421AD1226A00F057
:100FA0003F01914215D147F6C071626A0140B1EB31
:100FB000821F0ED1A26A00F4403106EB5202B1EB5F
:100FC000024F06D194F82C1000F07060B0EB016F66
:100FD00003D0012046E6012044E6002042E600005E
:100FE0000438024000004742800E47420070004033
:100FF00010B5401EB0F1807F01D3012010BD4FF02D
:10100000E02460610F21601701F05BFE0020A06109
:1010100007202061002010BD7047704770B590F820
:101020003C20012A31D0012680F83C60022280F861
:101030003D2002685468936824F070050C682C43C6
:101040005460134C0268A24214D0B2F1804F11D008
:10105000104CA2420ED0104CA2420BD00F4CA24218
:1010600008D00F4CA24205D00E4CA24202D00E4C2A
:10107000A24204D123F080034968194391603C30B7
:10108000467000210170002070BD022070BD00007C
:10109000000001400004004000080040000C004037
:1010A00000040140004001400018004010B5044613
:1010B000002C03D094F83D0010B107E0012010BDD2
:1010C000002084F83C00204600F016F8022084F846
:1010D0003D00211D206801F051FA01203D3460726D
:1010E0006070A070E07020716071A071E07120727A
:1010F0002070002010BD000008B50068164A17498E
:10110000904208D1086840F008000860086800F0C4
:101110000800009008BD124A904211D1086840F0C2
:1011200010000860086800F0100000900022012103
:101130003620FFF739FCBDE808403620FFF726BC13
:10114000084A9042E6D1086840F04000086008680C
:1011500000F04000009008BD000C00404038024004
:10116000001000400018004090F83D10012901D007
:1011700001207047022180F83D100168CA6842F0E2
:101180000102CA6000681449884214D0B0F1804F4F
:1011900011D0124988420ED0114988420BD0114912
:1011A000884208D01049884205D01049884202D0B0
:1011B0000F49884209D1816801F00701062908D04A
:1011C000016841F00101016003E0016841F00101A3
:1011D0000160002070470000000001400004004052
:1011E00000080040000C00400004014000400140A5
:1011F0000018004070B50446002594F83C00012812
:1012000017D0012684F83C60022084F83D00206855
:10121000826822F0770222F47F42826008685028B8
:1012200038D00DDC202853D005DC90B3102811D124
:101230004EE0022070BD30284AD040280AD13DE05F
:10124000602831D070280CD0B0F5805F03D0B0F5A5
:10125000005F12D001253C346670002020702846C3
:1012600070BDCB68D1E90121206801F0FAF920684E
:10127000816841F077018160EDE7CB68D1E9012118
:10128000206801F0EEF92068816841F480418160B6
:10129000E1E71DE0CA684968206801F0C5FA5021FD
:1012A000206801F0E8F9D6E7CA684968206801F0CB
:1012B000CCFA6021206801F0DEF9CCE7CA68496801
:1012C000206801F0B1FA4021206801F0D4F9C2E7AA
:1012D00022680146104601F0CEF9BCE72DE9F04145
:1012E00004460D46002C03D094F83D0018B108E0E8
:1012F0000120BDE8F081002084F83C00204600F089
:1013000047F8022084F83D002068816844F2070213
:1013100091438160211D206801F030F9273454F891
:10132000270C81688269066A2B680B4340F20331FF
:101330008A43AF69A96842EA0722114340F60C428A
:1013400091434FF2F0029143EF69EA6841EA0721C5
:101350000A4329692F6A090141EA0731114326F03E
:10136000220222F088066A686D6946EA05152A435A
:10137000836054F8270C816154F8270C0262012025
:10138000E077E0752076E0762077A0750020B0E762
:10139000F0B587B00446142102A8FEF75BFF504861
:1013A000216800254F4A022401264F4B81421ED15D
:1013B0004C481430016841F001010160006800F000
:1013C00001000190106840F001001060106800F00A
:1013D000010001904FF4407002900394049505952C
:1013E000069602A91846FFF77FF907B0F0BD3D4801
:1013F0003E4F1030B1F1804F1DD03D4B994250D13E
:10140000016841F002010160006800F002000190F3
:10141000106840F002001060106800F002000190B7
:1014200030200290039404950594069402A938464E
:10143000FFF75AF9D9E7016841F00101016000683E
:1014400000F001000190106840F001001060106889
:1014500000F001000190106840F002001060106878
:1014600000F0020001904FF40040029003940495B4
:101470000595069602A91846FFF736F9082002904E
:10148000039404950595069602A93846FFF72CF9B2
:10149000002211461C20FFF787FA1C20FFF776FA7E
:1014A000A3E7144B9942A0D1016841F00401016007
:1014B000006800F004000190106840F00200106025
:1014C000106800F002000190C0200290039404957F
:1014D0000595069402A93846FFF706F985E700004E
:1014E0000000014030380240000002400004024089
:1014F000000400400008004070B5044614F83E0F98
:101500006278237965793E3C0226002904D00429BB
:101510000DD001281CD115E0012801D1012B01D0EB
:10152000012070BD84F83E6084F8426018E0012A12
:1015300001D1012D01D0012070BD84F83F6084F8F5
:1015400043600DE0012A03D1012B01D1012D01D00F
:10155000012070BD04F83E6F6670267166713E3CD6
:1015600091B1042916D001220021206801F06CF805
:1015700001220421206801F067F82068016841F029
:1015800001010160002070BD01220021206801F0EE
:101590005BF8F2E701220421206801F055F8ECE73E
:1015A000704770B50446206801694FF00005C943D3
:1015B000890716D4C168C943890712D4E91E01619D
:1015C0000120207720688069800703D02046FFF73C
:1015D000E7FF05E0204600F0DFF8204600F06FF955
:1015E000257720680169C943490718D4C168C943F0
:1015F000490714D46FF004010161022020772068AC
:10160000806910F4407F03D02046FFF7C9FF05E052
:10161000204600F0C1F8204600F051F925772068F7
:101620000169C943090717D4C168C943090713D41D
:101630006FF008010161042020772068C0698007ED
:1016400003D02046FFF7ACFF05E0204600F0A4F8E9
:10165000204600F034F9257720680169C943C9069E
:1016600018D4C168C943C90614D46FF010010161D0
:10167000082020772068C06910F4407F03D02046FE
:10168000FFF78EFF05E0204600F086F8204600F0C8
:1016900016F9257720680169C943C90708D1C168CF
:1016A000C943C90704D1891E0161204600F0B4F97D
:1016B00020680169C943090609D4C168C9430906FC
:1016C00005D46FF0800101612046FFF7A5FC20687A
:1016D0000169C943490609D4C168C943490605D40B
:1016E0006FF040010161204600F0BCF920680169FB
:1016F000C94389060BD4C168C943890607D46FF072
:10170000200101612046BDE87040FFF786BC70BD36
:1017100010B586B00446142101A8FEF79BFD206891
:10172000184C002218490223A04213D1086840F047
:1017300001000860086800F0010000900F2001908F
:10174000029303920492059301A91048FEF7CCFF7F
:1017500006B010BD0E4CA042FAD1086840F002005D
:101760000860086800F002000090E0000190029319
:10177000039204920920059001A90648FEF7B4FFE0
:10178000E6E70000000C0040303802400000024054
:101790000018004000040240704770B504460D4632
:1017A000002694F83C0001280FD0012084F83C006A
:1017B0006AB1042A1FD0082A32D00C2A44D001264C
:1017C000002084F83C00304670BD022070BD2946E0
:1017D000206800F059FF2068816941F008018161AB
:1017E0002068816921F004018161206881692A698A
:1017F00011438161E4E72946206800F079FF206801
:10180000816941F4006181612068816921F480610E
:101810008161206881692A6941EA02218161CFE7FB
:101820002946206800F09EFF2068C16941F0080148
:10183000C1612068C16921F00401C1612068C169EA
:101840002A691143C161BBE72946206800F0C2FF45
:101850002068C16941F40061C1612068C16921F457
:101860008061C1612068C1692A6941EA0221C161C0
:10187000A6E710B50446002C03D094F83D0010B143
:1018800007E0012010BD002084F83C00204600F055
:1018900015F8022084F83D00211D206800F06EFE3E
:1018A00001203D3460726070A070E0702071607142
:1018B000A071E07120722070002010BD7047704749
:1018C00010B50446002909D004290AD008290BD0F4
:1018D00094F8410001280AD0012010BD94F83E0080
:1018E000F8E794F83F00F5E794F84000F2E70220AB
:1018F000A9B3042937D0082938D084F8410001223F
:10190000206800F0A1FE1E4920681E4A884201D0CE
:10191000904203D1436C43F40043436420688842FF
:1019200013D0B0F1804F10D0174988420DD017491D
:1019300088420AD01649884207D0904205D01549FE
:10194000884202D01449884213D1816801F007010E
:10195000062912D0016841F0010101600DE0FFE7A6
:1019600084F83E00CBE784F83F00C8E784F84000E5
:10197000C5E7016841F001010160002010BD0000D1
:101980000000014000040140000400400008004045
:10199000000C0040004001400018004030B50446F3
:1019A0000D4600222946206800F04EFE184A41F2FA
:1019B000111120688B10904202D0164A904209D132
:1019C000026A0A4206D1026A1A4203D1426C22F428
:1019D000004242642068026A0A4206D1016A194242
:1019E00003D1016821F00101016001203DB1042D06
:1019F00008D0082D09D084F84100002030BD84F8BB
:101A00003E00FAE784F83F00F7E784F84000F4E787
:101A1000000001400004014010B504460D49206853
:101A2000884204D10C4890ED000A00F0A1FC206827
:101A3000B0F1804F08D1094800680068C106084825
:101A400003D50188491E018010BD0188491C018011
:101A500010BD00000010004034000020B001002044
:101A6000300000207047704770470000F8B504460A
:101A700022681068D168536900F00F06002E08D163
:101A8000850606D58D0604D52046BDE8F84000F051
:101A900085BF0025002E67D003F0010601F4907782
:101AA000374361D0C20705D0CA0503D5226C42F086
:101AB00001022264420705D5DA0703D0226C42F006
:101AC00002022264820705D5DA0703D0226C42F0B5
:101AD00004022264020707D501F02002324303D03A
:101AE000226C42F008022264226C002A32D0800666
:101AF00004D5880602D5204600F050FF20684069D2
:101B0000C0F38010216C01F00801014327D020466A
:101B100000F010FF2068406940061CD52068143092
:101B200050E8001F21F0400140E80012002AF5D1E2
:101B3000A06B60B156490165A06BFEF771FC0028EF
:101B400008D0A06B016D01B0BDE8F0400847204609
:101B5000FFF78AFFF8BD2046FFF786FFF8BD204655
:101B6000FFF782FF2564F8BD236B012B7ED1C306EE
:101B70007CD5CB067AD510685068009050694FF03C
:101B80002003400643D5A16B0868406880B2002856
:101B9000E9D0A28D8242E6D9E085C869B0F5807FA0
:101BA0002DD020680C3050E8001F21F4807140E8EF
:101BB0000012002AF5D12068143050E8001F21F0EF
:101BC000010140E80012002AF5D12068143050E8E5
:101BD000001F21F0400140E80012002AF5D184F8EE
:101BE0003E30256320680C3050E8001F21F01001C2
:101BF00040E80012002AF5D1A06BFEF7CAFBA08DC9
:101C0000E18D401A81B22046FFF72DFFF8BDA08D6F
:101C1000E18D401A81B2E08D0028F7D00029F5D07F
:101C200020680C3050E8002F22F4907240E8002623
:101C3000002EF5D12068143050E8002F22F0010268
:101C400040E80026002EF5D184F83E302563206858
:101C50000C3050E8002F22F0100240E80023002B47
:101C6000F5D12046FFF7FFFEF8BDFFE7020606D5D7
:101C70000A0604D52046BDE8F84000F09BBF4006A8
:101C8000F2D54806F0D52046BDE8F84000F079BE10
:101C90002529000870B50446002C04D094F83D00B6
:101CA000002510B106E0012070BD84F83C502046AC
:101CB00000F022F8242084F83D002068C16821F457
:101CC0000051C160204600F0CDFE2068016921F47A
:101CD000904101612068416921F02A014161206839
:101CE000C16841F40051C1602564202084F83D00A2
:101CF00084F83E00002070BD2DE9F04186B0054615
:101D0000142101A8FEF7A6FA30492868884259D163
:101D100000262F48016841F480210160006800F42A
:101D2000802000902A481038016841F002010160CB
:101D3000006800F0020000904FF440600190022023
:101D40000290039604900720059001A92148FEF710
:101D5000CBFC224C204820604FF00068C4F804807F
:101D6000A660E660071527616661A6618015E061DF
:101D7000266266622046FEF74DFC08B1FEF707FBBF
:101D8000AC63A5631448154C303060342060C4F84F
:101D900004804020A060E66027616661A661E6617C
:101DA000266266622046FEF735FC08B1FEF7EFFAC0
:101DB0006C63A563002211462720FEF7F5FD27205E
:101DC000FEF7E4FD06B0BDE8F081000000480040E9
:101DD000403802400004024028600240A403002072
:101DE00090F83E30202B01D00220704759B152B1FB
:101DF00090F83C30012B08D0012380F83C300023C0
:101E0000036300F0B9BE0120704702207047000054
:101E100000680449884204D1182203490348FFF7A7
:101E2000DFBF704700480040E4000020600300204E
:101E30002DE9F84304460E4615461F4694F83D002A
:101E4000202802D00220BDE8F883C6B1BDB194F8C5
:101E50003C00012815D0012084F83C004FF0000917
:101E6000C4F84090212084F83D00FEF72DFD804607
:101E7000A584E584A068B0F5805F04D005E001206A
:101E8000E1E70220DFE7206920B13546002684F82B
:101E90003C9013E00025FAE74346002280212046CB
:101EA000009700F0B6FE08B10320CCE79DB1216891
:101EB00015F8010B4860E08C401EE084E08C00289F
:101EC000EAD14346002240212046009700F0A1FEBF
:101ED00040B10320B7E736F8020B2168C0F30800D1
:101EE0004860E8E7202084F83D000020ABE7704719
:101EF000FEE7000008B50D48016841F400110160DB
:101F0000006800F400100090002202210C20FEF76F
:101F10004BFD0C20FEF73AFD002202210E20FEF7B9
:101F200043FDBDE808400E20FEF730BD30380240CA
:101F30002DE9F04186B0142101A8FEF78BF90024A9
:101F40002648016841F010010160016801F01001AC
:101F50000091016841F004010160016801F0040191
:101F60000091016841F080010160016801F0800189
:101F70000091016841F001010160016801F0010177
:101F80000091016841F002010160006800F0020068
:101F90000090DFF84C804FF4266500222946404629
:101FA000FEF78AFC0F4F4FF4407600223146384648
:101FB000FEF782FC0195012502950394049401A982
:101FC0004046FEF791FB019602950394049401A903
:101FD0003846FEF789FB06B0BDE8F0813038024094
:101FE000001002400004024010B58CB00024089498
:101FF00009940A940B941C2101A8FEF72BF91E48A2
:102000001C49016053214160846044F61F61C16036
:1020100004618461FFF74AF808B1FEF7B8F94FF49C
:102020008050089008A91448FFF7E4F808B1FEF7BB
:10203000AEF91148FFF71DFC08B1FEF7A8F96020C2
:102040000190029403940594002201A90A48FFF725
:10205000A4FB08B1FEF79BF9042201A90648FFF78B
:102060009CFB08B1FEF793F90348FFF751FB0CB056
:1020700010BD0000001800401803002010B58CB0FF
:10208000242103A8FEF7E6F80024019402941548E1
:1020900013490160446084604FF6FF71C1600461C0
:1020A0004461846101200390049405900694079490
:1020B000089409900A940B9403A90A48FFF70EF9B3
:1020C00008B1FEF764F90194029401A90548FEF7EE
:1020D000A5FF002801D0FEF75AF90CB010BD000092
:1020E000000001406801002010B58CB0242103A835
:1020F000FEF7B0F800240194029414484FF0804198
:10210000016044608460611EC160046184610120DB
:1021100003900494059006940F2107910894099068
:102120000A940B9103A90948FFF7D8F808B1FEF704
:102130002EF90194029401A90448FEF76FFF0028CC
:1021400001D0FEF724F90CB010BD0000B001002052
:1021500010B58CB0242103A8FEF77CF8002401946C
:10216000029415481349016053214160846044F68C
:102170001F61C16004618461012003900494059093
:1021800006940794089409900A940B9403A90A48AA
:10219000FFF7A4F808B1FEF7FAF80194029401A938
:1021A0000548FEF73BFF002801D0FEF7F0F80CB021
:1021B00010BD000000040040F801002010B58CB0F4
:1021C000242103A8FEF746F8002401940294154840
:1021D00013490160446084604FF6FF71C16004617F
:1021E0008461012003900494059006940F210791C7
:1021F000089409900A940B9103A90A48FFF76EF816
:1022000008B1FEF7C4F80194029401A90548FEF74D
:1022100005FF002801D0FEF7BAF80CB010BD000091
:10222000000800404002002010B58EB000240A943F
:102230000B940C940D94089409941C2101A8FEF7AA
:1022400009F82A48284901604460846040F61F511B
:10225000C16004618461FEF729FF08B1FEF797F8B9
:102260004FF480500A900AA92048FEF7C3FF08B136
:10227000FEF78DF81D48FFF7FCFA08B1FEF787F866
:102280000894099408A91948FEF7C8FE08B1FEF79A
:102290007EF860200190029403940594002201A925
:1022A0001248FFF77AFA08B1FEF771F8042201A983
:1022B0000E48FFF772FA08B1FEF769F8082201A983
:1022C0000A48FFF76AFA08B1FEF761F80C2201A983
:1022D0000648FFF762FA08B1FEF759F80348FFF71E
:1022E00017FA0EB010BD0000000C0040880200205C
:1022F0001CB50024009401940D480C49016040F283
:102300008F61416084603121C1608461FEF7CEFE3F
:1023100008B1FEF73CF80094019469460448FEF7C2
:102320007DFE002801D0FEF732F81CBD00100040F1
:10233000D002002010B50C480A4901604FF4E13189
:10234000416000218160C16001610C2242618161B4
:10235000C161FFF79FFC002803D0BDE81040FEF7E5
:1023600016B810BD0048004060030020FEE70000E2
:1023700010B5234A1078012841D19FED220A800729
:10238000406A21490024631EB1F90010A1FB031328
:1023900040181062516ADFED1D1AA0EB010100EE3A
:1023A000901AB8EEE01AC1EE210AF3EE091A80EE97
:1023B000A11AC1EE000AFDEEE00AC2ED0A0A50625F
:1023C000B5EEC00AF1EE10FA08DD2146002000F05B
:1023D00023F80021042000F01FF807E00021084640
:1023E00000F01AF82146042000F016F8044A0123F0
:1023F0002832BDE810401946022000F093BE10BDFF
:102400000000002000000000300000200000FA441E
:10241000FEE7704770470000084A0028126807D09E
:10242000042807D0082807D00C2800D11164704771
:102430005163704791637047D163704788020020F1
:10244000FEF748BA30B593B0302107A8FDF702FF78
:10245000142102A8FDF7FEFE00251D48016841F089
:1024600080510160006800F08050019019480168B7
:1024700041F480410160006800F480400190012037
:1024800007900004089002240D9480010E9004200F
:102490000F90A82110911194129007A8FEF7C8FB85
:1024A00008B1FDF774FF0F200290039404954FF4D8
:1024B000A05005904FF480500690052102A8FEF729
:1024C000B7FA002801D0FDF762FF13B030BD00005D
:1024D00040380240007000400248016841F4700139
:1024E0000160704788ED00E00EB500F0C1F900F022
:1024F000DDFB00F001FA00F0EFF9B2EE043ADFED97
:10250000132A9FED132AF7EE081AB3EE041ADFED33
:10251000110A9FED110A0321104800F040FC0F48FA
:1025200090ED000A8DED000A90ED010A8DED010A93
:1025300090ED020A8DED020A03236A460121184636
:1025400000F0F0FD0649002008600EBD8096184B93
:102550000000000020BCBE4C00F05145FC000020F3
:10256000380000200148FFF71CB80000B00100202F
:102570000148FFF716B80000D00200202DE9F04115
:102580000268264D264E274FDFF89CC0274B4FF0A0
:102590008048A84209D0404507D0B04205D0B84293
:1025A00003D0604501D0984203D122F070044A68FC
:1025B0002243A8421BD0404519D0B04217D0B842A0
:1025C00015D0604513D0984211D0194CA0420ED0BE
:1025D000184CA0420BD0184CA04208D0174CA04277
:1025E00005D0174CA04202D0164CA04203D122F4D1
:1025F0004074CA6822434C6922F080022243026080
:102600008A68C2620A688262A84201D0984201D1F7
:102610000969016301214161BDE8F08100000140C9
:102620000004004000080040000C0040000401408D
:1026300000400140004401400048014000180040B3
:10264000001C00400020004010B501F01F010123D4
:102650008B40046A9C430462036A8A40134303620A
:1026600010BD10B5846824F47F4442EA03220A4373
:102670002243826010BD826822F070020A4342F059
:102680000701816070470000F0B5026A22F0010284
:102690000262026A4368846924F0700424F003052E
:1026A0000C682C4322F002058A682A430E4E0F4F15
:1026B000B04201D0B84205D122F00805CA682A43C9
:1026C00022F00402B04201D0B84207D123F4807353
:1026D00023F400734D691D438B692B434360846170
:1026E000496841630262F0BD0000014000040140FE
:1026F000F0B5026A22F010020262036A426884693D
:1027000024F4E04424F440740D6844EA052423F0E2
:1027100020038D6843EA0513104D114EA84201D0E5
:10272000B04206D123F08003CF6843EA071323F0B9
:102730004003A84201D0B04209D122F4806222F4C1
:1027400000624D6942EA85028D6942EA8502426073
:102750008461496881630362F0BD000000000140AC
:1027600000040140F0B5026A22F480720262026A3B
:102770004368C46924F0700424F003050C682C43FA
:1027800022F400728D6842EA0522104D104EA842D4
:1027900001D0B04206D122F40062CF6842EA07229B
:1027A00022F48062A84201D0B04209D123F48053C0
:1027B00023F400534D6943EA05138D6943EA051379
:1027C0004360C4614968C1630262F0BD000001401A
:1027D0000004014030B5026A22F480520262046AA9
:1027E0004268C36923F4E04323F440730D6843EA6D
:1027F000052324F400548D6844EA0534084DA842AA
:1028000002D0084DA84204D122F480424D6942EA28
:1028100085124260C36149680164046230BD0000F2
:10282000000001400004014010B5036A046A24F06E
:1028300001040462846924F0F00444EA021423F0E1
:102840000A020A438461026210BD10B5036A23F0D4
:10285000100303628469036A24F4704444EA023278
:1028600023F0A00343EA01118261016210BD000060
:1028700010B50A490020087008210948FFF78EF8B2
:102880000C210748FFF78AF800210548FFF786F872
:10289000BDE8104004210248FFF780B80000002086
:1028A0008802002010B50A49012008700821094853
:1028B000FFF706F80C210748FFF702F8002105484A
:1028C000FEF7FEFFBDE8104004210248FEF7F8BF06
:1028D000000000208802002008B50648FEF744FCEE
:1028E0000120009001236A461946062000F01AFCD8
:1028F00008BD0000D002002010B53C210748FEF7BB
:10290000FBFD3C210648FEF7F7FD0549002009685C
:10291000486202490968486210BD00006801002051
:10292000B001002010B5806B0021C185C184FFF784
:102930009BF810BD01680C3151E8002F22F4907211
:1029400041E80023002BF5D10168143151E8002F34
:1029500022F0010241E80023002BF5D1016B01298F
:1029600009D101680C3151E8002F22F0100241E832
:102970000023002BF5D1202180F83E1000210163B7
:10298000704710B50168CA6822F04002CA60202171
:1029900080F83D10FFF7ABFA002010BD08B590F8A5
:1029A0003E10222901D0022008BD82684FF48053D6
:1029B0009A4201D1016921B1816A9A421DD052B176
:1029C0000BE0816A02685268C2F308020A80816AD9
:1029D000891C816209E002697AB10268526802F0DA
:1029E0007F020A70816A491C8162C18D491E0904F7
:1029F000090CC18505D0002008BD026852680A7024
:102A0000F0E70168CA6822F02002CA600168CA685B
:102A100022F48072CA6001684A6922F001024A61A8
:102A2000202180F83E10016B012903D0FFF7F0F957
:102A3000002008BD0021016301680C3151E8002F1E
:102A400022F0100241E80023002BF5D101680A684A
:102A5000D20602D50A6849680091818DFFF703F814
:102A6000E6E700002DE9F041044620680169E268CC
:102A700021F4405111430161A1682069E2690143D9
:102A80006069104301432068C26849F20C639A43AD
:102A90000A43C26020684169A26921F44071114370
:102AA000416133492068884202D03249884202D1CC
:102AB000FEF77AF801E0FEF767F8E16900231927CD
:102AC00064253226B1F5004F28D061688B0F8A004B
:102AD000A0FB0701FDF774FB0146B0FBF5F07A425D
:102AE000504301EB800006EB0010B0FBF5F000F066
:102AF000F002B1FBF5F002EB0012B1FBF5F07B4206
:102B0000584301EB800006EB0010B0FBF5F02168A4
:102B100000F00F0010448860BDE8F08161684A1839
:102B2000A0FB07015B41FDF74BFB0146B0FBF5F055
:102B30000201B1FBF5F06FF01803584301EB800080
:102B400006EBC000B0FBF5F000F0F80002EB40022D
:102B5000B1FBF5F0584301EB800006EBC000B0FB81
:102B6000F5F0216800F0070010448860D4E7000009
:102B7000001001400014014081628285C28500215D
:102B80000164222280F83E2080F83C10016900296F
:102B900004D00168CA6842F48072CA6001684A6958
:102BA00042F001024A610068C16841F02001C16041
:102BB0000020704790F83D10212901D00220704775
:102BC0008168B1F5805F01D1016961B1016A4A1C78
:102BD0000262026809785160C18C491E0904090C1F
:102BE000C1840AD013E0016A02680988C1F30801B0
:102BF0005160016A891C0162EEE70168CA6822F02F
:102C00008002CA600068C16841F04001C1600020D4
:102C100070472DE9F04104460E4617469846069D3A
:102C200025E0681C23D02DB1FDF74EFEA0EB080077
:102C3000A8421CD920680C3050E8001F21F4D07144
:102C400040E80012002AF5D12068143050E8001F37
:102C500021F0010140E80012002AF5D120203C3487
:102C60006070A070002020700320BDE8F081206813
:102C7000006836EA000004D00020B842D1D000201D
:102C8000F3E70120F9E7000008B50748006840684D
:102C900000900121684600F099F800F055F90248CB
:102CA000FEF7E4FE08BD0000600300201822024980
:102CB0000248FFF795B80000E40000206003002000
:102CC000FEE70907090E002804DB00F1E02080F888
:102CD0000014704700F00F0000F1E02080F8141D90
:102CE000704702E008C8121F08C1002AFAD17047D5
:102CF0007047002001E001C1121F002AFBD170477C
:102D000003E011F8013B1844C0B2521ED2B2F8D20F
:102D100070471144491ECA1701EB526222F07F022C
:102D2000891A405C70474A1D02F07F02891D01F03C
:102D30007F01825C405C42EA00207047093101F06B
:102D40007F01405C704708B500200090FDF7CAFD88
:102D5000FFF778FB00F0ECF8FFF7EAF8FFF7CAF8A6
:102D6000FFF72CFAFFF740F9FFF7BEF9FFF7E2FA99
:102D7000FFF7BEFAFFF758FAFFF7EAF9FFF77EF917
:102D8000FFF7B2FB00231A460121052000F0CAF923
:102D900001236A461946184600F0C4F9FEE7C0ED63
:102DA000170A80ED160A016680ED001AC0ED011ABF
:102DB00080ED022AC0ED142A80ED153A704780EDAF
:102DC000000AC0ED010A80ED021A704738B50346CB
:102DD0000D46064C00958021E288206800F086F9B7
:102DE000A079284400F07F00E08038BD5800002022
:102DF0002DE9F04780460F46FF264FF000094B4D66
:102E00008021EB88AA88288900F062F984B2092C15
:102E100002D23046BDE8F087688908BBAA882346FD
:102E20008021286800F020F900B200280CDB012185
:102E3000698182B2AA80EB882889802100F048F954
:102E400009280DDA3046E5E7A888E41E0119C817FD
:102E500001EB506020F07F00081AA8803046D9E7C7
:102E6000288940B9A9882868FFF75DFF2881A0421A
:102E700001D93046CEE72889AA888118491E8029C1
:102E800011DD28688118C2F18000C2B24846FFF700
:102E900037FF297A2A7911448139CAB22968FFF7A4
:102EA0002FFF044607E02968401E1144C2B248467D
:102EB000FFF726FF04462A89A9882868FFF729FF1B
:102EC000A04228D1A8882A898118802910D9C0F168
:102ED00080018CB22968224601444046FDF7A1F9E1
:102EE00028892968021B08EB0400FDF79AF904E021
:102EF000296801444046FDF794F928893880A9885B
:102F00002868FFF71BFF06462879297A084400F055
:102F10007F00A88004E02879401C00F07F00A88092
:102F2000002028816881304674E7000058000020A6
:102F300004480021016141611830A0F10C010860D2
:102F4000002070474C00002030B5A1B00020009058
:102F5000441E694601A8FFF74BFF13285FD006DC2B
:102F600010280FD0112841D0122806D154E014287F
:102F700058D0152859D0FF2802D0204621B030BDA6
:102F80002046FBE79DF80E009DF811109DF80F20DC
:102F900040EA01609DF81010090441EA022108434B
:102FA0009DF812109DF815209DF8133041EA02613A
:102FB0009DF81420120442EA032211439DF81620C2
:102FC0009DF819309DF8175042EA03629DF81830B9
:102FD0001B0443EA05231A4300EE100A00EE901A80
:102FE00001EE102A1D48FFF7EAFEB2E79DF80E0039
:102FF0009DF811109DF80F2040EA01609DF8101017
:10300000090441EA0221084300EE100A1448B8EE10
:10301000C00A80ED000A9CE7FFF744FC99E7FFF740
:1030200027FC96E7FDF7F2FC93E79DF80E009DF86C
:1030300011109DF80F2040EA01609DF8101009045E
:1030400041EA0221084300EBC00101EB00100549F1
:1030500004EB40000A68D062C8607AE7FC000020F8
:1030600034000020D0020020F0B50024DB1E28E050
:103070001519B5FBF1F601FB1656875D6E1CB6FB04
:10308000F1FC01FB1C66865D47EA0627AE1CB6FB19
:10309000F1FC01FB1C66ED1CB5FBF1FC01FB1C55B2
:1030A000865D455D360446EA05652F43074DAF4210
:1030B00005D11019B0FBF1F201FB1200F0BD641C48
:1030C000A4B29C42D4DB4FF0FF30F0BD535A4859B4
:1030D00010B504469A4202D8981A80B202E0881AC3
:1030E000184480B2844200D9002010BD2DE9F0417F
:1030F0000746069D1E465319B8188B420CD9891AEB
:103100008CB222463146FDF78CF82A1B311938461D
:10311000BDE8F041FDF785B82A463146BDE8F041EB
:10312000FDF77FB8F8B50D461646002100919906C7
:103130000C0E1449124A0A6004F10B02C1F8052072
:103140000D7148720A220020FFF7DAFD0090224636
:103150003146FFF7D5FD00900B4D0A222B46094959
:103160000A48FEF765FE2B46224631460748FEF721
:103170005FFE2B46012269460448FEF759FEF8BD62
:10318000535A48594C000020FFFF0F0060030020F5
:1031900000061016000610160000000000000000D7
:1031A00001020304060708090000000001020304ED
:1031B000D0310008000000204C000000E22C000884
:1031C0001C3200084C0000201C080000F22C0008F3
:1031D0000000DC050000000000000000000000000E
:1031E00000000000000000000000000000000000DF
:1031F00000000000000000000000000000000000CF
:1032000000000000000000000000000001000000BD
:0C32100010000000000000000024F4008A
:040000050800018965
:00000001FF
