:020000040800F2
:10000000680800209D0100085126000831210008E1
:10001000A925000809050008C130000800000000FB
:10002000000000000000000000000000F7270008AA
:10003000C905000800000000F52700082128000875
:10004000B7010008B7010008B7010008B7010008B0
:10005000B7010008B7010008B7010008B7010008A0
:10006000B7010008B7010008B7010008B701000890
:100070000D050008B701000819050008B7010008C0
:10008000B7010008B7010008B7010008B701000870
:10009000B7010008B7010008B7010008B701000860
:1000A000B7010008B7010008B7010008B701000850
:1000B00045290008B7010008B7010008B70100088A
:1000C000B7010008B7010008B7010008B701000830
:1000D000B7010008B7010008B7010008893000081F
:1000E000B7010008B7010008B7010008B701000810
:1000F000B7010008B7010008B7010008B701000800
:10010000B7010008B7010008B7010008B7010008EF
:10011000B7010008B701000851290008B70100081D
:10012000B7010008B7010008B7010008B7010008CF
:10013000B7010008B7010008B7010008B7010008BF
:10014000B7010008B7010008B7010008B7010008AF
:10015000B7010008B7010008B7010008B70100089F
:10016000B7010008B7010008B7010008B70100088F
:10017000B7010008B7010008B7010008000000003F
:10018000B7010008B7010008DFF80CD000F0AAF9A9
:10019000004800478531000868080020064880476D
:1001A00006480047FEE7FEE7FEE7FEE7FEE7FEE75C
:1001B000FEE7FEE7FEE7FEE7B92800088901000830
:1001C0002DE9F05F0546002092469B46884606468C
:1001D000814640241BE0284641464746224600F01F
:1001E00014F953465A46C01A914110D31146184685
:1001F000224600F0FBF82D1A67EB01084F46224615
:100200000120002100F0F2F817EB00094E41201EFA
:10021000A4F10104DFDC484631462A464346BDE8E6
:10022000F09F40EA01039B0703D009E008C9121FB1
:1002300008C0042AFAD203E011F8013B00F8013BA0
:10024000521EF9D27047D2B201E000F8012B491ECC
:10025000FBD270470022F6E710B513460A46044663
:100260001946FFF7F0FF204610BD2DE9F04D81EA59
:10027000030404F0004B21F0004514464FF0000A3F
:1002800023F0004150EA050220D054EA01021DD0BB
:10029000C5F30A570246C5F31303C1F31300C1F3B4
:1002A0000A5640F4801543F48013A7EB0608101B90
:1002B000D64608F2FD3873EB050002D308F10108B9
:1002C00001E092185B41B8F1000F03DA002001460B
:1002D000BDE8F08D00204FF48011064684460EE004
:1002E000171B73EB050705D3121B63EB05030643CE
:1002F0004CEA010C49084FEA300092185B4150EA81
:100300000107EDD152EA030012D082EA040083EA29
:100310000501084305D0101BAB4106D20122002382
:1003200006E000224FF0004302E06FF0010253109C
:100330001AEB06004CEB085110EB0A0041EB0B01E5
:10034000BDE8F04D00F071B80EB540F233410291B6
:100350000021CDE900110A460B4600F075F803B004
:1003600000BDC1F30A5210B5C1F3130140F2FF33CF
:1003700041F480119A4201DA002010BD40F233436B
:100380009A42A2F2334203DC524200F03EF810BD22
:10039000904010BD00F0004230F000400AD0C10D86
:1003A00001F56071C0F3160042EA0151C20840072E
:1003B00011437047002001467047000030B5041E0D
:1003C00071F1000404DB4FF00044404264EB010192
:1003D000141E73F1000405DB1C464FF0004352422B
:1003E00063EB04038B4208BF824230BD202A04DB4A
:1003F000203A00FA02F1002070479140C2F1200338
:1004000020FA03F3194390407047202A04DB203A76
:1004100021FA02F00021704721FA02F3D040C2F124
:100420002002914008431946704710B5141E73F11D
:10043000000408DA401C41F1000192185B411A43A4
:1004400001D120F0010010BD2DE9F04D92469B46F0
:1004500011B1B1FA81F202E0B0FA80F22032904696
:10046000FFF7C4FF04460F4640EA0A0041EA0B01C9
:1004700053465A46084313D0114653EA010019D097
:10048000C8F140025046FFF7C0FF05460E465046F1
:1004900059464246FFF7AAFF084305D0012004E071
:1004A00020463946BDE8F08D0020054346EAE07657
:1004B0002C4337430A986305E40AA0EB08000022A6
:1004C000FD0A44EA47540A3002D500200146E9E714
:1004D000010510196941DDE9084500196941BDE8C8
:1004E000F04DA2E7064C074D06E0E06840F001033E
:1004F00094E8070098471034AC42F6D3FFF748FE63
:10050000E835000808360008FEE70000014800F062
:10051000B7B80000A8030020014800F0B1B80000FF
:10052000080400200168CAB2103A1823B2FBF3F2A3
:10053000064B9B5CC3656FF30901032A02D9091DB1
:10054000816500E08165806D70470000C835000856
:1005500010B5014600208A6A8B694FF0C074002BE9
:100560000ED0B3F5005F1AD062B3012A2AD0022A56
:1005700028D0032A03D1C96AC90100D5012010BDC2
:100580001AB1012A06D0022AF9D1C96AC901F6D5E1
:10059000012010BDC96AA142FBD1012010BD52B19A
:1005A000012A0AD0022A06D0032AF7D1C96AA14239
:1005B000F4D1012010BD012010BDC96AC901FBD5CD
:1005C000012010BD012010BD704772B6FEE72DE975
:1005D000F0410446A76D00F095FA054694F8350001
:1005E0000026022806D08020606584F8346001204F
:1005F000BDE8F0812068016821F0160101602068E3
:10060000416921F080014161206C08B9A06C20B1E2
:100610002068016821F0080101602068016821F06C
:10062000010101600BE000F06DFA401B052806D9BE
:10063000202034342062032060702670D8E72068C0
:100640000068C007EFD134343F2094F82810884068
:10065000B8600120607026700020C9E790F835105E
:10066000022903D08021416501207047052180F8CF
:1006700035100068016821F0010101600020704719
:100680002DE9F84304464FF00009CDF800906F487B
:100690004FF416510068B0FBF1F7A56D2E6894F881
:1006A0005C00082202FA00F1314210D02068016893
:1006B00049070CD5016821F00401016094F85C0041
:1006C00002FA00F1A960606D40F00100606594F8E5
:1006D0005C104FF0010808FA01F0304208D02168A0
:1006E0004969090604D5A860606D40F002006065A4
:1006F00094F85C1004208840304208D021680968D2
:10070000890704D5A860606D40F00400606594F826
:100710005C1010208840304220D021680968090709
:100720001CD5A8602068016849030CD50068000347
:1007300004D4216C91B1204688470FE0A16C69B1C7
:10074000204688470AE00168C90503D4016821F002
:1007500008010160216C09B12046884794F85C10BB
:100760002020884030424CD021680968C90648D50D
:10077000A86094F8350005280BD02068016849036B
:1007800030D50068000328D4616C51B320468847F7
:1007900037E02068016821F0160101602068416996
:1007A00021F080014161206C08B9A06C20B1206863
:1007B000016821F00801016094F85C103F20884036
:1007C000A86084F8358084F83490216D00293BD0EE
:1007D00001B02046BDE8F0430847E16B09B120466F
:1007E00088470EE00168C90507D4016821F01001AF
:1007F000016084F8358084F83490E16B09B12046BB
:100800008847606D00281FD0606DC00714D0052098
:1008100084F835002068016821F00101016000982A
:10082000401C0090B84203D820680068C007F6D189
:1008300084F8358084F83490E16C002904D001B04C
:100840002046BDE8F0430847BDE8F8834C0000208F
:100850002DE9F041044600F055F905465CB102204F
:1008600084F83500002684F834602068016821F09F
:10087000010101600DE00120BDE8F08100F042F9C6
:10088000401B052805D920206065032084F8350029
:10089000F2E720680068C007F0D121680A682048A4
:1008A0000240D4E901031843D4E903352B4318432C
:1008B00063691843A3691843E3691843236A18431B
:1008C0001043626A042A03D1D4E90B231A4310436C
:1008D00008602068406920F00700656A29460543E2
:1008E000012704290DD1A06A0543E06A48B12046DA
:1008F000FFF72EFE28B14020606584F83570012096
:10090000BAE7206845612046FFF70CFE94F85C20AA
:100910003F2191408160666584F835700020ABE727
:100920003F8010F02DE9F84F0022DFF89C914FF046
:10093000010803274FF00F0C09F1040AA9F1040B79
:1009400008FA02F50B682B40AB426ED10C7904F02B
:100950000304012C01D0022C15D18668540007FA3B
:1009600004FE26EA0E06D1F80CE00EFA04FE4EEA6A
:10097000060EC0F808E04468AC430D79C5F30015D5
:100980009540254345600C79E443A40708D0C56829
:10099000540007FA04F6B5438E68A6402E43C6609D
:1009A0000C7904F00304022C11D1D40800EB840666
:1009B000356A5407E40E0CFA04FE25EA0E05D1F858
:1009C00010E00EFA04FE4EEA050EC6F820E00568B7
:1009D000540007FA04F6B5430E7906F00306A64064
:1009E0002E4306604C6814F4403F67D0374C2568AE
:1009F00045F480452560246804F480440094344C18
:100A000022F003052E19D6F8085894074FEA147EF1
:100A10000CFA0EF4A5432F4CA04201D1002424E08F
:100A20002D4CA04202D101241FE047E02B4CA042F4
:100A300001D1022419E02A4CA04201D1032414E080
:100A4000284CA04201D104240FE0274CA04201D140
:100A500005240AE0254CA04201D1062405E0244CDF
:100A6000A04201D1072400E0082404FA0EF42C432C
:100A7000C6F80848D9F800409C434D68ED0200D5FF
:100A80001C43C9F80040DAF800409C434D68AD02B1
:100A900000D51C43CAF80040DBF800409C434D6879
:100AA000AD0300D51C43CBF80040074D083D2C6832
:100AB0009C434E68F60300D51C432C60521C102A40
:100AC000FFF43EAFBDE8F88F083C014044380240D7
:100AD00000300140000002400004024000080240D3
:100AE000000C0240001002400014024000180240B6
:100AF000001C0240002A01D0816170470904816115
:100B000070470000014880687047000040000020E6
:100B100002488168027811448160704740000020DB
:100B200010B50B48016841F400710160016841F49F
:100B300080610160016841F480710160032000F070
:100B400071F80F2000F006F800F026F8002010BD24
:100B5000003C024070B504460D4D4FF47A71287880
:100B6000B1FBF0F00B490968B1FBF0F000F05EFB5F
:100B700008B1012070BD102C07D200222146501E62
:100B800000F030F86C60002070BD012070BD0000E6
:100B9000400000204C00002008B50A48016841F4DC
:100BA00080410160006800F4804000900548001F0B
:100BB000016841F080510160006800F080500090B1
:100BC00008BD000044380240002809DB00F01F0285
:100BD000012191404009800000F1E020C0F800119F
:100BE00070470000F0B40D460D4B1B68C3F30223A1
:100BF000C3F10704042C00D90424191D072901D2CC
:100C0000002300E0DB1E012606FA04F1491E2940FC
:100C100099409E40761E16403143F0BC02F051BA16
:100C20000CED00E000F00701054A10684FF6FF03E5
:100C3000184040EA01200349084310607047000053
:100C40000CED00E00000FA05BFF34F8F0548016886
:100C5000054A01F4E06111430160BFF34F8F00BF0B
:100C6000FDE700000CED00E00400FA052DE9F04777
:100C700004460D46002C13D0DFF82891D9F8000067
:100C8000EFB200F00700A8420CD289F80070D9F842
:100C9000000000F00700A84204D00120BDE8F08762
:100CA0000120FBE72068404E810712D5400703D59D
:100CB000306840F4E05030602078000703D5306899
:100CC00040F4604030603068A16820F0F0000843D4
:100CD00030602078C00731D0334960680839012876
:100CE00008D002280BD0032809D0096889070BD443
:100CF0000120D3E70968890306D40120CEE70968FB
:100D0000890101D40120C9E7316821F003010143C1
:100D10003160FFF7F7FE804641F2883A07E0FFF7BF
:100D2000F1FEA0EB0800504501D90320B6E730687A
:100D3000616800F00C00B0EB810FF0D1D9F8000031
:100D400000F00700A84209D989F80070D9F800001E
:100D500000F00700A84201D001209FE7207840075B
:100D600005D53068E16820F4E05008433060207811
:100D7000000706D53068216920F4604040EAC100D0
:100D8000306000F03FF83168084AC1F30311515C4C
:100D9000C8400749086007480068FFF7DBFE0020ED
:100DA0007CE70000003C024008380240D0350008D3
:100DB0004C000020440000200148006870470000FB
:100DC0004C00002000B5FFF7F7FF04490968044A0A
:100DD000C1F38221515CC84000BD000008380240C8
:100DE000E035000800B5FFF7E7FF04490968044A49
:100DF000C1F34231515CC84000BD000008380240D8
:100E0000E035000810B51748006810F00C011648CE
:100E100016D04310042912D0082911D1114C241FD7
:100E2000216801F03F02216849020AD52068C0F319
:100E30008810A0FB03010023FFF7C2F909E0184660
:100E400010BD21680023C1F38811A1FB0001FFF749
:100E5000B7F92168C1F30141491C4900B0FBF1F029
:100E600010BD0000083802400024F4002DE9F84FBE
:100E70000446002C13D02078DFF8A083C007A8F127
:100E8000040556D008F104000168C1F3810101296D
:100E90000CD00068C0F38100022803D00DE00120CF
:100EA000BDE8F88FD8F80000400206D52868800316
:100EB0003FD5606870BB0120F2E76068B0F5803F05
:100EC00010D0B0F5A02F12D0286820F48030286010
:100ED000286820F4802028606068E0B1FFF712FEE7
:100EE000064614E0286840F480302860F4E728685B
:100EF00040F480202860286840F480302860EBE7C8
:100F0000FFF700FE801B642801D90320C8E728688A
:100F10008003F5D50DE0FFF7F5FD064606E0FFF787
:100F2000F1FD801B642801D90320B9E728688003FC
:100F3000F5D42078BA4F80074FF0000948D5B7485C
:100F4000001D016811F00C0F08D00068C0F381008B
:100F5000022813D1D8F8000040020FD42868800777
:100F600004D5E068012801D0012099E728682169AB
:100F700020F0F80040EAC100286029E0E068B8B13C
:100F800001203860FFF7BEFD064606E0FFF7BAFD18
:100F9000801B022801D9032082E728688007F5D545
:100FA0002868216920F0F80040EAC10028600FE0BD
:100FB000C7F80090FFF7A6FD064606E0FFF7A2FD82
:100FC000801B022801D903206AE728688007F5D42E
:100FD0002078000729D5DFF844A2924861690AF118
:100FE000700A89B101210160FFF78CFD064606E019
:100FF000FFF788FD801B022801D9032050E7DAF8AB
:1010000000008007F4D510E0C0F80090FFF77AFDEB
:10101000064606E0FFF776FD801B022801D9032073
:101020003EE7DAF800008007F4D42078400778D54E
:101030004FF0000A79483C300068C0000BD4774874
:101040003C30016841F080510160006800F0805040
:1010500000904FF0010ADFF8D0B1DBF80000C005C6
:1010600014D4DBF8000040F48070CBF80000FFF7E8
:1010700049FD064606E0FFF745FD801B022801D921
:1010800003200DE7DBF80000C005F4D5634EA0682F
:101090006C3601280FD0052812D0306820F00100EE
:1010A0003060306820F004003060A068F8B1FFF7CD
:1010B00029FD834617E0306840F001003060F4E716
:1010C000306840F004003060306840F0010030606B
:1010D000EBE7FFF717FDA0EB0B0141F288308142EF
:1010E00001D90320DCE630688007F2D510E0FFF775
:1010F00009FD834609E0FFF705FDA0EB0B0141F276
:101100008830814201D90320CAE630688007F2D4D2
:10111000BAF1010F05D141483C30016821F08051FE
:101120000160A069C0B33D49091D09684FF0FF3651
:10113000C1F38101022946D0022805D0C7F860908A
:10114000FFF7E0FC04463AE0C7F86090FFF7DAFCEE
:10115000814607E0FFF7D6FCA0EB0900022801D981
:1011600003209DE628688001F4D4D4E907010843F0
:10117000616AA26A890106EB520241EA0241084310
:1011800094F82C1040EA0160C8F80000012038668D
:10119000FFF7B8FC044607E03DE0FFF7B3FC001B97
:1011A000022801D903207BE628688001F5D532E0CA
:1011B000FFF7A8FC001B022801D9032070E628686D
:1011C0008001F5D427E0012823D0D8F80000E26997
:1011D00000F4800191421AD1226A00F03F0191424D
:1011E00015D147F6C071626A0140B1EB821F0ED182
:1011F000A26A00F4403106EB5202B1EB024F06D175
:1012000094F82C1000F07060B0EB016F03D0012057
:1012100046E6012044E6002042E600000438024091
:1012200000004742800E47420070004010B5401E4B
:10123000B0F1807F01D3012010BD4FF0E024606148
:101240000F21601701F03DFF0020A0610720206101
:10125000002010BD7047704770B590F83C20012AFF
:1012600031D0012680F83C60022280F83D200268DF
:101270005468936824F070050C682C435460134C38
:101280000268A24214D0B2F1804F11D0104CA24299
:101290000ED0104CA2420BD00F4CA24208D00F4CE3
:1012A000A24205D00E4CA24202D00E4CA24204D162
:1012B00023F080034968194391603C304670002157
:1012C0000170002070BD022070BD000000000140D0
:1012D0000004004000080040000C004000040140F1
:1012E000004001400018004010B50446002C03D017
:1012F00094F83D0010B107E0012010BD002084F8F3
:101300003C00204600F016F8022084F83D00211D24
:10131000206801F023FB01203D3460726070A070F2
:10132000E07020716071A071E07120722070002067
:1013300010BD000008B50068164A1749904208D150
:10134000086840F008000860086800F00800009095
:1013500008BD124A904211D1086840F010000860A0
:10136000086800F010000090002201213620FFF7ED
:1013700039FCBDE808403620FFF726BC084A9042F9
:10138000E6D1086840F040000860086800F04000BE
:10139000009008BD000C00404038024000100040A2
:1013A0000018004090F83D10012901D0012070473D
:1013B000022180F83D100168CA6842F00102CA604B
:1013C00000681449884214D0B0F1804F11D01249FE
:1013D00088420ED0114988420BD01149884208D06A
:1013E0001049884205D01049884202D00F498842EE
:1013F00009D1816801F00701062908D0016841F090
:101400000101016003E0016841F001010160002079
:101410007047000000000140000400400008004048
:10142000000C004000040140004001400018004052
:1014300070B50446002594F83C00012817D0012619
:1014400084F83C60022084F83D002068826822F025
:10145000770222F47F4282600868502838D00DDC81
:10146000202853D005DC90B3102811D14EE0022083
:1014700070BD30284AD040280AD13DE0602831D0E4
:1014800070280CD0B0F5805F03D0B0F5005F12D0AB
:1014900001253C34667000202070284670BDCB6862
:1014A000D1E90121206801F0CCFA2068816841F07F
:1014B00077018160EDE7CB68D1E90121206801F077
:1014C000C0FA2068816841F480418160E1E71DE055
:1014D000CA684968206801F097FB5021206801F034
:1014E000BAFAD6E7CA684968206801F09EFB602115
:1014F000206801F0B0FACCE7CA684968206801F0BA
:1015000083FB4021206801F0A6FAC2E72268014669
:10151000104601F0A0FABCE72DE9F04104460D4663
:10152000002C03D094F83D0018B108E00120BDE87C
:10153000F081002084F83C00204600F047F80220AB
:1015400084F83D002068816844F20702914381607D
:10155000211D206801F002FA273454F8270C816815
:101560008269066A2B680B4340F203318A43AF69F4
:10157000A96842EA0722114340F60C4291434FF218
:10158000F0029143EF69EA6841EA07210A432969B9
:101590002F6A090141EA0731114326F0220222F0A5
:1015A00088066A686D6946EA05152A43836054F81F
:1015B000270C816154F8270C02620120E077E07566
:1015C0002076E0762077A0750020B0E7F0B587B0F0
:1015D0000446142102A8FEF73DFE5048216800256C
:1015E0004F4A022401264F4B81421ED14C481430F1
:1015F000016841F001010160006800F00100019004
:10160000106840F001001060106800F001000190C7
:101610004FF440700290039404950595069602A934
:101620001846FFF77FF907B0F0BD3D483E4F103038
:10163000B1F1804F1DD03D4B994250D1016841F02E
:1016400002010160006800F002000190106840F0A3
:1016500002001060106800F002000190302002903B
:10166000039404950594069402A93846FFF75AF9A5
:10167000D9E7016841F001010160006800F0010054
:101680000190106840F001001060106800F0010047
:101690000190106840F002001060106800F0020035
:1016A00001904FF40040029003940495059506962E
:1016B00002A91846FFF736F9082002900394049512
:1016C0000595069602A93846FFF72CF90022114627
:1016D0001C20FFF787FA1C20FFF776FAA3E7144BCC
:1016E0009942A0D1016841F004010160006800F056
:1016F00004000190106840F002001060106800F0D3
:1017000002000190C0200290039404950595069470
:1017100002A93846FFF706F985E7000000000140FE
:101720003038024000000240000402400004004043
:101730000008004070B5044614F83E0F6278237923
:1017400065793E3C0226002904D004290DD00128E9
:101750001CD115E0012801D1012B01D0012070BD61
:1017600084F83E6084F8426018E0012A01D1012D1E
:1017700001D0012070BD84F83F6084F843600DE023
:10178000012A03D1012B01D1012D01D0012070BD0F
:1017900004F83E6F6670267166713E3C91B1042973
:1017A00016D001220021206801F03EF90122042117
:1017B000206801F039F92068016841F001010160F9
:1017C000002070BD01220021206801F02DF9F2E710
:1017D00001220421206801F027F9ECE7704770B579
:1017E0000446206801694FF00005C943890716D4F3
:1017F000C168C943890712D4E91E0161012020771D
:1018000020688069800703D02046FFF7E7FF05E0E6
:10181000204600F0DFF8204600F06FF925772068B9
:101820000169C943490718D4C168C943490714D499
:101830006FF004010161022020772068806910F4B4
:10184000407F03D02046FFF7C9FF05E0204600F0A7
:10185000C1F8204600F051F9257720680169C94395
:10186000090717D4C168C943090713D46FF00801E9
:101870000161042020772068C069800703D02046DA
:10188000FFF7ACFF05E0204600F0A4F8204600F08A
:1018900034F9257720680169C943C90618D4C1689D
:1018A000C943C90614D46FF01001016108202077E4
:1018B0002068C06910F4407F03D02046FFF78EFFF8
:1018C00005E0204600F086F8204600F016F925775E
:1018D00020680169C943C90708D1C168C943C9075C
:1018E00004D1891E0161204600F0B4F92068016925
:1018F000C943090609D4C168C943090605D46FF074
:10190000800101612046FFF7A5FC20680169C943F9
:10191000490609D4C168C943490605D46FF040019E
:101920000161204600F0BEF920680169C9438906BB
:101930000BD4C168C943890607D46FF02001016147
:101940002046BDE87040FFF786BC70BD10B586B07C
:101950000446142101A8FEF77DFC2068184C0022E3
:1019600018490223A04213D1086840F00100086022
:10197000086800F0010000900F200190029303928C
:101980000492059301A91048FEF7CCFF06B010BDE4
:101990000E4CA042FAD1086840F0020008600868C6
:1019A00000F002000090E000019002930392049284
:1019B0000920059001A90648FEF7B4FFE6E70000FC
:1019C000000C004030380240000002400018004087
:1019D00000040240704770B504460D46002694F896
:1019E0003C0001280FD0012084F83C006AB1042A91
:1019F0001FD0082A32D00C2A44D00126002084F8B7
:101A00003C00304670BD022070BD2946206801F0C0
:101A10002BF82068816941F00801816120688169A3
:101A200021F004018161206881692A691143816183
:101A3000E4E72946206801F04BF82068816941F409
:101A4000006181612068816921F480618161206881
:101A500081692A6941EA02218161CFE7294620682C
:101A600001F070F82068C16941F00801C161206887
:101A7000C16921F00401C1612068C1692A6911436B
:101A8000C161BBE72946206801F094F82068C1696C
:101A900041F40061C1612068C16921F48061C161C4
:101AA0002068C1692A6941EA0221C161A6E710B52F
:101AB0000446002C03D094F83D0010B107E001204B
:101AC00010BD002084F83C00204600F015F80220EC
:101AD00084F83D00211D206800F040FF01203D34C6
:101AE00060726070A070E07020716071A071E07130
:101AF00020722070002010BD7047704710B504465A
:101B0000002909D004290AD008290BD094F84100F3
:101B100001280AD0012010BD94F83E00F8E794F89F
:101B20003F00F5E794F84000F2E70220A9B304294A
:101B300037D0082938D084F841000122206800F00D
:101B400073FF1E4920681E4A884201D0904203D18B
:101B5000436C43F4004343642068884213D0B0F1DF
:101B6000804F10D0174988420DD0174988420AD0BB
:101B70001649884207D0904205D01549884202D0C4
:101B80001449884213D1816801F00701062912D057
:101B9000016841F0010101600DE0FFE784F83E00BB
:101BA000CBE784F83F00C8E784F84000C5E7016848
:101BB00041F001010160002010BD00000000014063
:101BC000000401400004004000080040000C0040F8
:101BD000004001400018004030B504460D46002288
:101BE0002946206800F020FF184A41F211112068B0
:101BF0008B10904202D0164A904209D1026A0A42E2
:101C000006D1026A1A4203D1426C22F400424264B5
:101C10002068026A0A4206D1016A194203D10168AA
:101C200021F00101016001203DB1042D08D0082DF3
:101C300009D084F84100002030BD84F83E00FAE766
:101C400084F83F00F7E784F84000F4E70000014023
:101C50000004014010B504460E492068884206D1B0
:101C60000D4890ED000AB8EEC00A00F09FFC206815
:101C7000B0F1804F08D1094800680068C1060848E3
:101C800003D50188491E018010BD0188491C0180CF
:101C900010BD00000010004038000020B4010020FA
:101CA000340000207047704770470000F8B50446C4
:101CB00022681068D168536900F00F06002E08D121
:101CC000850606D58D0604D52046BDE8F84001F00E
:101CD00065B80025002E67D003F0010601F4907767
:101CE000374361D0C20705D0CA0503D5226C42F044
:101CF00001022264420705D5DA0703D0226C42F0C4
:101D000002022264820705D5DA0703D0226C42F072
:101D100004022264020707D501F02002324303D0F7
:101D2000226C42F008022264226C002A32D0800623
:101D300004D5880602D5204601F030F820684069B5
:101D4000C0F38010216C01F00801014327D0204628
:101D500000F0F0FF2068406940061CD52068143070
:101D600050E8001F21F0400140E80012002AF5D1A0
:101D7000A06B60B156490165A06BFEF76FFC0028AF
:101D800008D0A06B016D01B0BDE8F04008472046C7
:101D9000FFF78AFFF8BD2046FFF786FFF8BD204613
:101DA000FFF782FF2564F8BD236B012B7ED1C306AC
:101DB0007CD5CB067AD510685068009050694FF0FA
:101DC0002003400643D5A16B0868406880B2002814
:101DD000E9D0A28D8242E6D9E085C869B0F5807F5E
:101DE0002DD020680C3050E8001F21F4807140E8AD
:101DF0000012002AF5D12068143050E8001F21F0AD
:101E0000010140E80012002AF5D12068143050E8A2
:101E1000001F21F0400140E80012002AF5D184F8AB
:101E20003E30256320680C3050E8001F21F010017F
:101E300040E80012002AF5D1A06BFEF7C8FBA08D88
:101E4000E18D401A81B22046FFF72DFFF8BDA08D2D
:101E5000E18D401A81B2E08D0028F7D00029F5D03D
:101E600020680C3050E8002F22F4907240E80026E1
:101E7000002EF5D12068143050E8002F22F0010226
:101E800040E80026002EF5D184F83E302563206816
:101E90000C3050E8002F22F0100240E80023002B05
:101EA000F5D12046FFF7FFFEF8BDFFE7020606D595
:101EB0000A0604D52046BDE8F84001F07BB840068C
:101EC000F2D54806F0D52046BDE8F84000F059BFED
:101ED000252D000870B50446002C04D094F83D0070
:101EE000002510B106E0012070BD84F83C5020466A
:101EF00000F022F8242084F83D002068C16821F415
:101F00000051C160204600F0ADFF2068016921F456
:101F1000904101612068416921F02A0141612068F6
:101F2000C16841F40051C1602564202084F83D005F
:101F300084F83E00002070BD2DE9F04186B00546D2
:101F4000142101A8FEF786F930492868884259D142
:101F500000262F48016841F480210160006800F4E8
:101F6000802000902A481038016841F00201016089
:101F7000006800F0020000904FF4406001900220E1
:101F80000290039604900720059001A92148FEF7CE
:101F9000C9FC224C204820604FF00068C4F804803F
:101FA000A660E660071527616661A6618015E0619D
:101FB000266266622046FEF74BFC08B1FEF705FB81
:101FC000AC63A5631448154C303060342060C4F80D
:101FD00004804020A060E66027616661A661E6613A
:101FE000266266622046FEF733FC08B1FEF7EDFA82
:101FF0006C63A563002211462720FEF7F3FD27201E
:10200000FEF7E2FD06B0BDE8F081000000480040A8
:10201000403802400004024028600240A80300202B
:1020200090F83E30202B01D00220704759B152B1B8
:1020300090F83C30012B08D0012380F83C3000237D
:10204000036300F099BF0120704702207047000031
:1020500000680449884204D1182203490348FFF765
:10206000DFBF704700480040E80000206403002004
:102070002DE9F84304460E4615461F4694F83D00E8
:10208000202802D00220BDE8F883C6B1BDB194F883
:102090003C00012815D0012084F83C004FF00009D5
:1020A000C4F84090212084F83D00FEF72BFD8046C7
:1020B000A584E584A068B0F5805F04D005E0012028
:1020C000E1E70220DFE7206920B13546002684F8E9
:1020D0003C9013E00025FAE7434600228021204689
:1020E000009700F096FF08B10320CCE79DB121686E
:1020F00015F8010B4860E08C401EE084E08C00285D
:10210000EAD14346002240212046009700F081FF9B
:1021100040B10320B7E736F8020B2168C0F308008E
:102120004860E8E7202084F83D000020ABE77047D6
:10213000FEE7000008B50D48016841F40011016098
:10214000006800F400100090002202210C20FEF72D
:1021500049FD0C20FEF738FD002202210E20FEF77B
:1021600041FDBDE808400E20FEF72EBD303802408C
:102170002DE9F04186B0142101A8FEF76BF8002488
:102180002648016841F010010160016801F010016A
:102190000091016841F004010160016801F004014F
:1021A0000091016841F080010160016801F0800147
:1021B0000091016841F001010160016801F0010135
:1021C0000091016841F002010160006800F0020026
:1021D0000090DFF84C804FF42665002229464046E7
:1021E000FEF788FC0F4F4FF4407600223146384608
:1021F000FEF780FC0195012502950394049401A942
:102200004046FEF78FFB019602950394049401A9C2
:102210003846FEF787FB06B0BDE8F0813038024053
:10222000001002400004024010B58CB00024089455
:1022300009940A940B941C2101A8FEF70BF81E4880
:102240001C49016053214160846044F61F61C160F4
:1022500004618461FFF748F808B1FEF7B6F94FF45E
:102260008050089008A91448FFF7E2F808B1FEF77B
:10227000ACF91148FFF71BFC08B1FEF7A6F9602086
:102280000190029403940594002201A90A48FFF7E3
:10229000A2FB08B1FEF799F9042201A90648FFF74D
:1022A0009AFB08B1FEF791F90348FFF74FFB0CB01A
:1022B00010BD0000001800401C03002010B58CB0B9
:1022C000242103A8FDF7C6FF0024019402941548B9
:1022D00013490160446084604FF6FF71C16004617E
:1022E000446184610120039004940590069407944E
:1022F000089409900A940B9403A90A48FFF70CF973
:1023000008B1FEF762F90194029401A90548FEF7AD
:10231000A3FF002801D0FEF758F90CB010BD000053
:10232000000001406C01002010B58CB0242103A8EE
:10233000FDF790FF00240194029413484FF0804170
:10234000016044608460611EC16004618461012099
:1023500003900494059006940794089409900A94B5
:102360000B9403A90848FFF7D7F808B1FEF72DF939
:102370000194029401A90448FEF76EFF002801D0E1
:10238000FEF723F90CB010BDB401002010B58CB0DD
:10239000242103A8FDF75EFF002401940294154850
:1023A0001349016053214160846044F61F61C1609C
:1023B00004618461012003900494059006940794BD
:1023C000089409900A940B9403A90A48FFF7A4F80B
:1023D00008B1FEF7FAF80194029401A90548FEF746
:1023E0003BFF002801D0FEF7F0F80CB010BD000054
:1023F00000040040FC01002010B58CB0242103A88B
:10240000FDF728FF00240194029415481349016048
:10241000446084604FF6FF71C160046184610120F3
:1024200003900494059006940F2107910894099055
:102430000A940B9103A90A48FFF76EF808B1FEF75A
:10244000C4F80194029401A90548FEF705FF00288D
:1024500001D0FEF7BAF80CB010BD00000008004033
:102460004402002010B58EB000240A940B940C9402
:102470000D94089409941C2101A8FDF7EBFE2A484D
:102480002849016053214160846040F2E731C16016
:1024900004618461FEF728FF08B1FEF796F84FF457
:1024A00080500A900AA92048FEF7C2FF08B1FEF743
:1024B0008CF81D48FFF7FBFA08B1FEF786F8089480
:1024C000099408A91848FEF7C7FE08B1FEF77DF881
:1024D00060200190029403940594002201A91248FF
:1024E000FFF779FA08B1FEF770F8042201A90E4847
:1024F000FFF771FA08B1FEF768F8082201A90A4847
:10250000FFF769FA08B1FEF760F80C2201A9064846
:10251000FFF761FA08B1FEF758F80348FFF716FA1B
:102520000EB010BD000C00408C0200201CB5002431
:10253000009401940D480C49016040F28F614160A4
:1025400084603121C1608461FEF7CEFE08B1FEF7E0
:102550003CF80094019469460448FEF77DFE00288B
:1025600001D0FEF732F81CBD00100040D40200205C
:1025700010B50C480A4901604FF4E1314160002177
:102580008160C16001610C2242618161C161FFF71C
:10259000A1FC002803D0BDE81040FEF716B810BD1E
:1025A0000048004064030020FEE7000010B5244C02
:1025B0002078012842D123480068406A22494FF020
:1025C000FF32B1F90010A1FB021240186062E06214
:1025D000F0EE400A00EE100A1C48B8EEC00A00F007
:1025E00039F884ED0A0AB5EEC00AF1EE10FA0DDDF5
:1025F000BCEEC00A10EE100A81B26180002000F02B
:10260000FBF80021042000F0F7F80EE0B1EE400ADC
:10261000BCEEC00A10EE100A60800021084600F0EF
:10262000EBF86188042000F0E7F8054A01232C321A
:10263000BDE810401946022000F090BF10BD000018
:1026400000000020B4010020340000200001002020
:10265000FEE7000010B504462DED048B84ED080A5A
:10266000C4ED050A30EEC09A84ED0B9A94ED150A7C
:10267000B5EEC00AF1EE10FA19D010EE100AFDF70F
:1026800089FE41EC180B19EE100AFDF783FE41ECB0
:10269000100B00F026FD53EC182B51EC100BFDF73E
:1026A0008DFE04D29FED520ABDEC048B10BD216E4D
:1026B00004F13400032902D0042937D076E0D4EDA8
:1026C000000A94ED0B0A60EE800AC4ED0C0AD4ED0A
:1026D0000D0A94ED011A41EE000AC4ED0D0AD4ED85
:1026E0000A0A30EE600AD4ED020A20EE200A84EDD8
:1026F0000E0A94ED170A00F00DFD94ED0C0AD4EDCE
:102700000D0AB7EE001A01EE200AD4ED0E0A30EEE3
:10271000200A84ED0F0A94ED160A04F13C0000F043
:10272000F9FC94ED0F0A84ED100A3FE094ED0B0ADA
:10273000D4ED0A0AD4ED001A30EE601A21EE211A07
:1027400084ED0C1A94ED011A21EE001A84ED0D1A95
:10275000B0EE001A00EEC10AD4ED090A30EE200AEC
:10276000D4ED020A20EE200A84ED0E0A94ED170A39
:1027700000F0D0FC94ED0C0AD4ED0D0A30EE200AE6
:10278000D4ED0E0A30EE200A84ED110AD4ED130ABE
:1027900030EE800A84ED120A94ED160A04F1480026
:1027A00000F0B8FC94ED120A84ED130A94ED0A0AC5
:1027B00084ED090A94ED0B0A84ED0A0A94ED070AE8
:1027C00084ED060A94ED080A84ED070A94ED040AE4
:1027D00084ED030A94ED050A84ED040A206E0328B3
:1027E00002D094ED120A5FE794ED0F0A5CE7000057
:1027F0000000000070477047084A0028126807D0A0
:10280000042807D0082807D00C2800D1116470478D
:102810005163704791637047D16370478C02002009
:10282000FEF776B930B593B0302107A8FDF712FD59
:10283000142102A8FDF70EFD00251D48016841F096
:1028400080510160006800F08050019019480168D3
:1028500041F480410160006800F480400190012053
:1028600007900004089002240D9480010E9004202B
:102870000F90A82110911194129007A8FEF7F6FA74
:1028800008B1FDF7A2FE0F200290039404954FF4C7
:10289000A05005904FF480500690052102A8FEF745
:1028A000E5F9002801D0FDF790FE13B030BD00001F
:1028B00040380240007000400248016841F4700155
:1028C0000160704788ED00E00EB500F0C1F900F03E
:1028D000EDFB00F011FA00F0EFF9B0EE083ADFED91
:1028E000132AB2EE042ADFED121AB0EE001ADFED61
:1028F000110A9FED110A0321104800F070FC0F48E7
:1029000090ED000A8DED000A90ED010A8DED010AAF
:1029100090ED020A8DED020A03236A460121184652
:1029200000F01CFE0649002008600EBD00401C4659
:10293000000048420000484300C0794400010020E4
:102940003C0000200148FEF74ABF0000B40100200F
:102950000148FEF744BF0000D40200202DE9F041F9
:102960000268264D264E274FDFF89CC0274B4FF0BC
:102970008048A84209D0404507D0B04205D0B842AF
:1029800003D0604501D0984203D122F070044A6818
:102990002243A8421BD0404519D0B04217D0B842BC
:1029A00015D0604513D0984211D0194CA0420ED0DA
:1029B000184CA0420BD0184CA04208D0174CA04293
:1029C00005D0174CA04202D0164CA04203D122F4ED
:1029D0004074CA6822434C6922F08002224302609C
:1029E0008A68C2620A688262A84201D0984201D114
:1029F0000969016301214161BDE8F08100000140E6
:102A00000004004000080040000C004000040140A9
:102A100000400140004401400048014000180040CF
:102A2000001C00400020004010B501F01F010123F0
:102A30008B40046A9C430462036A8A401343036226
:102A400010BD10B5846824F47F4442EA03220A438F
:102A50002243826010BD826822F070020A4342F075
:102A60000701816070470000F0B5026A22F00102A0
:102A70000262026A4368846924F0700424F003054A
:102A80000C682C4322F002058A682A430E4E0F4F31
:102A9000B04201D0B84205D122F00805CA682A43E5
:102AA00022F00402B04201D0B84207D123F480736F
:102AB00023F400734D691D438B692B43436084618C
:102AC000496841630262F0BD00000140000401401A
:102AD000F0B5026A22F010020262036A4268846959
:102AE00024F4E04424F440740D6844EA052423F0FF
:102AF00020038D6843EA0513104D114EA84201D002
:102B0000B04206D123F08003CF6843EA071323F0D5
:102B10004003A84201D0B04209D122F4806222F4DD
:102B200000624D6942EA85028D6942EA850242608F
:102B30008461496881630362F0BD000000000140C8
:102B400000040140F0B5026A22F480720262026A57
:102B50004368C46924F0700424F003050C682C4316
:102B600022F400728D6842EA0522104D104EA842F0
:102B700001D0B04206D122F40062CF6842EA0722B7
:102B800022F48062A84201D0B04209D123F48053DC
:102B900023F400534D6943EA05138D6943EA051395
:102BA0004360C4614968C1630262F0BD0000014036
:102BB0000004014030B5026A22F480520262046AC5
:102BC0004268C36923F4E04323F440730D6843EA89
:102BD000052324F400548D6844EA0534084DA842C6
:102BE00002D0084DA84204D122F480424D6942EA45
:102BF00085124260C36149680164046230BD00000F
:102C0000000001400004014010B5036A046A24F08A
:102C100001040462846924F0F00444EA021423F0FD
:102C20000A020A438461026210BD10B5036A23F0F0
:102C3000100303628469036A24F4704444EA023294
:102C400023F0A00343EA01118261016210BD00007C
:102C500010B50A490020087008210948FEF7BCFF9A
:102C60000C210748FEF7B8FF00210548FEF7B4FF26
:102C7000BDE8104004210248FEF7AEBF000000206E
:102C80008C02002010B50A4901200870082109486B
:102C9000FEF734FF0C210748FEF730FF00210548FE
:102CA000FEF72CFFBDE8104004210248FEF726BFC6
:102CB000000000208C02002008B50C48FEF772FBD3
:102CC0000A480068C06A401CFDF73EFB9FED081BE8
:102CD00053EC112BFDF7C9FAFDF743FB00900123DC
:102CE0006A461946062000F039FC08BDD4020020CF
:102CF000000000000000494010B53C210748FEF7E5
:102D000019FD3C210648FEF715FD0549002009681C
:102D1000486202490968486210BD00006C01002049
:102D2000B401002010B5806B0021C185C184FEF77D
:102D3000BBFF10BD01680C3151E8002F22F49072E6
:102D400041E80023002BF5D10168143151E8002F30
:102D500022F0010241E80023002BF5D1016B01298B
:102D600009D101680C3151E8002F22F0100241E82E
:102D70000023002BF5D1202180F83E1000210163B3
:102D8000704710B50168CA6822F04002CA6020216D
:102D900080F83D10FFF7CBF9002010BD08B590F882
:102DA0003E10222901D0022008BD82684FF48053D2
:102DB0009A4201D1016921B1816A9A421DD052B172
:102DC0000BE0816A02685268C2F308020A80816AD5
:102DD000891C816209E002697AB10268526802F0D6
:102DE0007F020A70816A491C8162C18D491E0904F3
:102DF000090CC18505D0002008BD026852680A7020
:102E0000F0E70168CA6822F02002CA600168CA6857
:102E100022F48072CA6001684A6922F001024A61A4
:102E2000202180F83E10016B012903D0FFF710F933
:102E3000002008BD0021016301680C3151E8002F1A
:102E400022F0100241E80023002BF5D101680A6846
:102E5000D20602D50A6849680091818DFEF723FFEA
:102E6000E6E700002DE9F041044620680169E268C8
:102E700021F4405111430161A1682069E2690143D5
:102E80006069104301432068C26849F20C639A43A9
:102E90000A43C26020684169A26921F4407111436C
:102EA000416133492068884202D03249884202D1C8
:102EB000FDF798FF01E0FDF785FFE1690023192781
:102EC00064253226B1F5004F28D061688B0F8A0047
:102ED000A0FB0701FDF774F90146B0FBF5F07A425B
:102EE000504301EB800006EB0010B0FBF5F000F062
:102EF000F002B1FBF5F002EB0012B1FBF5F07B4202
:102F0000584301EB800006EB0010B0FBF5F02168A0
:102F100000F00F0010448860BDE8F08161684A1835
:102F2000A0FB07015B41FDF74BF90146B0FBF5F053
:102F30000201B1FBF5F06FF01803584301EB80007C
:102F400006EBC000B0FBF5F000F0F80002EB400229
:102F5000B1FBF5F0584301EB800006EBC000B0FB7D
:102F6000F5F0216800F0070010448860D4E7000005
:102F7000001001400014014081628285C285002159
:102F80000164222280F83E2080F83C10016900296B
:102F900004D00168CA6842F48072CA6001684A6954
:102FA00042F001024A610068C16841F02001C1603D
:102FB0000020704790F83D10212901D00220704771
:102FC0008168B1F5805F01D1016961B1016A4A1C74
:102FD0000262026809785160C18C491E0904090C1B
:102FE000C1840AD013E0016A02680988C1F30801AC
:102FF0005160016A891C0162EEE70168CA6822F02B
:103000008002CA600068C16841F04001C1600020D0
:1030100070472DE9F04104460E4617469846069D36
:1030200025E0681C23D02DB1FDF76CFDA0EB080056
:10303000A8421CD920680C3050E8001F21F4D07140
:1030400040E80012002AF5D12068143050E8001F33
:1030500021F0010140E80012002AF5D120203C3483
:103060006070A070002020700320BDE8F08120680F
:10307000006836EA000004D00020B842D1D0002019
:10308000F3E70120F9E7000008B507480068406849
:1030900000900121684600F0B9F800F075F9024887
:1030A000FEF704FE08BD0000640300201822024958
:1030B0000248FEF7B5BF0000E800002064030020CE
:1030C000FEE70907090E002804DB00F1E02080F884
:1030D0000014704700F00F0000F1E02080F8141D8C
:1030E00070472DED020B019820F0004001909DEDFE
:1030F000000B02B0704702E008C8121F08C1002A86
:10310000FAD170477047002001E001C1121F002A68
:10311000FBD17047D0ED000AF4EEC00AF1EE10FAD0
:1031200001DD80ED000AD0ED000AB1EE400AF4EEB8
:10313000C00AF1EE10FA01D280ED000A704703E0F8
:1031400011F8013B1844C0B2521ED2B2F8D27047F7
:103150001144491ECA1701EB526222F07F02891AFC
:10316000405C70474A1D02F07F02891D01F07F011B
:10317000825C405C42EA00207047093101F07F0127
:10318000405C704708B547F230500090FDF7C8FC2E
:10319000FFF748FB00F0ECF8FEF7EAFFFEF7CAFF86
:1031A000FFF72AF9FFF740F8FFF7BEF8FFF7E0F95D
:1031B000FFF7BCF9FFF756F9FFF7E8F8FFF77EF8DD
:1031C000FFF782FB00231A460121052000F0C6F913
:1031D00001236A461946184600F0C0F9FEE7C0ED23
:1031E000170A80ED160A016680ED001AC0ED011A7B
:1031F00080ED022AC0ED142A80ED153A704780ED6B
:10320000000AC0ED010A80ED021A704738B5034686
:103210000D46064C00958021E288206800F082F976
:10322000A079284400F07F00E08038BD5C000020D9
:103230002DE9F04780460F46FF264FF000094B4D21
:103240008021EB88AA88288900F05EF984B2092CD5
:1032500002D23046BDE8F087688908BBAA882346B9
:103260008021286800F01CF900B200280CDB012145
:10327000698182B2AA80EB882889802100F044F914
:1032800009280DDA3046E5E7A888E41E0119C817B9
:1032900001EB506020F07F00081AA8803046D9E783
:1032A000288940B9A9882868FFF75CFF2881A042D7
:1032B00001D93046CEE72889AA888118491E80297D
:1032C00011DD28688118C2F18000C2B24846FFF7BC
:1032D00036FF297A2A7911448139CAB22968FFF761
:1032E0002EFF044607E02968401E1144C2B248463A
:1032F000FFF725FF04462A89A9882868FFF728FFD9
:10330000A04228D1A8882A898118802910D9C0F123
:1033100080018CB22968224601444046FCF781FFB7
:1033200028892968021B08EB0400FCF77AFF04E0F7
:10333000296801444046FCF774FF28893880A98831
:103340002868FFF71AFF06462879297A084400F012
:103350007F00A88004E02879401C00F07F00A8804E
:10336000002028816881304674E700005C0000205E
:1033700004480021016141611830A0F10C0108608E
:10338000002070475000002030B5A1B00020009010
:10339000441E694601A8FFF74BFF13285AD006DCEC
:1033A00010280FD0112841D0122806D14FE0142840
:1033B00053D0152854D0FF2802D0204621B030BD6C
:1033C0002046FBE79DF80E009DF811109DF80F2098
:1033D00040EA01609DF81010090441EA0221084307
:1033E0009DF812109DF815209DF8133041EA0261F6
:1033F0009DF81420120442EA032211439DF816207E
:103400009DF819309DF8175042EA03629DF8183074
:103410001B0443EA05231A4300EE100A00EE901A3B
:1034200001EE102A1B48FFF7EAFEB2E79DF80E00F6
:103430009DF811109DF80F2040EA01609DF81010D2
:10344000090441EA0221084313490860A1E7FFF794
:1034500019FC9EE7FFF7FCFB9BE7FDF7F5FB98E700
:103460009DF80E009DF811109DF80F2040EA0160B4
:103470009DF81010090441EA0221084300EBC00145
:1034800001EB0010054904EB40000A68D062C860F7
:103490007FE700000001002038000020D402002057
:1034A000F0B50024DB1E28E01519B5FBF1F601FB91
:1034B0001656875D6E1CB6FBF1FC01FB1C66865D33
:1034C00047EA0627AE1CB6FBF1FC01FB1C66ED1CAF
:1034D000B5FBF1FC01FB1C55865D455D360446EAF3
:1034E00005652F43074DAF4205D11019B0FBF1F22E
:1034F00001FB1200F0BD641CA4B29C42D4DB4FF06F
:10350000FF30F0BD535A485910B504469A4202D8CC
:10351000981A80B202E0881A184480B2844200D916
:10352000002010BD2DE9F0410746069D1E465319A7
:10353000B8188B420CD9891A8CB222463146FCF756
:1035400070FE2A1B31193846BDE8F041FCF769BE10
:103550002A463146BDE8F041FCF763BEF8B50D469A
:1035600016460021009199060C0E1449124A0A6071
:1035700004F10B02C1F805200D7148720A220020E7
:10358000FFF7DDFD009022463146FFF7D8FD0090A1
:103590000B4D0A222B4609490A48FEF769FD2B46C6
:1035A000224631460748FEF763FD2B460122694655
:1035B0000448FEF75DFDF8BD535A485950000020FD
:1035C000FFFF0F006403002000061016000610160F
:1035D00000000000000000000102030406070809C3
:1035E000000000000102030408360008000000206B
:1035F00050000000F6300008583600085000002047
:10360000180800000631000800000000DC0500007A
:1036100000000000000000000000000000000000AA
:10362000000000000000000000000000000000009A
:10363000000000000000000000000000000000008A
:103640000000000000000000010000001000000069
:08365000000000000024F4005A
:040000050800018965
:00000001FF
