:020000040800F2
:10000000580B00209D010008012F00086D280008F2
:10001000FD2E0008F9020008ED3C00080000000079
:100020000000000000000000000000005331000844
:100030002704000800000000513100085531000875
:10004000B7010008B7010008B7010008B7010008B0
:10005000B7010008B7010008B7010008B7010008A0
:10006000B7010008B7010008B7010008B701000890
:10007000FD020008B70100080D030008B7010008E1
:10008000B7010008B7010008B7010008B701000870
:10009000B7010008B7010008B7010008B701000860
:1000A000B701000825320008B7010008B7010008B1
:1000B00035320008B7010008B7010008B701000891
:1000C000B7010008B7010008B7010008B701000830
:1000D000B7010008B7010008B7010008593C000843
:1000E000B7010008B7010008B7010008B701000810
:1000F000B7010008B7010008B7010008B701000800
:10010000B7010008B7010008B7010008B7010008EF
:10011000B7010008B701000845320008B701000820
:10012000B7010008B7010008B7010008B7010008CF
:10013000B7010008B7010008B7010008B7010008BF
:10014000B7010008B7010008B7010008B7010008AF
:10015000B7010008B7010008B7010008B70100089F
:10016000B7010008B7010008B7010008B70100088F
:10017000B7010008B7010008B7010008000000003F
:10018000B7010008B7010008DFF80CD000F0A2F8B2
:100190000048004755430008580B00200648804798
:1001A00006480047FEE7FEE7FEE7FEE7FEE7FEE75C
:1001B000FEE7FEE7FEE7FEE71132000889010008CE
:1001C0002DE9F05F0546002092469B46884606468C
:1001D000814640241BE0284641464746224600F01F
:1001E00069F853465A46C01A914110D31146184631
:1001F000224600F050F82D1A67EB01084F462246C0
:100200000120002100F047F817EB00094E41201EA5
:10021000A4F10104DFDC484631462A464346BDE8E6
:10022000F09F40EA01039B0703D009E008C9121FB1
:1002300008C0042AFAD203E011F8013B00F8013BA0
:10024000521EF9D27047D2B201E000F8012B491ECC
:10025000FBD270470022F6E710B513460A46044663
:100260001946FFF7F0FF204610BD30B50B4601469A
:1002700000202022012409E021FA02F59D4205D345
:1002800003FA02F5491B04FA02F52844151EA2F1EF
:100290000102F1DC30BD202A04DB203A00FA02F131
:1002A000002070479140C2F1200320FA03F3194364
:1002B00090407047202A04DB203A21FA02F0002106
:1002C000704721FA02F3D040C2F120029140084366
:1002D00019467047064C074D06E0E06840F0010300
:1002E00094E8070098471034AC42F6D3FFF750FF6C
:1002F000A44B0008C44B000800BFFEE710B502483D
:1003000000F000F910BD00009806002010B502486A
:1003100000F0F8F810BD0000F8060020014608784B
:1003200010381823B0FBF3F20848805CC865032A34
:1003300005D908686FF30900001D886503E00868A7
:100340006FF309008865886D70470000844B0008D2
:10035000014600208A6A8B69CBB932B1012A0DD0DF
:10036000022A03D0032A10D10EE000BFCB6A03F0AB
:100370008073B3F1807F00D1012007E0CB6AB3F135
:10038000C07F00D1012001E000E000BF34E08B69B4
:10039000B3F5005F1AD132B1012A07D0022A03D087
:1003A000032A11D10AE000BF01200EE0CB6A03F05E
:1003B0008073B3F1807F00D1012006E0CB6AB3F1F6
:1003C000C07F00D1012000E000BF15E032B1012A5A
:1003D00005D0022A04D0032A0CD103E000BF00BFDD
:1003E000012008E0CB6A03F08073B3F1807F00D175
:1003F000012000E000BF00BF704730B504682468EA
:1004000024F4802405682C60046863608468402CB0
:1004100004D10468A2600468E16003E00468A1609C
:100420000468E26030BD704772B600BFFEE770B589
:100430000446A56D00F054FB064694F835000228EA
:1004400008D08020606500BF002084F8340000BF21
:10045000012070BD2068006820F016002168086047
:100460002068406920F0800021684861206C08B94C
:10047000A06C28B12068006820F00800216808609E
:100480002068006820F001002168086010E000F09A
:1004900027FB801B05280BD920206065032084F8EA
:1004A000350000BF002084F8340000BF0320D0E7EF
:1004B0002068006800F001000028E8D194F85C1082
:1004C0003F208840A860012084F8350000BF00204C
:1004D00084F8340000BF00BFBBE7014691F8350047
:1004E000022803D08020486501207047052081F84C
:1004F00035000868006820F001000A6810600020DC
:10050000F3E70000F8B50446002000908C4800682E
:100510004FF41651B0FBF1F7A56D2E6894F85C10FE
:1005200008208840304098B12068006800F004003E
:1005300070B12068006820F004002168086094F819
:100540005C1008208840A860606D40F00100606584
:1005500094F85C1001208840304068B12068406900
:1005600000F0800040B194F85C1001208840A86041
:10057000606D40F00200606594F85C1004208840D3
:10058000304068B12068006800F0020040B194F883
:100590005C1004208840A860606D40F00400606535
:1005A00094F85C1010208840304078B320680068D0
:1005B00000F0080050B394F85C1010208840A86048
:1005C0002068006800F4802080B12068006800F492
:1005D000002028B9206CC8B12046216C884715E05E
:1005E000A06C98B12046A16C88470FE02068006895
:1005F00000F4807028B92068006820F008002168A5
:100600000860206C10B12046216C884794F85C107B
:10061000202088403040002865D02068006800F025
:10062000100000285FD094F85C1020208840A8605B
:1006300094F83500052828D12068006820F01600BD
:10064000216808602068406920F0800021684861C6
:10065000206C08B9A06C28B12068006820F0080060
:100660002168086094F85C103F208840A860012051
:1006700084F8350000BF002084F8340000BF206DEE
:1006800010B12046216D8847F8BD2068006800F44D
:10069000802080B12068006800F4002028B9606CD8
:1006A00010B12046616C88471DE0E06BD8B1204650
:1006B000E16B884717E02068006800F4807068B933
:1006C0002068006820F0100021680860012084F88C
:1006D000350000BF002084F8340000BFE06B10B18B
:1006E0002046E16B8847606D38B3606D00F0010013
:1006F000F0B1052084F835002068006820F0010082
:100700002168086000BF0098401C0090B84200D9E2
:1007100005E02068006800F001000028F3D100BF68
:10072000012084F8350000BF002084F8340000BFA9
:10073000E06C10B12046E16C884700BFA4E70000E0
:10074000880000202DE9F0410446002500F0C8F99A
:10075000074614B90120BDE8F081606A00B100BF0E
:10076000022084F8350000BF002084F8340000BF68
:100770002068006820F00100216808600AE000F0AD
:10078000AFF9C01B052805D920206065032084F837
:100790003500E0E72068006800F001000028EED195
:1007A0002068056821480540D4E901010843E16853
:1007B00008432169084361690843A1690843E16965
:1007C0000843216A08430543606A042803D1D4E939
:1007D0000B0108430543206805602068456925F042
:1007E0000705606A0543606A04280DD1A06A0543C5
:1007F000E06A48B12046FFF7ABFD28B140206065B4
:10080000012084F83500A6E7206845612046FFF7FF
:1008100085FD064694F85C103F208840B0600020BB
:100820006065012084F83500002094E73F8010F0D7
:100830002DE9F04704460D4616461F464FF00008C6
:10084000D4F8589000BF94F83400012802D1022057
:10085000BDE8F087012084F8340000BF94F835002B
:10086000012825D1022084F83500002060653B4630
:10087000324629462046FFF7C0FD94F85C103F2021
:100880008840C9F808002068006840F01600216818
:100890000860206C28B12068006840F008002168DA
:1008A00008602068006840F001002168086006E0E8
:1008B00000BF002084F8340000BF4FF0020840461B
:1008C000C6E7000070B5044600F00AF90646254662
:1008D000681C10B104480078054400BF00F000F91E
:1008E000801BA842FAD370BD84000020F8B50246F0
:1008F0000B460025002400200021D6E0012606FA40
:1009000001F51E6806EA0504AC4274D11E7906F0B2
:100910000306012E04D01E7906F00306022E13D121
:1009200090684F000326BE40B0434F00DE68BE40D3
:1009300030439060506801268E40B0431E79C6F364
:1009400000168E40304350601E7906F00306032ED9
:1009500009D0D0684F000326BE40B0434F009E68C8
:10096000BE403043D0601E7906F00306022E13D13C
:10097000CF0802F1200656F827004E07F70E0F2683
:10098000BE40B0434F07FF0E1E69BE403043CF0844
:1009900002F1200646F8270010684F000326BE40EB
:1009A000B0431E7906F003064F00BE40304310608E
:1009B0005E6806F44036002E76D000BF0026009612
:1009C0003C4E366846F480463A4F3E603E463668B6
:1009D00006F48046009600BF00BF374E8F0856F8D9
:1009E00027008E07370F0F26BE40B043334EB2426A
:1009F00002D1002624E057E0314EB24201D1012657
:100A00001EE0304EB24201D1022619E02E4EB24213
:100A100001D1032614E02D4EB24201D104260FE08D
:100A20002B4EB24201D105260AE02A4EB24201D134
:100A3000062605E0284EB24201D1072600E008262E
:100A40008F073F0FBE4030431B4E8F0846F82700EC
:100A5000224E3068A0435E6806F4801606B120433B
:100A60001E4E3060361D3068A0435E6806F40016E6
:100A700006B12043194E361D3060184E361F3068BF
:100A8000A0435E6806F4003606B12043134E361FBD
:100A90003060361F3068A0435E6806F4803606B1C9
:100AA00020430E4E083E3060491C1029FFF426AF4B
:100AB000F8BD000044380240083801400000024000
:100AC0000004024000080240000C024000100240F6
:100AD0000014024000180240001C0240083C014083
:100AE00001480068704700007C000020034800684F
:100AF0000349097808440149086070477C000020D8
:100B00008400002010B50D48006840F400700B49C7
:100B100008600846006840F4806008600846006885
:100B200040F480700860032000F0A6F80F2000F069
:100B300007F800F02BF8002010BD0000003C024038
:100B400070B504460E4800784FF47A71B1FBF0F0AE
:100B50000C490968B1FBF0F5284600F02FFC08B1FC
:100B6000012070BD102C07D200222146501E00F03B
:100B700045F80548046001E00120F2E70020F0E7B5
:100B800084000020880000208000002008B500BFFD
:100B9000002000900E48006840F480400C49086036
:100BA0000846006800F48040009000BF00BF00BF0E
:100BB00000200090081F006840F08050091F086066
:100BC0000846006800F08050009000BF00BF08BDDC
:100BD000443802400146084600280DDB00BF00BF34
:100BE00000F01F0301229A4043099B0003F1E02318
:100BF000C3F8002100BF00BF00BF70472DE9F05FC0
:100C000080460D461646002703F094F807463946FD
:100C10002A46334601F00700C0F1070ABAF1040F73
:100C200002D94FF0040A01E0C0F1070AD14600F1F1
:100C3000040ABAF1070F02D24FF0000A01E0A0F156
:100C4000030AD4464FF0010A0AFA09FAAAF1010A86
:100C50000AEA020A0AFA0CFA4FF0010B0BFA0CFB33
:100C6000ABF1010B0BEA030B4AEA0B0421464046A9
:100C700003F068F8BDE8F09F00BF00F00702064BE4
:100C800019684FF6FF031940044B0B4343EA022156
:100C9000014B196000BF70470CED00E00000FA0541
:100CA00070B504460D460CB9012070BD5848006867
:100CB00000F00700A84209D255490D7008460068A7
:100CC00000F00700A84201D00120EEE7207800F0F4
:100CD000020002281DD1207800F00400042805D16C
:100CE0004C48006840F4E0504A490860207800F021
:100CF0000800082805D14748006840F4604045498D
:100D000008604448006820F0F000A16808434149A9
:100D10000860207800F00100A8B36068012807D1BE
:100D20003C4808380068C0F34040B8B90120BCE72F
:100D30006068022802D06068032807D13548083867
:100D40000068C0F3406048B90120AEE73148083878
:100D50000068C0F3400008B90120A6E72D480068EC
:100D600020F00300616808432A490860FFF7B8FED5
:100D7000064609E0FFF7B4FE801B41F28831884245
:100D800002D9032091E707E02248006800F00C0038
:100D90006168B0EB810FEDD11D48006800F00700DD
:100DA000A84209D91A490D700846006800F00700EA
:100DB000A84201D0012078E7207800F00400042840
:100DC00007D11448006820F4E050E1680843114955
:100DD0000860207800F00800082808D10D48006855
:100DE00020F46040216940EAC1000A49086000F02F
:100DF0003FF808490968C1F30311074A515CC8402C
:100E00000649086006480068FFF79AFE00204CE794
:100E1000003C0240083802408C4B0008880000204B
:100E20008000002001480068704700008800002012
:100E300000B5FFF7F7FF04490968C1F38221034AAF
:100E4000515CC84000BD0000083802409C4B0008BF
:100E500000B5FFF7E7FF04490968C1F34231034ACF
:100E6000515CC84000BD0000083802409C4B00089F
:100E70002DE9F047002400250026A14625480068FA
:100E800000F00C0020B1042805D008283AD105E074
:100E9000DFF8849039E0DFF8849036E01D48001FC9
:100EA000006800F03F041B48001F006800F4800049
:100EB00078B11A481749091F0968C1F38811A0FBC6
:100EC00001700146224600233846FFF779F90546AE
:100ED0000EE011480F49091F0968C1F38811A0FBF2
:100EE00001700146224600233846FFF769F905469E
:100EF0000848001F0068C0F30140401C4600B5FBD5
:100F0000F6F902E0DFF8109000BF00BF4846BDE8E8
:100F1000F0870000083802400024F40000127A0034
:100F2000F8B504460CB90120F8BD207800F00100A6
:100F3000002874D0F948006800F00C0004280DD097
:100F4000F648006800F00C00082813D1F348001F91
:100F5000006800F48000B0F5800F0BD1EF4808382E
:100F60000068C0F34040002859D06068002856D17E
:100F70000120D9E700BF6068B0F5803F08D1E7489D
:100F80000838006840F48030E449083908601EE001
:100F90006068B0F5A02F0DD1E0480838006840F433
:100FA0008020DE49083908600846006840F4803037
:100FB00008600CE0D9480838006820F48030D74930
:100FC000083908600846006820F48020086000BFE7
:100FD000606890B1FFF784FD054606E0FFF780FDED
:100FE000401B642801D903209EE7CC4808380068DC
:100FF000C0F340400028F1D011E0FFF771FD054635
:1010000006E0FFF76DFD401B642801D903208BE744
:10101000C24808380068C0F340400028F1D1207869
:1010200000F0020002285FD1BC48006800F00C000C
:1010300058B1BA48006800F00C0008281CD1B74825
:10104000001F006800F48000B0B9B4480838006898
:10105000C0F3400020B1E068012801D0012063E71F
:10106000AE480838006820F0F800216940EAC10065
:10107000AA490839086037E0E06800B30120A849B0
:101080000860FFF72DFD054606E0FFF729FD401B30
:10109000022801D9032047E7A04808380068C0F3B8
:1010A00040000028F1D09D480838006820F0F80082
:1010B000216940EAC10099490839086014E000201C
:1010C00097490860FFF70CFD054606E0FFF708FDAD
:1010D000401B022801D9032026E790480838006801
:1010E000C0F340000028F1D1207800F00800082863
:1010F0002CD16069A8B101208A490860FFF7F0FC93
:10110000054606E0FFF7ECFC401B022801D903204E
:101110000AE782486C300068C0F340000028F1D034
:1011200014E000207F490860FFF7DAFC054606E07E
:10113000FFF7D6FC401B022801D90320F4E67748CC
:101140006C300068C0F340000028F1D1207800F036
:101150000400042870D1002770483830006800F07F
:10116000805090B900BF002000906C483830006873
:1011700040F080506949383108600846006800F046
:101180008050009000BF00BF01276748006800F44E
:101190008070B0B96448006840F4807062490860AB
:1011A000FFF79EFC054606E0FFF79AFC401B02286D
:1011B00001D90320B8E65C48006800F4807000287C
:1011C000F2D000BFA068012808D1544868300068F8
:1011D00040F001005149683108601DE0A068052811
:1011E0000DD14E486830006840F004004B4968312A
:1011F00008600846006840F0010008600CE04748BD
:101200006830006820F001004449683108600846F1
:10121000006820F00400086000BFA068A8B1FFF7D4
:101220005FFC054609E0FFF75BFC401B41F288319B
:10123000884202D9032077E626E038486830006803
:10124000C0F340000028EED013E0FFF749FC05464C
:1012500008E0FFF745FC401B41F28831884201D984
:10126000032061E62D4868300068C0F34000002884
:10127000EFD1012F07D129483830006820F0805085
:1012800026493831086000BFA069002845D02348AE
:10129000006800F00C0008285DD0A069022845D144
:1012A00000201F490866FFF71BFC054606E0FFF714
:1012B00017FC401B022801D9032035E617480838DF
:1012C0000068C0F340600028F1D1D4E90701084369
:1012D000616A40EA81110122A06AC2EB500041EA32
:1012E00000412C20005D41EA00600C49091F0860A4
:1012F00001200B490866FFF7F3FB054606E0FFF700
:10130000EFFB401B022801D903200DE603480838F3
:101310000068C0F340600028F1D049E0083802407E
:1013200000004742800E47420070004000202149E3
:101330000866FFF7D5FB054606E0FFF7D1FB401B2B
:10134000022801D90320EFE51B480068C0F3406084
:101350000028F2D12CE0A069012800D1E4E516486C
:10136000001D0668A069012820D006F48001E0690C
:1013700081421BD106F03F01206A814216D147F617
:10138000C0703040616AB0EB811F0FD106F440316C
:101390000122A06AC2EB5000B1EB004F06D106F06B
:1013A00070612C20005DB1EB006F01D00120BBE526
:1013B0000020B9E5000047420038024070B50446FD
:1013C0002546681EB0F1807F01D301200FE0681E22
:1013D0004FF0E02148610F214FF0FF3002F0B2FCE6
:1013E00000204FF0E021886107200861002070BDD7
:1013F0007047704710B50346002200BF93F83C00C9
:10140000012801D1022010BD012083F83C0000BF5B
:1014100022F0FF00CC6840EA040222F440708C689D
:1014200040EA040222F480604C6840EA040222F49C
:1014300000600C6840EA040222F480500C6940EA23
:10144000040222F400504C6940EA040222F4804075
:10145000CC6940EA04021868426400BF002083F8A7
:101460003C0000BF00BFCEE730B502460B4600BFD0
:1014700092F83C00012801D1022030BD012082F801
:101480003C0000BF022082F83D00106844681068EC
:10149000816824F070041868044310684460184D93
:1014A0001068A8421BD01068B0F1804F17D0154DBE
:1014B0001068A84213D0144D1068A8420FD0134DE5
:1014C0001068A8420BD0124D1068A84207D0114DE9
:1014D0001068A84203D0104D1068A84205D121F031
:1014E00080015868014310688160012082F83D0046
:1014F00000BF002082F83C0000BF00BFBDE7000035
:10150000000001400004004000080040000C0040C2
:1015100000040140004001400018004010B504469E
:101520000CB9012010BD94F83D0028B9002084F8C2
:101530003C00204600F026F8022084F83D00211DE2
:10154000206801F087FE012084F8460000BF84F87F
:101550003E0001213F200155402001554120015509
:1015600000BF00BF012084F8420043200155442001
:1015700001554520015500BF012084F83D000020A1
:10158000D0E7000038B504463849206888420FD1BA
:1015900000BF002000903648006840F00800344941
:1015A00008600846006800F00800009000BF5CE09A
:1015B00030492068884218D100BF002000902C4894
:1015C000006840F010002A4908600846006800F0F2
:1015D0001000009000BF00BF002204213620FFF75A
:1015E0000DFB3620FFF7F6FA3FE0234920688842DA
:1015F00011D100BF002000901D48001D006840F080
:1016000002001B49091D08600846006800F002003E
:10161000009000BF29E019492068884211D100BF1D
:10162000002000901248001D006840F480301049EE
:10163000091D08600846006800F48030009000BF73
:1016400013E00F49206888420FD100BF00200090AE
:101650000748006840F040000549086008460068F7
:1016600000F04000009000BF00BF38BD000C0040FB
:10167000403802400010004000040140004001409A
:1016800000180040014691F83D00012801D00120DA
:101690007047022081F83D000868C06840F00100F2
:1016A0000B68D8601A4B086898421BD00868B0F1E4
:1016B000804F17D0174B0868984213D0164B086814
:1016C00098420FD0154B086898420BD0144B08680D
:1016D000984207D0134B0868984203D0124B086811
:1016E00098420CD10868806800F00702062A0CD0E6
:1016F0000868006840F001000B68186005E00868A1
:10170000006840F001000B6818600020C0E700008E
:10171000000001400004004000080040000C0040B0
:101720000004014000400140001800402DE9F04154
:1017300004460D46002700BF94F83C00012802D162
:101740000220BDE8F081012084F83C0000BF0220A7
:1017500084F83D002068866826F0770626F47F46E8
:10176000206886602868502833D00CDC202850D0B0
:1017700004DC00284BD0102851D149E0302849D052
:1017800040284CD139E060282DD0702807D0B0F522
:10179000805F03D0B0F5005F41D10DE041E0D5E9B5
:1017A00002136A68206801F0DAFD2068866846F056
:1017B00077062068866034E0D5E902136A682068FD
:1017C00001F0CDFD2068806840F480402168886089
:1017D00027E0EA686968206801F0B2FE50212068BD
:1017E00001F0C8FD1DE0EA686968206801F0BBFEF1
:1017F0006021206801F0BEFD13E0EA686968206896
:1018000001F09EFE4021206801F0B4FD09E000BF18
:1018100000BF00BF2968206801F0ACFD01E001278E
:1018200000BF00BF012084F83D0000BF002084F805
:101830003C0000BF384684E72DE9F04104460D46E0
:1018400014B90120BDE8F08194F83D0028B90020CA
:1018500084F83C00204600F053F8022084F83D0054
:101860002068806844F20701884321688860211D50
:10187000206801F0EFFC2068D0F8088020688669B5
:101880002068076A286840EA080840F20330864367
:10189000A969A86840EA0120064340F60C40864347
:1018A0004FF2F0008643E969E86840EA0120064308
:1018B00028690001296A40EA0130064327F022071F
:1018C00027F088076969686840EA011007432068C3
:1018D000C0F808802068866120680762012084F8CB
:1018E000460084F83E0001213F200155012084F884
:1018F000420043200155012084F83D000020A1E76B
:1019000010B586B00446142101A8FEF7A3FC834954
:101910002068884238D100BF0020009080480068CD
:1019200040F001007E4908600846006800F00100B0
:10193000009000BF00BF00BF00200090784814381E
:10194000006840F0010076491439086008460068D4
:1019500000F00100009000BF00BF4FF44070019004
:10196000022002900020039004900120059001A91C
:101970006C48FEF7BBFF002211461920FFF73EF925
:101980001920FFF727F9C6E02068B0F1804F56D143
:1019900000BF002000906248001F006840F0010076
:1019A0005F49091F08600846006800F001000090C8
:1019B00000BF00BF00BF00200090594814380068E5
:1019C00040F001005649143908600846006800F0EC
:1019D0000100009000BF00BF00BF0020009008463B
:1019E000006840F0020008600846006800F002004D
:1019F000009000BF00BF4FF4004001900220029011
:101A00000020039004900120059001A94548FEF7AD
:101A10006DFF0820019002200290002003900490A6
:101A20000120059001A94048FEF760FF0022114601
:101A30001C20FFF7E3F81C20FFF7CCF86BE03B49D4
:101A40002068884231D100BF002000903448001F38
:101A5000006840F002003249091F0860084600682B
:101A600000F00200009000BF00BF00BF0020009007
:101A70002B481438006840F00200294914390860E6
:101A80000846006800F00200009000BF00BF302050
:101A90000190022002900020039004900220059003
:101AA00001A92148FEF722FF35E02149206888423C
:101AB00031D100BF002000901948001F006840F09D
:101AC00004001749091F08600846006800F0040078
:101AD000009000BF00BF00BF0020009010481438E5
:101AE000006840F008000E49143908600846006894
:101AF00000F00800009000BF00BF4FF4405001907C
:101B0000022002900020039004900220059001A979
:101B10000848FEF7EBFE06B010BD000000000140D3
:101B2000443802400000024000040240000400402B
:101B300000080040000C02402DE9F04304460D4629
:101B400094F83E603F20075D94F84280432010F8EF
:101B500004906DB9012E02D1B8F1010F02D001201D
:101B6000BDE8F083022084F83E0084F8420025E0BE
:101B7000042D0CD1012F02D1B9F1010F01D00120A8
:101B8000EEE702213F2001554320015516E0012ECA
:101B900007D1012F05D1B8F1010F02D1B9F1010F21
:101BA00001D00120DCE7022084F83E0002213F2022
:101BB0000155022084F842004320015515B1042D3F
:101BC0000CD105E001220021206801F0B7FB10E0F4
:101BD00001220421206801F0B1FB0AE0012200216A
:101BE000206801F0ABFB01220421206801F0A6FB74
:101BF00000BF00BF2068006840F001002168086055
:101C00000020ADE7704770B504462068C5682068BD
:101C1000066906F00200022819D105F00200022828
:101C200015D1401F21680861012020772068806954
:101C300000F0030018B12046FFF7E4FF05E020465E
:101C400000F03CF9204600F0F0F90020207706F083
:101C50000400042819D105F00400042815D1C0435C
:101C600021680861022020772068806900F44070B4
:101C700018B12046FFF7C6FF05E0204600F01EF928
:101C8000204600F0D2F90020207706F0080008284E
:101C900019D105F00800082815D1C0432168086152
:101CA000042020772068C06900F0030018B12046A6
:101CB000FFF7A8FF05E0204600F000F9204600F0FD
:101CC000B4F90020207706F01000102819D105F093
:101CD0001000102815D1C043216808610820207722
:101CE0002068C06900F4407018B12046FFF78AFFF1
:101CF00005E0204600F0E2F8204600F096F90020CA
:101D0000207706F0010048B105F0010030B16FF016
:101D1000010021680861204600F00EFA06F08000FC
:101D2000802809D105F08000802805D1C0432168B2
:101D300008612046FFF75CFB06F04000402809D10F
:101D400005F04000402805D1C043216808612046C5
:101D500000F08EFA06F02000202809D105F02000BE
:101D6000202805D1C043216808612046FFF741FBC8
:101D700070BD000010B586B00446142101A8FEF71E
:101D800069FA4549206888421DD100BF00200090B3
:101D90004248006840F00100404908600846006879
:101DA00000F00100009000BF00BF0F200190022052
:101DB00002900020039004900220059001A9384869
:101DC000FEF794FD66E03749206888421ED100BFC7
:101DD000002000903148006840F004002F4908605E
:101DE0000846006800F00400009000BF00BF4FF4F8
:101DF0007070019002200290002003900490032054
:101E0000059001A92848FEF771FD43E027492068A5
:101E100088421DD100BF002000902048006840F09B
:101E200010001E4908600846006800F0100000908D
:101E300000BF00BF602001900220029000200390AC
:101E400004900320059001A91948FEF74FFD21E0F9
:101E50001849206888421DD100BF002000900F481B
:101E6000006840F002000D4908600846006800F074
:101E70000200009000BF00BF4FF4404001900220DC
:101E800002900020039004900920059001A90A48BF
:101E9000FEF72CFD06B010BD000C004030380240AB
:101EA00000000240000401400008024000400140E0
:101EB00000100240001800400004024070472DE965
:101EC000F04104460D461646002700BF94F83C003A
:101ED000012802D10220BDE8F081012084F83C00F5
:101EE00000BF36B1042E1BD0082E31D00C2E5ED18F
:101EF00045E02946206801F047FA2068806940F0F3
:101F00000800216888612068806920F00400216849
:101F1000886120688069296908432168886148E0F0
:101F20002946206801F068FA2068806940F4006062
:101F3000216888612068806920F480602168886158
:101F400020688069296940EA01202168886130E0C1
:101F50002946206801F08EFA2068C06940F0080028
:101F60002168C8612068C06920F004002168C86148
:101F70002068C069296908432168C86119E02946B9
:101F8000206801F0B3FA2068C06940F4006021685D
:101F9000C8612068C06920F480602168C861206839
:101FA000C069296940EA01202168C86101E0012770
:101FB00000BF00BF00BF002084F83C0000BF3846CF
:101FC00089E710B504460CB9012010BD94F83D0016
:101FD00028B9002084F83C00204600F025F80220B3
:101FE00084F83D00211D206801F034F9012084F8B7
:101FF000460000BF84F83E0001213F2001554020EB
:1020000001554120015500BF00BF012084F8420066
:1020100043200155442001554520015500BF0120B2
:1020200084F83D000020D0E77047704770B5044643
:102030000D4615B994F83E000BE0042D02D13F2067
:10204000005D06E0082D02D14020005D01E0412046
:10205000005D012801D0012070BD1DB9022084F867
:102060003E000EE0042D03D102213F20015508E07F
:10207000082D03D102214020015502E00221412018
:10208000015501222946206801F058F923492068AA
:10209000884203D022492068884201D1012000E013
:1020A000002028B12068406C40F40040216848645A
:1020B0001A49206888421BD02068B0F1804F17D0A1
:1020C00018492068884213D01749206888420FD0E9
:1020D0001649206888420BD011492068884207D0F1
:1020E00013492068884203D01249206888420CD1E5
:1020F0002068806800F00706062E0CD02068006873
:1021000040F001002168086005E02068006840F0A8
:1021100001002168086000209EE7000000000140E7
:10212000000401400004004000080040000C004092
:10213000004001400018004010B504463D4884426C
:102140001CD13D480078012873D13C48B0F900000B
:1021500002F084F83A48B0F9000001F0CFFF3948A6
:10216000B0F9000002F094FA3748B0F9000002F02C
:1021700053FC3648007802F0CBFC5AE034488442E5
:1021800013D10068006800F01000102806D1314813
:102190000088401E00B22F4908804AE02D48008880
:1021A000401C00B22B49088043E02B48844213D1E5
:1021B0000068006800F01000102806D12748008849
:1021C000401E00B22549088033E024480088401CA6
:1021D00000B2224908802CE02148844213D10068D3
:1021E000006800F01000102806D11E480088401E2C
:1021F00000B21C4908801CE01A480088401C00B24C
:102200001849088015E01848844212D10068006817
:1022100000F01000102806D114480088401E00B2BB
:102220001249088005E011480088401C00B20F499F
:10223000088010BD30050020000000206E00002046
:102240007000002072000020740000207600002042
:10225000A004002060000020C803002062000020CD
:1022600010040020640000205804002066000020B4
:102270007047704770B50446002520684069C0F378
:10228000C01594F84100212817D1B5B100BF00BF97
:102290002168143151E8001F21F0800021681431B9
:1022A00041E80002002AF3D100BFA06B10B1A06B7F
:1022B000FEF7BDF8204601F04EFA20684069C0F3F1
:1022C000801594F84200222817D1B5B100BF00BF95
:1022D0002168143151E8001F21F0400021681431B9
:1022E00041E80002002AF3D100BFE06B10B1E06BBF
:1022F000FEF79DF8204601F0E8F9002070BD704718
:102300002DE9F84F0446206805682068C6682068F3
:1023100047694FF00009CA4605F00F09B9F1000FEF
:102320000AD105F0200038B106F0200020B1204687
:1023300001F024FABDE8F88FB9F1000F7CD007F066
:10234000010018B906F49070002875D005F001005E
:1023500030B106F4807018B1606C40F00100606428
:1023600005F0040030B107F0010018B1606C40F0D6
:102370000200606405F0020030B107F0010018B1FE
:10238000606C40F00400606405F0080048B106F09D
:10239000200010B907F0010018B1606C40F008008F
:1023A0006064606C002846D005F0200028B106F07B
:1023B000200010B1204601F0E1F920684069C0F327
:1023C000801A606C00F0080010B9BAF1000F2DD02F
:1023D000204601F07AF92068406900F0400040286A
:1023E00020D100BF00BF2168143151E8001F21F047
:1023F00040002168143141E80002002AF3D100BFF7
:10240000E06B50B17748E16B0865E06BFEF765F86B
:1024100088B1E06B016D88470DE02046FFF76FFF44
:1024200009E009E02046FFF76AFF04E02046FFF7D5
:1024300066FF002060647DE7206B012878D105F0FD
:102440001000002874D006F010000028FAD000BF59
:10245000002000902068006800902068406800908C
:1024600000BF00BF2068406900F04000402860D1F4
:10247000E06B006840681FFA80F8B8F1000F56D092
:10248000A08D404553DDA4F82E80E06BC069B0F507
:10249000807F43D000BF00BF21680C3151E8001F8E
:1024A00021F4807021680C3141E80002002AF3D148
:1024B00000BF00BF00BF2168143151E8001F21F0A8
:1024C00001002168143141E80002002AF3D100BF65
:1024D00000BF00BF2168143151E8001F21F0400007
:1024E0002168143141E80002002AF3D100BF202006
:1024F00084F842000020206300BF00BF21680C3137
:1025000051E8001F21F0100021680C3141E8000261
:10251000002AF3D100BFE06BFDF789FF0220606362
:10252000A08DE28D801A81B22046FFF7A2FE01E75E
:1025300042E0A08DE18D401A1FFA80F8E08DD0B303
:10254000B8F1000F37D000BF00BF21680C3151E84F
:10255000001F21F4907021680C3141E80002002A2C
:10256000F3D100BF00BF00BF2168143151E8001F44
:1025700021F001002168143141E80002002AF3D162
:1025800000BF202084F842000020206300BF00BF6D
:1025900021680C3151E8001F21F0100021680C3136
:1025A00041E80002002AF3D100BF022060634146E7
:1025B0002046FFF75EFEBDE605F0800030B106F074
:1025C000800018B1204601F0D1FAB3E605F04000D2
:1025D00030B106F0400018B1204601F0ACF8A9E691
:1025E00000BFA7E68F35000810B504460CB90120DE
:1025F00010BDA06900B100E000BF94F8410028B907
:10260000002084F84000204600F02AF8242084F8B6
:1026100041002068C06820F400502168C86020464E
:1026200001F02AF92068006920F4904021680861CF
:102630002068406920F02A00216848612068C0684D
:1026400040F400502168C86000206064202084F8B5
:10265000410084F842000020606300BFC8E700002A
:1026600010B586B00446142101A8FDF7F3FD3D49DD
:102670002068884274D100BF002000903A4800686A
:1026800040F48020384908600846006800F4802043
:10269000009000BF00BF00BF0020009032481038FB
:1026A000006840F0020030491039086008460068B0
:1026B00000F00200009000BF00BF4FF440600190A6
:1026C0000220029000200390032004900720059030
:1026D00001A92648FEF70AF92548264908604FF067
:1026E00000604860002123488160C1604FF4806130
:1026F0000161002141618161C16101624162FEF7B6
:1027000021F808B1FDF790FE00BF1A48E06384632A
:1027100000BF17483030184908604FF0006048602B
:102720004021154881600021C1604FF48061016142
:10273000002141618161C16101624162FEF702F8DD
:1027400008B1FDF771FE00BF0B48A063846300BFB2
:10275000002211462720FEF751FA2720FEF73AFA09
:1027600006B010BD0048004040380240000402405E
:102770002860024098060020F806002070B5044644
:102780000D46164694F8420020280BD105B10EB92B
:10279000012070BD0020206332462946204601F00A
:1027A00081F9F6E70220F4E7704770472DE9F84F0A
:1027B00004460E46174699464FF0000A94F8410029
:1027C000202850D106B117B90120BDE8F88F0020AC
:1027D0006064212084F84100FEF782F98246A784D4
:1027E000E784A068B0F5805F04D1206910B90025A6
:1027F000B04602E035464FF000081EE05346002286
:1028000080212046CDF8009001F0E0F920B1202091
:1028100084F841000320D8E745B9B8F80000C0F3B8
:1028200008002168486008F1020803E02878216860
:1028300048606D1CE08C401EE084E08C0028DDD1F7
:102840005346002240212046CDF8009001F0BEF909
:1028500020B1202084F841000320B6E7202084F82E
:1028600041000020B1E70220AFE7704700BFFEE75C
:1028700008B500BF002000900E48006840F400102A
:102880000C4908600846006800F40010009000BF82
:1028900000BF002211460C20FEF7B0F90C20FEF715
:1028A00099F9002211460E20FEF7A8F90E20FEF736
:1028B00091F908BD3038024008B500BF00200090F3
:1028C0002C48006840F010002A490860084600685B
:1028D00000F01000009000BF00BF00BF002000907B
:1028E0000846006840F0040008600846006800F0F0
:1028F0000400009000BF00BF00BF00200090084609
:10290000006840F0800008600846006800F0800021
:10291000009000BF00BF00BF002000900846006884
:1029200040F0010008600846006800F001000090D7
:1029300000BF00BF00BF002000900846006840F0C4
:10294000020008600846006800F00200009000BF26
:1029500000BF00BF002000900846006840F008005B
:1029600008600846006800F00800009000BF00BF43
:1029700008BD00003038024000B58BB00020079041
:10298000089009900A901C216846FDF763FC1F48D7
:102990001F4908605320486000211D48816044F6AB
:1029A0001F61C160002101618161FEF7B7FD08B1BF
:1029B000FDF73AFD4FF48050079007A91448FEF741
:1029C000B5FE08B1FDF730FD1148FFF7FAFA08B17E
:1029D000FDF72AFD602000900020019002900490F5
:1029E000002269460A48FFF76AFA08B1FDF71CFDA4
:1029F000042269460648FFF762FA08B1FDF714FDA4
:102A00000348FFF7B7F90BB000BD00000018004005
:102A10000806002000B58BB0242102A8FDF71AFC9F
:102A20000020009001901848184908600020486074
:102A30000021164881604FF6FF71C16000210161DD
:102A400041618161032002900020039001200490E5
:102A50000020059006900790012008900020099022
:102A60000A9002A90948FEF7E7FE08B1FDF7DCFC71
:102A700000200090019069460448FEF7F5FC08B17B
:102A8000FDF7D2FC0BB000BD00000140C8030020E0
:102A900000B58BB0242102A8FDF7DCFB00200090DC
:102AA00001904FF0804017490860002048600021E5
:102AB00014488160491EC1600021016181610320C9
:102AC00002900020039001200490002005900690C1
:102AD000079001200890002009900A9002A9094857
:102AE000FEF7AAFE08B1FDF79FFC002000900190C0
:102AF00069460448FEF7B8FC08B1FDF795FC0BB039
:102B000000BD00001004002000B58BB0242102A8F5
:102B1000FDF7A0FB002000900190184818490860BC
:102B2000002048600021164881604FF6FF71C160A7
:102B300000210161816101200290002003900120A9
:102B40000490002005900690079001200890002036
:102B500009900A9002A90A48FEF76EFE08B1FDF737
:102B600063FC00200090019069460548FEF77CFC5C
:102B700008B1FDF759FC0BB000BD00000004004097
:102B80005804002000B58BB0242102A8FDF762FB99
:102B90000020009001901848184908600020486003
:102BA0000021164881604FF6FF71C160002101616C
:102BB00081610120029000200390012004900020F8
:102BC00005900690079001200890002009900A9037
:102BD00002A90A48FEF730FE08B1FDF725FC0020E7
:102BE0000090019069460548FEF73EFC08B1FDF7EC
:102BF0001BFC0BB000BD000000080040A00400203A
:102C000000B58DB0002009900A900B900C900790B1
:102C100008901C216846FDF71DFB2C482C490860D4
:102C20005320486000212A48816040F2E731C160AA
:102C3000002101618161FEF771FC08B1FDF7F4FB31
:102C40004FF48050099009A92148FEF76FFD08B1A3
:102C5000FDF7EAFB1E48FFF7B4F908B1FDF7E4FB06
:102C600000200790089007A91948FEF7FDFB08B15E
:102C7000FDF7DAFB602000900020019002900490A4
:102C8000002269461248FFF71AF908B1FDF7CCFB9C
:102C9000042269460E48FFF712F908B1FDF7C4FB9C
:102CA000082269460A48FFF70AF908B1FDF7BCFB9C
:102CB0000C2269460648FFF702F908B1FDF7B4FB9C
:102CC0000348FFF757F80DB000BD0000000C0040AE
:102CD000E80400201CB50020009001900E480F4928
:102CE000086040F28F60486000210C48816031210B
:102CF000C16000218161FEF711FC08B1FDF794FB72
:102D000000200090019069460448FEF7ADFB08B131
:102D1000FDF78AFB1CBD00000010004030050020BC
:102D200000B595B0002011901290139014900F9060
:102D300010901C2108A8FDF78DFA20216846FDF7A8
:102D400089FA3748374908601B2048600021354818
:102D5000816040F2E731C160002101614161816120
:102D6000FEF7DCFB08B1FDF75FFB4FF480501190DC
:102D700011A92C48FEF7DAFC08B1FDF755FB2948EC
:102D8000FFF71FF908B1FDF74FFB00200F901090DF
:102D90000FA92448FEF768FB08B1FDF745FB60204A
:102DA0000890002009900A900B900C900D900E90C6
:102DB000002208A91B48FFF782F808B1FDF734FB91
:102DC000042208A91748FFF77AF808B1FDF72CFB91
:102DD000082208A91348FFF772F808B1FDF724FB91
:102DE0000C2208A90F48FFF76AF808B1FDF71CFB91
:102DF0000020009001900290039004904FF4005046
:102E000005900020079069460648FEF7F3FA08B1DE
:102E1000FDF70AFB0348FEF7ADFF15B000BD00004B
:102E2000000401407805002000B58BB00020079019
:102E3000089009900A901C216846FDF70BFA1F487C
:102E40001F4908601B20486000211D48816040F236
:102E5000E731C160002101618161FEF75FFB08B1CC
:102E6000FDF7E2FA4FF48050079007A91448FEF7E7
:102E70005DFC08B1FDF7D8FA1148FFF7A2F808B1D8
:102E8000FDF7D2FA6020009000200190029004909B
:102E9000002269460A48FFF712F808B1FDF7C4FAA4
:102EA000042269460648FFF70AF808B1FDF7BCFAA4
:102EB0000348FEF75FFF0BB000BD0000004001407B
:102EC000C005002010B50B480B4908604FF4E130F5
:102ED0004860002108488160C16001610C214161A6
:102EE00000218161C161FFF77FFB08B1FDF79CFA0A
:102EF00010BD0000004800405006002000BFFEE763
:102F000000BFFEE700B50146F0EE401AB0EE602AC1
:102F1000012002EE900AC1ED081A81ED052A32EE79
:102F2000610A81ED0B0A91ED180AB5EEC00AF1EEC7
:102F300010FA17D091ED0B0AB5EEC00AF1EE10FAB7
:102F400002DD91ED0B0A03E091ED0B0AB1EE400AB0
:102F5000D1ED180AB4EEE00AF1EE10FA02D29FEDBC
:102F60005C0A00BD486E032840D191ED000AD1ED06
:102F70000B0A20EE200A81ED0C0A91ED0D0AD1ED2D
:102F8000010A91ED0B1A00EE810A81ED0D0A91ED17
:102F90000B0AD1ED0A0A30EE600AD1ED020A20EEEA
:102FA000200A81ED0E0AD1ED160AB0EE600A01F199
:102FB000340001F08CF891ED0C0AD1ED0D0AB8EE59
:102FC000E21A01EE200AD1ED0E0A30EE200A81ED60
:102FD0000F0AD1ED140AB0EE600A01F13C0001F0D5
:102FE00076F891ED0F0A81ED100A50E0486E042842
:102FF0004DD191ED0B0AD1ED0A0A30EE600AD1ED08
:10300000000A20EE200A81ED0C0A91ED010AD1EDB3
:103010000B0A20EE200A81ED0D0A91ED0B0AD1ED8D
:103020000A0AB0EE001A01EE600AD1ED090A30EE8C
:10303000200AD1ED020A20EE200A81ED0E0AD1ED20
:10304000160AB0EE600A01F1340001F040F891ED8B
:103050000C0AD1ED0D0A30EE200AD1ED0E0A30EE49
:10306000200A81ED110A91ED130AD1ED110A30EE1B
:10307000200A81ED120AD1ED140AB0EE600A01F1C6
:10308000480001F024F891ED120A81ED130A91ED48
:103090000A0A81ED090A91ED0B0A81ED0A0A91ED08
:1030A000070A81ED060A91ED080A81ED070A91ED04
:1030B000040A81ED030A91ED050A81ED040A486EC8
:1030C000032802D191ED0F0A4BE791ED120A48E770
:1030D0000000000070B52DED088B04460D46F0EEA3
:1030E000409AB0EE60AAF0EE41AAB0EE618AF0EE2E
:1030F000428AB0EE629AB0EE43BAF0EE63BA12487A
:10310000A0661248E066F0EE6B3AB0EE4B3AF0EE95
:10311000492AB0EE682AF0EE481AB0EE6A1AF0EECC
:103120004A0AB0EE690A29462046A26E9047B0EEE0
:10313000491AF0EE680AB0EE480A2046E16E884768
:10314000BDEC088B70BD00004145000865450008D6
:103150007047704710B5FDF7C9FC10BD00B593B0BE
:10316000302107A8FDF776F8142102A8FDF772F8C0
:1031700000BF002001902448006840F080502249A0
:1031800008600846006800F08050019000BF00BF52
:1031900000BF002001901D48006840F480401B499A
:1031A00008600846006800F48040019000BF00BF3E
:1031B000012007900004089002200D9041050E9117
:1031C00004210F91A8211091022111910421129143
:1031D00007A8FDF7A5FE08B1FDF726F90F2002901C
:1031E00002200390002004904FF4A05005904FF46B
:1031F00080500690052102A8FDF752FD08B1FDF7A9
:1032000013F913B000BD00004038024000700040C8
:103210000348006840F470000149086070470000EE
:1032200088ED00E010B50248FEF7EDFC10BD00008F
:10323000C803002010B50248FEF7E5FC10BD0000F1
:103240001004002010B50248FEF7DDFC10BD0000A0
:103250003005002010B502682D4B98420ED0B0F119
:10326000804F0BD02B4B984208D02B4B984205D067
:103270002A4B984202D02A4B984203D122F0700286
:103280004B681A43224B984220D0B0F1804F1DD09A
:10329000204B98421AD0204B984217D01F4B98428F
:1032A00014D01F4B984211D01E4B98420ED01E4B8B
:1032B00098420BD01D4B984208D01D4B984205D028
:1032C0001C4B984202D01C4B984203D122F440720E
:1032D000CB681A4322F080034C6943EA040202607F
:1032E0008B68C3620B688362094B984202D00C4B17
:1032F000984201D10B69036301234361036903F021
:1033000001031BB1036923F00103036110BD000039
:10331000000001400004004000080040000C004094
:1033200000040140004001400044014000480140C9
:1033300000180040001C00400020004030B501F0A3
:103340001F05012404FA05F3046A9C430462046A1D
:1033500001F01F0502FA05F52C43046230BD30B5BB
:103360000C46816821F47F4142EA03252543294325
:10337000816030BD0A46816821F0700142F0070388
:10338000194381607047000030B5026A056A25F074
:10339000010505624368846924F0700424F0030485
:1033A0000D682C4322F002028D682A43104DA8427A
:1033B00000D103E00F4DA84206D100BF22F0080261
:1033C000CD682A4322F00402094DA84202D0094DDB
:1033D000A84207D123F4807323F400734D692B4373
:1033E0008D692B43436084614D684563026230BD43
:1033F000000001400004014030B5026A056A25F072
:10340000100505624368846924F4E04424F44074A0
:103410000D6844EA052422F020028D6842EA051274
:10342000124DA84200D103E0114DA84207D100BFC0
:1034300022F08002CD6842EA051222F040020B4DD4
:10344000A84202D00A4DA84209D123F4806323F494
:1034500000634D6943EA85038D6943EA8503436050
:1034600084614D688563026230BD00000000014048
:103470000004014030B5026A056A25F480750562D2
:103480004368C46924F0700424F003040D682C43DD
:1034900022F400728D6842EA0522124DA84200D142
:1034A00003E0114DA84207D100BF22F40062CD68AD
:1034B00042EA052222F480620A4DA84202D00A4D57
:1034C000A84209D123F4805323F400534D6943EA01
:1034D00005138D6943EA05134360C4614D68C563F4
:1034E000026230BD000001400004014030B5036AB3
:1034F000056A25F4805505624468C26922F4E042F9
:1035000022F440720D6842EA052223F400538D68CC
:1035100043EA0533084DA84202D0084DA84204D121
:1035200024F480444D6944EA85144460C2614D68C6
:103530000564036230BD000000000140000401404A
:1035400030B50B461446026A056A25F0010505628E
:10355000816921F0F00141EA041122F00A021A43C4
:103560008161026230BD30B50B461446026A056ABD
:1035700025F010050562816921F4704141EA0431AA
:1035800022F0A00242EA03128161026230BD70B5EE
:103590000546AC6B0020E085E0842046FEF7AFFED8
:1035A00070BD70B506460025B46B20684069C0F355
:1035B000C01594F84100212805D125B10020E084F0
:1035C000204600F0C8F820684069C0F3801594F8E0
:1035D0004200222805D125B10020E085204600F0D8
:1035E00074F8606C40F0100060642046FEF787FEBF
:1035F00070BD70B50546AC6B2868006800F480703B
:10360000002842D1E08500BF00BF21680C3151E89D
:10361000001F21F4807021680C3141E80002002A6B
:10362000F3D100BF00BF00BF2168143151E8001F73
:1036300021F001002168143141E80002002AF3D191
:1036400000BF00BF00BF2168143151E8001F21F006
:1036500040002168143141E80002002AF3D100BF84
:10366000202084F84200206B01280ED100BF00BF4B
:1036700021680C3151E8001F21F0100021680C3145
:1036800041E80002002AF3D100BF00206063206BF4
:10369000012804D1A18D2046FEF7EBFD02E0204673
:1036A000FFF782F870BD70B50546AC6B0120606312
:1036B000206B012805D1A08D41082046FEF7D9FDD9
:1036C00002E02046FFF771F870BD00BF00BF02683E
:1036D0000C3252E8002F22F4907102680C3242E85A
:1036E0000013002BF3D100BF00BF00BF02681432EB
:1036F00052E8002F22F001010268143242E8001360
:10370000002BF3D100BF016B01290ED100BF00BF18
:1037100002680C3252E8002F22F0100102680C32CD
:1037200042E80013002BF3D100BF202180F84210A3
:1037300000210163704710B504462068C06820F07E
:1037400040002168C860202084F841002046FFF72F
:103750008CF8002010BD00BF00BF02680C3252E898
:10376000002F22F0C00102680C3242E80013002B47
:10377000F3D100BF202180F841107047F8B504460E
:1037800094F84200222875D1A068B0F5805F0CD172
:10379000206950B90025A66A20684068C0F3080077
:1037A0003080A06A801CA06215E0A56A0026A0688F
:1037B000B0F5805F03D0A06828B9206918B92068E7
:1037C0004068287004E02068406800F07F0028709E
:1037D000A06A401CA062E08D401E80B2E0850028F7
:1037E00046D12068C06820F020002168C8602068A9
:1037F000C06820F480702168C8602068406920F0AB
:10380000010021684861202084F8420000206063A4
:10381000206B012826D10020206300BF00BF216853
:103820000C3151E8001F21F0100021680C3141E8F3
:103830000002002AF3D100BF2068006800F01000E9
:1038400010280AD100BF0020009020680068009076
:1038500020684068009000BF00BFA18D2046FEF7A1
:1038600008FD02E02046FEF79FFF0020F8BD01E0C2
:103870000020FBE70220F9E72DE9F84F0446206815
:10388000006920F44050E16808432168086121691B
:10389000A068084361690843E16908430090206813
:1038A000C06849F20C618843009908432168C860E8
:1038B0002068406920F44070A1690843216848618C
:1038C00076492068884203D075492068884203D130
:1038D000FDF7BEFA814602E0FDF7AAFA8146E069EB
:1038E000B0F5004F6CD102206168A0FB0150034687
:1038F0001920A9FB007001462A463846FCF760FCF7
:103900006421B0FBF1F04FEA001A02206168A0FBCD
:1039100001510B461920A9FB00712A463846FCF7D5
:103920004FFC834602206168A0FB0150034619202A
:10393000A9FB00712A463846FCF742FC6421B0FB23
:10394000F1F000EBC00101EB0010ABEB8000322185
:1039500001EBC0006421B0FBF1F000F0F8000AEBCD
:10396000400A02206168A0FB015003461920A9FB10
:10397000007001462A463846FCF722FC83460220A6
:103980006168A0FB015003461920A9FB00712A467B
:103990003846FCF715FC6421B0FBF1F000EBC001E8
:1039A00001EB0010ABEB8000322101EBC000642181
:1039B000B0FBF1F000F007005044216888606AE035
:1039C00004206168A0FB015003461920A9FB007088
:1039D00001462A463846FCF7F3FB8246042061681C
:1039E000A0FB015003461920A9FB007001462A469E
:1039F0003846FCF7E5FB6421B0FBF1F000EBC001B9
:103A000001EB0010AAEB8000322101EB00106421D1
:103A1000B0FBF1F000F0F00A04206168A0FB017037
:103A200003461920A9FB00513A462846FCF7C8FB7B
:103A30006421B0FBF1F00AEB001A04206168A0FBDE
:103A400001510B461920A9FB00712A463846FCF7A4
:103A5000B7FB834604206168A0FB01500346192090
:103A6000A9FB007001462A463846FCF7A9FB6421F1
:103A7000B0FBF1F000EBC00101EB0010ABEB8000FC
:103A8000322101EB00106421B0FBF1F000F00F00D7
:103A9000504421688860BDE8F88F000000100140A4
:103AA0000014014077B581B0044615460298A06223
:103AB000A58500206064222084F842002848E16B3C
:103AC000C8632848E16B08642748E16BC86400209C
:103AD000E16B086502AE32682368191D2B46E06B66
:103AE000FCF7A6FE00BF0020009020680068009050
:103AF00020684068009000BF00BF206970B100BF1F
:103B000000BF21680C3151E8001F41F4807021682A
:103B10000C3141E80002002AF3D100BF00BF00BF12
:103B20002168143151E8001F41F00100216814316F
:103B300041E80002002AF3D100BF00BF00BF2168A6
:103B4000143151E8001F41F040002168143141E870
:103B50000002002AF3D100BF002004B070BD0000B5
:103B6000F3350008A7360008A3350008014691F890
:103B70004100212828D18868B0F5805F0BD1086901
:103B800048B90A6A1088C0F308000B685860086AD0
:103B9000801C086205E00B6A581C086218780B68E4
:103BA0005860C88C401E80B2C88458B90868C06884
:103BB00020F080000B68D8600868C06840F04000C2
:103BC0000B68D860002070470220FCE72DE9F8431D
:103BD00004460D4617469846089E31E0701C70B3A7
:103BE000FCF77EFFA0EB0800B04200D816B9032016
:103BF000BDE8F8832068C06800F00400F8B1802DAB
:103C00001ED0402D1CD020680068C0F3C000B0B1A9
:103C100000BF002000902068006800902068406885
:103C2000009000BF00BF2046FFF74FFD08206064F2
:103C300000BF002084F8400000BF0120D8E7FFE764
:103C4000206800682840A84201D1012000E000203F
:103C5000B842C3D00020CBE708B51F480068006811
:103C6000C0F3001070B301201C49087000BF002091
:103C70000090194800680068009017480068406884
:103C8000009000BF00BF1448FEF7F4FA1448006823
:103C90004068C0F130001349088008460178124896
:103CA00000F0B4FA4FF400730E4802880E490A4837
:103CB000FEF77CFD0B4801880B48FCF7CBFA00208F
:103CC000084908800448FEF71BFB302206490248D9
:103CD000FEF754FD08BD0000500600200000002043
:103CE00098060020680000205803002000BFFEE76F
:103CF00070B50446002500BF61194FF47A730122A4
:103D00000348FEF753FD6D1C605D0028F4D170BDC3
:103D1000500600200FB4054B10B503A9044A0298C1
:103D200000F034F810BC5DF814FB0000F14100080D
:103D30008C00002002480068C0F302207047000099
:103D40000CED00E010B5002804DB0A07130E054A4D
:103D5000135406E00A07140E034A00F00F031B1F5A
:103D6000D45410BD00E400E018ED00E002E008C803
:103D7000121F08C1002AFAD170477047002001E0E5
:103D800001C1121F002AFBD1704700002DE9FF4F2F
:103D90008BB088460546002606E025280BD0DDE9D5
:103DA0000D1290476D1C761C28780028F5D10FB0B5
:103DB0003046BDE8F08F0024A146A2460122AE495C
:103DC00000E0044315F8013F203B02FA03F00842EB
:103DD000F7D128782A2810D06FF02F022878A0F188
:103DE0003001092915D809EB890102EB410144F0A2
:103DF000020400EB01096D1CF0E758F8041B5FEAB0
:103E0000010903D544F40054C9F1000944F0020447
:103E10006D1C28782E2817D115F8010F44F00404E2
:103E20002A280ED06FF02F022878A0F1300109293E
:103E30000AD80AEB8A0102EB410100EB010A6D1C72
:103E4000F2E758F804AB6D1C28786C280FD006DC1C
:103E50004C2817D068280DD06A2814D104E07428A3
:103E600010D07A280FD10DE044F400140AE044F495
:103E7000801401E044F440146978814202D104F5D1
:103E800080146D1C6D1C2878692865D006DC00281C
:103E90008DD0632827D0642806D15DE06E2808D035
:103EA00073282AD0752877D0DDE90D129047761C4B
:103EB000E0E0C4F30250022809D003280DD0D8F85E
:103EC000001004280DD00E6008F10408D2E0D8F8E4
:103ED0000010F217C1E90062F6E7D8F800100E8072
:103EE000F2E70E70F0E718F8041B8DF800100020C0
:103EF0008DF80100EB46012003E058F804BB4FF0B9
:103F0000FF3061074FF0000701D40AE07F1C5745DE
:103F10000DDA8742FADB1BF807100029F6D106E01C
:103F20007F1C8742FCDB1BF807100029F8D1DDE974
:103F30000D23A9EB07008146214600F0B1F830447B
:103F4000C61904E0DDE90D121BF8010B90477F1E36
:103F5000F8D22146484688E058F8040BC4F30251D1
:103F60004FF00A0B032900D100B2042900D140B25E
:103F7000002802DA40422D2102E0210505D52B213F
:103F80008DF82410012104E006E0E10710D0202183
:103F9000F6E708AF089113E058F8040BC4F3025198
:103FA0004FF00A0B032900D180B2042900D1C0B21E
:103FB0000021EEE75946FCF758F9303107F8011DAA
:103FC0000028F7D1ADEB070000F1200B600702D508
:103FD00024F4803401E04FF0010ADA4502DDAAEB57
:103FE0000B0000E00020824600EB0B010898014422
:103FF000A9EB01000A90E00306D4DDE90D23214678
:104000000A9800F04DF806444FF0000908E009A9AD
:1040100011F80900DDE90D12904709F10109761C3C
:1040200008998945F3DBE0030CD5DDE90D23214632
:104030000A9800F035F8064404E0DDE90D1230205E
:104040009047761CBAF10001AAF1010AF5DC05E0FF
:10405000DDE90D1217F8010B9047761CBBF100014A
:10406000ABF1010BF4DC0A982146DDE90D2300F0E9
:1040700005F806446D1C97E6092801002DE9F0417A
:10408000044600251E461746880404D405E0394638
:104090002020B0476D1C641EF9D52846BDE8F0818C
:1040A0002DE9F041044600251E469046C80301D57F
:1040B000302700E02027880404D505E04146384633
:1040C000B0476D1C641EF9D52846BDE8F081D0EDDF
:1040D000000AF4EEC00AF1EE10FA01DD80ED000AEC
:1040E000D0ED000AB1EE401AF4EEC10AF1EE10FA7A
:1040F00003D2F1EE400AC0ED000A70473EB5044617
:104100002C4860434FF4B47190FBF1F02A490860E9
:104110002A480068416A2948C068294AB2F9002043
:1041200002FB001027490860234890ED000AF8EED2
:10413000C00A084690ED000AB8EEC00A2248FEF711
:10414000E1FEBDEEC00A10EE100A00B21F49088061
:104150000846B0F9000000F025F91A4800684FF44D
:10416000B4714843134990FBF1F0194908601948AC
:104170000088642818D115480088A8B11048B0F903
:1041800000101248B0F900000E4A1268CDE9002074
:104190000291094803680E48214602680EA0FFF705
:1041A000B9FD01200B4908800A480088401C0949D4
:1041B00008803EBD804F120024000020C80300206C
:1041C00062000020280000200001002020000020C4
:1041D0001C0000202C000020253864253864253878
:1041E000642538642538642538640D0A0000000011
:1041F00013B50C464FF47A73012269460248FEF764
:10420000D5FA00981CBD00005006002070B5044689
:104210000D46E078A8421AD120780E4909788842E4
:1042200015D160780B494978884210D1681E205C0E
:104230000949097888420AD1A81E81B2204600F0B7
:10424000D7FB18B1204600F095F970BDFDE700BF1F
:10425000FBE700006A0000206C0000203EB5044629
:104260004FF4FA6060434FF4B47190FBF1F02B49C6
:1042700008602B480068416A2948C068294AB2F999
:10428000002002FB001028490860244890ED000A35
:10429000F8EEC00A084690ED000AB8EEC00A2348BE
:1042A000FEF730FEBDEEC00A10EE100A00B2204943
:1042B00008800846B0F9000000F0E2F81A480068EB
:1042C0004FF4B47148434FF4FA6190FBF1F000B23F
:1042D0001849088018480088642819D114480088B3
:1042E000B0B11048B0F900001149B1F900100E4A00
:1042F0001268CDE900210290084803680D48B0F922
:10430000002021460DA0FFF705FD01200A49088085
:1043100009480088401C084908803EBD1000002064
:10432000A004002060000020140000209000002065
:104330000E0000200C000020180000202538642505
:1043400038642538642538642538642538640D0AB6
:1043500000000000FCF7D6FBFEF700FF00F08AF932
:10436000FEF7AAFAFEF784FAFEF792FBFEF748FC86
:10437000FEF7B0FCFEF7A6FDFEF7FEFAFEF74AFBDD
:10438000FEF7C2FBFEF7FEFBFEF7CAFCFEF74CFD94
:1043900000F0FAF903E00248008800F023F8FAE799
:1043A000780000200D49B1F90010884215D000288E
:1043B00008DD81B20A4A1268D1630021084A1268F6
:1043C000116408E00021064A1268D163414289B2B3
:1043D000034A1268116401490880704704000020F4
:1043E000E804002010B50446B4F57A7F43DBB4F549
:1043F000FA6F40DC2048008884423CD01E48008888
:10440000A0421ADA14E01C48008840F6B831081AB5
:104410001A49096848631848008818490968886378
:104420000520FCF74FFA14480088401C1249088008
:1044300011480088A042E6D11DE00F480088A04244
:1044400019DD14E00C48008840F6B831081A0B4911
:104450000968486308480088084909688863052096
:10446000FCF730FA04480088401E034908800248DF
:1044700000888442E6D110BD4E00002008060020CE
:104480000D49B1F90010884215D0002808DD81B22D
:104490000A4A126851630021084A1268916308E0D1
:1044A0000021064A12685163414289B2034A1268E8
:1044B00091630149088070470200002078050020C0
:1044C0000D49B1F90010884215D0002808DD81B2ED
:1044D0000A4A126851630021084A1268916308E091
:1044E0000021064A12685163414289B2034A1268A8
:1044F000916301490880704706000020E80400200D
:104500000D49B1F90010884215D0002808DD81B2AC
:104510000A4A126851630021084A1268916308E050
:104520000021064A12685163414289B2034A126867
:10453000916301490880704708000020C0050020F1
:10454000416680ED140AC0ED150A80ED161AC0ED23
:10455000001A80ED012AC0ED022A80ED173AC0ED65
:10456000183A704780ED000AC0ED010A80ED021A8A
:104570007047000010B504461022611D2D48FBF75E
:1045800050FE2C4890ED000ABDEEC00A10EE100A55
:1045900000B229490880274890ED010ABDEEC00A03
:1045A00010EE100A00B225490880224890ED020A58
:1045B000BDEEC00A10EE100A00B2214908801D4865
:1045C00090ED030ABDEEC00A10EE100A00B21D49BC
:1045D0000880607D1C490870164890ED000ABCEE0A
:1045E000C00A10EE100A1949088017480078FF2801
:1045F00003D00120164908701BE000201449087000
:1046000040F2DC50114908800020124909684862D4
:1046100011490968486211490968486210490968E6
:1046200048621049088010490880104908801049E4
:10463000088010BDB80300206E000020700000202C
:104640007200002074000020760000207800002016
:1046500000000020A0040020C80300201004002057
:104660005804002060000020620000206400002048
:104670006600002004480021016041608160034819
:104680000149086000207047C0020020CC020020D1
:104690003EB504462D4860434FF4B47190FBF1F0F1
:1046A0002B4908602B480068416A2A48C0682A4A9A
:1046B000B2F9002002FB001028490860244890ED60
:1046C000000AF8EEC00A084690ED000AB8EEC00AEB
:1046D0002348FEF717FCBDEEC00A10EE100A00B228
:1046E000204908800846B0F90000FFF7E9FE1B48A2
:1046F00000684FF4B4714843144990FBF1F000B2E4
:104700001949088019480088642819D1154800887B
:10471000B0B11148B0F900001249B1F900100F4AC8
:104720001268CDE900210290094803680E48B0F9EB
:10473000002021460EA0FFF7EDFA01200B4908806A
:104740000A480088401C094908803EBDB0710B0032
:1047500034000020100400206400002038000020F5
:1047600070010020300000202E0000203C000020BE
:10477000253864253864253864253864253864254F
:1047800038640D0A0000000010B500F0EBF800F0EE
:104790001BF900F093F800F089F8DFED343A9FED53
:1047A000343ADFED342AB7EE002ADFED331A9FEDFD
:1047B000331ADFED330A9FED2D0A03213148FEF74E
:1047C00089FCDFED2A3A9FED2A3ADFED2A2AB7EE7F
:1047D000002ADFED291A9FED291ADFED290A9FED46
:1047E0002A0A03212948FEF775FCDFED203A9FEDE8
:1047F000203ADFED202AB7EE002ADFED1F1A9FEDE9
:104800001F1ADFED1F0A9FED190A03212048FEF74A
:1048100061FCDFED1B3A9FED163ADFED162AB7EE8D
:10482000002ADFED151A9FED151ADFED150A9FED31
:104830000F0A03211748FEF74DFC4FF47A70164912
:104840000968486340F2DC501349096848634FF433
:10485000FA6011490968886340F2DC500E49096822
:1048600088630EA0FFF744FA10BD00000000FA4371
:1048700000401C46000000006666064000004843F9
:1048800000007A449000002000C07944000100201C
:1048900070010020E001002008060020B3F5CABC2A
:1048A000BBAFCDEAB3C9A3A10A00000010B502480E
:1048B000FCF7E8FE10BD00003005002010B5002018
:1048C00024490968486224490968486223490968FB
:1048D0004862234909684862801E1E4909680861C8
:1048E0001D49096808611D49096808611C49096872
:1048F000086118480068C06840F00100154909685F
:10490000C86015480068C06840F001001249096895
:10491000C86012480068C06840F001000F4909688B
:10492000C8600F480068C06840F001000C49096881
:10493000C8603C210748FDF7FFF83C210648FDF719
:10494000FBF83C210548FDF7F7F83C210448FDF74A
:10495000F3F810BDA0040020C803002010040020BC
:104960005804002010B500211348FDF75FFB00211B
:104970001148FDF75BFB08211048FDF757FB0C21A0
:104980000E48FDF753FB00210C48FDF74FFB0421B7
:104990000A48FDF74BFB00210948FDF747FB0421BE
:1049A0000748FDF743FB00210648FDF73FFB0421C4
:1049B0000448FDF73BFB10BDA0040020E8040020E4
:1049C000580400200806002010B507480068C06899
:1049D00040F0100004490968C860302203490248C9
:1049E000FDF7CCFE10BD000050060020580300204B
:1049F00010B502460023002004E0145C1C44E3B21E
:104A0000441CE0B28842F8DB505C984201D101209E
:104A100010BD0020FCE700003EB504464FF4FA60EC
:104A200060434FF4B47190FBF1F02B4908602B48C0
:104A30000068416A2948C068294AB2F9002002FB8F
:104A4000001028490860244890ED000AF8EEC00ADA
:104A5000084690ED000AB8EEC00A2348FEF752FA65
:104A6000BDEEC00A10EE100A00B2204908800846C8
:104A7000B0F90000FFF744FD1A4800684FF4B47124
:104A800048434FF4FA6190FBF1F000B218490880F6
:104A900018480088642819D114480088B0B110481B
:104AA000B0F900001149B1F900100E4A1268CDE9C1
:104AB00000210290084803680D48B0F90020214603
:104AC0000DA0FFF727F901200A490880094800884E
:104AD000401C084908803EBD4400002058040020C6
:104AE0006600002048000020E00100204000002077
:104AF0003E0000204C00002025386425386425380D
:104B0000642538642538642538640D0A00000000E7
:104B10000A2814D1194991F900100A290FDA40F234
:104B2000E731174A1268D1630021154A12681164EF
:104B300012490978491C49B2104A11701DE00F282A
:104B400014D10E4991F9001000290FDD00210C4A03
:104B50001268D16340F2E731094A126811640749CB
:104B60000978491E49B2054A117006E00021044A3D
:104B70001268D163024A1268116470470A0000206B
:104B80007805002000061016000610160000000030
:104B900000000000010203040607080900000000ED
:104BA00001020304C44B0008000000209000000034
:104BB0006C3D0008544C000890000020C80A00001A
:104BC0007C3D000800000000000000000000000024
:104BD00000000000000000000000000000000000D5
:104BE00000000000000000000000000000000000C5
:104BF00000000000000000000000000000000000B5
:104C000000000000000000000000000000000000A4
:104C10000000DC05A4060000000000000000000009
:104C20000000000000000000000000000000FAAFDB
:104C3000FE00000000000000000000000000000076
:104C40000000000010000000010000000024F4003B
:044C50000000000060
:040000050800018965
:00000001FF
