:020000040800F2
:10000000280800209D01000835280008C1240008A8
:10001000312800089F070008033400080000000092
:100020000000000000000000000000002F2A00086F
:10003000A3070008000000002D2A0008312A00084C
:10004000B7010008B7010008B7010008B7010008B0
:10005000B7010008B7010008B7010008B7010008A0
:10006000B7010008B7010008B7010008B701000890
:10007000B7010008B7010008B7010008B701000880
:10008000B7010008B7010008B7010008B701000870
:10009000B7010008B7010008B7010008B701000860
:1000A000B7010008012B0008B7010008B7010008DC
:1000B000112B0008B7010008B7010008B7010008BC
:1000C000B7010008B7010008B7010008B701000830
:1000D000B7010008B7010008B70100086133000844
:1000E000B7010008B7010008B7010008B701000810
:1000F000B7010008B7010008B7010008B701000800
:10010000B7010008B7010008B7010008B7010008EF
:10011000B7010008B7010008212B0008B70100084B
:10012000B7010008B7010008B7010008B7010008CF
:10013000B7010008B7010008B7010008B7010008BF
:10014000B7010008B7010008B7010008B7010008AF
:10015000B7010008B7010008B7010008B70100089F
:10016000B7010008B7010008B7010008B70100088F
:10017000B7010008B7010008B7010008000000003F
:10018000B7010008B7010008DFF80CD000F086FACC
:1001900000480047E53E0008280800200648804740
:1001A00006480047FEE7FEE7FEE7FEE7FEE7FEE75C
:1001B000FEE7FEE7FEE7FEE7ED2A000889010008FA
:1001C0002DE9F05F0546002092469B46884606468C
:1001D000814640241BE0284641464746224600F01F
:1001E00094F853465A46C01A914110D31146184606
:1001F000224600F07BF82D1A67EB01084F46224695
:100200000120002100F072F817EB00094E41201E7A
:10021000A4F10104DFDC484631462A464346BDE8E6
:10022000F09F40EA01039B0703D009E008C9121FB1
:1002300008C0042AFAD203E011F8013B00F8013BA0
:10024000521EF9D27047D2B201E000F8012B491ECC
:10025000FBD270470022F6E710B513460A46044663
:100260001946FFF7F0FF204610BD00F0004230F0C5
:1002700000400AD0C10D01F56071C0F3160042EADA
:100280000151C208400711437047002001467047E2
:1002900030B5041E71F1000404DB4FF0004440420D
:1002A00064EB0101141E73F1000405DB1C464FF0E2
:1002B0000043524263EB04038B4208BF824230BDCD
:1002C00030B50B46014600202022012409E021FA26
:1002D00002F59D4205D303FA02F5491B04FA02F523
:1002E0002844151EA2F10102F1DC30BD202A04DBF6
:1002F000203A00FA02F1002070479140C2F1200339
:1003000020FA03F3194390407047202A04DB203A77
:1003100021FA02F00021704721FA02F3D040C2F125
:10032000200291400843194670472DE9FE4F804650
:1003300081EA0300C00F0C46009021F0004123F039
:100340000045B8EB0200A94105D24046214690463F
:100350001C460B46024623F00040104347D0270DB1
:10036000C7F30A00C3F30A510290401A01904028D3
:100370006BDAC3F3130040F4801B0098924620B15F
:100380000023D2EB030A63EB0B0B01985946C0F133
:1003900040025046FFF7AAFF06460D465046594612
:1003A000019A00F08DF910EB08006141002487EA02
:1003B000115284EAE7731A4340D0009A62B3019A5B
:1003C000012A4FEA075215DC001B61EB02014FF0D6
:1003D000004202EA0752CDE90042001C41F58011BB
:1003E00032462B4600F08DF903B0BDE8F08F404651
:1003F0002146F9E7001B61EB0201001C41F5801367
:1004000000185B412018A2F5001747EB030140EAF2
:10041000D570B6196D4111E06D084FEA360645EA10
:10042000C0754FEA0752001B61EB0201001C41F549
:10043000801149084FEA30000019514132462B46DD
:1004400003B0BDE8F04F00F04DB900980122400024
:100450000023D0EB020263EBE073009821464FEAE1
:10046000E074B8EB000061EB0401E9E783F00043BE
:100470005BE781F0004158E72DE9FE4F81EA030474
:1004800004F0004421F0004100944FF0000B23F0F1
:10049000004350EA01045ED052EA03045BD0C3F388
:1004A0000A54C1F30A552C44A4F2F3340194A0FB7E
:1004B0000254C1F3130141F48011C3F3130343F455
:1004C000801301FB024400FB034E840A970A44EAAE
:1004D000815447EA8357A4FB076802958D0A05FB00
:1004E00007854FEA932C04FB0C542705029D4FEA25
:1004F000065847EA1637B5EB08056EEB070C870E72
:10050000920E47EA811742EA8312A7FB0201B6EB7B
:100510000B0164EB00042B0D43EA0C335E1844EB33
:100520001C50DA465146E7FB0201C5F313044FEABB
:100530000B3343EA14534FEA0432019C43EA0603A7
:10054000A4F10C040294009CCDE900B400F0D9F8A9
:1005500003B0BDE8F08F00200146F9E72DE9F04D2A
:1005600081EA030404F0004B21F0004514464FF0EB
:10057000000A23F0004150EA050220D054EA0102AB
:100580001DD0C5F30A570246C5F31303C1F3130088
:10059000C1F30A5640F4801543F48013A7EB060814
:1005A000101BD64608F2FD3873EB050002D308F1A4
:1005B000010801E092185B41B8F1000F03DA002056
:1005C0000146BDE8F08D00204FF4801106468446B8
:1005D0000EE0171B73EB050705D3121B63EB050336
:1005E00006434CEA010C49084FEA300092185B417F
:1005F00050EA0107EDD152EA030012D082EA04006A
:1006000083EA0501084305D0101BAB4106D2012245
:10061000002306E000224FF0004302E06FF00102E9
:1006200053101AEB06004CEB085110EB0A0041EB9B
:100630000B01BDE8F04D00F055B8C1F30A52C1F30B
:10064000130140F2FF3341F480119A4202DA002094
:100650000146704740F233439A42A2F2334202DC31
:100660005242FFF752BEFFF741BE000030B5041EF4
:1006700071F1000404DB4FF00044404264EB0101DF
:10068000141E73F1000405DB1C464FF00043524278
:1006900063EB0403994208BF904230BD064C074DFE
:1006A00006E0E06840F0010394E807009847103442
:1006B000AC42F6D3FFF76CFD344300085443000806
:1006C000202A06DBCB17203A41FA02F043EAE07316
:1006D00006E041FA02F3D040C2F120029140084303
:1006E0001946704710B5141E73F1000408DA401C57
:1006F00041F1000192185B411A4301D120F0010041
:1007000010BD2DE9F04D92469B4611B1B1FA81F230
:1007100002E0B0FA80F220329046FFF7E7FD04468F
:100720000F4640EA0A0041EA0B0153465A46084385
:1007300013D0114653EA010019D0C8F140025046C7
:10074000FFF7E3FD05460E46504659464246FFF781
:10075000CDFD084305D0012004E020463946BDE820
:10076000F08D0020054346EAE0762C4337430A9893
:100770006305E40AA0EB08000022FD0A44EA47549E
:100780000A3002D500200146E9E701051019694148
:10079000DDE9084500196941BDE8F04DA2E700BF59
:1007A000FEE7704772B600BFFEE770B50446A56D60
:1007B00000F074F9064694F83500022808D080202D
:1007C000606500BF002084F8340000BF012070BDC8
:1007D0002068006820F016002168086020684069E1
:1007E00020F0800021684861206C08B9A06C28B115
:1007F0002068006820F00800216808602068006810
:1008000020F001002168086010E000F047F9801B2B
:1008100005280BD920206065032084F8350000BF2F
:10082000002084F8340000BF0320D0E7206800686F
:1008300000F001000028E8D194F85C103F208840C7
:10084000A860012084F8350000BF002084F834003F
:1008500000BF00BFBBE7014691F83500022803D076
:100860008020486501207047052081F83500086820
:10087000006820F001000A6810600020F3E7000023
:1008800070B5044600F00AF906462546681C10B10A
:1008900004480078054400BF00F000F9801BA8421E
:1008A000FAD370BD50000020F8B502460B46002573
:1008B000002400200021D6E0012606FA01F51E687A
:1008C00006EA0504AC4274D11E7906F00306012E37
:1008D00004D01E7906F00306022E13D190684F0053
:1008E0000326BE40B0434F00DE68BE4030439060F8
:1008F000506801268E40B0431E79C6F300168E4024
:10090000304350601E7906F00306032E09D0D068EC
:100910004F000326BE40B0434F009E68BE403043A8
:10092000D0601E7906F00306022E13D1CF0802F123
:10093000200656F827004E07F70E0F26BE40B0439C
:100940004F07FF0E1E69BE403043CF0802F120065C
:1009500046F8270010684F000326BE40B0431E79BA
:1009600006F003064F00BE40304310605E6806F498
:100970004036002E76D000BF002600963C4E3668EA
:1009800046F480463A4F3E603E46366806F480465E
:10099000009600BF00BF374E8F0856F827008E071D
:1009A000370F0F26BE40B043334EB24202D100266D
:1009B00024E057E0314EB24201D101261EE0304E14
:1009C000B24201D1022619E02E4EB24201D10326D5
:1009D00014E02D4EB24201D104260FE02B4EB2425C
:1009E00001D105260AE02A4EB24201D1062605E0D1
:1009F000284EB24201D1072600E008268F073F0F9C
:100A0000BE4030431B4E8F0846F82700224E306808
:100A1000A0435E6806F4801606B120431E4E306087
:100A2000361D3068A0435E6806F4001606B1204308
:100A3000194E361D3060184E361F3068A0435E6870
:100A400006F4003606B12043134E361F3060361FC1
:100A50003068A0435E6806F4803606B120430E4E2F
:100A6000083E3060491C1029FFF426AFF8BD000095
:100A700044380240083801400000024000040240AF
:100A800000080240000C0240001002400014024026
:100A900000180240001C0240083C01400148006868
:100AA00070470000480000200348006803490978A7
:100AB00008440149086070474800002050000020A9
:100AC00010B50D48006840F400700B4908600846F6
:100AD000006840F4806008600846006840F4807058
:100AE0000860032000F0A6F80F2000F007F800F0DF
:100AF0002BF8002010BD0000003C024070B50446F9
:100B00000E4800784FF47A71B1FBF0F00C49096897
:100B1000B1FBF0F5284600F02FFC08B1012070BDB4
:100B2000102C07D200222146501E00F045F805483F
:100B3000046001E00120F2E70020F0E7500000200F
:100B4000540000204C00002008B500BF0020009099
:100B50000E48006840F480400C4908600846006870
:100B600000F48040009000BF00BF00BF0020009054
:100B7000081F006840F08050091F086008460068A0
:100B800000F08050009000BF00BF08BD4438024014
:100B90000146084600280DDB00BF00BF00F01F0320
:100BA00001229A4043099B0003F1E023C3F800218E
:100BB00000BF00BF00BF70472DE9F05F80460D46C3
:100BC0001646002702F030FC074639462A463346CF
:100BD00001F00700C0F1070ABAF1040F02D94FF083
:100BE000040A01E0C0F1070AD14600F1040ABAF193
:100BF000070F02D24FF0000A01E0A0F1030AD44629
:100C00004FF0010A0AFA09FAAAF1010A0AEA020AED
:100C10000AFA0CFA4FF0010B0BFA0CFBABF1010BCB
:100C20000BEA030B4AEA0B042146404602F004FC9F
:100C3000BDE8F09F00BF00F00702064B19684FF6B1
:100C4000FF031940044B0B4343EA0221014B196097
:100C500000BF70470CED00E00000FA0570B50446D7
:100C60000D460CB9012070BD5848006800F007001F
:100C7000A84209D255490D700846006800F00700E7
:100C8000A84201D00120EEE7207800F002000228FF
:100C90001DD1207800F00400042805D14C480068DC
:100CA00040F4E0504A490860207800F00800082825
:100CB00005D14748006840F4604045490860444811
:100CC000006820F0F000A1680843414908602078DE
:100CD00000F00100A8B36068012807D13C4808383B
:100CE0000068C0F34040B8B90120BCE76068022842
:100CF00002D06068032807D1354808380068C0F37F
:100D0000406048B90120AEE7314808380068C0F3B8
:100D1000400008B90120A6E72D48006820F0030034
:100D2000616808432A490860FFF7B8FE064609E0F3
:100D3000FFF7B4FE801B41F28831884202D90320BC
:100D400091E707E02248006800F00C006168B0EB12
:100D5000810FEDD11D48006800F00700A84209D9B5
:100D60001A490D700846006800F00700A84201D03B
:100D7000012078E7207800F00400042807D1144807
:100D8000006820F4E050E1680843114908602078C9
:100D900000F00800082808D10D48006820F46040E1
:100DA000216940EAC1000A49086000F03FF808499B
:100DB0000968C1F30311074A515CC840064908603D
:100DC00006480068FFF79AFE00204CE7003C02400E
:100DD000083802401C430008540000204C0000204A
:100DE00001480068704700005400002000B5FFF77C
:100DF000F7FF04490968C1F38221034A515CC840E6
:100E000000BD0000083802402C43000800B5FFF781
:100E1000E7FF04490968C1F34231034A515CC84005
:100E200000BD0000083802402C4300082DE9F047BF
:100E3000002400250026A1462548006800F00C008B
:100E400020B1042805D008283AD105E0DFF88490C5
:100E500039E0DFF8849036E01D48001F006800F09C
:100E60003F041B48001F006800F4800078B11A4856
:100E70001749091F0968C1F38811A0FB01700146D9
:100E8000224600233846FFF79BF905460EE011483D
:100E90000F49091F0968C1F38811A0FB01700146C1
:100EA000224600233846FFF78BF905460848001F05
:100EB0000068C0F30140401C4600B5FBF6F902E0B3
:100EC000DFF8109000BF00BF4846BDE8F087000083
:100ED000083802400024F40000127A00F8B50446F5
:100EE0000CB90120F8BD207800F00100002874D072
:100EF000F948006800F00C0004280DD0F64800689E
:100F000000F00C00082813D1F348001F006800F41B
:100F10008000B0F5800F0BD1EF4808380068C0F3AF
:100F20004040002859D06068002856D10120D9E7F8
:100F300000BF6068B0F5803F08D1E7480838006816
:100F400040F48030E449083908601EE06068B0F57C
:100F5000A02F0DD1E0480838006840F48020DE4919
:100F6000083908600846006840F4803008600CE0EA
:100F7000D9480838006820F48030D749083908601B
:100F80000846006820F48020086000BF606890B1C7
:100F9000FFF784FD054606E0FFF780FD401B64284F
:100FA00001D903209EE7CC4808380068C0F34040D0
:100FB0000028F1D011E0FFF771FD054606E0FFF7CC
:100FC0006DFD401B642801D903208BE7C248083817
:100FD0000068C0F340400028F1D1207800F0020002
:100FE00002285FD1BC48006800F00C0058B1BA4834
:100FF000006800F00C0008281CD1B748001F0068EA
:1010000000F48000B0B9B44808380068C0F340006C
:1010100020B1E068012801D0012063E7AE4808381C
:10102000006820F0F800216940EAC100AA490839A7
:10103000086037E0E06800B30120A8490860FFF7C6
:101040002DFD054606E0FFF729FD401B022801D9CA
:10105000032047E7A04808380068C0F34000002894
:10106000F1D09D480838006820F0F800216940EA76
:10107000C10099490839086014E0002097490860C8
:10108000FFF70CFD054606E0FFF708FD401B0228B0
:1010900001D9032026E7904808380068C0F34000D3
:1010A0000028F1D1207800F0080008282CD16069D0
:1010B000A8B101208A490860FFF7F0FC054606E068
:1010C000FFF7ECFC401B022801D903200AE7824805
:1010D0006C300068C0F340000028F1D014E000201C
:1010E0007F490860FFF7DAFC054606E0FFF7D6FC0B
:1010F000401B022801D90320F4E677486C300068D1
:10110000C0F340000028F1D1207800F0040004284A
:1011100070D1002770483830006800F0805090B9D6
:1011200000BF002000906C483830006840F08050CC
:101130006949383108600846006800F08050009026
:1011400000BF00BF01276748006800F48070B0B995
:101150006448006840F4807062490860FFF79EFCB4
:10116000054606E0FFF79AFC401B022801D9032040
:10117000B8E65C48006800F480700028F2D000BF38
:10118000A068012808D154486830006840F0010088
:101190005149683108601DE0A06805280DD14E480E
:1011A0006830006840F004004B4968310860084628
:1011B000006840F0010008600CE0474868300068B3
:1011C00020F001004449683108600846006820F0BA
:1011D0000400086000BFA068A8B1FFF75FFC0546E7
:1011E00009E0FFF75BFC401B41F28831884202D9DD
:1011F000032077E626E0384868300068C0F34000F6
:101200000028EED013E0FFF749FC054608E0FFF7A1
:1012100045FC401B41F28831884201D9032061E638
:101220002D4868300068C0F340000028EFD1012F3E
:1012300007D129483830006820F0805026493831DD
:10124000086000BFA069002845D02348006800F06E
:101250000C0008285DD0A069022845D100201F4954
:101260000866FFF71BFC054606E0FFF717FC401B6E
:10127000022801D9032035E6174808380068C0F372
:1012800040600028F1D1D4E907010843616A40EACF
:1012900081110122A06AC2EB500041EA00412C20DA
:1012A000005D41EA00600C49091F086001200B49FC
:1012B0000866FFF7F3FB054606E0FFF7EFFB401B70
:1012C000022801D903200DE6034808380068C0F35E
:1012D00040600028F1D049E0083802400000474251
:1012E000800E474200700040002021490866FFF749
:1012F000D5FB054606E0FFF7D1FB401B022801D9CC
:101300000320EFE51B480068C0F340600028F2D1DD
:101310002CE0A069012800D1E4E51648001D06680C
:10132000A069012820D006F48001E06981421BD128
:1013300006F03F01206A814216D147F6C070304066
:10134000616AB0EB811F0FD106F440310122A06A1F
:10135000C2EB5000B1EB004F06D106F070612C20BB
:10136000005DB1EB006F01D00120BBE50020B9E5C5
:10137000000047420038024070B504462546681E0A
:10138000B0F1807F01D301200FE0681E4FF0E02113
:1013900048610F214FF0FF3002F04EF800204FF06F
:1013A000E021886107200861002070BD7047704708
:1013B00030B502460B4600BF92F83C00012801D12F
:1013C000022030BD012082F83C0000BF022082F8DC
:1013D0003D00106844681068816824F07004186843
:1013E000044310684460184D1068A8421BD0106870
:1013F000B0F1804F17D0154D1068A84213D0144D8E
:101400001068A8420FD0134D1068A8420BD0124D9F
:101410001068A84207D0114D1068A84203D0104DA3
:101420001068A84205D121F0800158680143106876
:101430008160012082F83D0000BF002082F83C005E
:1014400000BF00BFBDE700000000014000040040F5
:1014500000080040000C0040000401400040014032
:101460000018004010B504460CB9012010BD94F8D6
:101470003D0028B9002084F83C00204600F026F802
:10148000022084F83D00211D206801F051FB01205D
:1014900084F8460000BF84F83E0001213F2001553A
:1014A000402001554120015500BF00BF012084F8B4
:1014B000420043200155442001554520015500BFFD
:1014C000012084F83D000020D0E7000038B5044634
:1014D0002249206888420FD100BF00200090204898
:1014E000006840F008001E4908600846006800F0E7
:1014F0000800009000BF30E01A492068884218D1E7
:1015000000BF002000901648006840F01000144909
:1015100008600846006800F01000009000BF00BF9F
:10152000002204213620FFF747FB3620FFF730FB6F
:1015300013E00D49206888420FD100BF00200090C1
:101540000748006840F04000054908600846006808
:1015500000F04000009000BF00BF38BD000C00400C
:10156000403802400010004000180040014691F849
:101570003D00012801D001207047022081F83D0084
:101580000868C06840F001000B68D8601A4B086812
:1015900098421BD00868B0F1804F17D0174B0868ED
:1015A000984213D0164B086898420FD0154B086824
:1015B00098420BD0144B0868984207D0134B086828
:1015C000984203D0124B086898420CD10868806892
:1015D00000F00702062A0CD00868006840F00100FD
:1015E0000B68186005E00868006840F001000B68AF
:1015F00018600020C0E70000000001400004004027
:1016000000080040000C0040000401400040014080
:10161000001800402DE9F04104460D46002700BFA8
:1016200094F83C00012802D10220BDE8F08101209D
:1016300084F83C0000BF022084F83D0020688668E2
:1016400026F0770626F47F462068866028685028B2
:1016500033D00CDC202850D004DC00284BD01028DC
:1016600051D149E0302849D040284CD139E0602898
:101670002DD0702807D0B0F5805F03D0B0F5005FA3
:1016800041D10DE041E0D5E902136A68206801F01C
:10169000D4FA2068866846F077062068866034E0D1
:1016A000D5E902136A68206801F0C7FA20688068EB
:1016B00040F480402168886027E0EA686968206813
:1016C00001F0ACFB5021206801F0C2FA1DE0EA688D
:1016D0006968206801F0B5FB6021206801F0B8FA64
:1016E00013E0EA686968206801F098FB40212068EF
:1016F00001F0AEFA09E000BF00BF00BF2968206812
:1017000001F0A6FA01E0012700BF00BF012084F824
:101710003D0000BF002084F83C0000BF384684E74D
:101720002DE9F04104460D4614B90120BDE8F081D1
:1017300094F83D0028B9002084F83C00204600F0D1
:1017400053F8022084F83D002068806844F20701C5
:10175000884321688860211D206801F0E9F920682C
:10176000D0F80880206886692068076A286840EAFF
:10177000080840F203308643A969A86840EA0120BE
:10178000064340F60C4086434FF2F0008643E96979
:10179000E86840EA0120064328690001296A40EA16
:1017A0000130064327F0220727F088076969686837
:1017B00040EA011007432068C0F80880206886616D
:1017C00020680762012084F8460084F83E00012169
:1017D0003F200155012084F842004320015501209B
:1017E00084F83D000020A1E710B586B0044614211E
:1017F00001A8FEF72FFD4C492068884238D100BF70
:10180000002000904948006840F001004749086006
:101810000846006800F00100009000BF00BF00BF54
:101820000020009041481438006840F001003F4912
:10183000143908600846006800F00100009000BFFD
:1018400000BF4FF4407001900220029000200390EE
:1018500004900120059001A93548FFF725F80022E2
:1018600011461920FFF7A8F91920FFF791F959E05F
:101870002068B0F1804F55D100BF002000902B4868
:10188000001F006840F001002849091F0860084651
:10189000006800F00100009000BF00BF00BF002002
:1018A000009022481438006840F001001F491439A4
:1018B00008600846006800F00100009000BF00BF0B
:1018C00000BF002000900846006840F00200086059
:1018D0000846006800F00200009000BF00BF4FF40F
:1018E000004001900220029000200390049001200B
:1018F000059001A90E48FEF7D7FF082001900220AD
:1019000002900020039004900120059001A909484D
:10191000FEF7CAFF002211461C20FFF74DF91C20DC
:10192000FFF736F906B010BD000001404438024010
:1019300000000240000402402DE9F04304460D4639
:1019400094F83E603F20075D94F84280432010F8F1
:1019500004906DB9012E02D1B8F1010F02D001201F
:10196000BDE8F083022084F83E0084F8420025E0C0
:10197000042D0CD1012F02D1B9F1010F01D00120AA
:10198000EEE702213F2001554320015516E0012ECC
:1019900007D1012F05D1B8F1010F02D1B9F1010F23
:1019A00001D00120DCE7022084F83E0002213F2024
:1019B0000155022084F842004320015515B1042D41
:1019C0000CD105E001220021206801F025F910E08A
:1019D00001220421206801F01FF90AE00122002100
:1019E000206801F019F901220421206801F014F99E
:1019F00000BF00BF2068006840F001002168086057
:101A00000020ADE7704770B504462068C5682068BF
:101A1000066906F00200022819D105F0020002282A
:101A200015D1401F21680861012020772068806956
:101A300000F0030018B12046FFF7E4FF05E0204660
:101A400000F0F0F8204600F0A4F90020207706F01E
:101A50000400042819D105F00400042815D1C0435E
:101A600021680861022020772068806900F44070B6
:101A700018B12046FFF7C6FF05E0204600F0D2F877
:101A8000204600F086F90020207706F0080008289C
:101A900019D105F00800082815D1C0432168086154
:101AA000042020772068C06900F0030018B12046A8
:101AB000FFF7A8FF05E0204600F0B4F8204600F04C
:101AC00068F90020207706F01000102819D105F0E1
:101AD0001000102815D1C043216808610820207724
:101AE0002068C06900F4407018B12046FFF78AFFF3
:101AF00005E0204600F096F8204600F04AF9002064
:101B0000207706F0010048B105F0010030B16FF018
:101B1000010021680861204600F0C2F906F080004B
:101B2000802809D105F08000802805D1C0432168B4
:101B300008612046FFF73AFC06F04000402809D132
:101B400005F04000402805D1C043216808612046C7
:101B500000F0F2F906F02000202809D105F020005D
:101B6000202805D1C043216808612046FFF71FFCEB
:101B700070BD000010B586B00446142101A8FEF720
:101B800069FB2349206888421DD100BF00200090D6
:101B90002048006840F001001E49086008460068BF
:101BA00000F00100009000BF00BF0F200190022054
:101BB00002900020039004900220059001A916488D
:101BC000FEF772FE21E01549206888421DD100BF52
:101BD000002000900F48006840F002000D490860A6
:101BE0000846006800F00200009000BF00BF4FF4FC
:101BF00040400190022002900020039004900920B0
:101C0000059001A90648FEF74FFE06B010BD000082
:101C1000000C004030380240000002400018004034
:101C20000004024070472DE9F04104460D46164677
:101C3000002700BF94F83C00012802D10220BDE833
:101C4000F081012084F83C0000BF36B1042E1BD087
:101C5000082E31D00C2E5ED145E02946206801F0D7
:101C600001F82068806940F00800216888612068D8
:101C7000806920F0040021688861206880692969F2
:101C800008432168886148E02946206801F022F86D
:101C90002068806940F4006021688861206880695C
:101CA00020F480602168886120688069296940EAA1
:101CB00001202168886130E02946206801F048F859
:101CC0002068C06940F008002168C8612068C069C8
:101CD00020F004002168C8612068C06929690843B0
:101CE0002168C86119E02946206801F06DF8206874
:101CF000C06940F400602168C8612068C06920F4B0
:101D000080602168C8612068C069296940EA0120B3
:101D10002168C86101E0012700BF00BF00BF0020AB
:101D200084F83C0000BF384689E710B504460CB97A
:101D3000012010BD94F83D0028B9002084F83C0033
:101D4000204600F025F8022084F83D00211D20687F
:101D500000F0EEFE012084F8460000BF84F83E004B
:101D600001213F200155402001554120015500BF70
:101D700000BF012084F84200432001554420015552
:101D80004520015500BF012084F83D000020D0E728
:101D90007047704770B504460D4615B994F83E007B
:101DA0000BE0042D02D13F20005D06E0082D02D19A
:101DB0004020005D01E04120005D012801D00120AC
:101DC00070BD1DB9022084F83E000EE0042D03D141
:101DD00002213F20015508E0082D03D102214020B7
:101DE000015502E0022141200155012229462068C7
:101DF00000F012FF23492068884203D0224920685E
:101E0000884201D1012000E0002028B12068406C08
:101E100040F40040216848641A49206888421BD079
:101E20002068B0F1804F17D018492068884213D03D
:101E30001749206888420FD01649206888420BD085
:101E400011492068884207D013492068884203D08E
:101E50001249206888420CD12068806800F007068B
:101E6000062E0CD02068006840F001002168086050
:101E700005E02068006840F001002168086000204B
:101E80009EE7000000000140000401400004004003
:101E900000080040000C00400040014000180040D5
:101EA00010B504461D48844213D10068006800F054
:101EB0001000102806D11A480088401E00B21849A8
:101EC00008802AE016480088401C00B214490880A7
:101ED00023E01448844213D10068006800F0100029
:101EE000102806D110480088401E00B20E49088014
:101EF00013E00D480088401C00B20B4908800CE03C
:101F00000A48844209D10A48B0F9000001F022FFD2
:101F10000848B0F9000002F0AFF810BD3802002008
:101F20003C000020800200203E0000201003002022
:101F300042000020440000207047704770470000B6
:101F40002DE9F84F0446206805682068C6682068B7
:101F500047694FF00009CA4605F00F09B9F1000FB3
:101F60000AD105F0200038B106F0200020B120464B
:101F700000F0CBFFBDE8F88FB9F1000F7CD007F07F
:101F8000010018B906F49070002875D005F0010022
:101F900030B106F4807018B1606C40F001006064EC
:101FA00005F0040030B107F0010018B1606C40F09A
:101FB0000200606405F0020030B107F0010018B1C2
:101FC000606C40F00400606405F0080048B106F061
:101FD000200010B907F0010018B1606C40F0080053
:101FE0006064606C002846D005F0200028B106F03F
:101FF000200010B1204600F088FF20684069C0F33F
:10200000801A606C00F0080010B9BAF1000F2DD0F2
:10201000204600F034FF2068406900F0400040286E
:1020200020D100BF00BF2168143151E8001F21F00A
:1020300040002168143141E80002002AF3D100BFBA
:10204000E06B50B17748E16B0865E06BFEF703FC8D
:1020500088B1E06B016D88470DE02046FFF76EFF09
:1020600009E009E02046FFF769FF04E02046FFF79A
:1020700065FF002060647DE7206B012878D105F0C2
:102080001000002874D006F010000028FAD000BF1D
:102090000020009020680068009020684068009050
:1020A00000BF00BF2068406900F04000402860D1B8
:1020B000E06B006840681FFA80F8B8F1000F56D056
:1020C000A08D404553DDA4F82E80E06BC069B0F5CB
:1020D000807F43D000BF00BF21680C3151E8001F52
:1020E00021F4807021680C3141E80002002AF3D10C
:1020F00000BF00BF00BF2168143151E8001F21F06C
:1021000001002168143141E80002002AF3D100BF28
:1021100000BF00BF2168143151E8001F21F04000CA
:102120002168143141E80002002AF3D100BF2020C9
:1021300084F842000020206300BF00BF21680C31FA
:1021400051E8001F21F0100021680C3141E8000225
:10215000002AF3D100BFE06BFEF727FB022060638B
:10216000A08DE28D801A81B22046FFF7E6FE01E7DE
:1021700042E0A08DE18D401A1FFA80F8E08DD0B3C7
:10218000B8F1000F37D000BF00BF21680C3151E813
:10219000001F21F4907021680C3141E80002002AF0
:1021A000F3D100BF00BF00BF2168143151E8001F08
:1021B00021F001002168143141E80002002AF3D126
:1021C00000BF202084F842000020206300BF00BF31
:1021D00021680C3151E8001F21F0100021680C31FA
:1021E00041E80002002AF3D100BF022060634146AB
:1021F0002046FFF7A2FEBDE605F0800030B106F0F4
:10220000800018B1204601F035F8B3E605F0400033
:1022100030B106F0400018B1204600F066FEA9E695
:1022200000BFA7E66B2E000810B504460CB90120CC
:1022300010BDA06900B100E000BF94F8410028B9CA
:10224000002084F84000204600F02AF8242084F87A
:1022500041002068C06820F400502168C860204612
:1022600000F0D2FE2068006920F4904021680861E7
:102270002068406920F02A00216848612068C06811
:1022800040F400502168C86000206064202084F879
:10229000410084F842000020606300BFC8E70000EE
:1022A00010B586B00446142101A8FDF7D3FF1F49DD
:1022B0002068884238D100BF002000901C48006888
:1022C00040F480201A4908600846006800F4802025
:1022D000009000BF00BF00BF0020009014481038DD
:1022E000006840F002001249103908600846006892
:1022F00000F00200009000BF00BF4FF4406001906A
:1023000002200290002003900320049007200590F3
:1023100001A90848FEF7C8FA002202212720FEF78B
:102320004BFC2720FEF734FC06B010BD00480040EF
:10233000403802400004024070B504460D4616467F
:1023400094F8420020280BD105B10EB9012070BDD0
:102350000020206332462946204600F06BFFF6E756
:102360000220F4E710B504461B48844232D1012014
:102370001A4908701A49087018231A4A1A491B4842
:1023800000F0F6FF10221749491D1948FDF749FFD3
:10239000174890ED010ABDEEC00A10EE100A00B217
:1023A00014490880124890ED020ABDEEC00A10EEF2
:1023B000100A00B2104908800D4890ED000ABCEEEA
:1023C000C00A10EE100A0D4908801822064902487A
:1023D000FFF7B2FF10BD0000A003002000000020A6
:1023E0000100002000040020E8030020400000203D
:1023F0001804002042000020440000204600002075
:102400002DE9F84F04460E46174699464FF0000A4C
:1024100094F84100202850D106B117B90120BDE839
:10242000F88F00206064212084F84100FEF736FB1D
:102430008246A784E784A068B0F5805F04D1206954
:1024400010B90025B04602E035464FF000081EE006
:102450005346002280212046CDF8009000F03AFF3C
:1024600020B1202084F841000320D8E745B9B8F80E
:102470000000C0F308002168486008F1020803E08A
:102480002878216848606D1CE08C401EE084E08C58
:102490000028DDD15346002240212046CDF800908F
:1024A00000F018FF20B1202084F841000320B6E797
:1024B000202084F841000020B1E70220AFE77047F8
:1024C00000BFFEE708B500BF002000901D4800686F
:1024D00040F004001B4908600846006800F0040052
:1024E000009000BF00BF00BF0020009008460068B9
:1024F00040F0800008600846006800F0800000900E
:1025000000BF00BF00BF002000900846006840F0F8
:10251000010008600846006800F00100009000BF5C
:1025200000BF00BF002000900846006840F0020095
:1025300008600846006800F00200009000BF00BF7D
:1025400008BD00003038024000B58BB00020079075
:10255000089009900A901C216846FDF77BFE1F48F1
:102560001F4908605320486000211D48816044F6DF
:102570001F61C160002101618161FEF773FF08B135
:10258000FEF710F94FF48050079007A91448FFF7A1
:1025900041F808B1FEF706F91148FFF7C6FB08B18C
:1025A000FEF700F960200090002001900290049056
:1025B000002269460A48FFF736FB08B1FEF7F2F839
:1025C000042269460648FFF72EFB08B1FEF7EAF839
:1025D0000348FFF7CFFA0BB000BD00000018004021
:1025E0005803002000B58BB0242102A8FDF732FE6D
:1025F00000200090019018481849086000204860A9
:102600000021164881604FF6FF71C1600021016111
:102610004161816103200290002003900120049019
:102620000020059006900790012008900020099056
:102630000A9002A90948FFF773F808B1FEF7B2F84B
:1026400000200090019069460448FEF7B1FE08B1F1
:10265000FEF7A8F80BB000BD0000014038020020D2
:1026600000B58BB0242102A8FDF7F4FD00200090F6
:1026700001904FF080401749086000204860002119
:1026800014488160491EC1600021016181610320FD
:1026900002900020039001200490002005900690F5
:1026A000079001200890002009900A9002A909488B
:1026B000FFF736F808B1FEF775F80020009001909A
:1026C00069460448FEF774FE08B1FEF76BF80BB0DC
:1026D00000BD00008002002000B58DB000200990F0
:1026E0000A900B900C90079008901C216846FDF70B
:1026F000B1FD2C482C4908605320486000212A482D
:10270000816040F2E731C160002101618161FEF723
:10271000A9FE08B1FEF746F84FF48050099009A9C8
:102720002148FEF777FF08B1FEF73CF81E48FFF797
:10273000FCFA08B1FEF736F800200790089007A9C8
:102740001948FEF735FE08B1FEF72CF8602000901E
:102750000020019002900490002269461248FFF781
:1027600062FA08B1FEF71EF8042269460E48FFF728
:102770005AFA08B1FEF716F8082269460A48FFF728
:1027800052FA08B1FEF70EF80C2269460648FFF728
:102790004AFA08B1FEF706F80348FFF7EBF90DB067
:1027A00000BD0000000C0040C80200201CB5002045
:1027B000009001900E480F49086040F28F60486019
:1027C00000210C4881603121C16000218161FEF748
:1027D00049FE08B1FDF7E6FF002000900190694630
:1027E0000448FEF7E5FD08B1FDF7DCFF1CBD000065
:1027F000001000401003002010B50B480B49086082
:102800004FF4E1304860002108488160C1600161F7
:102810000C21416100218161C161FFF705FD08B113
:10282000FDF7C0FF10BD000000480040A0030020DD
:1028300000BFFEE700BFFEE710B52DED0A8B044692
:10284000B0EE408AF0EE608A012009EE100A84EDB5
:10285000088AC4ED058A38EEC80A84ED0B0A94EDA7
:10286000150AB5EEC00AF1EE10FA27D094ED150A5C
:1028700010EE101A0846FDF7F8FC41EC1A0B94ED27
:102880000B0A10EE101A0846FDF7EFFC41EC1C0B8A
:10289000B0EE4C0AF0EE6C0A00F0E2FDB0EE40BA89
:1028A000F0EE60BA53EC1A2B51EC1B0BFDF7F0FC69
:1028B00004D29FED5D0ABDEC0A8B10BD206E03288B
:1028C00040D194ED000AD4ED0B0A20EE200A84EDED
:1028D0000C0A94ED0D0AD4ED010A94ED0B1A00EEEA
:1028E000810A84ED0D0A94ED0B0AD4ED0A0A30EE4C
:1028F000600AD4ED020A20EE200A84ED0E0AD4ED1F
:10290000170AB0EE600A04F1340001F00CFA94EDFD
:102910000C0AD4ED0D0AB8EEC91A01EE200AD4ED66
:102920000E0A30EE200A84ED0F0AD4ED160AB0EE3E
:10293000600A04F13C0001F0F6F994ED0F0A84ED11
:10294000100A50E0206E04284DD194ED0B0AD4ED0E
:102950000A0A30EE600AD4ED000A20EE200A84ED67
:102960000C0A94ED010AD4ED0B0A20EE200A84ED46
:102970000D0A94ED0B0AD4ED0A0AB0EE001A01EE2E
:10298000600AD4ED090A30EE200AD4ED020A20EEE6
:10299000200A84ED0E0AD4ED170AB0EE600A04F1A5
:1029A000340001F0C0F994ED0C0AD4ED0D0A30EEBC
:1029B000200AD4ED0E0A30EE200A84ED110A94EDBF
:1029C000130AD4ED110A30EE200A84ED120AD4ED78
:1029D000160AB0EE600A04F1480001F0A4F994ED83
:1029E000120A84ED130A94ED0A0A84ED090A94EDA3
:1029F0000B0A84ED0A0A94ED070A84ED060A94EDA9
:102A0000080A84ED070A94ED040A84ED030A94EDA4
:102A1000050A84ED040A206E032802D194ED0F0A02
:102A200049E794ED120A46E700000000704770473E
:102A300010B5FEF739F810BD00B593B0302107A8E6
:102A4000FDF708FC142102A8FDF704FC00BF0020DC
:102A500001902448006840F08050224908600846F0
:102A6000006800F08050019000BF00BF00BF002050
:102A700001901D48006840F480401B4908600846EA
:102A8000006800F48040019000BF00BF0120079063
:102A90000004089002200D9041050E9104210F9131
:102AA000A8211091022111910421129107A8FEF78B
:102AB00015FA08B1FDF776FE0F2002900220039070
:102AC000002004904FF4A05005904FF480500690E1
:102AD000052102A8FEF7C2F808B1FDF763FE13B0A6
:102AE00000BD00004038024000700040034800680C
:102AF00040F47000014908607047000088ED00E074
:102B000010B50248FEF77FFF10BD0000380200201C
:102B100010B50248FEF777FF10BD000080020020CC
:102B200010B50248FEF76FFF10BD00001003002033
:102B300010B502682D4B98420ED0B0F1804F0BD0EB
:102B40002B4B984208D02B4B984205D02A4B9842E9
:102B500002D02A4B984203D122F070024B681A43EC
:102B6000224B984220D0B0F1804F1DD0204B98428C
:102B70001AD0204B984217D01F4B984214D01F4BAD
:102B8000984211D01E4B98420ED01E4B98420BD04B
:102B90001D4B984208D01D4B984205D01C4B9842C3
:102BA00002D01C4B984203D122F44072CB681A43E6
:102BB00022F080034C6943EA040202608B68C3621E
:102BC0000B688362094B984202D00C4B984201D1AA
:102BD0000B69036301234361036903F001031BB124
:102BE000036923F00103036110BD000000000140F0
:102BF0000004004000080040000C004000040140B8
:102C000000400140004401400048014000180040DD
:102C1000001C00400020004030B501F01F050124D9
:102C200004FA05F3046A9C430462046A01F01F0578
:102C300002FA05F52C43046230BD30B50C468168BC
:102C400021F47F4142EA032525432943816030BDB9
:102C50000A46816821F0700142F007031943816040
:102C60007047000030B5026A056A25F0010505626B
:102C70004368846924F0700424F003040D682C4335
:102C800022F002028D682A43104DA84200D103E0D1
:102C90000F4DA84206D100BF22F00802CD682A439A
:102CA00022F00402094DA84202D0094DA84207D1E2
:102CB00023F4807323F400734D692B438D692B43F8
:102CC000436084614D684563026230BD000001408D
:102CD0000004014030B5026A056A25F0100505625E
:102CE0004368846924F4E04424F440740D6844EAA1
:102CF000052422F020028D6842EA0512124DA842F6
:102D000000D103E0114DA84207D100BF22F080029C
:102D1000CD6842EA051222F040020B4DA84202D0D3
:102D20000A4DA84209D123F4806323F400634D695E
:102D300043EA85038D6943EA8503436084614D68F6
:102D40008563026230BD00000000014000040140C4
:102D500030B5026A056A25F4807505624368C46966
:102D600024F0700424F003040D682C4322F4007254
:102D70008D6842EA0522124DA84200D103E0114DB0
:102D8000A84207D100BF22F40062CD6842EA0522C2
:102D900022F480620A4DA84202D00A4DA84209D10D
:102DA00023F4805323F400534D6943EA05138D69DE
:102DB00043EA05134360C4614D68C563026230BDD8
:102DC000000001400004014030B5036A056A25F4A3
:102DD000805505624468C26922F4E04222F44072E0
:102DE0000D6842EA052223F400538D6843EA053357
:102DF000084DA84202D0084DA84204D124F48044D2
:102E00004D6944EA85144460C2614D6805640362FB
:102E100030BD0000000001400004014030B50B4609
:102E20001446026A056A25F001050562816921F0F0
:102E3000F00141EA041122F00A021A4381610262A0
:102E400030BD30B50B461446026A056A25F0100500
:102E50000562816921F4704141EA043122F0A00247
:102E600042EA03128161026230BD70B50546AC6B67
:102E70000020E085E0842046FFF760F870BD00BFC9
:102E800000BF02680C3252E8002F22F490710268F1
:102E90000C3242E80013002BF3D100BF00BF00BF8B
:102EA0000268143252E8002F22F001010268143245
:102EB00042E80013002BF3D100BF016B01290ED1B2
:102EC00000BF00BF02680C3252E8002F22F0100150
:102ED00002680C3242E80013002BF3D100BF20211E
:102EE00080F8421000210163704710B50446206845
:102EF000C06820F040002168C860202084F84100AC
:102F00002046FFF7DCFA002010BDF8B5044694F81F
:102F10004200222875D1A068B0F5805F0CD12069ED
:102F200050B90025A66A20684068C0F308003080C8
:102F3000A06A801CA06215E0A56A0026A068B0F512
:102F4000805F03D0A06828B9206918B9206840685C
:102F5000287004E02068406800F07F002870A06AB4
:102F6000401CA062E08D401E80B2E085002846D162
:102F70002068C06820F020002168C8602068C06810
:102F800020F480702168C8602068406920F001004A
:102F900021684861202084F8420000206063206B93
:102FA000012826D10020206300BF00BF21680C311A
:102FB00051E8001F21F0100021680C3141E80002A7
:102FC000002AF3D100BF2068006800F0100010282C
:102FD0000AD100BF0020009020680068009020689F
:102FE0004068009000BF00BFA18D2046FEF7A5FFFE
:102FF00002E02046FFF7B6F90020F8BD01E000200E
:10300000FBE70220F9E700002DE9F84F04462068AD
:10301000006920F44050E168084321680861216993
:10302000A068084361690843E1690843009020688B
:10303000C06849F20C618843009908432168C86060
:103040002068406920F44070A16908432168486104
:1030500076492068884203D075492068884203D1A8
:10306000FDF7D4FE814602E0FDF7C0FE8146E0692F
:10307000B0F5004F6CD102206168A0FB01500346FF
:103080001920A9FB007001462A463846FDF798F83A
:103090006421B0FBF1F04FEA001A02206168A0FB46
:1030A00001510B461920A9FB00712A463846FDF74D
:1030B00087F8834602206168A0FB0150034619206F
:1030C000A9FB00712A463846FDF77AF86421B0FB67
:1030D000F1F000EBC00101EB0010ABEB80003221FE
:1030E00001EBC0006421B0FBF1F000F0F8000AEB46
:1030F000400A02206168A0FB015003461920A9FB89
:10310000007001462A463846FDF75AF883460220E9
:103110006168A0FB015003461920A9FB00712A46F3
:103120003846FDF74DF86421B0FBF1F000EBC0012B
:1031300001EB0010ABEB8000322101EBC0006421F9
:10314000B0FBF1F000F007005044216888606AE0AD
:1031500004206168A0FB015003461920A9FB007000
:1031600001462A463846FDF72BF88246042061685E
:10317000A0FB015003461920A9FB007001462A4616
:103180003846FDF71DF86421B0FBF1F000EBC001FB
:1031900001EB0010AAEB8000322101EB001064214A
:1031A000B0FBF1F000F0F00A04206168A0FB0170B0
:1031B00003461920A9FB00513A462846FDF700F8BE
:1031C0006421B0FBF1F00AEB001A04206168A0FB57
:1031D00001510B461920A9FB00712A463846FCF71D
:1031E000EFFF834604206168A0FB015003461920CD
:1031F000A9FB007001462A463846FCF7E1FF64212E
:10320000B0FBF1F000EBC00101EB0010ABEB800074
:10321000322101EB00106421B0FBF1F000F00F004F
:10322000504421688860BDE8F88F0000001001401C
:103230000014014010B5034699629A85DA85002092
:103240005864222083F84200186928B11868C068C1
:1032500040F480701C68E0601868406940F001002C
:103260001C6860611868C06840F020001C68E0605D
:10327000002010BD014691F84100212828D188681E
:10328000B0F5805F0BD1086948B90A6A1088C0F3AD
:1032900008000B685860086A801C086205E00B6A29
:1032A000581C086218780B685860C88C401E80B2A1
:1032B000C88458B90868C06820F080000B68D860DE
:1032C0000868C06840F040000B68D8600020704774
:1032D0000220FCE72DE9F84304460D4617469846C0
:1032E000089E31E0701C70B3FDF7D8FBA0EB08001E
:1032F000B04200D816B90320BDE8F8832068C06842
:1033000000F00400F8B1802D1ED0402D1CD02068A4
:103310000068C0F3C000B0B100BF0020009020687A
:103320000068009020684068009000BF00BF204601
:10333000FFF7A5FD0820606400BF002084F840006E
:1033400000BF0120D8E7FFE7206800682840A842B6
:1033500001D1012000E00020B842C3D00020CBE71B
:1033600010B50248FEF7ECFD10BD0000A0030020E0
:103370002DE9F04107460C4690461D4620783978E5
:10338000884209D160787978884205D12A46214659
:103390004046FCF746FF32E0681E205C39788842E0
:1033A0000DD120787978884209D12178681E08F8F3
:1033B00000106A1E611C4046FCF733FF1FE0012627
:1033C00000BF17E0A05D3978884211D1701C205CE5
:1033D000797888420CD1AA1BA1194046FCF721FF3D
:1033E00008EB0501881B32462146FCF71AFF04E072
:1033F000701CC6B2681EB042E4DC00BF00BFBDE86E
:10340000F08100BFFEE700000FB4054B10B503A923
:10341000044A029800F0F0F810BC5DF814FB0000BC
:10342000C93E00085800002002480068C0F302208E
:10343000704700000CED00E010B5002804DB0A071F
:10344000130E054A135406E00A07140E034A00F04F
:103450000F031B1FD45410BD00E400E018ED00E082
:103460002DED020B019820F0004001909DED000B26
:1034700002B0704702E008C8121F08C1002AFAD142
:1034800070477047002001E001C1121F002AFBD1E4
:10349000704700002DE9FF5FDDE90220010DDDF836
:1034A00038B0024318D044F61050A1F2FF31414326
:1034B0000D140F98012820D0A5EB0B00401C5FEAEB
:1034C000000A4FF00004474EDFF81C91A04650461A
:1034D00016D5CAF1000728E00F98012443A201285D
:1034E00008D0002100980F9BC0E90021C0E90243E9
:1034F000BDE8FF9F6FEA0B01F4E7CBF10000DEE7C8
:10350000074612E0F80707D02246334640464946B0
:10351000FCF7B2FF804689462246334610461946DC
:10352000FCF7AAFF04460E467F10002FEAD1DDE922
:103530000201BAF1000F42464B4602DAFCF79CFF4B
:1035400001E0FDF70BF804460E460022284BFDF77C
:103550008DF803D84FF0FF30014607E00022254BDD
:1035600020463146FCF7E1FEFDF767F8102409E03C
:10357000002C0ADB0A220023FCF722FE019B3032DA
:103580001A55641E50EA0102F2D1641C019AC4F17A
:10359000110314440F9A012A03D0012208430DD1CC
:1035A0000AE0084304D000204FF0110B0F9080E791
:1035B000A3EB0B056D1E0DE05B4504DD4FF0000233
:1035C00005F1010504E003DA4FF00002A5F1010561
:1035D000002AECD000980F99C0E90231C0E90045FB
:1035E00086E70000000024400000F03F30000000AB
:1035F0000000F0430000E03F2DE9FF4F95B09B46EF
:103600008946064600250FE2252877D10024274663
:10361000F84A0121059400E0044316F8013F203BDD
:1036200001FA03F01042F7D130782A2811D06FF058
:103630002F033078A0F13002092A16D8059A44F0F9
:10364000020402EB820203EB42021044761C059056
:10365000EFE759F8042B0592002A03DA504244F4AC
:103660000054059044F00204761C30782E2816D1C0
:1036700016F8010F44F004042A280DD06FF02F0231
:103680003078A0F13003092B09D807EB870302EB50
:103690004303C718761CF3E759F8047B761C30788F
:1036A0006C280FD006DC4C2817D068280DD06A286B
:1036B00014D104E0742810D07A280FD10DE044F41E
:1036C00000140AE044F4801401E044F440147278D9
:1036D000824202D104F58014761C761C307866286C
:1036E0000BD013DC582877D009DC002875D045288A
:1036F000F6D04628F4D047281AD19DE118E0632877
:1037000035D0642879D0652812D195E1702873D01E
:1037100008DC6728F1D069286FD06E280DD06F289B
:1037200006D1B5E073282CD0752875D0782874D0D0
:103730005A46179990476D1C75E1C4F30250022850
:1037400009D003280DD0D9F8001004280DD00D6041
:1037500009F1040967E1D9F80010EA17C1E900523C
:10376000F6E7D9F800100D80F2E70D70F0E719F8D0
:10377000041B8DF8001000208DF80100EA4601209E
:1037800003E059F804AB4FF0FF3061074FF0000140
:1037900002D40DE008F101018846B9420FDA8045F4
:1037A000F8DB1AF808100029F4D108E008F101014B
:1037B00088468142FADB1AF808100029F6D10598EC
:1037C0005B46A0EB080721463846179A00F094FAAA
:1037D000284400EB080507E04DE029E10DE01AF868
:1037E000010B5A4617999047B8F10108F7D25B468A
:1037F00021463846179A13E142E00A220092C4F3A8
:1038000002524FF0000A022A08D059F804CB032ACA
:103810004FEAEC710AD00DE029E02AE009F1070136
:1038200021F00702F2E802C1914609E00FFA8CFC90
:103830004FEAEC71042A03D14FFA8CFC4FEAEC7189
:10384000002907DA0A460021DCF1000C61EB0201D5
:103850002D2202E0220504D52B228DF8042001221E
:1038600003E0E20701D02022F7E7904659E00A2161
:1038700002E010220DE010214FF0000A00910BE051
:1038800010224FF0000A44F004040827009203E0DD
:1038900008224FF0000A0092C4F30252022A05D017
:1038A00059F804CB0021032A08D009E009F10701E7
:1038B00021F00702F2E802C1914605E01FFA8CFCF4
:1038C000042A01D10CF0FF0C4FF00008220728D584
:1038D000702806D0009B83F0100353EA0A0305D03A
:1038E0000EE040228DF80420012208E05CEA01028B
:1038F00006D030228DF804208DF805000222904673
:10390000009B83F0080353EA0A030AD15CEA010230
:1039100001D1620705D530228DF804204FF001084F
:103920007F1E582804D034A003900EA802900DE00A
:1039300036A0F9E753466046009AFCF741FC8446FE
:103940000398825C0298401E029002705CEA0100BB
:10395000F0D1029806A9081A00F1200A600702D5E2
:1039600024F4803400E00127574502DDA7EB0A006C
:1039700000E0002000EB0A01009005984144401A45
:103980000590E00306D45B462146179A059800F09F
:10399000B3F90544002706E001A85A46C05D17990F
:1039A00090476D1C7F1C4745F6DBE0030CD55B465A
:1039B0002146179A059800F09FF9054404E030204D
:1039C0005A46179990476D1C0099481E009000298F
:1039D000F5DC08E0029802995A460078491C0291E9
:1039E000179990476D1CBAF10001AAF1010AF1DCA8
:1039F00065E10000092801003031323334353637B3
:103A0000383961626364656600000000303132332A
:103A100034353637383941424344454600000000CA
:103A200000F058F90544761C307800287FF4ECAD9E
:103A300019B02846BDE8F08F620700D4062709F1C7
:103A4000070222F0070CFCE80223E14603F00048DD
:103A50005FEA080C02D00FF2702C0DE05FEA045C04
:103A600002D50FF2682C07E05FEAC47C02D00FF2A7
:103A7000602C01E0AFF2700C4FF0FF3823F00043F0
:103A8000CDF850C065280CD006DC452809D0462862
:103A90001DD047283DD13DE0662818D067287ED14B
:103AA00038E00021112F01DB112000E0781CCDE966
:103AB000000106A90EA8FFF7EDFCDDE90F010E9A43
:103AC00003910021009207F1010A04914DE04FF0AB
:103AD00000400097CDE9011006A90EA8FFF7DAFC17
:103AE000DDE90F0203920E9B11990022DDF80CA074
:103AF0000093049211B9791C00EB010AB7EB0A009C
:103B000004D4C0F1FF3007F1010A0490AAEB0700CA
:103B1000019044E0012F00DA01270021112F01DD7F
:103B2000112000E03846CDE9000106A90EA8FFF7F4
:103B3000B1FCDDE90F010E9A03910021049100927E
:103B4000BA4621070CD40399514500DA8A46BAF1E6
:103B5000010F05DD009AAAF10101515C302908D05E
:103B6000B84202DA10F1040F06DA0121CDE90110A2
:103B700015E0AAF10101E9E7002805DC04990144F8
:103B80000491AAEB000102E0411C514500DD8A4688
:103B90000499401A401C01904FF000400290200709
:103BA00004D40198504501DBCDF8048000208DF845
:103BB0004F0002980DF14F07B0F1004F25D02B2098
:103BC0000E9002984FF0020800280CDA4042029052
:103BD0002D200E9007E00A210298FCF771FB30318E
:103BE000029007F8011DB8F10001A8F10108F2DC0C
:103BF00002980028EFD1791E0E980870307800F0F6
:103C0000200040F0450007F8020D12A8C01B00F18B
:103C100007081498007800B1012000EB0A01019810
:103C200001EBE07105984144401A401E0590E00305
:103C300006D45B462146179A059800F05DF80544C6
:103C40001498007818B15A46179990476D1CE003F4
:103C500024D55B462146179A059800F04DF8054497
:103C60001CE00498002807DBDDE90301884203DD3E
:103C70000098405C179901E0179930205A46904708
:103C8000049805F10105401C04900198401E019024
:103C900004D12E205A46179990476D1CBAF10001A5
:103CA000AAF1010ADDDC05E017F8010B5A46179965
:103CB00090476D1CB8F10001A8F10108F4DC5B46E7
:103CC0002146179A0598ABE62D0000002B00000056
:103CD000200000002DE9F041044600251E4617464D
:103CE000880404D405E039462020B0476D1C641ECA
:103CF000F9D52846BDE8F0812DE9F04104460025BC
:103D00001E469046C80301D5302700E020278804CE
:103D100004D505E041463846B0476D1C641EF9D510
:103D20002846BDE8F081D0ED000AF4EEC00AF1EEBD
:103D300010FA01DD80ED000AD0ED000AB1EE401A64
:103D4000F4EEC10AF1EE10FA03D2F1EE400AC0ED32
:103D5000000A70473EB5044633480078012862D116
:103D6000324860434FF4B47190FBF1F03049086081
:103D700030480068406A3049B1F90010C1EB014198
:103D800008442E4908602A4890ED000AF8EEC00A5F
:103D9000084690ED000AB8EEC00A2948FEF74CFD2F
:103DA000BDEEC00A10EE100A00B22649088008468F
:103DB000B0F9000000F0B4F8204800684FF4B47186
:103DC00048431A4990FBF1F01F4908601F480088DA
:103DD00060B91FA021A123A225A3CDE90021029053
:103DE00026A229A12BA0FFF70FFB17E01748008898
:103DF000C92813D11048B0F900001249B1F90010D8
:103E0000CDE900100B480068436A0F48214602685C
:103E100027A0FFF7F9FA01200C4908800B48008819
:103E2000401C0A4908803EBD00000020A02E63000F
:103E300010000020380200203C0000201400002068
:103E40005C0000200C00002008000020180000206A
:103E5000D2E7B3F6B4CECAFD00000000D5BCBFD592
:103E6000B1C80000D7DCC2F6B3E5CAFD000000000F
:103E7000B1E0C2EBC6F7CAFD00000000CAB5BCCA7B
:103E8000BDC7B6C800000000D4A4C6DABDC7B6C816
:103E9000000000002534732025347320253673205C
:103EA00025377320253573202534730A0000000060
:103EB00025346425346425356425376425342E3152
:103EC000662534640D0A000013B50C464FF47A736E
:103ED000012269460248FEF793FA00981CBD0000D3
:103EE000A0030020FCF7ECFDFEF7A6FD00F0B6F8FD
:103EF000FEF7E8FAFEF7B4FBFEF7EEFBFEF756FC22
:103F0000FEF77AFCFEF720FBFEF76CFB00F074F97D
:103F100003E00248008800F021F8FAE7460000209C
:103F20000C49B1F90010884213D0002807DD0A4976
:103F30000968C8630021084A1268116407E000217B
:103F4000054A1268D1634142034A1268116401496B
:103F50000880704702000020C802002010B5044607
:103F600024480078012843D1B4F57A7F3DDBB4F5CD
:103F7000FA6F3ADC20480088844236D01E48008818
:103F8000A04217DA11E01C4800881C490968486300
:103F9000194800881949096888630520FCF770FCF6
:103FA00015480088401C1449088013480088A04226
:103FB000E9D11AE010480088A04216DD11E00E4851
:103FC00000880E49096848630B4800880B49096856
:103FD00088630520FCF754FC07480088401E06490A
:103FE0000880054800888442E9D100200149087012
:103FF00010BD0000010000202A000020580300200E
:104000000C49B1F90010884213D0002807DD0A4995
:10401000096848630021084A1268916307E000219B
:10402000054A126851634142034A1268916301498B
:104030000880704704000020C8020020C0ED170A65
:1040400080ED160A016680ED001AC0ED011A80EDC0
:10405000022AC0ED142A80ED153A70470448002169
:104060000160416081600348014908600020704799
:10407000A0010020AC0100203EB504463548007880
:10408000012866D1344860434FF4B47190FBF1F0DD
:104090003249086032480068406A3249B1F900107C
:1040A0004FF0FF32A1FB021240182F4908602B4845
:1040B00090ED000AF8EEC00A084690ED000AB8EE4E
:1040C000C00A2A48FEF7B8FBBDEEC00A10EE100A7F
:1040D00000B2274908800846B0F90000FFF790FFBA
:1040E000214800684FF4B47148431B4990FBF1F03C
:1040F00000B2204908802048008860B91FA022A192
:1041000023A226A3CDE90021029027A229A12CA059
:10411000FFF77AF918E018480088C92814D1114827
:10412000B0F900001249B1F90010CDE900100C48B7
:104130000068436A0F48B0F90020214627A0FFF726
:1041400063F901200C4908800B480088401C0A498B
:1041500008803EBD00000020A08601002000002055
:10416000800200203E00002024000020C800002023
:104170001C0000201A00002028000020D2E7B3F61F
:10418000B4CECAFD00000000D5BCBFD5B1C8000048
:10419000D7DCC2F6B3E5CAFD00000000B1E0C2EB17
:1041A000C6F7CAFD00000000CAB5BCCABDC7B6C884
:1041B00000000000D4A4C6DABDC7B6C800000000E5
:1041C0002534732025347320253130732025313078
:1041D0007320253573202534730A000025346425A7
:1041E0003464253130642531306425342E31662520
:1041F00034640D0A0000000010B500F06FF800F004
:1042000081F800F03FF800F035F89FED123ADFED4D
:10421000122A9FED122AF7EE001A9FED111ADFED18
:10422000110A9FED0C0A03210F48FFF707FF9FEDCE
:104230000F3ADFED092A9FED092AF7EE001A9FEDEC
:10424000081ADFED080A9FED030A03210848FFF76B
:10425000F5FE10BD0000FA4300401C4600000000BF
:1042600066660640000048435C00002000007A4477
:10427000C800002010B50248FDF778F910BD000015
:104280001003002010B50020124909684862124945
:1042900009684862801E0F49096808610E4909686B
:1042A00008610C480068C06840F0010009490968CD
:1042B000C86009480068C06840F001000649096804
:1042C000C8603C210348FDF737FB3C210248FDF75D
:1042D00033FB10BD380200208002002010B50821F9
:1042E0000748FDF757FD0C210548FDF753FD002158
:1042F0000348FDF74FFD04210148FDF74BFD10BDBC
:10430000C802002010B5182202490348FEF714F82D
:1043100010BD0000E8030020A00300200000000002
:104320000000000001020304060708090000000065
:104330000102030454430008000000205C00000058
:1043400074340008B04300085C000020CC07000073
:10435000843400080000000000000000000000009D
:10436000000000000000000000000000000000004D
:104370000000000000000000000000000000DC055C
:10438000A406000000000000000000000000000083
:1043900000000000FAAF0000000000000000000074
:1043A00010000000010000000024F40000000000E4
:040000050800018965
:00000001FF
