:020000040800F2
:10000000880C00209D01000869320008D32B0008ED
:10001000653200083D060008AD3F00080000000002
:10002000000000000000000000000000BB340008D9
:100030006B07000800000000B9340008BD34000858
:10004000B7010008B7010008B7010008B7010008B0
:10005000B7010008B7010008B7010008B7010008A0
:10006000B7010008B7010008B7010008B701000890
:1000700041060008B701000851060008B701000852
:10008000B7010008B7010008B7010008B701000870
:10009000B7010008B7010008B7010008B701000860
:1000A000B70100088D350008B7010008B701000846
:1000B0009D350008B7010008B7010008B701000826
:1000C000B7010008B7010008B7010008B701000830
:1000D000B7010008B7010008B7010008353F000864
:1000E000B7010008B7010008B7010008B701000810
:1000F000B7010008B7010008B7010008B701000800
:10010000B7010008B7010008B7010008B7010008EF
:10011000B7010008B7010008AD350008B7010008B5
:10012000B7010008B7010008B7010008B7010008CF
:10013000B7010008B7010008B7010008B7010008BF
:10014000B7010008B7010008B7010008B7010008AF
:10015000B7010008B7010008B7010008B70100089F
:10016000B7010008B7010008B7010008B70100088F
:10017000B7010008B7010008B7010008000000003F
:10018000B7010008B7010008DFF80CD000F044FA0E
:100190000048004749410008880C00200648804775
:1001A00006480047FEE7FEE7FEE7FEE7FEE7FEE75C
:1001B000FEE7FEE7FEE7FEE7793500088901000863
:1001C0002DE9F05F0546002092469B46884606468C
:1001D000814640241BE0284641464746224600F01F
:1001E0009CF953465A46C01A914110D311461846FD
:1001F000224600F083F92D1A67EB01084F4622468C
:100200000120002100F07AF917EB00094E41201E71
:10021000A4F10104DFDC484631462A464346BDE8E6
:10022000F09F40EA01039B0703D009E008C9121FB1
:1002300008C0042AFAD203E011F8013B00F8013BA0
:10024000521EF9D27047D2B201E000F8012B491ECC
:10025000FBD270470022F6E710B513460A46044663
:100260001946FFF7F0FF204610BD2DE9FE4F8046EE
:1002700081EA0300C00F0C46009021F0004123F0FA
:100280000045B8EB0200A94105D240462146904600
:100290001C460B46024623F00040104347D0270D72
:1002A000C7F30A00C3F30A510290401A0190402894
:1002B0006BDAC3F3130040F4801B0098924620B120
:1002C0000023D2EB030A63EB0B0B01985946C0F1F4
:1002D0004002504600F012F906460D465046594677
:1002E000019A00F02AF910EB08006141002487EA26
:1002F000115284EAE7731A4340D0009A62B3019A1C
:10030000012A4FEA075215DC001B61EB02014FF096
:10031000004202EA0752CDE90042001C41F580117B
:1003200032462B4600F02AF903B0BDE8F08F404674
:100330002146F9E7001B61EB0201001C41F5801327
:1003400000185B412018A2F5001747EB030140EAB3
:10035000D570B6196D4111E06D084FEA360645EAD1
:10036000C0754FEA0752001B61EB0201001C41F50A
:10037000801149084FEA30000019514132462B469E
:1003800003B0BDE8F04F00F0EAB800980122400049
:100390000023D0EB020263EBE073009821464FEAA2
:1003A000E074B8EB000061EB0401E9E783F000437F
:1003B0005BE781F0004158E72DE9FE4F81EA030435
:1003C00004F0004421F0004100944FF0000B23F0B2
:1003D000004350EA01045ED052EA03045BD0C3F349
:1003E0000A54C1F30A552C44A4F2F3340194A0FB3F
:1003F0000254C1F3130141F48011C3F3130343F416
:10040000801301FB024400FB034E840A970A44EA6E
:10041000815447EA8357A4FB076802958D0A05FBC0
:1004200007854FEA932C04FB0C542705029D4FEAE5
:10043000065847EA1637B5EB08056EEB070C870E32
:10044000920E47EA811742EA8312A7FB0201B6EB3C
:100450000B0164EB00042B0D43EA0C335E1844EBF4
:100460001C50DA465146E7FB0201C5F313044FEA7C
:100470000B3343EA14534FEA0432019C43EA060368
:10048000A4F10C040294009CCDE900B400F076F8CD
:1004900003B0BDE8F08F00200146F9E70EB5C10FAB
:1004A00080EAE0700844CA07002140F233438DE837
:1004B0000E000A460B4600F061F803B000BD70B5AF
:1004C000C1F30A5201F000450024C1F3130140F2C8
:1004D000FF3341F480119A4201DA002070BD40F2EE
:1004E00033439A42A2F2334203DC524200F015F841
:1004F00000E090402C43F1D0404270BD202A04DB44
:10050000203A00FA02F1002070479140C2F1200326
:1005100020FA03F3194390407047202A04DB203A65
:1005200021FA02F00021704721FA02F3D040C2F113
:1005300020029140084319467047202A06DBCB175A
:10054000203A41FA02F043EAE07306E041FA02F38E
:10055000D040C2F12002914008431946704710B5BF
:10056000141E73F1000408DA401C41F100019218D6
:100570005B411A4301D120F0010010BD2DE9F04D7F
:1005800092469B4611B1B1FA81F202E0B0FA80F2D4
:1005900020329046FFF7B2FF04460F4640EA0A00B9
:1005A00041EA0B0153465A46084313D0114653EA19
:1005B000010019D0C8F140025046FFF7AEFF0546D2
:1005C0000E46504659464246FFF798FF084305D06D
:1005D000012004E020463946BDE8F08D00200543A7
:1005E00046EAE0762C4337430A986305E40AA0EB19
:1005F00008000022FD0A44EA47540A3002D50020D0
:100600000146E9E7010510196941DDE908450019CE
:100610006941BDE8F04DA2E7064C074D06E0E068F1
:1006200040F0010394E8070098471034AC42F6D339
:10063000FFF7AEFD80470008A047000800BFFEE7B7
:1006400010B5024800F000F910BD0000C4070020FA
:1006500010B5024800F0F8F810BD00002408002092
:100660000146087810381823B0FBF3F20848805C84
:10067000C865032A05D908686FF30900001D88655D
:1006800003E008686FF309008865886D7047000013
:100690005E470008014600208A6A8B69CBB932B1F7
:1006A000012A0DD0022A03D0032A10D10EE000BF88
:1006B000CB6A03F08073B3F1807F00D1012007E0A3
:1006C000CB6AB3F1C07F00D1012001E000E000BFA0
:1006D00034E08B69B3F5005F1AD132B1012A07D03B
:1006E000022A03D0032A11D10AE000BF01200EE044
:1006F000CB6A03F08073B3F1807F00D1012006E064
:10070000CB6AB3F1C07F00D1012000E000BF15E04B
:1007100032B1012A05D0022A04D0032A0CD103E009
:1007200000BF00BF012008E0CB6A03F08073B3F183
:10073000807F00D1012000E000BF00BF704730B5CE
:100740000468246824F4802405682C6004686360CD
:100750008468402C04D10468A2600468E16003E06E
:100760000468A1600468E26030BD704772B600BFE3
:10077000FEE770B50446A56D00F054FB064694F8FC
:100780003500022808D08020606500BF002084F872
:10079000340000BF012070BD2068006820F0160002
:1007A000216808602068406920F080002168486165
:1007B000206C08B9A06C28B12068006820F00800FF
:1007C000216808602068006820F001002168086046
:1007D00010E000F027FB801B05280BD92020606566
:1007E000032084F8350000BF002084F8340000BFE7
:1007F0000320D0E72068006800F001000028E8D15D
:1008000094F85C103F208840A860012084F83500EF
:1008100000BF002084F8340000BF00BFBBE70146E2
:1008200091F83500022803D08020486501207047E8
:10083000052081F835000868006820F001000A688A
:1008400010600020F3E70000F8B504460020009097
:100850008C4800684FF41651B0FBF1F7A56D2E6877
:1008600094F85C1008208840304098B120680068F7
:1008700000F0040070B12068006820F004002168D6
:10088000086094F85C1008208840A860606D40F013
:100890000100606594F85C1001208840304068B128
:1008A0002068406900F0800040B194F85C1001209D
:1008B0008840A860606D40F00200606594F85C10AC
:1008C00004208840304068B12068006800F00200D1
:1008D00040B194F85C1004208840A860606D40F03E
:1008E0000400606594F85C1010208840304078B3B4
:1008F0002068006800F0080050B394F85C101020E5
:100900008840A8602068006800F4802080B12068DA
:10091000006800F4002028B9206CC8B12046216C82
:10092000884715E0A06C98B12046A16C88470FE07D
:100930002068006800F4807028B92068006820F002
:10094000080021680860206C10B12046216C88479F
:1009500094F85C10202088403040002865D0206842
:10096000006800F0100000285FD094F85C10202090
:100970008840A86094F83500052828D120680068D0
:1009800020F01600216808602068406920F080008F
:1009900021684861206C08B9A06C28B12068006803
:1009A00020F008002168086094F85C103F2088401F
:1009B000A860012084F8350000BF002084F83400CE
:1009C00000BF206D10B12046216D8847F8BD20681A
:1009D000006800F4802080B12068006800F40020E6
:1009E00028B9606C10B12046616C88471DE0E06B4F
:1009F000D8B12046E16B884717E02068006800F412
:100A0000807068B92068006820F0100021680860D4
:100A1000012084F8350000BF002084F8340000BFB6
:100A2000E06B10B12046E16B8847606D38B3606DB4
:100A300000F00100F0B1052084F83500206800685E
:100A400020F001002168086000BF0098401C009061
:100A5000B84200D905E02068006800F001000028D5
:100A6000F3D100BF012084F8350000BF002084F8D6
:100A7000340000BFE06C10B12046E16C884700BF35
:100A8000A4E70000640000202DE9F04104460025A1
:100A900000F0C8F9074614B90120BDE8F081606A8A
:100AA00000B100BF022084F8350000BF002084F8A8
:100AB000340000BF2068006820F001002168086051
:100AC0000AE000F0AFF9C01B052805D920206065B9
:100AD000032084F83500E0E72068006800F001009A
:100AE0000028EED12068056821480540D4E90101BD
:100AF0000843E16808432169084361690843A16923
:100B00000843E1690843216A08430543606A0428F1
:100B100003D1D4E90B010843054320680560206830
:100B2000456925F00705606A0543606A04280DD110
:100B3000A06A0543E06A48B12046FFF7ABFD28B143
:100B400040206065012084F83500A6E720684561F3
:100B50002046FFF785FD064694F85C103F2088404C
:100B6000B06000206065012084F83500002094E723
:100B70003F8010F02DE9F04704460D4616461F460B
:100B80004FF00008D4F8589000BF94F834000128C2
:100B900002D10220BDE8F087012084F8340000BFB4
:100BA00094F83500012825D1022084F83500002072
:100BB00060653B46324629462046FFF7C0FD94F863
:100BC0005C103F208840C9F808002068006840F0A9
:100BD000160021680860206C28B12068006840F089
:100BE0000800216808602068006840F00100216862
:100BF000086006E000BF002084F8340000BF4FF01A
:100C000002084046C6E7000070B5044600F00AF945
:100C100006462546681C10B104480078054400BF0C
:100C200000F000F9801BA842FAD370BD60000020DC
:100C3000F8B502460B460025002400200021D6E02E
:100C4000012606FA01F51E6806EA0504AC4274D1D5
:100C50001E7906F00306012E04D01E7906F0030665
:100C6000022E13D190684F000326BE40B0434F00C0
:100C7000DE68BE4030439060506801268E40B0432D
:100C80001E79C6F300168E40304350601E7906F080
:100C90000306032E09D0D0684F000326BE40B043A0
:100CA0004F009E68BE403043D0601E7906F00306B8
:100CB000022E13D1CF0802F1200656F827004E0766
:100CC000F70E0F26BE40B0434F07FF0E1E69BE4011
:100CD0003043CF0802F1200646F8270010684F0085
:100CE0000326BE40B0431E7906F003064F00BE4007
:100CF000304310605E6806F44036002E76D000BFA8
:100D0000002600963C4E366846F480463A4F3E60D8
:100D10003E46366806F48046009600BF00BF374E58
:100D20008F0856F827008E07370F0F26BE40B043B6
:100D3000334EB24202D1002624E057E0314EB24297
:100D400001D101261EE0304EB24201D1022619E047
:100D50002E4EB24201D1032614E02D4EB24201D1F3
:100D600004260FE02B4EB24201D105260AE02A4E9E
:100D7000B24201D1062605E0284EB24201D1072633
:100D800000E008268F073F0FBE4030431B4E8F0800
:100D900046F82700224E3068A0435E6806F48016AD
:100DA00006B120431E4E3060361D3068A0435E6899
:100DB00006F4001606B12043194E361D3060184E59
:100DC000361F3068A0435E6806F4003606B1204343
:100DD000134E361F3060361F3068A0435E6806F43D
:100DE000803606B120430E4E083E3060491C102963
:100DF000FFF426AFF8BD0000443802400838014037
:100E0000000002400004024000080240000C0240C2
:100E1000001002400014024000180240001C024072
:100E2000083C01400148006870470000580000205D
:100E3000034800680349097808440149086070477D
:100E4000580000206000002010B50D48006840F4F4
:100E500000700B4908600846006840F48060086034
:100E60000846006840F480700860032000F0A6F88F
:100E70000F2000F007F800F02BF8002010BD000054
:100E8000003C024070B504460E4800784FF47A7179
:100E9000B1FBF0F00C490968B1FBF0F5284600F011
:100EA0002FFC08B1012070BD102C07D20022214672
:100EB000501E00F045F80548046001E00120F2E70B
:100EC0000020F0E760000020640000205C000020AB
:100ED00008B500BF002000900E48006840F4804034
:100EE0000C4908600846006800F48040009000BF8C
:100EF00000BF00BF00200090081F006840F0805035
:100F0000091F08600846006800F08050009000BF8C
:100F100000BF08BD443802400146084600280DDBEA
:100F200000BF00BF00F01F0301229A4043099B004D
:100F300003F1E023C3F8002100BF00BF00BF7047EA
:100F40002DE9F05F80460D461646002703F030F885
:100F5000074639462A46334601F00700C0F1070A22
:100F6000BAF1040F02D94FF0040A01E0C0F1070AF8
:100F7000D14600F1040ABAF1070F02D24FF0000A7D
:100F800001E0A0F1030AD4464FF0010A0AFA09FA77
:100F9000AAF1010A0AEA020A0AFA0CFA4FF0010B56
:100FA0000BFA0CFBABF1010B0BEA030B4AEA0B0447
:100FB0002146404603F004F8BDE8F09F00BF00F072
:100FC0000702064B19684FF6FF031940044B0B4309
:100FD00043EA0221014B196000BF70470CED00E0AD
:100FE0000000FA0570B504460D460CB9012070BD2D
:100FF0005848006800F00700A84209D255490D7012
:101000000846006800F00700A84201D00120EEE782
:10101000207800F0020002281DD1207800F00400A2
:10102000042805D14C48006840F4E0504A49086063
:10103000207800F00800082805D14748006840F4EF
:101040006040454908604448006820F0F000A1680D
:10105000084341490860207800F00100A8B36068A7
:10106000012807D13C4808380068C0F34040B8B9AF
:101070000120BCE76068022802D06068032807D11D
:10108000354808380068C0F3406048B90120AEE731
:10109000314808380068C0F3400008B90120A6E7CD
:1010A0002D48006820F00300616808432A49086061
:1010B000FFF7B8FE064609E0FFF7B4FE801B41F2D9
:1010C0008831884202D9032091E707E0224800686E
:1010D00000F00C006168B0EB810FEDD11D48006895
:1010E00000F00700A84209D91A490D7008460068A7
:1010F00000F00700A84201D0012078E7207800F036
:101100000400042807D11448006820F4E050E16886
:10111000084311490860207800F00800082808D129
:101120000D48006820F46040216940EAC1000A4986
:10113000086000F03FF808490968C1F30311074A45
:10114000515CC8400649086006480068FFF79AFEEF
:1011500000204CE7003C0240083802406647000887
:10116000640000205C000020014800687047000017
:101170006400002000B5FFF7F7FF04490968C1F3D8
:101180008221034A515CC84000BD0000083802407B
:101190007647000800B5FFF7E7FF04490968C1F387
:1011A0004231034A515CC84000BD0000083802408B
:1011B000764700082DE9F047002400250026A146C7
:1011C0002548006800F00C0020B1042805D008284C
:1011D0003AD105E0DFF8849039E0DFF8849036E01A
:1011E0001D48001F006800F03F041B48001F0068F6
:1011F00000F4800078B11A481749091F0968C1F343
:101200008811A0FB01700146224600233846FEF7F4
:10121000D7FF05460EE011480F49091F0968C1F3C1
:101220008811A0FB01700146224600233846FEF7D4
:10123000C7FF05460848001F0068C0F30140401C76
:101240004600B5FBF6F902E0DFF8109000BF00BFE2
:101250004846BDE8F0870000083802400024F4004A
:1012600000127A00F8B504460CB90120F8BD2078C8
:1012700000F00100002874D0F948006800F00C006C
:1012800004280DD0F648006800F00C00082813D19F
:10129000F348001F006800F48000B0F5800F0BD108
:1012A000EF4808380068C0F34040002859D0606813
:1012B000002856D10120D9E700BF6068B0F5803F13
:1012C00008D1E7480838006840F48030E44908391C
:1012D00008601EE06068B0F5A02F0DD1E048083826
:1012E000006840F48020DE4908390860084600683C
:1012F00040F4803008600CE0D9480838006820F4D9
:101300008030D749083908600846006820F48020FA
:10131000086000BF606890B1FFF784FD054606E0F5
:10132000FFF780FD401B642801D903209EE7CC48CD
:1013300008380068C0F340400028F1D011E0FFF702
:1013400071FD054606E0FFF76DFD401B642801D9DD
:1013500003208BE7C24808380068C0F340400028EB
:10136000F1D1207800F0020002285FD1BC4800686B
:1013700000F00C0058B1BA48006800F00C000828D2
:101380001CD1B748001F006800F48000B0B9B44811
:1013900008380068C0F3400020B1E068012801D09F
:1013A000012063E7AE480838006820F0F8002169A2
:1013B00040EAC100AA490839086037E0E06800B394
:1013C0000120A8490860FFF72DFD054606E0FFF75C
:1013D00029FD401B022801D9032047E7A04808380F
:1013E0000068C0F340000028F1D09D48083800682C
:1013F00020F0F800216940EAC100994908390860E5
:1014000014E0002097490860FFF70CFD054606E050
:10141000FFF708FD401B022801D9032026E790486A
:1014200008380068C0F340000028F1D1207800F0AF
:10143000080008282CD16069A8B101208A490860F9
:10144000FFF7F0FC054606E0FFF7ECFC401B022826
:1014500001D903200AE782486C300068C0F34000DD
:101460000028F1D014E000207F490860FFF7DAFC83
:10147000054606E0FFF7D6FC401B022801D90320F1
:10148000F4E677486C300068C0F340000028F1D1E2
:10149000207800F00400042870D10027704838300C
:1014A000006800F0805090B900BF002000906C48A8
:1014B0003830006840F0805069493831086008468B
:1014C000006800F08050009000BF00BF012767480F
:1014D000006800F48070B0B96448006840F480701F
:1014E00062490860FFF79EFC054606E0FFF79AFC9C
:1014F000401B022801D90320B8E65C48006800F4CC
:1015000080700028F2D000BFA068012808D154489C
:101510006830006840F001005149683108601DE002
:10152000A06805280DD14E486830006840F00400DE
:101530004B49683108600846006840F001000860C7
:101540000CE047486830006820F0010044496831E9
:1015500008600846006820F00400086000BFA0682A
:10156000A8B1FFF75FFC054609E0FFF75BFC401BF5
:1015700041F28831884202D9032077E626E03848D4
:1015800068300068C0F340000028EED013E0FFF799
:1015900049FC054608E0FFF745FC401B41F2883155
:1015A000884201D9032061E62D4868300068C0F305
:1015B00040000028EFD1012F07D1294838300068BA
:1015C00020F0805026493831086000BFA06900280B
:1015D00045D02348006800F00C0008285DD0A069C1
:1015E000022845D100201F490866FFF71BFC05466D
:1015F00006E0FFF717FC401B022801D9032035E65F
:10160000174808380068C0F340600028F1D1D4E9D9
:1016100007010843616A40EA81110122A06AC2EB16
:10162000500041EA00412C20005D41EA00600C4975
:10163000091F086001200B490866FFF7F3FB054608
:1016400006E0FFF7EFFB401B022801D903200DE65F
:10165000034808380068C0F340600028F1D049E032
:101660000838024000004742800E474200700040A8
:10167000002021490866FFF7D5FB054606E0FFF785
:10168000D1FB401B022801D90320EFE51B4800686D
:10169000C0F340600028F2D12CE0A069012800D1FD
:1016A000E4E51648001D0668A069012820D006F46C
:1016B0008001E06981421BD106F03F01206A81422E
:1016C00016D147F6C0703040616AB0EB811F0FD170
:1016D00006F440310122A06AC2EB5000B1EB004F8A
:1016E00006D106F070612C20005DB1EB006F01D0D7
:1016F0000120BBE50020B9E5000047420038024068
:1017000070B504462546681EB0F1807F01D30120E4
:101710000FE0681E4FF0E02148610F214FF0FF30CD
:1017200002F04EFC00204FF0E021886107200861A4
:10173000002070BD7047704710B50346002200BFFF
:1017400093F83C00012801D1022010BD012083F84C
:101750003C0000BF22F0FF00CC6840EA040222F403
:1017600040708C6840EA040222F480604C6840EAD1
:10177000040222F400600C6840EA040222F4805063
:101780000C6940EA040222F400504C6940EA040269
:1017900022F48040CC6940EA04021868426400BF29
:1017A000002083F83C0000BF00BFCEE730B5024602
:1017B0000B4600BF92F83C00012801D1022030BD49
:1017C000012082F83C0000BF022082F83D00106832
:1017D00044681068816824F0700418680443106835
:1017E0004460184D1068A8421BD01068B0F1804FBB
:1017F00017D0154D1068A84213D0144D1068A84298
:101800000FD0134D1068A8420BD0124D1068A8429B
:1018100007D0114D1068A84203D0104D1068A8429F
:1018200005D121F0800158680143106881600120D2
:1018300082F83D0000BF002082F83C0000BF00BFDE
:10184000BDE7000000000140000400400008004027
:10185000000C00400004014000400140001800401E
:1018600010B504460CB9012010BD94F83D0028B90C
:10187000002084F83C00204600F026F8022084F87E
:101880003D00211D206801F099FE012084F84600EA
:1018900000BF84F83E0001213F2001554020015542
:1018A0004120015500BF00BF012084F842004320C1
:1018B0000155442001554520015500BF012084F801
:1018C0003D000020D0E7000038B5044638492068C4
:1018D00088420FD100BF002000903648006840F0D9
:1018E0000800344908600846006800F008000090CD
:1018F00000BF5CE030492068884218D100BF00205A
:1019000000902C48006840F010002A490860084602
:10191000006800F01000009000BF00BF002201210D
:101920003620FFF70DFB3620FFF7F6FA3FE023499C
:101930002068884211D100BF002000901D48001D82
:10194000006840F002001B49091D08600846006855
:1019500000F00200009000BF29E019492068884289
:1019600011D100BF002000901248001D006840F413
:1019700080301049091D08600846006800F4803076
:10198000009000BF13E00F49206888420FD100BFCC
:10199000002000900748006840F0400005490860BA
:1019A0000846006800F04000009000BF00BF38BD4E
:1019B000000C00404038024000100040000401408C
:1019C0000040014000180040014691F83D00012808
:1019D00001D001207047022081F83D000868C068EE
:1019E00040F001000B68D8601A4B086898421BD081
:1019F0000868B0F1804F17D0174B0868984213D091
:101A0000164B086898420FD0154B086898420BD0C7
:101A1000144B0868984207D0134B0868984203D0CB
:101A2000124B086898420CD10868806800F00702E1
:101A3000062A0CD00868006840F001000B681860A6
:101A400005E00868006840F001000B68186000209D
:101A5000C0E7000000000140000400400008004012
:101A6000000C00400004014000400140001800400C
:101A700001460868C06820F001000A68D06000BF15
:101A80000868006A41F21112104050B90868006AF3
:101A90009210104028B90868006820F001000A6818
:101AA000106000BF012081F83D00002070472DE943
:101AB000F04104460D46002700BF94F83C00012881
:101AC00002D10220BDE8F081012084F83C0000BF73
:101AD000022084F83D002068866826F0770626F408
:101AE0007F46206886602868502833D00CDC202888
:101AF00050D004DC00284BD0102851D149E03028C8
:101B000049D040284CD139E060282DD0702807D02A
:101B1000B0F5805F03D0B0F5005F41D10DE041E04A
:101B2000D5E902136A68206801F0CDFD2068866857
:101B300046F077062068866034E0D5E902136A68CB
:101B4000206801F0C0FD2068806840F48040216872
:101B5000886027E0EA686968206801F0A5FE5021E6
:101B6000206801F0BBFD1DE0EA686968206801F0AB
:101B7000AEFE6021206801F0B1FD13E0EA686968FB
:101B8000206801F091FE4021206801F0A7FD09E0E6
:101B900000BF00BF00BF2968206801F09FFD01E081
:101BA000012700BF00BF012084F83D0000BF0020D6
:101BB00084F83C0000BF384684E72DE9F041044634
:101BC0000D4614B90120BDE8F08194F83D0028B914
:101BD000002084F83C00204600F054F8022084F8ED
:101BE0003D002068806844F20701884321688860CE
:101BF000211D206801F0E2FC2068D0F808802068F0
:101C000086692068076A286840EA080840F20330BD
:101C10008643A969A86840EA0120064340F60C40C3
:101C200086434FF2F0008643E969E86840EA012004
:101C3000064328690001296A40EA0130064327F07B
:101C4000220727F088076969686840EA011007439E
:101C50002068C0F80880206886612068076201203B
:101C600084F8460084F83E0001213F200155012000
:101C700084F8420043200155012084F83D000020F3
:101C8000A1E7000010B586B00446142101A8FEF7B4
:101C9000E1FA83492068884238D100BF00200090D3
:101CA0008048006840F001007E49086008460068EE
:101CB00000F00100009000BF00BF00BF00200090B6
:101CC00078481438006840F00100764914390860FB
:101CD0000846006800F00100009000BF00BF4FF40C
:101CE0004070019002200290002003900490012097
:101CF000059001A96C48FEF79BFF002211461920B0
:101D0000FFF71EF91920FFF707F9C6E02068B0F1C8
:101D1000804F56D100BF002000906248001F00682D
:101D200040F001005F49091F08600846006800F0A4
:101D30000100009000BF00BF00BF00200090594884
:101D40001438006840F0010056491439086008460C
:101D5000006800F00100009000BF00BF00BF00203D
:101D600000900846006840F00200086008460068DD
:101D700000F00200009000BF00BF4FF4004001904F
:101D8000022002900020039004900120059001A9F8
:101D90004548FEF74DFF08200190022002900020E8
:101DA000039004900120059001A94048FEF740FFF0
:101DB000002211461C20FFF7C3F81C20FFF7ACF8E7
:101DC0006BE03B492068884231D100BF0020009081
:101DD0003448001F006840F002003249091F0860C3
:101DE0000846006800F00200009000BF00BF00BF7E
:101DF000002000902B481438006840F00200294968
:101E0000143908600846006800F00200009000BF26
:101E100000BF302001900220029000200390049027
:101E20000220059001A92148FEF702FF35E0214973
:101E30002068884231D100BF002000901948001F5F
:101E4000006840F004001749091F08600846006850
:101E500000F00400009000BF00BF00BF0020009011
:101E600010481438006840F008000E491439086022
:101E70000846006800F00800009000BF00BF4FF463
:101E80004050019002200290002003900490022014
:101E9000059001A90848FEF7CBFE06B010BD000072
:101EA00000000140443802400000024000040240AB
:101EB0000004004000080040000C02402DE9F043FF
:101EC00004460D4694F83E603F20075D94F842803A
:101ED000432010F804906DB9012E02D1B8F1010F22
:101EE00002D00120BDE8F083022084F83E0084F88F
:101EF000420025E0042D0CD1012F02D1B9F1010FD0
:101F000001D00120EEE702213F2001554320015579
:101F100016E0012E07D1012F05D1B8F1010F02D132
:101F2000B9F1010F01D00120DCE7022084F83E0066
:101F300002213F200155022084F842004320015530
:101F400015B1042D0CD105E001220021206801F01B
:101F5000A9FB10E001220421206801F0A3FB0AE0A4
:101F600001220021206801F09DFB0122042120684C
:101F700001F098FB00BF00BF2068006840F001003E
:101F8000216808600020ADE730B504460D4615B164
:101F9000042D0CD105E000221146206801F082FBDF
:101FA00010E000220421206801F07CFB0AE00022FE
:101FB0001146206801F076FB00220421206801F020
:101FC00071FB00BF00BF00BF2068006A41F2111121
:101FD000084050B92068006A8910084028B9206874
:101FE000006820F001002168086000BF0DB1042DD9
:101FF00028D11DB9012084F83E000EE0042D03D144
:1020000001213F20015508E0082D03D10121402086
:10201000015502E00121412001551DB9012084F83C
:1020200042001AE0042D03D101214320015514E0A0
:10203000082D03D10121442001550EE00121452046
:1020400001550AE0012084F83E0001213F2001559E
:10205000012084F8420043200155002030BD704724
:1020600070B504462068C5682068066906F002005D
:10207000022819D105F00200022815D1401F21685D
:102080000861012020772068806900F0030018B102
:102090002046FFF7E4FF05E0204600F03BF920462C
:1020A00000F0EFF90020207706F00400042819D191
:1020B00005F00400042815D1C043216808610220FE
:1020C00020772068806900F4407018B12046FFF73F
:1020D000C6FF05E0204600F01DF9204600F0D1F9CA
:1020E0000020207706F00800082819D105F0080024
:1020F000082815D1C0432168086104202077206892
:10210000C06900F0030018B12046FFF7A8FF05E002
:10211000204600F0FFF8204600F0B3F900202077B9
:1021200006F01000102819D105F01000102815D164
:10213000C04321680861082020772068C06900F446
:10214000407018B12046FFF78AFF05E0204600F0F6
:10215000E1F8204600F095F90020207706F0010014
:1021600048B105F0010030B16FF00100216808614D
:10217000204600F00DFA06F08000802809D105F015
:102180008000802805D1C043216808612046FFF700
:10219000D1FA06F04000402809D105F0400040285F
:1021A00005D1C04321680861204600F073FA06F0AB
:1021B0002000202809D105F02000202805D1C043A7
:1021C000216808612046FFF7B6FA70BD10B586B0E9
:1021D0000446142101A8FEF73DF8454920688842CD
:1021E0001DD100BF002000904248006840F001006F
:1021F000404908600846006800F00100009000BFF8
:1022000000BF0F2001900220029000200390049054
:102210000220059001A93848FEF70AFD66E037491B
:10222000206888421ED100BF00200090314800681D
:1022300040F004002F4908600846006800F00400E0
:10224000009000BF00BF4FF4707001900220029018
:102250000020039004900320059001A92848FEF770
:10226000E7FC43E02749206888421DD100BF0020D9
:1022700000902048006840F010001E4908600846A1
:10228000006800F01000009000BF00BF60200190C7
:10229000022002900020039004900320059001A9E1
:1022A0001948FEF7C5FC21E01849206888421DD175
:1022B00000BF002000900F48006840F002000D4968
:1022C00008600846006800F00200009000BF00BFF0
:1022D0004FF44040019002200290002003900490AF
:1022E0000920059001A90A48FEF7A2FC06B010BD1E
:1022F000000C004030380240000002400004014061
:102300000008024000400140001002400018004058
:102310000004024070472DE9F04104460D46164680
:10232000002700BF94F83C00012802D10220BDE83C
:10233000F081012084F83C0000BF36B1042E1BD090
:10234000082E31D00C2E5ED145E02946206801F0E0
:10235000CFF92068806940F0080021688861206812
:10236000806920F0040021688861206880692969FB
:1023700008432168886148E02946206801F0F0F9A7
:102380002068806940F40060216888612068806965
:1023900020F480602168886120688069296940EAAA
:1023A00001202168886130E02946206801F016FA92
:1023B0002068C06940F008002168C8612068C069D1
:1023C00020F004002168C8612068C06929690843B9
:1023D0002168C86119E02946206801F03BFA2068AD
:1023E000C06940F400602168C8612068C06920F4B9
:1023F00080602168C8612068C069296940EA0120BD
:102400002168C86101E0012700BF00BF00BF0020B4
:1024100084F83C0000BF384689E710B504460CB983
:10242000012010BD94F83D0028B9002084F83C003C
:10243000204600F025F8022084F83D00211D206888
:1024400001F0BCF8012084F8460000BF84F83E008B
:1024500001213F200155402001554120015500BF79
:1024600000BF012084F8420043200155442001555B
:102470004520015500BF012084F83D000020D0E731
:102480007047704770B504460D4615B994F83E0084
:102490000BE0042D02D13F20005D06E0082D02D1A3
:1024A0004020005D01E04120005D012801D00120B5
:1024B00070BD1DB9022084F83E000EE0042D03D14A
:1024C00002213F20015508E0082D03D102214020C0
:1024D000015502E0022141200155012229462068D0
:1024E00001F0E0F823492068884203D0224920689F
:1024F000884201D1012000E0002028B12068406C12
:1025000040F40040216848641A49206888421BD082
:102510002068B0F1804F17D018492068884213D046
:102520001749206888420FD01649206888420BD08E
:1025300011492068884207D013492068884203D097
:102540001249206888420CD12068806800F0070694
:10255000062E0CD02068006840F001002168086059
:1025600005E02068006840F0010021680860002054
:102570009EE700000000014000040140000400400C
:1025800000080040000C00400040014000180040DE
:1025900010B50446344884420AD13448B0F90000EA
:1025A00001F048FD3248B0F9000001F0D1FE5AE0D8
:1025B0003048844213D10068006800F010001028F1
:1025C00006D12D480088401E00B22B4908804AE001
:1025D00029480088401C00B22749088043E027486A
:1025E000844213D10068006800F01000102806D162
:1025F00023480088401E00B22149088033E020486B
:102600000088401C00B21E4908802CE01D4884420E
:1026100013D10068006800F01000102806D11A4895
:102620000088401E00B2184908801CE01648008847
:10263000401C00B21449088015E01448844212D1AD
:102640000068006800F01000102806D110480088CB
:10265000401E00B20E49088005E00D480088401C6D
:1026600000B20B49088010BD5C0600204C00002021
:102670004E000020CC0500203C000020F404002087
:102680003E0000203C050020400000208405002082
:10269000420000207047704770B50446002520684E
:1026A0004069C0F3C01594F84100212817D1B5B195
:1026B00000BF00BF2168143151E8001F21F08000E5
:1026C0002168143141E80002002AF3D100BFA06B59
:1026D00010B1A06BFEF74DF8204601F0F0F920682C
:1026E0004069C0F3801594F84200222817D1B5B193
:1026F00000BF00BF2168143151E8001F21F04000E5
:102700002168143141E80002002AF3D100BFE06BD8
:1027100010B1E06BFEF72DF8204601F08AF9002099
:1027200070BD70472DE9F84F0446206805682068A1
:10273000C668206847694FF00009CA4605F00F09CE
:10274000B9F1000F0AD105F0200038B106F02000E1
:1027500020B1204601F0C6F9BDE8F88FB9F1000FAD
:102760007CD007F0010018B906F49070002875D0ED
:1027700005F0010030B106F4807018B1606C40F0D3
:102780000100606405F0040030B107F0010018B1E9
:10279000606C40F00200606405F0020030B107F0A8
:1027A000010018B1606C40F00400606405F008009E
:1027B00048B106F0200010B907F0010018B1606CB4
:1027C00040F008006064606C002846D005F02000EE
:1027D00028B106F0200010B1204601F083F92068EE
:1027E0004069C0F3801A606C00F0080010B9BAF1BB
:1027F000000F2DD0204601F01CF92068406900F040
:102800004000402820D100BF00BF2168143151E8AA
:10281000001F21F040002168143141E80002002A25
:10282000F3D100BFE06B50B17748E16B0865E06B16
:10283000FDF7F5FF88B1E06B016D88470DE020469C
:10284000FFF76FFF09E009E02046FFF76AFF04E0A9
:102850002046FFF766FF002060647DE7206B0128BB
:1028600078D105F01000002874D006F01000002880
:10287000FAD000BF00200090206800680090206817
:102880004068009000BF00BF2068406900F0400031
:10289000402860D1E06B006840681FFA80F8B8F10A
:1028A000000F56D0A08D404553DDA4F82E80E06B7C
:1028B000C069B0F5807F43D000BF00BF21680C31F4
:1028C00051E8001F21F4807021680C3141E80002BA
:1028D000002AF3D100BF00BF00BF2168143151E8C6
:1028E000001F21F001002168143141E80002002A94
:1028F000F3D100BF00BF00BF2168143151E8001FB1
:1029000021F040002168143141E80002002AF3D18F
:1029100000BF202084F842000020206300BF00BFD9
:1029200021680C3151E8001F21F0100021680C31A2
:1029300041E80002002AF3D100BFE06BFDF719FF68
:1029400002206063A08DE28D801A81B22046FFF7DD
:10295000A2FE01E742E0A08DE18D401A1FFA80F847
:10296000E08DD0B3B8F1000F37D000BF00BF2168B1
:102970000C3151E8001F21F4907021680C3141E8BE
:102980000002002AF3D100BF00BF00BF216814314C
:1029900051E8001F21F001002168143141E80002D4
:1029A000002AF3D100BF202084F8420000202063D9
:1029B00000BF00BF21680C3151E8001F21F010005A
:1029C00021680C3141E80002002AF3D100BF022047
:1029D000606341462046FFF75EFEBDE605F08000DD
:1029E00030B106F0800018B1204601F073FAB3E66A
:1029F00005F0400030B106F0400018B1204601F06B
:102A00004EF8A9E600BFA7E6F738000810B504465F
:102A10000CB9012010BDA06900B100E000BF94F81E
:102A2000410028B9002084F84000204600F02AF830
:102A3000242084F841002068C06820F400502168F8
:102A4000C860204601F0CCF82068006920F490406E
:102A5000216808612068406920F02A0021684861E7
:102A60002068C06840F400502168C860002060649D
:102A7000202084F8410084F842000020606300BFF9
:102A8000C8E7000010B586B00446142101A8FDF780
:102A9000E1FB3D492068884274D100BF00200090CE
:102AA0003A48006840F480203849086008460068C9
:102AB00000F48020009000BF00BF00BF0020009005
:102AC00032481038006840F0020030491039086080
:102AD0000846006800F00200009000BF00BF4FF4FD
:102AE0004060019002200290002003900320049097
:102AF0000720059001A92648FEF79AF8254826499F
:102B000008604FF000604860002123488160C16088
:102B10004FF480610161002141618161C161016205
:102B20004162FDF7B1FF08B1FDF720FE00BF1A4872
:102B3000E063846300BF17483030184908604FF0E5
:102B4000006048604021154881600021C1604FF459
:102B500080610161002141618161C1610162416265
:102B6000FDF792FF08B1FDF701FE00BF0B48A0631F
:102B7000846300BF002211462720FEF7E1F92720D9
:102B8000FEF7CAF906B010BD0048004040380240C8
:102B90000004024028600240C407002024080020EE
:102BA00070B504460D46164694F8420020280BD115
:102BB00005B10EB9012070BD0020206332462946C0
:102BC000204601F023F9F6E70220F4E7704770474A
:102BD000704700BFFEE7000008B500BF002000906E
:102BE0000E48006840F400100C4908600846006870
:102BF00000F40010009000BF00BF002211460C201E
:102C0000FEF79EF90C20FEF787F9002211460E20F0
:102C1000FEF796F90E20FEF77FF908BD3038024026
:102C200008B500BF002000902C48006840F010005C
:102C30002A4908600846006800F01000009000BFB4
:102C400000BF00BF002000900846006840F004006C
:102C500008600846006800F00400009000BF00BF54
:102C600000BF002000900846006840F08000086027
:102C70000846006800F08000009000BF00BF00BF61
:102C8000002000900846006840F0010008600846F7
:102C9000006800F00100009000BF00BF00BF0020EE
:102CA00000900846006840F002000860084600688E
:102CB00000F00200009000BF00BF00BF00200090A5
:102CC0000846006840F0080008600846006800F008
:102CD0000800009000BF00BF08BD0000303802406F
:102CE00000B58BB000200790089009900A901C2135
:102CF0006846FDF7AFFA1F481F4908605320486037
:102D000000211D48816044F61F61C16000210161FE
:102D10008161FEF7A5FD08B1FDF728FD4FF4805055
:102D2000079007A91448FEF7C2FE08B1FDF71EFD83
:102D30001148FFF772FB08B1FDF718FD6020009005
:102D40000020019002900490002269460A48FFF793
:102D5000E2FA08B1FDF70AFD042269460648FFF7CA
:102D6000DAFA08B1FDF702FD0348FFF72FFA0BB0BE
:102D700000BD0000001800403407002000B58BB0F3
:102D8000242102A8FDF766FA00200090019018485F
:102D900018490860002048600021164881604FF6FD
:102DA000FF71C160002101614161816103200290D6
:102DB00000200390012004900020059006900790C9
:102DC00001200890002009900A9002A90948FEF706
:102DD000F4FE08B1FDF7CAFC00200090019069469E
:102DE0000448FEF7E3FC08B1FDF7C0FC0BB000BDE2
:102DF00000000140F404002000B58BB0242102A89B
:102E0000FDF728FA0020009001904FF0804017490C
:102E1000086000204860002114488160491EC1609C
:102E200000210161816103200290002003900120B4
:102E30000490002005900690079001200890002043
:102E400009900A9002A90948FEF7B7FE08B1FDF7FC
:102E50008DFC00200090019069460448FEF7A6FC16
:102E600008B1FDF783FC0BB000BD00003C0500205D
:102E700000B58BB0242102A8FDF7ECF900200090EA
:102E80000190184818490860002048600021164841
:102E900081604FF6FF71C1600021016181610120F5
:102EA00002900020039001200490002005900690DD
:102EB000079001200890002009900A9002A90A4872
:102EC000FEF77BFE08B1FDF751FC00200090019059
:102ED00069460548FEF76AFC08B1FDF747FC0BB0F0
:102EE00000BD0000000400408405002000B58BB048
:102EF000242102A8FDF7AEF90020009001901848A7
:102F000018490860002048600021164881604FF68B
:102F1000FF71C160002101618161012002900020E8
:102F20000390012004900020059006900790012056
:102F30000890002009900A9002A90A48FEF73DFE79
:102F400008B1FDF713FC0020009001906946054888
:102F5000FEF72CFC08B1FDF709FC0BB000BD00002A
:102F600000080040CC05002000B58DB0002009907D
:102F70000A900B900C90079008901C216846FDF772
:102F800069F92C482C4908605320486000212A48E0
:102F9000816040F2E731C160002101618161FEF78B
:102FA0005FFC08B1FDF7E2FB4FF48050099009A9DE
:102FB0002148FEF77CFD08B1FDF7D8FB1E48FFF75E
:102FC0002CFA08B1FDF7D2FB00200790089007A962
:102FD0001948FEF7EBFB08B1FDF7C8FB6020009035
:102FE0000020019002900490002269461248FFF7E9
:102FF00092F908B1FDF7BAFB042269460E48FFF7C3
:103000008AF908B1FDF7B2FB082269460A48FFF7C2
:1030100082F908B1FDF7AAFB0C2269460648FFF7C2
:103020007AF908B1FDF7A2FB0348FFF7CFF80DB01E
:1030300000BD0000000C0040140600201CB500205C
:10304000009001900E480F49086040F28F60486080
:1030500000210C4881603121C16000218161FEF7AF
:10306000FFFB08B1FDF782FB00200090019069464C
:103070000448FEF79BFB08B1FDF778FB1CBD000080
:10308000001000405C06002000B595B000201190B3
:103090001290139014900F9010901C2108A8FDF727
:1030A000D9F820216846FDF7D5F837483749086038
:1030B0001B20486000213548816040F2E731C16043
:1030C0000021016141618161FEF7CAFB08B1FDF792
:1030D0004DFB4FF48050119011A92C48FEF7E7FCEE
:1030E00008B1FDF743FB2948FFF797F908B1FDF751
:1030F0003DFB00200F9010900FA92448FEF756FBCF
:1031000008B1FDF733FB60200890002009900A9079
:103110000B900C900D900E90002208A91B48FFF711
:10312000FAF808B1FDF722FB042208A91748FFF7B7
:10313000F2F808B1FDF71AFB082208A91348FFF7B7
:10314000EAF808B1FDF712FB0C2208A90F48FFF7B7
:10315000E2F808B1FDF70AFB002000900190029010
:10316000039004904FF400500590002007906946AA
:103170000648FEF7E1FA08B1FDF7F8FA0348FFF751
:1031800025F815B000BD000000040140A406002091
:1031900000B58BB000200790089009900A901C2180
:1031A0006846FDF757F81F481F4908601B20486014
:1031B00000211D48816040F2E731C16000210161BA
:1031C0008161FEF74DFB08B1FDF7D0FA4FF4805056
:1031D000079007A91448FEF76AFC08B1FDF7C6FA84
:1031E0001148FFF71AF908B1FDF7C0FA6020009006
:1031F0000020019002900490002269460A48FFF7DF
:103200008AF808B1FDF7B2FA042269460648FFF7CA
:1032100082F808B1FDF7AAFA0348FEF7D7FF0BB012
:1032200000BD000000400140EC06002010B50B4836
:103230000B4908604FF4165048600021084881602F
:10324000C16001610C21416100218161C161FFF711
:10325000DDFB08B1FDF78AFA10BD00000048004010
:103260007C07002000BFFEE700BFFEE700B5014677
:10327000F0EE401AB0EE602A012002EE900AC1ED95
:10328000081A81ED052A32EE610A81ED0B0A91EDF3
:10329000180AB5EEC00AF1EE10FA17D091ED0B0A3C
:1032A000B5EEC00AF1EE10FA02DD91ED0B0A03E073
:1032B00091ED0B0AB1EE400AD1ED180AB4EEE00A26
:1032C000F1EE10FA02D29FED5C0A00BD486E0328B1
:1032D00040D191ED000AD1ED0B0A20EE200A81EDDC
:1032E0000C0A91ED0D0AD1ED010A91ED0B1A00EED9
:1032F000810A81ED0D0A91ED0B0AD1ED0A0A30EE3B
:10330000600AD1ED020A20EE200A81ED0E0AD1ED0D
:10331000160AB0EE600A01F1340000F074FE91ED7F
:103320000C0AD1ED0D0AB8EEE21A01EE200AD1ED39
:103330000E0A30EE200A81ED0F0AD1ED140AB0EE2C
:10334000600A01F13C0000F05EFE91ED0F0A81ED94
:10335000100A50E0486E04284DD191ED0B0AD1EDD2
:103360000A0A30EE600AD1ED000A20EE200A81ED53
:103370000C0A91ED010AD1ED0B0A20EE200A81ED35
:103380000D0A91ED0B0AD1ED0A0AB0EE001A01EE1A
:10339000600AD1ED090A30EE200AD1ED020A20EED2
:1033A000200A81ED0E0AD1ED160AB0EE600A01F195
:1033B000340000F028FE91ED0C0AD1ED0D0A30EE3C
:1033C000200AD1ED0E0A30EE200A81ED110A91EDAE
:1033D000130AD1ED110A30EE200A81ED120AD1ED67
:1033E000140AB0EE600A01F1480000F00CFE91ED05
:1033F000120A81ED130A91ED0A0A81ED090A91ED95
:103400000B0A81ED0A0A91ED070A81ED060A91ED9A
:10341000080A81ED070A91ED040A81ED030A91ED96
:10342000050A81ED040A486E032802D191ED0F0AC6
:103430004BE791ED120A48E70000000070B52DED52
:10344000088B04460D46F0EE409AB0EE60AAF0EE0E
:1034500041AAB0EE618AF0EE428AB0EE629AB0EE16
:1034600043BAF0EE63BA1248A0661248E066F0EE86
:103470006B3AB0EE4B3AF0EE492AB0EE682AF0EE25
:10348000481AB0EE6A1AF0EE4A0AB0EE690A294606
:103490002046A26E9047B0EE491AF0EE680AB0EEF0
:1034A000480A2046E16E8847BDEC088B70BD0000DD
:1034B00031420008554200087047704710B5FDF7CB
:1034C000B7FC10BD00B593B0302107A8FCF7C2FED1
:1034D000142102A8FCF7BEFE00BF00200190244882
:1034E000006840F08050224908600846006800F0FB
:1034F0008050019000BF00BF00BF002001901D4818
:10350000006840F480401B4908600846006800F4E9
:103510008040019000BF00BF012007900004089088
:1035200002200D9041050E9104210F91A8211091C8
:10353000022111910421129107A8FDF793FE08B111
:10354000FDF714F90F200290022003900020049050
:103550004FF4A05005904FF480500690052102A82A
:10356000FDF740FD08B1FDF701F913B000BD000003
:1035700040380240007000400348006840F470008A
:10358000014908607047000088ED00E010B502486E
:10359000FEF766FD10BD0000F404002010B50248DF
:1035A000FEF75EFD10BD00003C05002010B502488E
:1035B000FEF756FD10BD00005C06002010B5026845
:1035C0002D4B98420ED0B0F1804F0BD02B4B984230
:1035D00008D02B4B984205D02A4B984202D02A4B58
:1035E000984203D122F070024B681A43224B984252
:1035F00020D0B0F1804F1DD0204B98421AD0204BE4
:10360000984217D01F4B984214D01F4B984211D0AC
:103610001E4B98420ED01E4B98420BD01D4B984229
:1036200008D01D4B984205D01C4B984202D01C4B31
:10363000984203D122F44072CB681A4322F08003EF
:103640004C6943EA040202608B68C3620B688362C0
:10365000094B984202D00C4B984201D10B6903638D
:1036600001234361036903F001031BB1036923F0E4
:103670000103036110BD0000000001400004004090
:1036800000080040000C00400004014000400140E0
:10369000004401400048014000180040001C004068
:1036A0000020004030B501F01F05012404FA05F3A5
:1036B000046A9C430462046A01F01F0502FA05F5DE
:1036C0002C43046230BD30B50C46816821F47F4143
:1036D00042EA032525432943816030BD0A468168BB
:1036E00021F0700142F00703194381607047000028
:1036F00030B5026A056A25F00105056243688469F0
:1037000024F0700424F003040D682C4322F002021C
:103710008D682A43104DA84200D103E00F4DA84206
:1037200006D100BF22F00802CD682A4322F004022D
:10373000094DA84202D0094DA84207D123F4807355
:1037400023F400734D692B438D692B4343608461DF
:103750004D684563026230BD000001400004014035
:1037600030B5026A056A25F0100505624368846970
:1037700024F4E04424F440740D6844EA052422F063
:1037800020028D6842EA0512124DA84200D103E0E2
:10379000114DA84207D100BF22F08002CD6842EA55
:1037A000051222F040020B4DA84202D00A4DA84259
:1037B00009D123F4806323F400634D6943EA850350
:1037C0008D6943EA8503436084614D6885630262C5
:1037D00030BD0000000001400004014030B5026A25
:1037E000056A25F4807505624368C46924F0700495
:1037F00024F003040D682C4322F400728D6842EA21
:103800000522124DA84200D103E0114DA84207D174
:1038100000BF22F40062CD6842EA052222F48062F1
:103820000A4DA84202D00A4DA84209D123F4805380
:1038300023F400534D6943EA05138D6943EA0513E8
:103840004360C4614D68C563026230BD0000014041
:103850000004014030B5036A056A25F4805505620D
:103860004468C26922F4E04222F440720D6842EAE0
:10387000052223F400538D6843EA0533084DA8421E
:1038800002D0084DA84204D124F480444D6944EA92
:1038900085144460C2614D680564036230BD000058
:1038A000000001400004014030B50B461446026A96
:1038B000056A25F001050562816921F0F00141EA00
:1038C000041122F00A021A438161026230BD30B550
:1038D0000B461446026A056A25F0100505628169E7
:1038E00021F4704141EA043122F0A00242EA0312BD
:1038F0008161026230BD70B50546AC6B0020E08589
:10390000E0842046FEF70DFF70BD70B50646002529
:10391000B46B20684069C0F3C01594F841002128B9
:1039200005D125B10020E084204600F0C8F82068C9
:103930004069C0F3801594F84200222805D125B1D2
:103940000020E085204600F074F8606C40F0100024
:1039500060642046FEF7E5FE70BD70B50546AC6BB1
:103960002868006800F48070002842D1E08500BF1C
:1039700000BF21680C3151E8001F21F480702168DC
:103980000C3141E80002002AF3D100BF00BF00BFA4
:103990002168143151E8001F21F001002168143121
:1039A00041E80002002AF3D100BF00BF00BF216838
:1039B000143151E8001F21F040002168143141E822
:1039C0000002002AF3D100BF202084F84200206BBF
:1039D00001280ED100BF00BF21680C3151E8001F43
:1039E00021F0100021680C3141E80002002AF3D1D7
:1039F00000BF00206063206B012804D1A18D204608
:103A0000FEF749FE02E02046FFF7E0F870BD70B512
:103A10000546AC6B01206063206B012805D1A08DA9
:103A200041082046FEF737FE02E02046FFF7CFF8B8
:103A300070BD00BF00BF02680C3252E8002F22F4B4
:103A4000907102680C3242E80013002BF3D100BFE2
:103A500000BF00BF0268143252E8002F22F00101BB
:103A60000268143242E80013002BF3D100BF016B4F
:103A700001290ED100BF00BF02680C3252E8002FAE
:103A800022F0100102680C3242E80013002BF3D13F
:103A900000BF202180F8421000210163704710B55B
:103AA00004462068C06820F040002168C8602020DB
:103AB00084F841002046FFF78BF8002010BD00BFBE
:103AC00000BF02680C3252E8002F22F0C0010268E9
:103AD0000C3242E80013002BF3D100BF202180F804
:103AE00041107047F8B5044694F84200222875D179
:103AF000A068B0F5805F0CD1206950B90025A66A96
:103B000020684068C0F308003080A06A801CA06272
:103B100015E0A56A0026A068B0F5805F03D0A06814
:103B200028B9206918B920684068287004E0206826
:103B3000406800F07F002870A06A401CA062E08D01
:103B4000401E80B2E085002846D12068C06820F081
:103B500020002168C8602068C06820F48070216857
:103B6000C8602068406920F0010021684861202079
:103B700084F8420000206063206B012826D10020D9
:103B8000206300BF00BF21680C3151E8001F21F005
:103B9000100021680C3141E80002002AF3D100BF77
:103BA0002068006800F0100010280AD100BF002033
:103BB000009020680068009020684068009000BF76
:103BC00000BFA18D2046FEF766FD02E02046FEF70D
:103BD000FDFF0020F8BD01E00020FBE70220F9E72F
:103BE0002DE9F84F04462068006920F44050E16850
:103BF0000843216808612169A06808436169084396
:103C0000E169084300902068C06849F20C6188436C
:103C1000009908432168C8602068406920F440701A
:103C2000A16908432168486176492068884203D029
:103C300075492068884203D1FDF7ACFA814602E05D
:103C4000FDF798FA8146E069B0F5004F6CD102208B
:103C50006168A0FB015003461920A9FB00700146D2
:103C60002A463846FCF7ACFA6421B0FBF1F04FEA83
:103C7000001A02206168A0FB01510B461920A9FB24
:103C800000712A463846FCF79BFA83460220616899
:103C9000A0FB015003461920A9FB00712A463846B3
:103CA000FCF78EFA6421B0FBF1F000EBC00101EBF0
:103CB0000010ABEB8000322101EBC0006421B0FBAF
:103CC000F1F000F0F8000AEB400A02206168A0FB66
:103CD000015003461920A9FB007001462A463846C8
:103CE000FCF76EFA834602206168A0FB0150034690
:103CF0001920A9FB00712A463846FCF761FA6421B5
:103D0000B0FBF1F000EBC00101EB0010ABEB800069
:103D1000322101EBC0006421B0FBF1F000F007009C
:103D20005044216888606AE004206168A0FB01506B
:103D300003461920A9FB007001462A463846FCF7C5
:103D40003FFA824604206168A0FB01500346192017
:103D5000A9FB007001462A463846FCF731FA642177
:103D6000B0FBF1F000EBC00101EB0010AAEB80000A
:103D7000322101EB00106421B0FBF1F000F0F00AF9
:103D800004206168A0FB017003461920A9FB0051C3
:103D90003A462846FCF714FA6421B0FBF1F00AEB2E
:103DA000001A04206168A0FB01510B461920A9FBF1
:103DB00000712A463846FCF703FA834604206168FE
:103DC000A0FB015003461920A9FB007001462A46BA
:103DD0003846FCF7F5F96421B0FBF1F000EBC001C7
:103DE00001EB0010ABEB8000322101EB00106421ED
:103DF000B0FBF1F000F00F00504421688860BDE88E
:103E0000F88F0000001001400014014077B581B028
:103E1000044615460298A062A58500206064222011
:103E200084F842002848E16BC8632848E16B0864C5
:103E30002748E16BC8640020E16B086502AE326878
:103E40002368191D2B46E06BFCF794FE00BF002091
:103E5000009020680068009020684068009000BFD3
:103E600000BF206970B100BF00BF21680C3151E86C
:103E7000001F41F4807021680C3141E80002002AE3
:103E8000F3D100BF00BF00BF2168143151E8001F0B
:103E900041F001002168143141E80002002AF3D109
:103EA00000BF00BF00BF2168143151E8001F41F07E
:103EB00040002168143141E80002002AF3D100BF1C
:103EC000002004B070BD00005B3900080F3A000804
:103ED0000B390008014691F84100212828D1886853
:103EE000B0F5805F0BD1086948B90A6A1088C0F341
:103EF00008000B685860086A801C086205E00B6ABD
:103F0000581C086218780B685860C88C401E80B234
:103F1000C88458B90868C06820F080000B68D86071
:103F20000868C06840F040000B68D8600020704707
:103F30000220FCE708B5194800680068C0F30010CB
:103F400018B300BF0020009014480068006800907B
:103F5000124800684068009000BF00BF0F48FEF79D
:103F60009BFB0F4800684068C0F130000D49088095
:103F7000084601780C4800F0BFF80A4801880A4852
:103F8000FCF768F90020074908800448FEF7CAFBDF
:103F9000302205490148FEF703FE08BD7C070020DA
:103FA000C4070020440000208404002000BFFEE776
:103FB00002480068C0F30220704700000CED00E0EA
:103FC00010B5002804DB0A07130E054A135406E057
:103FD0000A07140E034A00F00F031B1FD45410BD30
:103FE00000E400E018ED00E002E008C8121F08C17C
:103FF000002AFAD170477047002001E001C1121F6A
:10400000002AFBD17047D0ED000AF4EEC00AF1EEB1
:1040100010FA01DD80ED000AD0ED000AB1EE401A81
:10402000F4EEC10AF1EE10FA03D2F1EE400AC0ED4F
:10403000000A704710B52DED028B044600BF00BF8B
:1040400000BF274860434FF4B47190FBF1F0404249
:1040500008EE900A23480068416A2248C068224A54
:10406000B2F9002002FB001020490860B0EE680A97
:10407000F8EEC00A0846006800EE100AB8EEC00A62
:104080001B48FFF7F3F8B0EE408AB5EEC08AF1EEB8
:1040900010FA0CDDBCEEC80A10EE100A80B2154909
:1040A0000968C86300201349096808640DE000200E
:1040B00010490968C863B1EE480ABCEEC00A10EEA8
:1040C000100A80B20B4909680864084800684FF478
:1040D000B4714843024990FBF1F0BDEC028B10BD76
:1040E000E0707200F40400203E0000202C0000204C
:1040F000D80000201406002070B504460D46E07874
:10410000A8421AD120780E490978884215D16078E2
:104110000B494978884210D1681E205C094909780A
:1041200088420AD1A81E81B2204600F005FB18B1D2
:10413000204600F097F870BDFDE700BFFBE70000E8
:104140004600002048000020FCF77EFEFFF7BAF989
:1041500000F0F0F8FEF764FDFEF73EFDFEF74CFEC2
:10416000FEF702FFFEF76AFFFFF760F8FEF7B8FD03
:10417000FEF704FEFEF77CFEFEF7B8FEFEF784FFB6
:10418000FFF706F800F03CF906E00448008800F06C
:1041900007F80A20FCF738FDF7E70000540000207C
:1041A00010B52DED068B0446B4F57A7F31DBB4F5FE
:1041B000FA6F2EDC18480088844220D02046FCF795
:1041C0006DF941EC1A0B9FED150B53EC102BFCF71E
:1041D000F3F841EC190B9FED130B53EC102BFCF78C
:1041E000E5F841EC180BFCF76AF940F6B831081A0B
:1041F0000E49096848630D480068846309E040F28D
:10420000DC50844205D109490968486307490968B7
:104210008863BDEC068B10BD3A00002039B4C87627
:10422000BE9FF23FAE47E17A142E6940340700206A
:10423000416680ED140AC0ED150A80ED161AC0ED36
:10424000001A80ED012AC0ED022A80ED173AC0ED78
:10425000183A704780ED000AC0ED010A80ED021A9D
:104260007047000010B504461022611D2A48FBF774
:10427000D8FF294890ED000ABDEEC00A10EE100AE2
:1042800000B226490880244890ED010ABDEEC00A1C
:1042900010EE100A00B2224908801F4890ED020A71
:1042A000BDEEC00A10EE100A00B21E4908801A487E
:1042B00090ED030ABDEEC00A10EE100A00B21A49D2
:1042C0000880607D19490870134890ED000ABCEE23
:1042D000C00A10EE100A1649088014480078AF286A
:1042E00006D0BF2809D0FA280FD0FF2810D109E046
:1042F00000F078F900F060F90BE000F055F900F0FB
:1043000063F906E000F050F903E000F055F900E031
:1043100000BF00BF10BD0000E40400204A000020E0
:104320004C0000204E0000205000002052000020D1
:10433000540000200448002101604160816003486E
:104340000149086000207047EC030020F8030020BA
:1043500010B52DED028B044600BF00BF2248006857
:10436000416A2148C068214AB2F9002002FB0010CE
:104370001F490860084600684FF4B47148431D495E
:1043800090FBF1F000B208EE900A604200EE100AD5
:10439000F8EEC00AB8EEE80A1748FEF767FFB0EE7D
:1043A000408AB5EEC08AF1EE10FA0CDDBCEEC80A08
:1043B00010EE100A80B211490968486300200F49C5
:1043C000096888630DE000200C4909684863B1EE74
:1043D000480ABCEEC00A10EE100A80B2074909680C
:1043E0008863BDEC028B10BD3C050020400000201E
:1043F0000400002060E3160048010020140600209D
:1044000010B500F053F900F083F9DFED513A9FED5C
:10441000513ADFED512AB7EE002ADFED501A9FED39
:10442000501ADFED4B0A9FED4F0A03214E48FFF76C
:1044300005F8DFED4E3A9FED473ADFED472A9FED55
:104440004C2ADFED4C1A9FED4C1ADFED4C0A9FED24
:104450004C0A03214B48FEF7F1FFDFED3D3A9FED9B
:104460003D3ADFED3D2AB7EE002ADFED471A9FED1A
:10447000471ADFED370A9FED3B0A03214448FEF758
:10448000DDFFF6EE003A9FED333ADFED332AB3EE6F
:104490000E2ADFED401A9FED381AF0EE080A9FED64
:1044A000380A03213C48FEF7C9FFF6EE003A9FEDBB
:1044B000293ADFED292AB3EE0E2ADFED361A9FEDF9
:1044C0002E1AF0EE080A9FED2E0A03213348FEF75C
:1044D000B5FFF6EE003A9FED1F3ADFED1F2AB3EE6F
:1044E0000E2ADFED2C1A9FED241AF0EE080A9FED3C
:1044F000240A03212A48FEF7A1FFF6EE003A9FEDB9
:10450000153ADFED152AB3EE0E2ADFED221A9FEDE4
:104510001A1AF0EE080A9FED1A0A0321204870309B
:10452000FEF78CFF4FF47A701E490968486340F229
:10453000DC501C49096848634FF4FA60194909685E
:10454000886340F2DC5017490968886310BD000099
:1045500000007A4400401C4600000000CDCCCC3D59
:10456000000048430000FA43680000200080224514
:1045700054E3453F3333333E0080264400409C469D
:1045800000C07944D8000020666606400000FA4466
:10459000B80100200000C842480100209802002015
:1045A000080300203407002010B50248FDF760FA28
:1045B00010BD00005C06002010B50248FDF704FAAB
:1045C00010BD00005C06002010B53C210348FDF73B
:1045D000DBFC3C210248FDF7D7FC10BDF4040020B1
:1045E0003C05002010B50020284908802849088093
:1045F00028490880284908802849096848622849CC
:104600000968486227490968486227490968486279
:10461000801E224909680861214909680861214909
:10462000096808612049096808611C480068C06879
:1046300040F0010019490968C86019480068C0685D
:1046400040F0010016490968C86016480068C06853
:1046500040F0010013490968C86013480068C06849
:1046600040F0010010490968C8603C210B48FDF783
:1046700025FC3C210A48FDF721FC3C210948FDF7B7
:104680001DFC3C210848FDF719FC10BD3C00002032
:104690003E0000204000002042000020CC05002009
:1046A000F40400203C0500208405002010B5002102
:1046B0001348FDF7E7FE00211148FDF7E3FE08214E
:1046C0001048FDF7DFFE0C210E48FDF7DBFE002150
:1046D0000C48FDF7D7FE04210A48FDF7D3FE002160
:1046E0000948FDF7CFFE04210748FDF7CBFE002166
:1046F0000648FDF7C7FE04210448FDF7C3FE10BDC0
:10470000CC0500201406002084050020340700207A
:1047100010B507480068C06840F0100004490968F7
:10472000C860302203490248FEF73AFA10BD000083
:104730007C0700208404002010B5024600230020DE
:1047400004E0145C1C44E3B2441CE0B28842F8DB91
:10475000505C984201D1012010BD0020FCE700060A
:1047600010160006101600000000000000000102F4
:10477000030406070809000000000102030400000A
:10478000A04700080000002068000000E83F000883
:104790000848000868000020200C0000F83F0008CE
:1047A0000000000000000000000000000000000009
:1047B0000000000000000000A4060000000000004F
:1047C00000000000000000000000000000000000E9
:1047D00000000000000000000000DC0500000000F8
:1047E000000000000000FAAFFE0000000000000022
:1047F00000000000000000000000000010000000A9
:08480000010000000024F40097
:040000050800018965
:00000001FF
