:020000040800F2
:10000000280800209D010008092700085522000843
:10001000C5250008090500089D34000800000000FF
:10002000000000000000000000000000032900089C
:100030000D0500080000000001290008052900083E
:10004000B7010008B7010008B7010008B7010008B0
:10005000B7010008B7010008B7010008B7010008A0
:10006000B7010008B7010008B7010008B701000890
:10007000B7010008B7010008B7010008B701000880
:10008000B7010008B7010008B7010008B701000870
:10009000B7010008B7010008B7010008B701000860
:1000A000B7010008C92A0008B7010008B701000815
:1000B000D92A0008B7010008B7010008B7010008F5
:1000C000B7010008B7010008B7010008B701000830
:1000D000B7010008B7010008B70100086134000843
:1000E000B7010008B7010008B7010008B701000810
:1000F000B7010008B7010008B7010008B701000800
:10010000B7010008B7010008B7010008B7010008EF
:10011000B7010008B7010008E92A0008B701000884
:10012000B7010008B7010008B7010008B7010008CF
:10013000B7010008B7010008B7010008B7010008BF
:10014000B7010008B7010008B7010008B7010008AF
:10015000B7010008B7010008B7010008B70100089F
:10016000B7010008B7010008B7010008B70100088F
:10017000B7010008B7010008B7010008000000003F
:10018000B7010008B7010008DFF80CD000F0AAF9A9
:1001900000480047B135000828080020064880477D
:1001A00006480047FEE7FEE7FEE7FEE7FEE7FEE75C
:1001B000FEE7FEE7FEE7FEE7C12900088901000827
:1001C0002DE9F05F0546002092469B46884606468C
:1001D000814640241BE0284641464746224600F01F
:1001E00014F953465A46C01A914110D31146184685
:1001F000224600F0FBF82D1A67EB01084F46224615
:100200000120002100F0F2F817EB00094E41201EFA
:10021000A4F10104DFDC484631462A464346BDE8E6
:10022000F09F40EA01039B0703D009E008C9121FB1
:1002300008C0042AFAD203E011F8013B00F8013BA0
:10024000521EF9D27047D2B201E000F8012B491ECC
:10025000FBD270470022F6E710B513460A46044663
:100260001946FFF7F0FF204610BD2DE9F04D81EA59
:10027000030404F0004B21F0004514464FF0000A3F
:1002800023F0004150EA050220D054EA01021DD0BB
:10029000C5F30A570246C5F31303C1F31300C1F3B4
:1002A0000A5640F4801543F48013A7EB0608101B90
:1002B000D64608F2FD3873EB050002D308F10108B9
:1002C00001E092185B41B8F1000F03DA002001460B
:1002D000BDE8F08D00204FF48011064684460EE004
:1002E000171B73EB050705D3121B63EB05030643CE
:1002F0004CEA010C49084FEA300092185B4150EA81
:100300000107EDD152EA030012D082EA040083EA29
:100310000501084305D0101BAB4106D20122002382
:1003200006E000224FF0004302E06FF0010253109C
:100330001AEB06004CEB085110EB0A0041EB0B01E5
:10034000BDE8F04D00F071B80EB540F233410291B6
:100350000021CDE900110A460B4600F075F803B004
:1003600000BDC1F30A5210B5C1F3130140F2FF33CF
:1003700041F480119A4201DA002010BD40F233436B
:100380009A42A2F2334203DC524200F03EF810BD22
:10039000904010BD00F0004230F000400AD0C10D86
:1003A00001F56071C0F3160042EA0151C20840072E
:1003B00011437047002001467047000030B5041E0D
:1003C00071F1000404DB4FF00044404264EB010192
:1003D000141E73F1000405DB1C464FF0004352422B
:1003E00063EB04038B4208BF824230BD202A04DB4A
:1003F000203A00FA02F1002070479140C2F1200338
:1004000020FA03F3194390407047202A04DB203A76
:1004100021FA02F00021704721FA02F3D040C2F124
:100420002002914008431946704710B5141E73F11D
:10043000000408DA401C41F1000192185B411A43A4
:1004400001D120F0010010BD2DE9F04D92469B46F0
:1004500011B1B1FA81F202E0B0FA80F22032904696
:10046000FFF7C4FF04460F4640EA0A0041EA0B01C9
:1004700053465A46084313D0114653EA010019D097
:10048000C8F140025046FFF7C0FF05460E465046F1
:1004900059464246FFF7AAFF084305D0012004E071
:1004A00020463946BDE8F08D0020054346EAE07657
:1004B0002C4337430A986305E40AA0EB08000022A6
:1004C000FD0A44EA47540A3002D500200146E9E714
:1004D000010510196941DDE9084500196941BDE8C8
:1004E000F04DA2E7064C074D06E0E06840F001033E
:1004F00094E8070098471034AC42F6D3FFF748FE63
:10050000CC3B0008EC3B000800BFFEE7704772B62A
:1005100000BFFEE770B50446A56D00F05FF9064622
:1005200094F83500022808D08020606500BF0020C4
:1005300084F8340000BF012070BD2068006820F0FE
:100540001600216808602068406920F0800021685A
:100550004861206C08B9A06C28B12068006820F0C0
:100560000800216808602068006820F00100216808
:10057000086010E000F032F9801B05280BD920201C
:100580006065032084F8350000BF002084F8340043
:1005900000BF0320D0E72068006800F001000028B9
:1005A000E8D194F85C103F208840A860012084F8CE
:1005B000350000BF002084F8340000BF00BFBBE757
:1005C000014691F83500022803D0802048650120BB
:1005D0007047052081F835000868006820F00100A8
:1005E0000A6810600020F3E7F8B502460B460025C4
:1005F000002400200021D6E0012606FA01F51E683D
:1006000006EA0504AC4274D11E7906F00306012EF9
:1006100004D01E7906F00306022E13D190684F0015
:100620000326BE40B0434F00DE68BE4030439060BA
:10063000506801268E40B0431E79C6F300168E40E6
:10064000304350601E7906F00306032E09D0D068AF
:100650004F000326BE40B0434F009E68BE4030436B
:10066000D0601E7906F00306022E13D1CF0802F1E6
:10067000200656F827004E07F70E0F26BE40B0435F
:100680004F07FF0E1E69BE403043CF0802F120061F
:1006900046F8270010684F000326BE40B0431E797D
:1006A00006F003064F00BE40304310605E6806F45B
:1006B0004036002E76D000BF002600963C4E3668AD
:1006C00046F480463A4F3E603E46366806F4804621
:1006D000009600BF00BF374E8F0856F827008E07E0
:1006E000370F0F26BE40B043334EB24202D1002630
:1006F00024E057E0314EB24201D101261EE0304ED7
:10070000B24201D1022619E02E4EB24201D1032697
:1007100014E02D4EB24201D104260FE02B4EB2421E
:1007200001D105260AE02A4EB24201D1062605E093
:10073000284EB24201D1072600E008268F073F0F5E
:10074000BE4030431B4E8F0846F82700224E3068CB
:10075000A0435E6806F4801606B120431E4E30604A
:10076000361D3068A0435E6806F4001606B12043CB
:10077000194E361D3060184E361F3068A0435E6833
:1007800006F4003606B12043134E361F3060361F84
:100790003068A0435E6806F4803606B120430E4EF2
:1007A000083E3060491C1029FFF426AFF8BD000058
:1007B0004438024008380140000002400004024072
:1007C00000080240000C02400010024000140240E9
:1007D00000180240001C0240083C0140014800682B
:1007E000704700004800002003480068034909786A
:1007F000084401490860704748000020500000206C
:1008000010B50D48006840F400700B4908600846B8
:10081000006840F4806008600846006840F480701A
:100820000860032000F0A6F80F2000F007F800F0A1
:100830002BF8002010BD0000003C024070B50446BB
:100840000E4800784FF47A71B1FBF0F00C4909685A
:10085000B1FBF0F5284600F045FC08B1012070BD61
:10086000102C07D200222146501E00F045F8054802
:10087000046001E00120F2E70020F0E750000020D2
:10088000540000204C00002008B500BF002000905C
:100890000E48006840F480400C4908600846006833
:1008A00000F48040009000BF00BF00BF0020009017
:1008B000081F006840F08050091F08600846006863
:1008C00000F08050009000BF00BF08BD44380240D7
:1008D0000146084600280DDB00BF00BF00F01F03E3
:1008E00001229A4043099B0003F1E023C3F8002151
:1008F00000BF00BF00BF70472DE9F05F80460D4686
:100900001646002702F0CCFD074639462A463346F4
:1009100001F00700C0F1070ABAF1040F02D94FF045
:10092000040A01E0C0F1070AD14600F1040ABAF155
:10093000070F02D24FF0000A01E0A0F1030AD446EB
:100940004FF0010A0AFA09FAAAF1010A0AEA020AB0
:100950000AFA0CFA4FF0010B0BFA0CFBABF1010B8E
:100960000BEA030B4AEA0B042146404602F0A0FDC5
:10097000BDE8F09F00BF00F00702064B19684FF674
:10098000FF031940044B0B4343EA0221014B19605A
:1009900000BF70470CED00E00000FA0500BFBFF398
:1009A0004F8F0748006800F4E06006490843001DC7
:1009B00003490860BFF34F8F00BF00BF00BFFDE7D2
:1009C0000CED00E00000FA0570B504460D460CB9C8
:1009D000012070BD5848006800F00700A84209D205
:1009E00055490D700846006800F00700A84201D084
:1009F0000120EEE7207800F0020002281DD12078C7
:100A000000F00400042805D14C48006840F4E05090
:100A10004A490860207800F00800082805D14748B6
:100A2000006840F46040454908604448006820F090
:100A3000F000A168084341490860207800F00100F7
:100A4000A8B36068012807D13C4808380068C0F3A3
:100A50004040B8B90120BCE76068022802D0606855
:100A6000032807D1354808380068C0F3406048B90A
:100A70000120AEE7314808380068C0F3400008B9EB
:100A80000120A6E72D48006820F0030061680843B4
:100A90002A490860FFF7A2FE064609E0FFF79EFE1E
:100AA000801B41F28831884202D9032091E707E098
:100AB0002248006800F00C006168B0EB810FEDD1B6
:100AC0001D48006800F00700A84209D91A490D70B6
:100AD0000846006800F00700A84201D0012078E72E
:100AE000207800F00400042807D11448006820F49E
:100AF000E050E168084311490860207800F00800E0
:100B0000082808D10D48006820F46040216940EAB7
:100B1000C1000A49086000F03FF808490968C1F3BC
:100B20000311074A515CC84006490860064800683E
:100B3000FFF784FE00204CE7003C024008380240EA
:100B4000B43B0008540000204C000020014800681D
:100B5000704700005400002000B5FFF7F7FF04497C
:100B60000968C1F38221034A515CC84000BD0000FE
:100B700008380240C43B000800B5FFF7E7FF04490E
:100B80000968C1F34231034A515CC84000BD00000E
:100B900008380240C43B00082DE9F0470024002536
:100BA0000026A1462548006800F00C0020B104286A
:100BB00005D008283AD105E0DFF8849039E0DFF865
:100BC000849036E01D48001F006800F03F041B4879
:100BD000001F006800F4800078B11A481749091F07
:100BE0000968C1F38811A0FB017001462246002369
:100BF0003846FFF7E5FA05460EE011480F49091F90
:100C00000968C1F38811A0FB017001462246002348
:100C10003846FFF7D5FA05460848001F0068C0F3BC
:100C20000140401C4600B5FBF6F902E0DFF81090E9
:100C300000BF00BF4846BDE8F0870000083802400A
:100C40000024F40000127A00F8B504460CB9012023
:100C5000F8BD207800F00100002874D0F948006841
:100C600000F00C0004280DD0F648006800F00C00DD
:100C7000082813D1F348001F006800F48000B0F585
:100C8000800F0BD1EF4808380068C0F340400028BF
:100C900059D06068002856D10120D9E700BF6068AC
:100CA000B0F5803F08D1E7480838006840F480304C
:100CB000E449083908601EE06068B0F5A02F0DD146
:100CC000E0480838006840F48020DE4908390860B0
:100CD0000846006840F4803008600CE0D9480838C5
:100CE000006820F48030D749083908600846006859
:100CF00020F48020086000BF606890B1FFF76EFDAF
:100D0000054606E0FFF76AFD401B642801D9032071
:100D10009EE7CC4808380068C0F340400028F1D076
:100D200011E0FFF75BFD054606E0FFF757FD401BAE
:100D3000642801D903208BE7C24808380068C0F353
:100D400040400028F1D1207800F0020002285FD155
:100D5000BC48006800F00C0058B1BA48006800F0C8
:100D60000C0008281CD1B748001F006800F4800060
:100D7000B0B9B44808380068C0F3400020B1E0685A
:100D8000012801D0012063E7AE480838006820F050
:100D9000F800216940EAC100AA490839086037E033
:100DA000E06800B30120A8490860FFF717FD054679
:100DB00006E0FFF713FD401B022801D9032047E797
:100DC000A04808380068C0F340000028F1D09D48D2
:100DD0000838006820F0F800216940EAC10099490C
:100DE0000839086014E0002097490860FFF7F6FC16
:100DF000054606E0FFF7F2FC401B022801D903205C
:100E000026E7904808380068C0F340000028F1D178
:100E1000207800F0080008282CD16069A8B10120D2
:100E20008A490860FFF7DAFC054606E0FFF7D6FCC2
:100E3000401B022801D903200AE782486C30006871
:100E4000C0F340000028F1D014E000207F49086082
:100E5000FFF7C4FC054606E0FFF7C0FC401B022874
:100E600001D90320F4E677486C300068C0F34000F5
:100E70000028F1D1207800F00400042870D1002768
:100E800070483830006800F0805090B900BF0020F2
:100E900000906C483830006840F080506949383123
:100EA00008600846006800F08050009000BF00BF56
:100EB00001276748006800F48070B0B96448006892
:100EC00040F4807062490860FFF788FC054606E040
:100ED000FFF784FC401B022801D90320B8E65C48D8
:100EE000006800F480700028F2D000BFA0680128DC
:100EF00008D154486830006840F001005149683119
:100F000008601DE0A06805280DD14E4868300068D3
:100F100040F004004B49683108600846006840F022
:100F2000010008600CE047486830006820F00100CC
:100F30004449683108600846006820F004000860F1
:100F400000BFA068A8B1FFF749FC054609E0FFF71C
:100F500045FC401B41F28831884202D9032077E6E4
:100F600026E0384868300068C0F340000028EED022
:100F700013E0FFF733FC054608E0FFF72FFC401BAA
:100F800041F28831884201D9032061E62D4868305A
:100F90000068C0F340000028EFD1012F07D1294895
:100FA0003830006820F0805026493831086000BF92
:100FB000A069002845D02348006800F00C000828EC
:100FC0005DD0A069022845D100201F490866FFF7BF
:100FD00005FC054606E0FFF701FC401B022801D98D
:100FE000032035E6174808380068C0F34060002841
:100FF000F1D1D4E907010843616A40EA8111012275
:10100000A06AC2EB500041EA00412C20005D41EA99
:1010100000600C49091F086001200B490866FFF7B2
:10102000DDFB054606E0FFF7D9FB401B022801D98E
:1010300003200DE6034808380068C0F3406000282C
:10104000F1D049E00838024000004742800E474294
:1010500000700040002021490866FFF7BFFB0546ED
:1010600006E0FFF7BBFB401B022801D90320EFE598
:101070001B480068C0F340600028F2D12CE0A06952
:10108000012800D1E4E51648001D0668A069012882
:1010900020D006F48001E06981421BD106F03F01B7
:1010A000206A814216D147F6C0703040616AB0EBC9
:1010B000811F0FD106F440310122A06AC2EB50001B
:1010C000B1EB004F06D106F070612C20005DB1EB52
:1010D000006F01D00120BBE50020B9E500004742C8
:1010E0000038024070B504462546681EB0F1807F86
:1010F00001D301200FE0681E4FF0E02148610F216D
:101100004FF0FF3002F0D4F900204FF0E021886169
:1011100007200861002070BD7047704730B5024657
:101120000B4600BF92F83C00012801D1022030BDDF
:10113000012082F83C0000BF022082F83D001068C8
:1011400044681068816824F07004186804431068CB
:101150004460184D1068A8421BD01068B0F1804F51
:1011600017D0154D1068A84213D0144D1068A8422E
:101170000FD0134D1068A8420BD0124D1068A84232
:1011800007D0114D1068A84203D0104D1068A84236
:1011900005D121F080015868014310688160012069
:1011A00082F83D0000BF002082F83C0000BF00BF75
:1011B000BDE70000000001400004004000080040BE
:1011C000000C0040000401400040014000180040B5
:1011D00010B504460CB9012010BD94F83D0028B9A3
:1011E000002084F83C00204600F026F8022084F815
:1011F0003D00211D206801F07FFC012084F846009D
:1012000000BF84F83E0001213F20015540200155D8
:101210004120015500BF00BF012084F84200432057
:101220000155442001554520015500BF012084F897
:101230003D000020D0E7000038B504462249206870
:1012400088420FD100BF002000902048006840F085
:1012500008001E4908600846006800F00800009079
:1012600000BF30E01A492068884218D100BF002032
:1012700000901648006840F01000144908600846C5
:10128000006800F01000009000BF00BF00220421A1
:101290003620FFF731FB3620FFF71AFB13E00D492C
:1012A000206888420FD100BF0020009007480068E6
:1012B00040F04000054908600846006800F0400022
:1012C000009000BF00BF38BD000C00404038024015
:1012D0000010004000180040014691F83D00012830
:1012E00001D001207047022081F83D000868C068E5
:1012F00040F001000B68D8601A4B086898421BD078
:101300000868B0F1804F17D0174B0868984213D087
:10131000164B086898420FD0154B086898420BD0BE
:10132000144B0868984207D0134B0868984203D0C2
:10133000124B086898420CD10868806800F00702D8
:10134000062A0CD00868006840F001000B6818609D
:1013500005E00868006840F001000B681860002094
:10136000C0E7000000000140000400400008004009
:10137000000C004000040140004001400018004003
:101380002DE9F04104460D46002700BF94F83C00CB
:10139000012802D10220BDE8F081012084F83C0040
:1013A00000BF022084F83D002068866826F077069A
:1013B00026F47F46206886602868502833D00CDCED
:1013C000202850D004DC00284BD0102851D149E00F
:1013D000302849D040284CD139E060282DD07028E1
:1013E00007D0B0F5805F03D0B0F5005F41D10DE0CC
:1013F00041E0D5E902136A68206801F002FC206828
:10140000866846F077062068866034E0D5E90213E6
:101410006A68206801F0F5FB2068806840F480402D
:101420002168886027E0EA686968206801F0DAFCD2
:101430005021206801F0F0FB1DE0EA68696820682F
:1014400001F0E3FC6021206801F0E6FB13E0EA68AC
:101450006968206801F0C6FC4021206801F0DCFBCF
:1014600009E000BF00BF00BF2968206801F0D4FB7D
:1014700001E0012700BF00BF012084F83D0000BF4C
:10148000002084F83C0000BF384684E72DE9F04195
:1014900004460D4614B90120BDE8F08194F83D00E2
:1014A00028B9002084F83C00204600F053F80220C0
:1014B00084F83D002068806844F207018843216871
:1014C0008860211D206801F017FB2068D0F8088093
:1014D000206886692068076A286840EA080840F2A0
:1014E00003308643A969A86840EA0120064340F614
:1014F0000C4086434FF2F0008643E969E86840EA11
:101500000120064328690001296A40EA01300643A8
:1015100027F0220727F088076969686840EA011008
:1015200007432068C0F80880206886612068076249
:10153000012084F8460084F83E0001213F20015537
:10154000012084F8420043200155012084F83D0029
:101550000020A1E710B586B00446142101A8FEF7CB
:1015600079FE4C492068884238D100BF00200090A5
:101570004948006840F00100474908600846006893
:1015800000F00100009000BF00BF00BF00200090ED
:1015900041481438006840F001003F4914390860A0
:1015A0000846006800F00100009000BF00BF4FF443
:1015B00040700190022002900020039004900120CE
:1015C000059001A93548FFF70FF8002211461920B0
:1015D000FFF792F91920FFF77BF959E02068B0F185
:1015E000804F55D100BF002000902B48001F00689D
:1015F00040F001002849091F08600846006800F013
:101600000100009000BF00BF00BF002000902248F2
:101610001438006840F001001F491439086008467A
:10162000006800F00100009000BF00BF00BF002074
:1016300000900846006840F0020008600846006814
:1016400000F00200009000BF00BF4FF40040019086
:10165000022002900020039004900120059001A92F
:101660000E48FEF7C1FF08200190022002900020E2
:10167000039004900120059001A90948FEF7B4FFEA
:10168000002211461C20FFF737F91C20FFF720F934
:1016900006B010BD00000140443802400000024086
:1016A000000402402DE9F04304460D4694F83E60E4
:1016B0003F20075D94F84280432010F804906DB9F4
:1016C000012E02D1B8F1010F02D00120BDE8F08354
:1016D000022084F83E0084F8420025E0042D0CD15D
:1016E000012F02D1B9F1010F01D00120EEE7022153
:1016F0003F2001554320015516E0012E07D1012F4F
:1017000005D1B8F1010F02D1B9F1010F01D00120CB
:10171000DCE7022084F83E0002213F200155022030
:1017200084F842004320015515B1042D0CD105E089
:1017300001220021206801F053FA10E00122042167
:10174000206801F04DFA0AE001220021206801F032
:1017500047FA01220421206801F042FA00BF00BFCD
:101760002068006840F00100216808600020ADE7B3
:10177000704770B504462068C5682068066906F0A1
:101780000200022819D105F00200022815D1401FDD
:1017900021680861012020772068806900F003003B
:1017A00018B12046FFF7E4FF05E0204600F0F0F80E
:1017B000204600F0A4F90020207706F00400042859
:1017C00019D105F00400042815D1C043216808612F
:1017D000022020772068806900F4407018B120460C
:1017E000FFF7C6FF05E0204600F0D2F8204600F0E3
:1017F00086F90020207706F00800082819D105F0A6
:101800000800082815D1C04321680861042020770A
:101810002068C06900F0030018B12046FFF7A8FF58
:1018200005E0204600F0B4F8204600F068F90020FA
:10183000207706F01000102819D105F010001028AC
:1018400015D1C04321680861082020772068C0694D
:1018500000F4407018B12046FFF78AFF05E02046EB
:1018600000F096F8204600F04AF90020207706F0B4
:10187000010048B105F0010030B16FF001002168AE
:101880000861204600F016FA06F08000802809D191
:1018900005F08000802805D1C043216808612046FA
:1018A000FFF73AFC06F04000402809D105F040005F
:1018B000402805D1C04321680861204600F046FA5F
:1018C00006F02000202809D105F02000202805D1AD
:1018D000C043216808612046FFF71FFC70BD00006F
:1018E00010B586B00446142101A8FEF7B3FC2349C5
:1018F000206888421DD100BF002000902048006869
:1019000040F001001E4908600846006800F0010030
:10191000009000BF00BF0F20019002200290002025
:10192000039004900220059001A91648FEF75CFE82
:1019300021E01549206888421DD100BF0020009099
:101940000F48006840F002000D4908600846006832
:1019500000F00200009000BF00BF4FF44040019033
:10196000022002900020039004900920059001A914
:101970000648FEF739FE06B010BD0000000C00401E
:1019800030380240000002400018004000040240CD
:1019900070472DE9F04104460D461646002700BF6A
:1019A00094F83C00012802D10220BDE8F08101201A
:1019B00084F83C0000BF36B1042E1BD0082E31D075
:1019C0000C2E5ED145E02946206801F02FF92068F1
:1019D000806940F00800216888612068806920F0F3
:1019E00004002168886120688069296908432168AA
:1019F000886148E02946206801F050F92068806934
:101A000040F40060216888612068806920F480606B
:101A10002168886120688069296940EA012021687D
:101A2000886130E02946206801F076F92068C069B5
:101A300040F008002168C8612068C06920F00400F7
:101A40002168C8612068C069296908432168C861A4
:101A500019E02946206801F09BF92068C06940F42C
:101A600000602168C8612068C06920F48060216836
:101A7000C8612068C069296940EA01202168C861FD
:101A800001E0012700BF00BF00BF002084F83C0038
:101A900000BF384689E710B504460CB9012010BDD7
:101AA00094F83D0028B9002084F83C00204600F05E
:101AB00025F8022084F83D00211D206801F01CF863
:101AC000012084F8460000BF84F83E0001213F2039
:101AD0000155402001554120015500BF00BF0120A4
:101AE00084F842004320015544200155452001550A
:101AF00000BF012084F83D000020D0E77047704708
:101B000070B504460D4615B994F83E000BE0042D5F
:101B100002D13F20005D06E0082D02D14020005D8B
:101B200001E04120005D012801D0012070BD1DB9F8
:101B3000022084F83E000EE0042D03D102213F2054
:101B4000015508E0082D03D102214020015502E093
:101B500002214120015501222946206801F040F868
:101B600023492068884203D022492068884201D155
:101B7000012000E0002028B12068406C40F40040C3
:101B8000216848641A49206888421BD02068B0F157
:101B9000804F17D018492068884213D01749206811
:101BA00088420FD01649206888420BD0114920681E
:101BB000884207D013492068884203D01249206820
:101BC00088420CD12068806800F00706062E0CD0F1
:101BD0002068006840F001002168086005E0206886
:101BE000006840F001002168086000209EE70000C6
:101BF00000000140000401400004004000080040D3
:101C0000000C0040004001400018004030B5044680
:101C10000D4600222946206800F0E2FF2349206893
:101C2000884203D022492068884201D1012000E087
:101C3000002090B100BF2068006A41F211110840F5
:101C400050B92068006A8910084028B92068406CA3
:101C500020F400402168486400BF00BF2068006A8B
:101C600041F21111084050B92068006A89100840FB
:101C700028B92068006820F001002168086000BFD2
:101C80001DB9012084F83E000EE0042D03D101218E
:101C90003F20015508E0082D03D1012140200155C6
:101CA00002E0012141200155002030BD000001402B
:101CB0000004014010B504461D48844213D1006859
:101CC000006800F01000102806D11A480088401E55
:101CD00000B2184908802AE016480088401C00B26B
:101CE0001449088023E01448844213D10068006836
:101CF00000F01000102806D110480088401E00B2E5
:101D00000E49088013E00D480088401C00B20B49C2
:101D100008800CE00A48844209D10A48B0F9000062
:101D200000F052FC0848B0F9000000F09BFC10BD28
:101D30007402002000000020BC02002002000020ED
:101D40004C0300200C0000200A0000207047704760
:101D5000704700002DE9F84F0446206805682068A8
:101D6000C668206847694FF00009CA4605F00F09A8
:101D7000B9F1000F0AD105F0200038B106F02000BB
:101D800020B1204601F042F9BDE8F88FB9F1000F0B
:101D90007CD007F0010018B906F49070002875D0C7
:101DA00005F0010030B106F4807018B1606C40F0AD
:101DB0000100606405F0040030B107F0010018B1C3
:101DC000606C40F00200606405F0020030B107F082
:101DD000010018B1606C40F00400606405F0080078
:101DE00048B106F0200010B907F0010018B1606C8E
:101DF00040F008006064606C002846D005F02000C8
:101E000028B106F0200010B1204601F0FFF820684C
:101E10004069C0F3801A606C00F0080010B9BAF194
:101E2000000F2DD0204601F0ABF82068406900F08B
:101E30004000402820D100BF00BF2168143151E884
:101E4000001F21F040002168143141E80002002AFF
:101E5000F3D100BFE06B50B17748E16B0865E06BF0
:101E6000FEF7AEFB88B1E06B016D88470DE02046C0
:101E7000FFF76EFF09E009E02046FFF769FF04E085
:101E80002046FFF765FF002060647DE7206B012896
:101E900078D105F01000002874D006F0100000285A
:101EA000FAD000BF002000902068006800902068F1
:101EB0004068009000BF00BF2068406900F040000B
:101EC000402860D1E06B006840681FFA80F8B8F1E4
:101ED000000F56D0A08D404553DDA4F82E80E06B56
:101EE000C069B0F5807F43D000BF00BF21680C31CE
:101EF00051E8001F21F4807021680C3141E8000294
:101F0000002AF3D100BF00BF00BF2168143151E89F
:101F1000001F21F001002168143141E80002002A6D
:101F2000F3D100BF00BF00BF2168143151E8001F8A
:101F300021F040002168143141E80002002AF3D169
:101F400000BF202084F842000020206300BF00BFB3
:101F500021680C3151E8001F21F0100021680C317C
:101F600041E80002002AF3D100BFE06BFEF7D2FA8D
:101F700002206063A08DE28D801A81B22046FFF7B7
:101F8000E6FE01E742E0A08DE18D401A1FFA80F8DD
:101F9000E08DD0B3B8F1000F37D000BF00BF21688B
:101FA0000C3151E8001F21F4907021680C3141E898
:101FB0000002002AF3D100BF00BF00BF2168143126
:101FC00051E8001F21F001002168143141E80002AE
:101FD000002AF3D100BF202084F8420000202063B3
:101FE00000BF00BF21680C3151E8001F21F0100034
:101FF00021680C3141E80002002AF3D100BF022021
:10200000606341462046FFF7A2FEBDE605F0800072
:1020100030B106F0800018B1204601F0ABF9B3E60C
:1020200005F0400030B106F0400018B1204600F045
:10203000DDFFA9E600BFA7E66D2F000810B5044636
:102040000CB9012010BDA06900B100E000BF94F8F8
:10205000410028B9002084F84000204600F02AF80A
:10206000242084F841002068C06820F400502168D2
:10207000C860204601F048F82068006920F49040CC
:10208000216808612068406920F02A0021684861C1
:102090002068C06840F400502168C8600020606477
:1020A000202084F8410084F842000020606300BFD3
:1020B000C8E7000010B586B00446142101A8FEF759
:1020C000C9F81F492068884238D100BF002000901D
:1020D0001C48006840F480201A49086008460068DF
:1020E00000F48020009000BF00BF00BF00200090DF
:1020F00014481038006840F0020012491039086096
:102100000846006800F00200009000BF00BF4FF4D6
:102110004060019002200290002003900320049070
:102120000720059001A90848FEF75EFA0022022167
:102130002720FEF7E1FB2720FEF7CAFB06B010BD03
:1021400000480040403802400004024070B5044698
:102150000D46164694F8420020280BD105B10EB961
:10216000012070BD0020206332462946204601F040
:10217000E1F8F6E70220F4E710B50446034884428C
:1021800003D118220249FFF7E1FF10BDDC03002054
:10219000340200202DE9F84F04460E4617469946B2
:1021A0004FF0000A94F84100202850D106B117B929
:1021B0000120BDE8F88F00206064212084F84100F0
:1021C000FEF70CFB8246A784E784A068B0F5805F29
:1021D00004D1206910B90025B04602E035464FF021
:1021E00000081EE05346002280212046CDF80090D2
:1021F00001F0F0F820B1202084F841000320D8E756
:1022000045B9B8F80000C0F308002168486008F13B
:10221000020803E02878216848606D1CE08C401EAD
:10222000E084E08C0028DDD1534600224021204686
:10223000CDF8009001F0CEF820B1202084F84100C4
:102240000320B6E7202084F841000020B1E70220F7
:10225000AFE7704700BFFEE708B500BF0020009061
:102260001D48006840F004001B49086008460068EB
:1022700000F00400009000BF00BF00BF00200090ED
:102280000846006840F0800008600846006800F0DA
:102290008000009000BF00BF00BF002000900846F3
:1022A000006840F0010008600846006800F0010086
:1022B000009000BF00BF00BF0020009008460068EB
:1022C00040F0020008600846006800F0020000903C
:1022D00000BF00BF08BD00003038024000B58BB021
:1022E00000200790089009900A901C216846FDF78D
:1022F000B1FF1F481F4908605320486000211D4856
:10230000816044F61F61C160002101618161FEF7B7
:102310005FFF08B1FEF7FBF84FF48050079007A964
:102320001448FFF72DF808B1FEF7F1F81148FFF750
:10233000B2FB08B1FEF7EBF860200090002001909E
:1023400002900490002269460A48FFF722FB08B178
:10235000FEF7DDF8042269460648FFF71AFB08B1CC
:10236000FEF7D5F80348FFF7BBFA0BB000BD00003D
:10237000001800409403002000B58BB0242102A86F
:10238000FDF768FF00200090019018481849086088
:10239000002048600021164881604FF6FF71C1603F
:1023A00000210161416181610320029000200390BE
:1023B00001200490002005900690079001200890CD
:1023C000002009900A9002A90948FFF75FF808B1B8
:1023D000FEF79DF800200090019069460448FEF742
:1023E0009DFE08B1FEF793F80BB000BD0000014060
:1023F0007402002000B58BB0242102A8FDF72AFF4B
:102400000020009001904FF08040174908600020A4
:102410004860002114488160491EC16000210161AB
:10242000816103200290002003900120049000208D
:1024300005900690079001200890002009900A90CE
:1024400002A90948FFF722F808B1FEF760F800205A
:102450000090019069460448FEF760FE08B1FEF75F
:1024600056F80BB000BD0000BC02002000B58DB0D6
:10247000002009900A900B900C90079008901C2166
:102480006846FDF7E7FE2C482C4908605320486059
:1024900000212A48816040F2E731C16000210161DA
:1024A0008161FEF795FE08B1FEF731F84FF48050D8
:1024B000099009A92148FEF763FF08B1FEF727F844
:1024C0001E48FFF7E8FA08B1FEF721F80020079050
:1024D000089007A91948FEF721FE08B1FEF717F882
:1024E0006020009000200190029004900022694634
:1024F0001248FFF74EFA08B1FEF709F804226946C0
:102500000E48FFF746FA08B1FEF701F808226946BF
:102510000A48FFF73EFA08B1FDF7F9FF0C226946B9
:102520000648FFF736FA08B1FDF7F1FF0348FFF759
:10253000D7F90DB000BD0000000C004004030020DE
:102540001CB50020009001900E480F49086040F231
:102550008F60486000210C4881603121C1600021FA
:102560008161FEF735FE08B1FDF7D1FF0020009034
:10257000019069460448FEF7D1FD08B1FDF7C7FF99
:102580001CBD0000001000404C03002010B50B489B
:102590000B4908604FF4E130486000210848816031
:1025A000C16001610C21416100218161C161FFF7BE
:1025B00045FD08B1FDF7ABFF10BD0000004800402D
:1025C000DC03002000BFFEE710B504461D4800787C
:1025D000012836D144F2876060431B4908601B48DC
:1025E0000068406A1A49B1F90010C1EB0141084482
:1025F00018490860144890ED000AF8EEC00A084631
:1026000090ED000AB8EEC00A134800F07FF8BDEE66
:10261000C00A10EE100A00B2104908800846B0F94E
:10262000000000F0DDFF0B48006844F2876190FB7A
:10263000F1F00B49086001230A461946022001F017
:102640007FFA10BD1000002020000020740200203E
:102650000000002024000020580000201C00002062
:102660001800002010B504461F480078012839D111
:1026700040F2151060431D4908601D480068406A1B
:102680001C49B1F900104FF0FF32A1FB02124018B3
:1026900019490860154890ED000AF8EEC00A08468E
:1026A00090ED000AB8EEC00A144800F02FF8BDEE15
:1026B000C00A10EE100A00B2114908800846B0F9AD
:1026C000000000F0ABFF0C48006840F2151190FBD1
:1026D000F1F000B20B49088001230A4602210846A6
:1026E00001F02EFA10BD0000100000202C00002088
:1026F000BC0200200200002030000020C4000020A6
:102700002A0000202800002000BFFEE710B52DEDB4
:102710000A8B0446B0EE408AF0EE608A012009EE92
:10272000100A84ED088AC4ED058A38EEC80A84EDE3
:102730000B0A94ED150AB5EEC00AF1EE10FA27D097
:1027400094ED150A10EE101A0846FDF723FE41EC31
:102750001A0B94ED0B0A10EE101A0846FDF71AFE3C
:1027600041EC1C0BB0EE4C0AF0EE6C0A00F0B4FE2B
:10277000B0EE40BAF0EE60BA53EC1A2B51EC1B0BE2
:10278000FDF71CFE04D29FED5D0ABDEC0A8B10BD67
:10279000206E032840D194ED000AD4ED0B0A20EE00
:1027A000200A84ED0C0A94ED0D0AD4ED010A94ED93
:1027B0000B1A00EE810A84ED0D0A94ED0B0AD4ED9C
:1027C0000A0A30EE600AD4ED020A20EE200A84EDF7
:1027D0000E0AD4ED170AB0EE600A04F1340000F0DE
:1027E00094FE94ED0C0AD4ED0D0AB8EEC91A01EE70
:1027F000200AD4ED0E0A30EE200A84ED0F0AD4ED43
:10280000160AB0EE600A04F13C0000F07EFE94ED82
:102810000F0A84ED100A50E0206E04284DD194ED8B
:102820000B0AD4ED0A0A30EE600AD4ED000A20EE5D
:10283000200A84ED0C0A94ED010AD4ED0B0A20EE77
:10284000200A84ED0D0A94ED0B0AD4ED0A0AB0EECD
:10285000001A01EE600AD4ED090A30EE200AD4ED28
:10286000020A20EE200A84ED0E0AD4ED170AB0EE1B
:10287000600A04F1340000F048FE94ED0C0AD4ED37
:102880000D0A30EE200AD4ED0E0A30EE200A84ED57
:10289000110A94ED130AD4ED110A30EE200A84EDEA
:1028A000120AD4ED160AB0EE600A04F1480000F0F6
:1028B0002CFE94ED120A84ED130A94ED0A0A84EDBD
:1028C000090A94ED0B0A84ED0A0A94ED070A84EDD7
:1028D000060A94ED080A84ED070A94ED040A84EDD3
:1028E000030A94ED050A84ED040A206E032802D140
:1028F00094ED0F0A49E794ED120A46E70000000044
:102900007047704710B5FDF76FFF10BD00B593B06D
:10291000302107A8FDF79EFC142102A8FDF79AFCC0
:1029200000BF002001902448006840F080502249F8
:1029300008600846006800F08050019000BF00BFAA
:1029400000BF002001901D48006840F480401B49F2
:1029500008600846006800F48040019000BF00BF96
:10296000012007900004089002200D9041050E916F
:1029700004210F91A821109102211191042112919B
:1029800007A8FEF761F908B1FDF7C1FD0F2002901D
:1029900002200390002004904FF4A05005904FF4C3
:1029A00080500690052102A8FEF70EF808B1FDF749
:1029B000AEFD13B000BD0000403802400070004082
:1029C0000348006840F47000014908607047000047
:1029D00088ED00E000B587B00020069000231A467D
:1029E0000121052001F0ACF8012306AA194618467A
:1029F00001F0A6F8012306AA0221184601F0A0F86A
:102A000000F018FA00F03EFD00F084FA00F046FAFB
:102A10009FED253ADFED252A9FED252AF7EE001AD6
:102A20009FED241ADFED240A9FED1F0A032123489E
:102A300000F012FE9FED223ADFED1C2A9FED1C2ACA
:102A4000F7EE001A9FED1B1ADFED1B0A9FED160A29
:102A500003211C4800F000FE184890ED000A8DED9F
:102A6000030A90ED010A8DED040A90ED020A8DED46
:102A7000050A032303AA0121184601F061F8114851
:102A800090ED000A8DED000A90ED010A8DED010A2E
:102A900090ED020A8DED020A03236A4602211846D0
:102AA00001F04EF807B000BD0000FA4300401C469C
:102AB0000000000066660640000048435800002001
:102AC00000007A44C400002010B50248FEF751FE11
:102AD00010BD00007402002010B50248FEF749FE48
:102AE00010BD0000BC02002010B50248FEF741FEF8
:102AF00010BD00004C03002010B502682D4B984219
:102B00000ED0B0F1804F0BD02B4B984208D02B4BFE
:102B1000984205D02A4B984202D02A4B984203D1C2
:102B200022F070024B681A43224B984220D0B0F139
:102B3000804F1DD0204B98421AD0204B984217D07E
:102B40001F4B984214D01F4B984211D01E4B9842F5
:102B50000ED01E4B98420BD01D4B984208D01D4BF7
:102B6000984205D01C4B984202D01C4B984203D18E
:102B700022F44072CB681A4322F080034C6943EA86
:102B8000040202608B68C3620B688362094B98423F
:102B900002D00C4B984201D10B69036301234361BE
:102BA000036903F001031BB1036923F0010303610F
:102BB00010BD00000000014000040040000800407B
:102BC000000C00400004014000400140004401406E
:102BD0000048014000180040001C00400020004058
:102BE00030B501F01F05012404FA05F3046A9C4383
:102BF0000462046A01F01F0502FA05F52C43046221
:102C000030BD30B50C46816821F47F4142EA03258E
:102C100025432943816030BD0A46816821F0700157
:102C200042F00703194381607047000030B5026A23
:102C3000056A25F0010505624368846924F0700483
:102C400024F003040D682C4322F002028D682A430D
:102C5000104DA84200D103E00F4DA84206D100BF9D
:102C600022F00802CD682A4322F00402094DA8424E
:102C700002D0094DA84207D123F4807323F40073D6
:102C80004D692B438D692B43436084614D684563D7
:102C9000026230BD000001400004014030B5026A0C
:102CA000056A25F0100505624368846924F4E04450
:102CB00024F440740D6844EA052422F020028D6853
:102CC00042EA0512124DA84200D103E0114DA8427C
:102CD00007D100BF22F08002CD6842EA051222F03F
:102CE00040020B4DA84202D00A4DA84209D123F45C
:102CF000806323F400634D6943EA85038D6943EAE9
:102D00008503436084614D688563026230BD0000C5
:102D1000000001400004014030B5026A056A25F454
:102D2000807505624368C46924F0700424F00304CC
:102D30000D682C4322F400728D6842EA0522124D80
:102D4000A84200D103E0114DA84207D100BF22F4F0
:102D50000062CD6842EA052222F480620A4DA84250
:102D600002D00A4DA84209D123F4805323F4005322
:102D70004D6943EA05138D6943EA05134360C46155
:102D80004D68C563026230BD00000140000401408F
:102D900030B5036A056A25F4805505624468C26946
:102DA00022F4E04222F440720D6842EA052223F444
:102DB00000538D6843EA0533084DA84202D0084D00
:102DC000A84204D124F480444D6944EA8514446047
:102DD000C2614D680564036230BD0000000001401F
:102DE0000004014030B50B461446026A056A25F01E
:102DF00001050562816921F0F00141EA041122F028
:102E00000A021A438161026230BD30B50B46144696
:102E1000026A056A25F010050562816921F4704196
:102E200041EA043122F0A00242EA03128161026207
:102E300030BD000010B5002009490870082109487C
:102E4000FEF7E4FE0C210748FEF7E0FE00210548EE
:102E5000FEF7DCFE04210348FEF7D8FE10BD00009B
:102E6000100000200403002010B50120094908705B
:102E700008210948FEF744FE0C210748FEF740FEF2
:102E800000210548FEF73CFE04210348FEF738FE0A
:102E900010BD0000100000200403002000B52DED3F
:102EA000048B81B01848FEF717FA17490968C96AF8
:102EB000481CFDF749FA41EC190B9FED140B53EC3C
:102EC000102BFDF7D2F941EC180BFDF74AFA0090F0
:102ED00001236A461946062000F032FE01236A46A5
:102EE0000221062000F02CFE01236A460321062061
:102EF00000F026FE01236A460421062000F020FE91
:102F000001B0BDEC048B00BD4C03002000000000AC
:102F10000000494010B50020124909684862124972
:102F200009684862801E0F49096808610E490968EE
:102F300008610C480068C06840F001000949096850
:102F4000C86009480068C06840F001000649096887
:102F5000C8603C210348FEF7A5FB3C210248FEF770
:102F6000A1FB10BD74020020BC02002070B5054614
:102F7000AC6B0020E085E0842046FEF7E9FE70BDE2
:102F800000BF00BF02680C3252E8002F22F490719B
:102F900002680C3242E80013002BF3D100BF00BFDF
:102FA00000BF0268143252E8002F22F001010268CB
:102FB000143242E80013002BF3D100BF016B01294A
:102FC0000ED100BF00BF02680C3252E8002F22F081
:102FD000100102680C3242E80013002BF3D100BF4D
:102FE000202180F8421000210163704710B504468B
:102FF0002068C06820F040002168C860202084F864
:1030000041002046FFF725F9002010BDF8B5044621
:1030100094F84200222875D1A068B0F5805F0CD1E9
:10302000206950B90025A66A20684068C0F30800EE
:103030003080A06A801CA06215E0A56A0026A06806
:10304000B0F5805F03D0A06828B9206918B920685E
:103050004068287004E02068406800F07F00287015
:10306000A06A401CA062E08D401E80B2E08500286E
:1030700046D12068C06820F020002168C860206820
:10308000C06820F480702168C8602068406920F022
:10309000010021684861202084F84200002060631C
:1030A000206B012826D10020206300BF00BF2168CB
:1030B0000C3151E8001F21F0100021680C3141E86B
:1030C0000002002AF3D100BF2068006800F0100061
:1030D00010280AD100BF00200090206800680090EE
:1030E00020684068009000BF00BFA18D2046FEF719
:1030F0002EFE02E02046FFF73FF80020F8BD01E079
:103100000020FBE70220F9E72DE9F84F044620688C
:10311000006920F44050E168084321680861216992
:10312000A068084361690843E1690843009020688A
:10313000C06849F20C618843009908432168C8605F
:103140002068406920F44070A16908432168486103
:1031500076492068884203D075492068884203D1A7
:10316000FDF70AFD814602E0FDF7F6FC8146E069C5
:10317000B0F5004F6CD102206168A0FB01500346FE
:103180001920A9FB007001462A463846FDF718F8B9
:103190006421B0FBF1F04FEA001A02206168A0FB45
:1031A00001510B461920A9FB00712A463846FDF74C
:1031B00007F8834602206168A0FB015003461920EE
:1031C000A9FB00712A463846FCF7FAFF6421B0FBE0
:1031D000F1F000EBC00101EB0010ABEB80003221FD
:1031E00001EBC0006421B0FBF1F000F0F8000AEB45
:1031F000400A02206168A0FB015003461920A9FB88
:10320000007001462A463846FCF7DAFF8346022062
:103210006168A0FB015003461920A9FB00712A46F2
:103220003846FCF7CDFF6421B0FBF1F000EBC001A4
:1032300001EB0010ABEB8000322101EBC0006421F8
:10324000B0FBF1F000F007005044216888606AE0AC
:1032500004206168A0FB015003461920A9FB0070FF
:1032600001462A463846FCF7ABFF824604206168D7
:10327000A0FB015003461920A9FB007001462A4615
:103280003846FCF79DFF6421B0FBF1F000EBC00174
:1032900001EB0010AAEB8000322101EB0010642149
:1032A000B0FBF1F000F0F00A04206168A0FB0170AF
:1032B00003461920A9FB00513A462846FCF780FF37
:1032C0006421B0FBF1F00AEB001A04206168A0FB56
:1032D00001510B461920A9FB00712A463846FCF71C
:1032E0006FFF834604206168A0FB0150034619204C
:1032F000A9FB007001462A463846FCF761FF6421AD
:10330000B0FBF1F000EBC00101EB0010ABEB800073
:10331000322101EB00106421B0FBF1F000F00F004E
:10332000504421688860BDE8F88F0000001001401B
:103330000014014010B5034699629A85DA85002091
:103340005864222083F84200186928B11868C068C0
:1033500040F480701C68E0601868406940F001002B
:103360001C6860611868C06840F020001C68E0605C
:10337000002010BD014691F84100212828D188681D
:10338000B0F5805F0BD1086948B90A6A1088C0F3AC
:1033900008000B685860086A801C086205E00B6A28
:1033A000581C086218780B685860C88C401E80B2A0
:1033B000C88458B90868C06820F080000B68D860DD
:1033C0000868C06840F040000B68D8600020704773
:1033D0000220FCE72DE9F84304460D4617469846BF
:1033E000089E31E0701C70B3FDF7F8F9A0EB0800FF
:1033F000B04200D816B90320BDE8F8832068C06841
:1034000000F00400F8B1802D1ED0402D1CD02068A3
:103410000068C0F3C000B0B100BF00200090206879
:103420000068009020684068009000BF00BF204600
:10343000FFF7A6FD0820606400BF002084F840006C
:1034400000BF0120D8E7FFE7206800682840A842B5
:1034500001D1012000E00020B842C3D00020CBE71A
:1034600008B5074800684068C0B20090012168466E
:1034700000F00AF900F010FA0148FEF76BFC08BDF5
:10348000DC03002010B5182202490348FEF75EFE57
:1034900010BD000034020020DC03002000BFFEE766
:1034A00002480068C0F30220704700000CED00E005
:1034B00010B5002804DB0A07130E054A135406E072
:1034C0000A07140E034A00F00F031B1FD45410BD4B
:1034D00000E400E018ED00E02DED020B019820F073
:1034E000004001909DED000B02B0704702E008C85B
:1034F000121F08C1002AFAD170477047002001E06E
:1035000001C1121F002AFBD17047D0ED000AF4EE72
:10351000C00AF1EE10FA01DD80ED000AD0ED000ADC
:10352000B1EE401AF4EEC10AF1EE10FA03D2F1EE58
:10353000400AC0ED000A704730B50346184603E064
:103540000C780444E0B2491C141EA2F10105EAB251
:10355000F6D130BD10B503460C46A018411EC81761
:1035600001EB5060C011A1EBC010185C10BD024609
:10357000481D00F07F00135C881D00F07F00105C88
:1035800043EA0023C81D00F07F00105C43EA0043BB
:1035900001F1080000F07F00105C43EA006080B297
:1035A0007047024601F1090000F07F00105C70478F
:1035B000FDF726F9FFF7AAF900F060F9FEF74CFED7
:1035C000FEF718FFFEF752FFFEF7BAFFFEF7DEFF29
:1035D000FEF784FEFEF7D0FEFFF7FCF900BFFEE722
:1035E0000C49B1F90010884213D0002807DD0A49C0
:1035F0000968C8630021084A1268116407E00021C5
:10360000054A1268D1634142034A126811640149B4
:103610000880704712000020040300200C49B1F913
:103620000010884213D0002807DD0A490968486362
:103630000021084A1268916307E00021054A1268D8
:1036400051634142034A12689163014908807047FF
:103650001400002004030020C0ED170A80ED160AB4
:10366000016680ED001AC0ED011A80ED022AC0ED5E
:10367000142A80ED153A704780ED000AC0ED010A6A
:1036800080ED021A7047000038B505460C460A491D
:103690000094CA882B460868802100F02EFA06495B
:1036A000C9880819C11700EB5161C911A0EBC111FC
:1036B000014AD18038BD00009C0100202DE9F0476F
:1036C00006460F464FF0FF0A00244FF0FF38A14690
:1036D0006949CB888A880889802100F0FDF984B285
:1036E000092C02DA5046BDE8F0876348408940BBA8
:1036F00061498A8823460868802100F0B3F90FFAEF
:1037000080F8B8F1000F0EDB01205B494881A1F879
:103710000480CB888A880889802100F0DDF9092897
:103720000FDA5046DFE7544989882144C81EC11783
:1037300000EB5161C911A0EBC1114F4A9180504675
:10374000D1E74D48008960B94B4A91881068FFF76E
:103750000EFF4949088108460089A04201DD504614
:10376000C1E745480089444989880844401E8028AB
:103770001CDD41480068404B9B88C1183E4880884A
:10378000C0F18000C2B24846FFF7D6FE81463A48F3
:10379000007A401E384B1B7918448038C2B2364834
:1037A00001684846FFF7C8FE81460CE032480068D1
:1037B000314B9B88C1183048007A401EC2B248463F
:1037C000FFF7BAFE81462C4B1A8999881868FFF7D3
:1037D000C1FE48453ED128488088274909890844C8
:1037E000802816DD24488088C0F1800085B22248F8
:1037F0000068214A928881182A463046FCF711FD5C
:103800001D4B1B895A1B1C4B70191968FCF709FDCD
:1038100009E019480068184B9B88C11816480289AE
:103820003046FCF7FEFC144800893880124A918823
:103830001068FFF7B6FE82460F4989880E4A128942
:103840008818C11700EB5161C911A0EBC1110A4AD8
:1038500091800AE008498988481CC11700EB516132
:10386000C911A0EBC111044A9180002002490881CE
:103870004881504637E700009C01002004480021A1
:103880000160416081600348014908600020704781
:103890009C010020A8010020F0B52DED048BA1B003
:1038A00000200090FF27D4E0694601A8FFF706FF3B
:1038B0000746132F73D006DC102F10D0112F73D0B2
:1038C000122F6ED18BE0142F6CD0152F6BD0FF2FE1
:1038D000F7D14FF0FF3021B0BDEC048BF0BD9DF867
:1038E00011004FF07F4101EA00609DF810104FF485
:1038F0007F0202EA014108439DF80F10121202EA0A
:10390000012108439DF80E1040EA01049DF81500BE
:10391000110401EA00609DF81410120202EA01414C
:1039200008439DF81310121202EA012108439DF882
:10393000121040EA01059DF81900110401EA006027
:103940009DF81810120202EA014108439DF8171071
:10395000121202EA012108439DF8161040EA0106FE
:1039600000EE104AB0EE408A00EE105AF0EE408AA7
:1039700000EE106AB0EE409AB0EE491AF0EE680A16
:10398000B0EE480A3348FFF777FEB0EE491AF0EE82
:10399000680AB0EE480A3048FFF76EFE58E021E0B2
:1039A00002E052E021E023E09DF811104FF07F4249
:1039B00002EA01619DF810204FF47F0303EA0242FE
:1039C00011439DF80F201B1203EA022211439DF8B8
:1039D0000E2041EA020001B2204A118038E0FFF7D0
:1039E00043FA35E0FFF726FA32E0FCF7D7FF2FE085
:1039F0009DF811104FF07F4202EA01619DF81020FE
:103A00004FF47F0303EA024211439DF80F201B127B
:103A100003EA022211439DF80E2041EA020000BF92
:103A200000EBC00101EB00110122C2EB41010C4A85
:103A30001268D16200EBC00101EB00110122C2EB60
:103A400041020749CA6000BF02E04FF0FF3042E781
:103A500000BF29E7C4000020580000200C0000200F
:103A60004C030020F0B505460C46002100BF2BE0BA
:103A7000501890FBF4F604FB16002E5C5018401C06
:103A800090FBF4F704FB1700285C46EA0026501868
:103A9000801C90FBF4F704FB1700285C46EA004604
:103AA0005018C01C90FBF4F704FB1700285C46EA92
:103AB0000060084EB04205D1501890FBF4F604FBAC
:103AC0001600F0BD481C81B2D81E8842D0DC4FF0F1
:103AD000FF30F6E7535A485930B5044600259A425C
:103AE00002DC981A85B202E0881A184485B2AC420A
:103AF00001DD002030BD2846FCE72DE9F0470546F2
:103B00000E4614461F46DDF8208004EB0800B04244
:103B10000FDD301B1FFA80F928194A463946FCF799
:103B200080FBA8EB090207EB09012846FCF779FBAB
:103B300004E0281942463946FCF773FBBDE8F087DC
:103B4000F8B505460E4617461C4600200090A00614
:103B5000040E14481449086004F10B00C1F8050074
:103B60000846067145720A220020FFF7E5FC009026
:103B7000224639469DF80000FFF7DEFC00900B4B13
:103B80000A2209490A48FEF705FB084B2246394636
:103B90000748FEF7FFFA054B012269460448FEF785
:103BA000F9FAF8BD535A485928020020FFFF0F00C8
:103BB000DC030020000000000000000001020304FC
:103BC000060708090000000001020304EC3B00089E
:103BD0000000002058000000EC340008443C0008BD
:103BE00058000020D0070000FC340008000000004E
:103BF000FAAF00000000000000000000000000001C
:103C000000000000000000000000000000000000B4
:103C100000000000000000000000000000000000A4
:103C2000DC050000A4060000000000000000000009
:103C30000000000000000000100000000100000073
:043C40000024F40068
:040000050800018965
:00000001FF
