:020000040800F2
:10000000200900209D010008492E00088B2A0008C5
:10001000452E00089F070008593B0008000000001B
:100020000000000000000000000000004330000855
:10003000CF080008000000004130000845300008EB
:10004000B7010008B7010008B7010008B7010008B0
:10005000B7010008B7010008B7010008B7010008A0
:10006000B7010008B7010008B7010008B701000890
:10007000A5070008B7010008B5070008B701000888
:10008000B7010008B7010008B7010008B701000870
:10009000B7010008B7010008B7010008B701000860
:1000A000B701000815310008B7010008B7010008C2
:1000B00025310008B7010008B7010008B7010008A2
:1000C000B7010008B7010008B7010008B701000830
:1000D000B7010008B7010008B7010008493B000854
:1000E000B7010008B7010008B7010008B701000810
:1000F000B7010008B7010008B7010008B701000800
:10010000B7010008B7010008B7010008B7010008EF
:10011000B7010008B701000835310008B701000831
:10012000B7010008B7010008B7010008B7010008CF
:10013000B7010008B7010008B7010008B7010008BF
:10014000B7010008B7010008B7010008B7010008AF
:10015000B7010008B7010008B7010008B70100089F
:10016000B7010008B7010008B7010008B70100088F
:10017000B7010008B7010008B7010008000000003F
:10018000B7010008B7010008DFF80CD000F086FACC
:1001900000480047AD460008200900200648804777
:1001A00006480047FEE7FEE7FEE7FEE7FEE7FEE75C
:1001B000FEE7FEE7FEE7FEE70131000889010008DF
:1001C0002DE9F05F0546002092469B46884606468C
:1001D000814640241BE0284641464746224600F01F
:1001E00094F853465A46C01A914110D31146184606
:1001F000224600F07BF82D1A67EB01084F46224695
:100200000120002100F072F817EB00094E41201E7A
:10021000A4F10104DFDC484631462A464346BDE8E6
:10022000F09F40EA01039B0703D009E008C9121FB1
:1002300008C0042AFAD203E011F8013B00F8013BA0
:10024000521EF9D27047D2B201E000F8012B491ECC
:10025000FBD270470022F6E710B513460A46044663
:100260001946FFF7F0FF204610BD00F0004230F0C5
:1002700000400AD0C10D01F56071C0F3160042EADA
:100280000151C208400711437047002001467047E2
:1002900030B5041E71F1000404DB4FF0004440420D
:1002A00064EB0101141E73F1000405DB1C464FF0E2
:1002B0000043524263EB04038B4208BF824230BDCD
:1002C00030B50B46014600202022012409E021FA26
:1002D00002F59D4205D303FA02F5491B04FA02F523
:1002E0002844151EA2F10102F1DC30BD202A04DBF6
:1002F000203A00FA02F1002070479140C2F1200339
:1003000020FA03F3194390407047202A04DB203A77
:1003100021FA02F00021704721FA02F3D040C2F125
:10032000200291400843194670472DE9FE4F804650
:1003300081EA0300C00F0C46009021F0004123F039
:100340000045B8EB0200A94105D24046214690463F
:100350001C460B46024623F00040104347D0270DB1
:10036000C7F30A00C3F30A510290401A01904028D3
:100370006BDAC3F3130040F4801B0098924620B15F
:100380000023D2EB030A63EB0B0B01985946C0F133
:1003900040025046FFF7AAFF06460D465046594612
:1003A000019A00F08DF910EB08006141002487EA02
:1003B000115284EAE7731A4340D0009A62B3019A5B
:1003C000012A4FEA075215DC001B61EB02014FF0D6
:1003D000004202EA0752CDE90042001C41F58011BB
:1003E00032462B4600F08DF903B0BDE8F08F404651
:1003F0002146F9E7001B61EB0201001C41F5801367
:1004000000185B412018A2F5001747EB030140EAF2
:10041000D570B6196D4111E06D084FEA360645EA10
:10042000C0754FEA0752001B61EB0201001C41F549
:10043000801149084FEA30000019514132462B46DD
:1004400003B0BDE8F04F00F04DB900980122400024
:100450000023D0EB020263EBE073009821464FEAE1
:10046000E074B8EB000061EB0401E9E783F00043BE
:100470005BE781F0004158E72DE9FE4F81EA030474
:1004800004F0004421F0004100944FF0000B23F0F1
:10049000004350EA01045ED052EA03045BD0C3F388
:1004A0000A54C1F30A552C44A4F2F3340194A0FB7E
:1004B0000254C1F3130141F48011C3F3130343F455
:1004C000801301FB024400FB034E840A970A44EAAE
:1004D000815447EA8357A4FB076802958D0A05FB00
:1004E00007854FEA932C04FB0C542705029D4FEA25
:1004F000065847EA1637B5EB08056EEB070C870E72
:10050000920E47EA811742EA8312A7FB0201B6EB7B
:100510000B0164EB00042B0D43EA0C335E1844EB33
:100520001C50DA465146E7FB0201C5F313044FEABB
:100530000B3343EA14534FEA0432019C43EA0603A7
:10054000A4F10C040294009CCDE900B400F0D9F8A9
:1005500003B0BDE8F08F00200146F9E72DE9F04D2A
:1005600081EA030404F0004B21F0004514464FF0EB
:10057000000A23F0004150EA050220D054EA0102AB
:100580001DD0C5F30A570246C5F31303C1F3130088
:10059000C1F30A5640F4801543F48013A7EB060814
:1005A000101BD64608F2FD3873EB050002D308F1A4
:1005B000010801E092185B41B8F1000F03DA002056
:1005C0000146BDE8F08D00204FF4801106468446B8
:1005D0000EE0171B73EB050705D3121B63EB050336
:1005E00006434CEA010C49084FEA300092185B417F
:1005F00050EA0107EDD152EA030012D082EA04006A
:1006000083EA0501084305D0101BAB4106D2012245
:10061000002306E000224FF0004302E06FF00102E9
:1006200053101AEB06004CEB085110EB0A0041EB9B
:100630000B01BDE8F04D00F055B8C1F30A52C1F30B
:10064000130140F2FF3341F480119A4202DA002094
:100650000146704740F233439A42A2F2334202DC31
:100660005242FFF752BEFFF741BE000030B5041EF4
:1006700071F1000404DB4FF00044404264EB0101DF
:10068000141E73F1000405DB1C464FF00043524278
:1006900063EB0403994208BF904230BD064C074DFE
:1006A00006E0E06840F0010394E807009847103442
:1006B000AC42F6D3FFF76CFDCC4B0008EC4B0008C6
:1006C000202A06DBCB17203A41FA02F043EAE07316
:1006D00006E041FA02F3D040C2F120029140084303
:1006E0001946704710B5141E73F1000408DA401C57
:1006F00041F1000192185B411A4301D120F0010041
:1007000010BD2DE9F04D92469B4611B1B1FA81F230
:1007100002E0B0FA80F220329046FFF7E7FD04468F
:100720000F4640EA0A0041EA0B0153465A46084385
:1007300013D0114653EA010019D0C8F140025046C7
:10074000FFF7E3FD05460E46504659464246FFF781
:10075000CDFD084305D0012004E020463946BDE820
:10076000F08D0020054346EAE0762C4337430A9893
:100770006305E40AA0EB08000022FD0A44EA47549E
:100780000A3002D500200146E9E701051019694148
:10079000DDE9084500196941BDE8F04DA2E700BF59
:1007A000FEE7000010B5024800F000F910BD00009F
:1007B0006004002010B5024800F0F8F810BD0000F9
:1007C000C00400200146087810381823B0FBF3F26B
:1007D0000848805CC865032A05D908686FF30900DA
:1007E000001D886503E008686FF309008865886D5F
:1007F00070470000AA4B0008014600208A6A8B69F6
:10080000CBB932B1012A0DD0022A03D0032A10D16C
:100810000EE000BFCB6A03F08073B3F1807F00D19C
:10082000012007E0CB6AB3F1C07F00D1012001E0D5
:1008300000E000BF34E08B69B3F5005F1AD132B13C
:10084000012A07D0022A03D0032A11D10AE000BFEF
:1008500001200EE0CB6A03F08073B3F1807F00D1FA
:10086000012006E0CB6AB3F1C07F00D1012000E097
:1008700000BF15E032B1012A05D0022A04D0032AB4
:100880000CD103E000BF00BF012008E0CB6A03F0F9
:100890008073B3F1807F00D1012000E000BF00BF72
:1008A000704730B50468246824F4802405682C60FF
:1008B000046863608468402C04D10468A260046802
:1008C000E16003E00468A1600468E26030BD704745
:1008D00072B600BFFEE770B50446A56D00F054FB8C
:1008E000064694F83500022808D08020606500BFD5
:1008F000002084F8340000BF012070BD206800682B
:1009000020F01600216808602068406920F080000F
:1009100021684861206C08B9A06C28B12068006883
:1009200020F00800216808602068006820F00100BD
:100930002168086010E000F027FB801B05280BD918
:1009400020206065032084F8350000BF002084F873
:10095000340000BF0320D0E72068006800F00100E9
:100960000028E8D194F85C103F208840A86001205E
:1009700084F8350000BF002084F8340000BF00BFB9
:10098000BBE7014691F83500022803D08020486576
:1009900001207047052081F835000868006820F0C4
:1009A00001000A6810600020F3E70000F8B5044673
:1009B000002000908C4800684FF41651B0FBF1F70E
:1009C000A56D2E6894F85C1008208840304098B1DE
:1009D0002068006800F0040070B12068006820F012
:1009E00004002168086094F85C1008208840A86022
:1009F000606D40F00100606594F85C100120884053
:100A0000304068B12068406900F0800040B194F83F
:100A10005C1001208840A860606D40F002006065B5
:100A200094F85C1004208840304068B12068006869
:100A300000F0020040B194F85C1004208840A860E7
:100A4000606D40F00400606594F85C1010208840F0
:100A5000304078B32068006800F0080050B394F884
:100A60005C1010208840A8602068006800F4802096
:100A700080B12068006800F4002028B9206CC8B15B
:100A80002046216C884715E0A06C98B12046A16CE7
:100A900088470FE02068006800F4807028B920685B
:100AA000006820F0080021680860206C10B1204622
:100AB000216C884794F85C10202088403040002842
:100AC00065D02068006800F0100000285FD094F81E
:100AD0005C1020208840A86094F83500052828D1B3
:100AE0002068006820F016002168086020684069CE
:100AF00020F0800021684861206C08B9A06C28B102
:100B00002068006820F008002168086094F85C10F4
:100B10003F208840A860012084F8350000BF0020F5
:100B200084F8340000BF206D10B12046216D884745
:100B3000F8BD2068006800F4802080B1206800685B
:100B400000F4002028B9606C10B12046616C884721
:100B50001DE0E06BD8B12046E16B884717E02068C4
:100B6000006800F4807068B92068006820F0100008
:100B700021680860012084F8350000BF002084F857
:100B8000340000BFE06B10B12046E16B8847606D18
:100B900038B3606D00F00100F0B1052084F8350035
:100BA0002068006820F001002168086000BF0098FC
:100BB000401C0090B84200D905E02068006800F0B1
:100BC00001000028F3D100BF012084F8350000BFE8
:100BD000002084F8340000BFE06C10B12046E16CC6
:100BE000884700BFA4E700005C0000202DE9F04129
:100BF0000446002500F0C8F9074614B90120BDE8F5
:100C0000F081606A00B100BF022084F8350000BFA7
:100C1000002084F8340000BF2068006820F0010044
:100C2000216808600AE000F0AFF9C01B052805D96B
:100C300020206065032084F83500E0E72068006824
:100C400000F001000028EED1206805682148054029
:100C5000D4E901010843E168084321690843616957
:100C60000843A1690843E1690843216A0843054331
:100C7000606A042803D1D4E90B01084305432068C6
:100C800005602068456925F00705606A0543606ACC
:100C900004280DD1A06A0543E06A48B12046FFF759
:100CA000ABFD28B140206065012084F83500A6E73F
:100CB000206845612046FFF785FD064694F85C10E4
:100CC0003F208840B06000206065012084F8350036
:100CD000002094E73F8010F02DE9F04704460D46D0
:100CE00016461F464FF00008D4F8589000BF94F8FD
:100CF0003400012802D10220BDE8F087012084F8E9
:100D0000340000BF94F83500012825D1022084F872
:100D10003500002060653B46324629462046FFF7F5
:100D2000C0FD94F85C103F208840C9F80800206896
:100D3000006840F0160021680860206C28B1206827
:100D4000006840F00800216808602068006840F0F2
:100D500001002168086006E000BF002084F834002C
:100D600000BF4FF002084046C6E7000070B50446D9
:100D700000F00AF906462546681C10B104480078C0
:100D8000054400BF00F000F9801BA842FAD370BDF3
:100D900058000020F8B502460B460025002400202C
:100DA0000021D6E0012606FA01F51E6806EA0504D0
:100DB000AC4274D11E7906F00306012E04D01E79D0
:100DC00006F00306022E13D190684F000326BE40A2
:100DD000B0434F00DE68BE4030439060506801264B
:100DE0008E40B0431E79C6F300168E4030435060EB
:100DF0001E7906F00306032E09D0D0684F000326A3
:100E0000BE40B0434F009E68BE403043D0601E7964
:100E100006F00306022E13D1CF0802F1200656F881
:100E200027004E07F70E0F26BE40B0434F07FF0EB8
:100E30001E69BE403043CF0802F1200646F8270065
:100E400010684F000326BE40B0431E7906F003062B
:100E50004F00BE40304310605E6806F44036002EFE
:100E600076D000BF002600963C4E366846F4804699
:100E70003A4F3E603E46366806F48046009600BF14
:100E800000BF374E8F0856F827008E07370F0F2602
:100E9000BE40B043334EB24202D1002624E057E0B8
:100EA000314EB24201D101261EE0304EB24201D194
:100EB000022619E02E4EB24201D1032614E02D4E37
:100EC000B24201D104260FE02B4EB24201D10526D9
:100ED0000AE02A4EB24201D1062605E0284EB2426F
:100EE00001D1072600E008268F073F0FBE403043A0
:100EF0001B4E8F0846F82700224E3068A0435E68DC
:100F000006F4801606B120431E4E3060361D306850
:100F1000A0435E6806F4001606B12043194E361D44
:100F20003060184E361F3068A0435E6806F4003605
:100F300006B12043134E361F3060361F3068A04381
:100F40005E6806F4803606B120430E4E083E3060DF
:100F5000491C1029FFF426AFF8BD000044380240B8
:100F6000083801400000024000040240000802402E
:100F7000000C024000100240001402400018024021
:100F8000001C0240083C0140014800687047000016
:100F900050000020034800680349097808440149CB
:100FA00008607047500000205800002010B50D4820
:100FB000006840F400700B4908600846006840F47F
:100FC000806008600846006840F480700860032074
:100FD00000F0A6F80F2000F007F800F02BF8002032
:100FE00010BD0000003C024070B504460E48007879
:100FF0004FF47A71B1FBF0F00C490968B1FBF0F5E0
:10100000284600F02FFC08B1012070BD102C07D23B
:1010100000222146501E00F045F80548046001E01A
:101020000120F2E70020F0E7580000205C000020DB
:101030005400002008B500BF002000900E48006852
:1010400040F480400C4908600846006800F4804085
:10105000009000BF00BF00BF00200090081F006884
:1010600040F08050091F08600846006800F080507A
:10107000009000BF00BF08BD44380240014608464A
:1010800000280DDB00BF00BF00F01F0301229A40C3
:1010900043099B0003F1E023C3F8002100BF00BF18
:1010A00000BF70472DE9F05F80460D4616460027C9
:1010B00002F064FD074639462A46334601F0070030
:1010C000C0F1070ABAF1040F02D94FF0040A01E097
:1010D000C0F1070AD14600F1040ABAF1070F02D2A3
:1010E0004FF0000A01E0A0F1030AD4464FF0010AD4
:1010F0000AFA09FAAAF1010A0AEA020A0AFA0CFA39
:101100004FF0010B0BFA0CFBABF1010B0BEA030BDD
:101110004AEA0B042146404602F038FDBDE8F09F44
:1011200000BF00F00702064B19684FF6FF03194095
:10113000044B0B4343EA0221014B196000BF704787
:101140000CED00E00000FA0570B504460D460CB940
:10115000012070BD5848006800F00700A84209D27D
:1011600055490D700846006800F00700A84201D0FC
:101170000120EEE7207800F0020002281DD120783F
:1011800000F00400042805D14C48006840F4E05009
:101190004A490860207800F00800082805D147482F
:1011A000006840F46040454908604448006820F009
:1011B000F000A168084341490860207800F0010070
:1011C000A8B36068012807D13C4808380068C0F31C
:1011D0004040B8B90120BCE76068022802D06068CE
:1011E000032807D1354808380068C0F3406048B983
:1011F0000120AEE7314808380068C0F3400008B964
:101200000120A6E72D48006820F00300616808432C
:101210002A490860FFF7B8FE064609E0FFF7B4FE6A
:10122000801B41F28831884202D9032091E707E010
:101230002248006800F00C006168B0EB810FEDD12E
:101240001D48006800F00700A84209D91A490D702E
:101250000846006800F00700A84201D0012078E7A6
:10126000207800F00400042807D11448006820F416
:10127000E050E168084311490860207800F0080058
:10128000082808D10D48006820F46040216940EA30
:10129000C1000A49086000F03FF808490968C1F335
:1012A0000311074A515CC8400649086006480068B7
:1012B000FFF79AFE00204CE7003C0240083802404D
:1012C000B24B00085C000020540000200148006878
:1012D000704700005C00002000B5FFF7F7FF0449ED
:1012E0000968C1F38221034A515CC84000BD000077
:1012F00008380240C24B000800B5FFF7E7FF044979
:101300000968C1F34231034A515CC84000BD000086
:1013100008380240C24B00082DE9F04700240025A0
:101320000026A1462548006800F00C0020B10428E2
:1013300005D008283AD105E0DFF8849039E0DFF8DD
:10134000849036E01D48001F006800F03F041B48F1
:10135000001F006800F4800078B11A481749091F7F
:101360000968C1F38811A0FB0170014622460023E1
:101370003846FEF725FF05460EE011480F49091FC4
:101380000968C1F38811A0FB0170014622460023C1
:101390003846FEF715FF05460848001F0068C0F3F1
:1013A0000140401C4600B5FBF6F902E0DFF8109062
:1013B00000BF00BF4846BDE8F08700000838024083
:1013C0000024F40000127A00F8B504460CB901209C
:1013D000F8BD207800F00100002874D0F9480068BA
:1013E00000F00C0004280DD0F648006800F00C0056
:1013F000082813D1F348001F006800F48000B0F5FE
:10140000800F0BD1EF4808380068C0F34040002837
:1014100059D06068002856D10120D9E700BF606824
:10142000B0F5803F08D1E7480838006840F48030C4
:10143000E449083908601EE06068B0F5A02F0DD1BE
:10144000E0480838006840F48020DE490839086028
:101450000846006840F4803008600CE0D94808383D
:10146000006820F48030D7490839086008460068D1
:1014700020F48020086000BF606890B1FFF784FD11
:10148000054606E0FFF780FD401B642801D90320D4
:101490009EE7CC4808380068C0F340400028F1D0EF
:1014A00011E0FFF771FD054606E0FFF76DFD401BFB
:1014B000642801D903208BE7C24808380068C0F3CC
:1014C00040400028F1D1207800F0020002285FD1CE
:1014D000BC48006800F00C0058B1BA48006800F041
:1014E0000C0008281CD1B748001F006800F48000D9
:1014F000B0B9B44808380068C0F3400020B1E068D3
:10150000012801D0012063E7AE480838006820F0C8
:10151000F800216940EAC100AA490839086037E0AB
:10152000E06800B30120A8490860FFF72DFD0546DB
:1015300006E0FFF729FD401B022801D9032047E7F9
:10154000A04808380068C0F340000028F1D09D484A
:101550000838006820F0F800216940EAC100994984
:101560000839086014E0002097490860FFF70CFD77
:10157000054606E0FFF708FD401B022801D90320BD
:1015800026E7904808380068C0F340000028F1D1F1
:10159000207800F0080008282CD16069A8B101204B
:1015A0008A490860FFF7F0FC054606E0FFF7ECFC0F
:1015B000401B022801D903200AE782486C300068EA
:1015C000C0F340000028F1D014E000207F490860FB
:1015D000FFF7DAFC054606E0FFF7D6FC401B0228C1
:1015E00001D90320F4E677486C300068C0F340006E
:1015F0000028F1D1207800F00400042870D10027E1
:1016000070483830006800F0805090B900BF00206A
:1016100000906C483830006840F08050694938319B
:1016200008600846006800F08050009000BF00BFCE
:1016300001276748006800F48070B0B9644800680A
:1016400040F4807062490860FFF79EFC054606E0A2
:10165000FFF79AFC401B022801D90320B8E65C483A
:10166000006800F480700028F2D000BFA068012854
:1016700008D154486830006840F001005149683191
:1016800008601DE0A06805280DD14E48683000684C
:1016900040F004004B49683108600846006840F09B
:1016A000010008600CE047486830006820F0010045
:1016B0004449683108600846006820F0040008606A
:1016C00000BFA068A8B1FFF75FFC054609E0FFF77F
:1016D0005BFC401B41F28831884202D9032077E647
:1016E00026E0384868300068C0F340000028EED09B
:1016F00013E0FFF749FC054608E0FFF745FC401BF7
:1017000041F28831884201D9032061E62D486830D2
:101710000068C0F340000028EFD1012F07D129480D
:101720003830006820F0805026493831086000BF0A
:10173000A069002845D02348006800F00C00082864
:101740005DD0A069022845D100201F490866FFF737
:101750001BFC054606E0FFF717FC401B022801D9D9
:10176000032035E6174808380068C0F340600028B9
:10177000F1D1D4E907010843616A40EA81110122ED
:10178000A06AC2EB500041EA00412C20005D41EA12
:1017900000600C49091F086001200B490866FFF72B
:1017A000F3FB054606E0FFF7EFFB401B022801D9DB
:1017B00003200DE6034808380068C0F340600028A5
:1017C000F1D049E00838024000004742800E47420D
:1017D00000700040002021490866FFF7D5FB054650
:1017E00006E0FFF7D1FB401B022801D90320EFE5FB
:1017F0001B480068C0F340600028F2D12CE0A069CB
:10180000012800D1E4E51648001D0668A0690128FA
:1018100020D006F48001E06981421BD106F03F012F
:10182000206A814216D147F6C0703040616AB0EB41
:10183000811F0FD106F440310122A06AC2EB500093
:10184000B1EB004F06D106F070612C20005DB1EBCA
:10185000006F01D00120BBE50020B9E50000474240
:101860000038024070B504462546681EB0F1807FFE
:1018700001D301200FE0681E4FF0E02148610F21E5
:101880004FF0FF3002F082F900204FF0E021886134
:1018900007200861002070BD7047704730B50246D0
:1018A0000B4600BF92F83C00012801D1022030BD58
:1018B000012082F83C0000BF022082F83D00106841
:1018C00044681068816824F0700418680443106844
:1018D0004460184D1068A8421BD01068B0F1804FCA
:1018E00017D0154D1068A84213D0144D1068A842A7
:1018F0000FD0134D1068A8420BD0124D1068A842AB
:1019000007D0114D1068A84203D0104D1068A842AE
:1019100005D121F0800158680143106881600120E1
:1019200082F83D0000BF002082F83C0000BF00BFED
:10193000BDE7000000000140000400400008004036
:10194000000C00400004014000400140001800402D
:1019500010B504460CB9012010BD94F83D0028B91B
:10196000002084F83C00204600F026F8022084F88D
:101970003D00211D206801F0E5FB012084F84600B0
:1019800000BF84F83E0001213F2001554020015551
:101990004120015500BF00BF012084F842004320D0
:1019A0000155442001554520015500BF012084F810
:1019B0003D000020D0E7000038B5044622492068E9
:1019C00088420FD100BF002000902048006840F0FE
:1019D00008001E4908600846006800F008000090F2
:1019E00000BF30E01A492068884218D100BF0020AB
:1019F00000901648006840F010001449086008463E
:101A0000006800F01000009000BF00BF0022042119
:101A10003620FFF747FB3620FFF730FB13E00D4978
:101A2000206888420FD100BF00200090074800685E
:101A300040F04000054908600846006800F040009A
:101A4000009000BF00BF38BD000C0040403802408D
:101A50000010004000180040014691F83D000128A8
:101A600001D001207047022081F83D000868C0685D
:101A700040F001000B68D8601A4B086898421BD0F0
:101A80000868B0F1804F17D0174B0868984213D000
:101A9000164B086898420FD0154B086898420BD037
:101AA000144B0868984207D0134B0868984203D03B
:101AB000124B086898420CD10868806800F0070251
:101AC000062A0CD00868006840F001000B68186016
:101AD00005E00868006840F001000B68186000200D
:101AE000C0E7000000000140000400400008004082
:101AF000000C00400004014000400140001800407C
:101B00002DE9F04104460D46002700BF94F83C0043
:101B1000012802D10220BDE8F081012084F83C00B8
:101B200000BF022084F83D002068866826F0770612
:101B300026F47F46206886602868502833D00CDC65
:101B4000202850D004DC00284BD0102851D149E087
:101B5000302849D040284CD139E060282DD0702859
:101B600007D0B0F5805F03D0B0F5005F41D10DE044
:101B700041E0D5E902136A68206801F068FB20683B
:101B8000866846F077062068866034E0D5E902135F
:101B90006A68206801F05BFB2068806840F4804040
:101BA0002168886027E0EA686968206801F040FCE5
:101BB0005021206801F056FB1DE0EA686968206842
:101BC00001F049FC6021206801F04CFB13E0EA6859
:101BD0006968206801F02CFC4021206801F042FB7C
:101BE00009E000BF00BF00BF2968206801F03AFB90
:101BF00001E0012700BF00BF012084F83D0000BFC5
:101C0000002084F83C0000BF384684E72DE9F0410D
:101C100004460D4614B90120BDE8F08194F83D005A
:101C200028B9002084F83C00204600F053F8022038
:101C300084F83D002068806844F2070188432168E9
:101C40008860211D206801F07DFA2068D0F80880A6
:101C5000206886692068076A286840EA080840F218
:101C600003308643A969A86840EA0120064340F68C
:101C70000C4086434FF2F0008643E969E86840EA89
:101C80000120064328690001296A40EA0130064321
:101C900027F0220727F088076969686840EA011081
:101CA00007432068C0F808802068866120680762C2
:101CB000012084F8460084F83E0001213F200155B0
:101CC000012084F8420043200155012084F83D00A2
:101CD0000020A1E710B586B00446142101A8FEF744
:101CE000B9FA4C492068884238D100BF00200090E2
:101CF0004948006840F0010047490860084600680C
:101D000000F00100009000BF00BF00BF0020009065
:101D100041481438006840F001003F491439086018
:101D20000846006800F00100009000BF00BF4FF4BB
:101D30004070019002200290002003900490012046
:101D4000059001A93548FFF725F800221146192012
:101D5000FFF7A8F91920FFF791F959E02068B0F1D1
:101D6000804F55D100BF002000902B48001F006815
:101D700040F001002849091F08600846006800F08B
:101D80000100009000BF00BF00BF0020009022486B
:101D90001438006840F001001F49143908600846F3
:101DA000006800F00100009000BF00BF00BF0020ED
:101DB00000900846006840F002000860084600688D
:101DC00000F00200009000BF00BF4FF400400190FF
:101DD000022002900020039004900120059001A9A8
:101DE0000E48FEF7D7FF0820019002200290002045
:101DF000039004900120059001A90948FEF7CAFF4D
:101E0000002211461C20FFF74DF91C20FFF736F980
:101E100006B010BD000001404438024000000240FE
:101E2000000402402DE9F04304460D4694F83E605C
:101E30003F20075D94F84280432010F804906DB96C
:101E4000012E02D1B8F1010F02D00120BDE8F083CC
:101E5000022084F83E0084F8420025E0042D0CD1D5
:101E6000012F02D1B9F1010F01D00120EEE70221CB
:101E70003F2001554320015516E0012E07D1012FC7
:101E800005D1B8F1010F02D1B9F1010F01D0012044
:101E9000DCE7022084F83E0002213F2001550220A9
:101EA00084F842004320015515B1042D0CD105E002
:101EB00001220021206801F0B9F910E0012204217B
:101EC000206801F0B3F90AE001220021206801F046
:101ED000ADF901220421206801F0A8F900BF00BF7C
:101EE0002068006840F00100216808600020ADE72C
:101EF000704770B504462068C5682068066906F01A
:101F00000200022819D105F00200022815D1401F55
:101F100021680861012020772068806900F00300B3
:101F200018B12046FFF7E4FF05E0204600F0F0F886
:101F3000204600F0A4F90020207706F004000428D1
:101F400019D105F00400042815D1C04321680861A7
:101F5000022020772068806900F4407018B1204684
:101F6000FFF7C6FF05E0204600F0D2F8204600F05B
:101F700086F90020207706F00800082819D105F01E
:101F80000800082815D1C043216808610420207783
:101F90002068C06900F0030018B12046FFF7A8FFD1
:101FA00005E0204600F0B4F8204600F068F9002073
:101FB000207706F01000102819D105F01000102825
:101FC00015D1C04321680861082020772068C069C6
:101FD00000F4407018B12046FFF78AFF05E0204664
:101FE00000F096F8204600F04AF90020207706F02D
:101FF000010048B105F0010030B16FF00100216827
:102000000861204600F0C2F906F08000802809D15E
:1020100005F08000802805D1C04321680861204672
:10202000FFF73AFC06F04000402809D105F04000D7
:10203000402805D1C04321680861204600F0F2F92C
:1020400006F02000202809D105F02000202805D125
:10205000C043216808612046FFF71FFC70BD0000E7
:1020600010B586B00446142101A8FEF7F3F8234901
:10207000206888421DD100BF0020009020480068E1
:1020800040F001001E4908600846006800F00100A9
:10209000009000BF00BF0F2001900220029000209E
:1020A000039004900220059001A91648FEF772FEE5
:1020B00021E01549206888421DD100BF0020009012
:1020C0000F48006840F002000D49086008460068AB
:1020D00000F00200009000BF00BF4FF440400190AC
:1020E000022002900020039004900920059001A98D
:1020F0000648FEF74FFE06B010BD0000000C004081
:102100003038024000000240001800400004024045
:1021100070472DE9F04104460D461646002700BFE2
:1021200094F83C00012802D10220BDE8F081012092
:1021300084F83C0000BF36B1042E1BD0082E31D0ED
:102140000C2E5ED145E02946206801F095F8206804
:10215000806940F00800216888612068806920F06B
:102160000400216888612068806929690843216822
:10217000886148E02946206801F0B6F82068806947
:1021800040F40060216888612068806920F48060E4
:102190002168886120688069296940EA01202168F6
:1021A000886130E02946206801F0DCF82068C069C9
:1021B00040F008002168C8612068C06920F0040070
:1021C0002168C8612068C069296908432168C8611D
:1021D00019E02946206801F001F92068C06940F43F
:1021E00000602168C8612068C06920F480602168AF
:1021F000C8612068C069296940EA01202168C86176
:1022000001E0012700BF00BF00BF002084F83C00B0
:1022100000BF384689E710B504460CB9012010BD4F
:1022200094F83D0028B9002084F83C00204600F0D6
:1022300025F8022084F83D00211D206800F082FF6F
:10224000012084F8460000BF84F83E0001213F20B1
:102250000155402001554120015500BF00BF01201C
:1022600084F8420043200155442001554520015582
:1022700000BF012084F83D000020D0E77047704780
:1022800070B504460D4615B994F83E000BE0042DD8
:1022900002D13F20005D06E0082D02D14020005D04
:1022A00001E04120005D012801D0012070BD1DB971
:1022B000022084F83E000EE0042D03D102213F20CD
:1022C000015508E0082D03D102214020015502E00C
:1022D00002214120015501222946206800F0A6FF75
:1022E00023492068884203D022492068884201D1CE
:1022F000012000E0002028B12068406C40F400403C
:10230000216848641A49206888421BD02068B0F1CF
:10231000804F17D018492068884213D01749206889
:1023200088420FD01649206888420BD01149206896
:10233000884207D013492068884203D01249206898
:1023400088420CD12068806800F00706062E0CD069
:102350002068006840F001002168086005E02068FE
:10236000006840F001002168086000209EE700003E
:10237000000001400004014000040040000800404B
:10238000000C0040004001400018004010B5044619
:102390001D48844213D10068006800F01000102826
:1023A00006D11A480088401E00B2184908802AE069
:1023B00016480088401C00B21449088023E01448E5
:1023C000844213D10068006800F01000102806D184
:1023D00010480088401E00B20E49088013E00D48E6
:1023E0000088401C00B20B4908800CE00A48844277
:1023F00009D10A48B0F9000002F056F80848B0F9CF
:10240000000002F065FA10BDB00200203C00002080
:10241000F80200203E000020880300204600002033
:10242000480000207047704770B5044600252068BA
:102430004069C0F3C01594F84100212817D1B5B107
:1024400000BF00BF2168143151E8001F21F0800057
:102450002168143141E80002002AF3D100BFA06BCB
:1024600010B1A06BFEF737FA204601F0ECF82068B7
:102470004069C0F3801594F84200222817D1B5B105
:1024800000BF00BF2168143151E8001F21F0400057
:102490002168143141E80002002AF3D100BFE06B4B
:1024A00010B1E06BFEF717FA204601F086F8002025
:1024B00070BD70472DE9F84F044620680568206814
:1024C000C668206847694FF00009CA4605F00F0941
:1024D000B9F1000F0AD105F0200038B106F0200054
:1024E00020B1204601F0C2F8BDE8F88FB9F1000F25
:1024F0007CD007F0010018B906F49070002875D060
:1025000005F0010030B106F4807018B1606C40F045
:102510000100606405F0040030B107F0010018B15B
:10252000606C40F00200606405F0020030B107F01A
:10253000010018B1606C40F00400606405F0080010
:1025400048B106F0200010B907F0010018B1606C26
:1025500040F008006064606C002846D005F0200060
:1025600028B106F0200010B1204601F07FF8206865
:102570004069C0F3801A606C00F0080010B9BAF12D
:10258000000F2DD0204601F018F82068406900F0B7
:102590004000402820D100BF00BF2168143151E81D
:1025A000001F21F040002168143141E80002002A98
:1025B000F3D100BFE06B50B17748E16B0865E06B89
:1025C000FEF7DFF988B1E06B016D88470DE020462A
:1025D000FFF76FFF09E009E02046FFF76AFF04E01C
:1025E0002046FFF766FF002060647DE7206B01282E
:1025F00078D105F01000002874D006F010000028F3
:10260000FAD000BF00200090206800680090206889
:102610004068009000BF00BF2068406900F04000A3
:10262000402860D1E06B006840681FFA80F8B8F17C
:10263000000F56D0A08D404553DDA4F82E80E06BEE
:10264000C069B0F5807F43D000BF00BF21680C3166
:1026500051E8001F21F4807021680C3141E800022C
:10266000002AF3D100BF00BF00BF2168143151E838
:10267000001F21F001002168143141E80002002A06
:10268000F3D100BF00BF00BF2168143151E8001F23
:1026900021F040002168143141E80002002AF3D102
:1026A00000BF202084F842000020206300BF00BF4C
:1026B00021680C3151E8001F21F0100021680C3115
:1026C00041E80002002AF3D100BFE06BFEF703F9F6
:1026D00002206063A08DE28D801A81B22046FFF750
:1026E000A2FE01E742E0A08DE18D401A1FFA80F8BA
:1026F000E08DD0B3B8F1000F37D000BF00BF216824
:102700000C3151E8001F21F4907021680C3141E830
:102710000002002AF3D100BF00BF00BF21681431BE
:1027200051E8001F21F001002168143141E8000246
:10273000002AF3D100BF202084F84200002020634B
:1027400000BF00BF21680C3151E8001F21F01000CC
:1027500021680C3141E80002002AF3D100BF0220B9
:10276000606341462046FFF75EFEBDE605F080004F
:1027700030B106F0800018B1204601F06FF9B3E6E1
:1027800005F0400030B106F0400018B1204600F0DE
:102790004AFFA9E600BFA7E67F34000810B504464B
:1027A0000CB9012010BDA06900B100E000BF94F891
:1027B000410028B9002084F84000204600F02AF8A3
:1027C000242084F841002068C06820F4005021686B
:1027D000C860204600F0C8FF2068006920F49040DF
:1027E000216808612068406920F02A00216848615A
:1027F0002068C06840F400502168C8600020606410
:10280000202084F8410084F842000020606300BF6B
:10281000C8E7000010B586B00446142101A8FDF7F2
:1028200019FD3D492068884274D100BF0020009006
:102830003A48006840F4802038490860084600683B
:1028400000F48020009000BF00BF00BF0020009077
:1028500032481038006840F00200304910390860F2
:102860000846006800F00200009000BF00BF4FF46F
:102870004060019002200290002003900320049009
:102880000720059001A92648FEF784FA2548264925
:1028900008604FF000604860002123488160C160FB
:1028A0004FF480610161002141618161C161016278
:1028B0004162FEF79BF908B1FEF70AF800BF1A481B
:1028C000E063846300BF17483030184908604FF058
:1028D000006048604021154881600021C1604FF4CC
:1028E00080610161002141618161C16101624162D8
:1028F000FEF77CF908B1FDF7EBFF00BF0B48A063C2
:10290000846300BF002202212720FEF7CBFB272093
:10291000FEF7B4FB06B010BD00480040403802404E
:10292000000402402860024060040020C00400202F
:1029300070B504460D46164694F8420020280BD187
:1029400005B10EB9012070BD002020633246294632
:10295000204601F01FF8F6E70220F4E738B50446F8
:102960001648844229D100680068C0F3001020B3E3
:1029700000BF0020009011480068006800900F48D8
:1029800000684068009000BF00BF0C48FFF74CFD96
:102990000B4800684068C0F13000C5B229460948BC
:1029A00001F04AFE29460748FDF754FC0025302275
:1029B00004490248FFF7BCFF00BF38BD18040020DF
:1029C000600400204002002070472DE9F84F0446C3
:1029D0000E46174699464FF0000A94F84100202809
:1029E00050D106B117B90120BDE8F88F002060640E
:1029F000212084F84100FEF7C7FA8246A784E784C5
:102A0000A068B0F5805F04D1206910B90025B046F8
:102A100002E035464FF000081EE0534600228021B8
:102A20002046CDF8009001F049F820B1202084F82C
:102A300041000320D8E745B9B8F80000C0F308000A
:102A40002168486008F1020803E02878216848609E
:102A50006D1CE08C401EE084E08C0028DDD15346E4
:102A6000002240212046CDF8009001F027F820B147
:102A7000202084F841000320B6E7202084F841009C
:102A80000020B1E70220AFE7704700BFFEE700007B
:102A900008B500BF002000900E48006840F4001008
:102AA0000C4908600846006800F40010009000BF60
:102AB00000BF002211460C20FEF7F4FA0C20FEF7AE
:102AC000DDFA002211460E20FEF7ECFA0E20FEF78A
:102AD000D5FA08BD3038024008B500BF002000908C
:102AE0001D48006840F004001B4908600846006863
:102AF00000F00400009000BF00BF00BF0020009065
:102B00000846006840F0800008600846006800F051
:102B10008000009000BF00BF00BF0020009008466A
:102B2000006840F0010008600846006800F00100FD
:102B3000009000BF00BF00BF002000900846006862
:102B400040F0020008600846006800F002000090B3
:102B500000BF00BF08BD00003038024000B58BB098
:102B600000200790089009900A901C216846FDF704
:102B700071FB1F481F4908605320486000211D4811
:102B8000816044F61F61C160002101618161FEF72F
:102B9000DFFE08B1FDF79CFE4FF48050079007A9B7
:102BA0001448FEF7ADFF08B1FDF792FE1148FFF79C
:102BB00032FB08B1FDF78CFE6020009000200190F0
:102BC00002900490002269460A48FFF7A2FA08B171
:102BD000FDF77EFE042269460648FFF79AFA08B11F
:102BE000FDF776FE0348FFF73BFA0BB000BD00008F
:102BF00000180040D003002000B58BB0242102A8AB
:102C0000FDF728FB00200090019018481849086043
:102C1000002048600021164881604FF6FF71C160B6
:102C20000021016141618161032002900020039035
:102C30000120049000200590069007900120089044
:102C4000002009900A9002A90948FEF7DFFF08B1A9
:102C5000FDF73EFE00200090019069460448FEF713
:102C60001DFE08B1FDF734FE0BB000BD00000140B1
:102C7000B002002000B58BB0242102A8FDF7EAFACB
:102C80000020009001904FF080401749086000201C
:102C90004860002114488160491EC1600021016123
:102CA0008161032002900020039001200490002005
:102CB00005900690079001200890002009900A9046
:102CC00002A90948FEF7A2FF08B1FDF701FE0020A6
:102CD0000090019069460448FEF7E0FD08B1FDF759
:102CE000F7FD0BB000BD0000F802002000B58DB06C
:102CF000002009900A900B900C90079008901C21DE
:102D00006846FDF7A7FA2C482C4908605320486014
:102D100000212A48816040F2E731C1600021016151
:102D20008161FEF715FE08B1FDF7D2FD4FF480502A
:102D3000099009A92148FEF7E3FE08B1FDF7C8FD97
:102D40001E48FFF768FA08B1FDF7C2FD00200790A2
:102D5000089007A91948FEF7A1FD08B1FDF7B8FDD5
:102D600060200090002001900290049000226946AB
:102D70001248FFF7CEF908B1FDF7AAFD0422694613
:102D80000E48FFF7C6F908B1FDF7A2FD0822694613
:102D90000A48FFF7BEF908B1FDF79AFD0C22694613
:102DA0000648FFF7B6F908B1FDF792FD0348FFF7B3
:102DB00057F90DB000BD0000000C0040400300209A
:102DC0001CB50020009001900E480F49086040F2A9
:102DD0008F60486000210C4881603121C160002172
:102DE0008161FEF7B5FD08B1FDF772FD002000908E
:102DF000019069460448FEF751FD08B1FDF768FDF2
:102E00001CBD0000001000408803002010B50B48D6
:102E10000B4908604FF4E1304860002108488160A8
:102E2000C16001610C21416100218161C161FFF735
:102E3000B5FC08B1FDF74CFD10BD00000048004096
:102E40001804002000BFFEE700BFFEE710B52DED1F
:102E50000A8B0446B0EE408AF0EE608A012009EE4B
:102E6000100A84ED088AC4ED058A38EEC80A84ED9C
:102E70000B0A94ED150AB5EEC00AF1EE10FA27D050
:102E800094ED150A10EE101A0846FDF7EEF941EC24
:102E90001A0B94ED0B0A10EE101A0846FDF7E5F92F
:102EA00041EC1C0BB0EE4C0AF0EE6C0A00F082FE16
:102EB000B0EE40BAF0EE60BA53EC1A2B51EC1B0B9B
:102EC000FDF7E6F904D29FED5D0ABDEC0A8B10BD5B
:102ED000206E032840D194ED000AD4ED0B0A20EEB9
:102EE000200A84ED0C0A94ED0D0AD4ED010A94ED4C
:102EF0000B1A00EE810A84ED0D0A94ED0B0AD4ED55
:102F00000A0A30EE600AD4ED020A20EE200A84EDAF
:102F10000E0AD4ED170AB0EE600A04F1340001F095
:102F2000ACFA94ED0C0AD4ED0D0AB8EEC91A01EE14
:102F3000200AD4ED0E0A30EE200A84ED0F0AD4EDFB
:102F4000160AB0EE600A04F13C0001F096FA94ED26
:102F50000F0A84ED100A50E0206E04284DD194ED44
:102F60000B0AD4ED0A0A30EE600AD4ED000A20EE16
:102F7000200A84ED0C0A94ED010AD4ED0B0A20EE30
:102F8000200A84ED0D0A94ED0B0AD4ED0A0AB0EE86
:102F9000001A01EE600AD4ED090A30EE200AD4EDE1
:102FA000020A20EE200A84ED0E0AD4ED170AB0EED4
:102FB000600A04F1340001F060FA94ED0C0AD4EDDB
:102FC0000D0A30EE200AD4ED0E0A30EE200A84ED10
:102FD000110A94ED130AD4ED110A30EE200A84EDA3
:102FE000120AD4ED160AB0EE600A04F1480001F0AE
:102FF00044FA94ED120A84ED130A94ED0A0A84ED62
:10300000090A94ED0B0A84ED0A0A94ED070A84ED8F
:10301000060A94ED080A84ED070A94ED040A84ED8B
:10302000030A94ED050A84ED040A206E032802D1F8
:1030300094ED0F0A49E794ED120A46E700000000FC
:103040007047704710B5FDF7A5FF10BD00B593B0F0
:10305000302107A8FDF7FEF8142102A8FDF7FAF8C1
:1030600000BF002001902448006840F080502249B1
:1030700008600846006800F08050019000BF00BF63
:1030800000BF002001901D48006840F480401B49AB
:1030900008600846006800F48040019000BF00BF4F
:1030A000012007900004089002200D9041050E9128
:1030B00004210F91A8211091022111910421129154
:1030C00007A8FEF781F908B1FDF702FC0F20029076
:1030D00002200390002004904FF4A05005904FF47C
:1030E00080500690052102A8FEF72EF808B1FDF7E2
:1030F000EFFB13B000BD00004038024000700040FC
:103100000348006840F470000149086070470000FF
:1031100088ED00E010B50248FEF7EBFE10BD0000A0
:10312000B002002010B50248FEF7E3FE10BD00001B
:10313000F802002010B50248FEF7DBFE10BD0000CB
:103140008803002010B502682D4B98420ED0B0F1D4
:10315000804F0BD02B4B984208D02B4B984205D078
:103160002A4B984202D02A4B984203D122F0700297
:103170004B681A43224B984220D0B0F1804F1DD0AB
:10318000204B98421AD0204B984217D01F4B9842A0
:1031900014D01F4B984211D01E4B98420ED01E4B9C
:1031A00098420BD01D4B984208D01D4B984205D039
:1031B0001C4B984202D01C4B984203D122F440721F
:1031C000CB681A4322F080034C6943EA0402026090
:1031D0008B68C3620B688362094B984202D00C4B28
:1031E000984201D10B69036301234361036903F032
:1031F00001031BB1036923F00103036110BD00004B
:10320000000001400004004000080040000C0040A5
:1032100000040140004001400044014000480140DA
:1032200000180040001C00400020004030B501F0B4
:103230001F05012404FA05F3046A9C430462046A2E
:1032400001F01F0502FA05F52C43046230BD30B5CC
:103250000C46816821F47F4142EA03252543294336
:10326000816030BD0A46816821F0700142F0070399
:10327000194381607047000030B5026A056A25F085
:10328000010505624368846924F0700424F0030496
:103290000D682C4322F002028D682A43104DA8428B
:1032A00000D103E00F4DA84206D100BF22F0080272
:1032B000CD682A4322F00402094DA84202D0094DEC
:1032C000A84207D123F4807323F400734D692B4384
:1032D0008D692B43436084614D684563026230BD54
:1032E000000001400004014030B5026A056A25F083
:1032F000100505624368846924F4E04424F44074B2
:103300000D6844EA052422F020028D6842EA051285
:10331000124DA84200D103E0114DA84207D100BFD1
:1033200022F08002CD6842EA051222F040020B4DE5
:10333000A84202D00A4DA84209D123F4806323F4A5
:1033400000634D6943EA85038D6943EA8503436061
:1033500084614D688563026230BD00000000014059
:103360000004014030B5026A056A25F480750562E3
:103370004368C46924F0700424F003040D682C43EE
:1033800022F400728D6842EA0522124DA84200D153
:1033900003E0114DA84207D100BF22F40062CD68BE
:1033A00042EA052222F480620A4DA84202D00A4D68
:1033B000A84209D123F4805323F400534D6943EA12
:1033C00005138D6943EA05134360C4614D68C56305
:1033D000026230BD000001400004014030B5036AC4
:1033E000056A25F4805505624468C26922F4E0420A
:1033F00022F440720D6842EA052223F400538D68DE
:1034000043EA0533084DA84202D0084DA84204D132
:1034100024F480444D6944EA85144460C2614D68D7
:103420000564036230BD000000000140000401405B
:1034300030B50B461446026A056A25F0010505629F
:10344000816921F0F00141EA041122F00A021A43D5
:103450008161026230BD30B50B461446026A056ACE
:1034600025F010050562816921F4704141EA0431BB
:1034700022F0A00242EA03128161026230BD70B5FF
:103480000546AC6B0020E085E0842046FFF711F88C
:1034900070BD70B506460025B46B20684069C0F366
:1034A000C01594F84100212805D125B10020E08401
:1034B000204600F0C8F820684069C0F3801594F8F1
:1034C0004200222805D125B10020E085204600F0E9
:1034D00074F8606C40F0100060642046FEF7E9FF6D
:1034E00070BD70B50546AC6B2868006800F480704C
:1034F000002842D1E08500BF00BF21680C3151E8AF
:10350000001F21F4807021680C3141E80002002A7C
:10351000F3D100BF00BF00BF2168143151E8001F84
:1035200021F001002168143141E80002002AF3D1A2
:1035300000BF00BF00BF2168143151E8001F21F017
:1035400040002168143141E80002002AF3D100BF95
:10355000202084F84200206B01280ED100BF00BF5C
:1035600021680C3151E8001F21F0100021680C3156
:1035700041E80002002AF3D100BF00206063206B05
:10358000012804D1A18D2046FEF74DFF02E0204620
:10359000FFF7E4F970BD70B50546AC6B01206063C0
:1035A000206B012805D1A08D41082046FEF73BFF86
:1035B00002E02046FFF708FA70BD00BF00BF0268B6
:1035C0000C3252E8002F22F4907102680C3242E86B
:1035D0000013002BF3D100BF00BF00BF02681432FC
:1035E00052E8002F22F001010268143242E8001371
:1035F000002BF3D100BF016B01290ED100BF00BF2A
:1036000002680C3252E8002F22F0100102680C32DE
:1036100042E80013002BF3D100BF202180F84210B4
:1036200000210163704710B504462068C06820F08F
:1036300040002168C860202084F841002046FFF740
:1036400023FA002010BD00BF00BF02680C3252E810
:10365000002F22F0C00102680C3242E80013002B58
:10366000F3D100BF202180F841107047F8B504461F
:1036700094F84200222875D1A068B0F5805F0CD183
:10368000206950B90025A66A20684068C0F3080088
:103690003080A06A801CA06215E0A56A0026A068A0
:1036A000B0F5805F03D0A06828B9206918B92068F8
:1036B0004068287004E02068406800F07F002870AF
:1036C000A06A401CA062E08D401E80B2E085002808
:1036D00046D12068C06820F020002168C8602068BA
:1036E000C06820F480702168C8602068406920F0BC
:1036F000010021684861202084F8420000206063B6
:10370000206B012826D10020206300BF00BF216864
:103710000C3151E8001F21F0100021680C3141E804
:103720000002002AF3D100BF2068006800F01000FA
:1037300010280AD100BF0020009020680068009087
:1037400020684068009000BF00BFA18D2046FEF7B2
:103750006AFE02E02046FFF701F90020F8BD01E013
:103760000020FBE70220F9E72DE9F84F0446206826
:10377000006920F44050E16808432168086121692C
:10378000A068084361690843E16908430090206824
:10379000C06849F20C618843009908432168C860F9
:1037A0002068406920F44070A1690843216848619D
:1037B00076492068884203D075492068884203D141
:1037C000FDF79AFD814602E0FDF786FD8146E0693E
:1037D000B0F5004F6CD102206168A0FB0150034698
:1037E0001920A9FB007001462A463846FCF7E8FC80
:1037F0006421B0FBF1F04FEA001A02206168A0FBDF
:1038000001510B461920A9FB00712A463846FCF7E6
:10381000D7FC834602206168A0FB015003461920B3
:10382000A9FB00712A463846FCF7CAFC6421B0FBAC
:10383000F1F000EBC00101EB0010ABEB8000322196
:1038400001EBC0006421B0FBF1F000F0F8000AEBDE
:10385000400A02206168A0FB015003461920A9FB21
:10386000007001462A463846FCF7AAFC834602202F
:103870006168A0FB015003461920A9FB00712A468C
:103880003846FCF79DFC6421B0FBF1F000EBC00171
:1038900001EB0010ABEB8000322101EBC000642192
:1038A000B0FBF1F000F007005044216888606AE046
:1038B00004206168A0FB015003461920A9FB007099
:1038C00001462A463846FCF77BFC824604206168A4
:1038D000A0FB015003461920A9FB007001462A46AF
:1038E0003846FCF76DFC6421B0FBF1F000EBC00141
:1038F00001EB0010AAEB8000322101EB00106421E3
:10390000B0FBF1F000F0F00A04206168A0FB017048
:1039100003461920A9FB00513A462846FCF750FC03
:103920006421B0FBF1F00AEB001A04206168A0FBEF
:1039300001510B461920A9FB00712A463846FCF7B5
:103940003FFC834604206168A0FB01500346192018
:10395000A9FB007001462A463846FCF731FC642179
:10396000B0FBF1F000EBC00101EB0010ABEB80000D
:10397000322101EB00106421B0FBF1F000F00F00E8
:10398000504421688860BDE8F88F000000100140B5
:103990000014014077B581B0044615460298A06234
:1039A000A58500206064222084F842002848E16B4D
:1039B000C8632848E16B08642748E16BC8640020AD
:1039C000E16B086502AE32682368191D2B46E06B77
:1039D000FDF782F900BF0020009020680068009089
:1039E00020684068009000BF00BF206970B100BF30
:1039F00000BF21680C3151E8001F41F4807021683C
:103A00000C3141E80002002AF3D100BF00BF00BF23
:103A10002168143151E8001F41F001002168143180
:103A200041E80002002AF3D100BF00BF00BF2168B7
:103A3000143151E8001F41F040002168143141E881
:103A40000002002AF3D100BF002004B070BD0000C6
:103A5000E33400089735000893340008014691F8D4
:103A60004100212828D18868B0F5805F0BD1086912
:103A700048B90A6A1088C0F308000B685860086AE1
:103A8000801C086205E00B6A581C086218780B68F5
:103A90005860C88C401E80B2C88458B90868C06895
:103AA00020F080000B68D8600868C06840F04000D3
:103AB0000B68D860002070470220FCE72DE9F8432E
:103AC00004460D4617469846089E31E0701C70B3B8
:103AD000FDF75AFAA0EB0800B04200D816B903204F
:103AE000BDE8F8832068C06800F00400F8B1802DBC
:103AF0001ED0402D1CD020680068C0F3C000B0B1BB
:103B000000BF002000902068006800902068406896
:103B1000009000BF00BF2046FFF74FFD0820606403
:103B200000BF002084F8400000BF0120D8E7FFE775
:103B3000206800682840A84201D1012000E0002050
:103B4000B842C3D00020CBE710B50248FEF7B2FC64
:103B500010BD00001804002000BFFEE70FB4054BA5
:103B600010B503A9044A029800F0F0F810BC5DF803
:103B700014FB00001D460008600000200248006899
:103B8000C0F30220704700000CED00E010B50028E3
:103B900004DB0A07130E054A135406E00A07140E45
:103BA000034A00F00F031B1FD45410BD00E400E0D3
:103BB00018ED00E02DED020B019820F0004001907F
:103BC0009DED000B02B0704702E008C8121F08C14B
:103BD000002AFAD170477047002001E001C1121F8E
:103BE000002AFBD1704700002DE9FF5FDDE90220CC
:103BF000010DDDF838B0024318D044F61050A1F2A0
:103C0000FF3141430D140F98012820D0A5EB0B0084
:103C1000401C5FEA000A4FF00004474EDFF81C9199
:103C2000A046504616D5CAF1000728E00F98012497
:103C300043A2012808D0002100980F9BC0E9002171
:103C4000C0E90243BDE8FF9F6FEA0B01F4E7CBF147
:103C50000000DEE7074612E0F80707D022463346A9
:103C600040464946FCF708FC8046894622463346D2
:103C700010461946FCF700FC04460E467F10002F44
:103C8000EAD1DDE90201BAF1000F42464B4602DA01
:103C9000FCF7F2FB01E0FCF761FC04460E46002253
:103CA000284BFCF7E3FC03D84FF0FF30014607E058
:103CB0000022254B20463146FCF737FBFCF7BDFCC4
:103CC000102409E0002C0ADB0A220023FCF778FA12
:103CD000019B30321A55641E50EA0102F2D1641C75
:103CE000019AC4F1110314440F9A012A03D001224E
:103CF00008430DD10AE0084304D000204FF0110B17
:103D00000F9080E7A3EB0B056D1E0DE05B4504DD16
:103D10004FF0000205F1010504E003DA4FF0000264
:103D2000A5F10105002AECD000980F99C0E90231F5
:103D3000C0E9004586E70000000024400000F03F95
:103D4000300000000000F0430000E03F2DE9FF4F8D
:103D500095B09B468946064600250FE2252877D177
:103D600000242746F84A0121059400E0044316F890
:103D7000013F203B01FA03F01042F7D130782A28A6
:103D800011D06FF02F033078A0F13002092A16D835
:103D9000059A44F0020402EB820203EB4202104453
:103DA000761C0590EFE759F8042B0592002A03DAF8
:103DB000504244F40054059044F00204761C3078DC
:103DC0002E2816D116F8010F44F004042A280DD02D
:103DD0006FF02F023078A0F13003092B09D807EBE0
:103DE000870302EB4303C718761CF3E759F8047BFB
:103DF000761C30786C280FD006DC4C2817D0682849
:103E00000DD06A2814D104E0742810D07A280FD17C
:103E10000DE044F400140AE044F4801401E044F49A
:103E200040147278824202D104F58014761C761C0C
:103E3000307866280BD013DC582877D009DC0028AE
:103E400075D04528F6D04628F4D047281AD19DE1F0
:103E500018E0632835D0642879D0652812D195E11F
:103E6000702873D008DC6728F1D069286FD06E28DD
:103E70000DD06F2806D1B5E073282CD0752875D0E9
:103E8000782874D05A46179990476D1C75E1C4F391
:103E90000250022809D003280DD0D9F800100428B8
:103EA0000DD00D6009F1040967E1D9F80010EA1797
:103EB000C1E90052F6E7D9F800100D80F2E70D7065
:103EC000F0E719F8041B8DF8001000208DF80100B0
:103ED000EA46012003E059F804AB4FF0FF306107D8
:103EE0004FF0000102D40DE008F101018846B9420B
:103EF0000FDA8045F8DB1AF808100029F4D108E041
:103F000008F1010188468142FADB1AF808100029FD
:103F1000F6D105985B46A0EB080721463846179A6C
:103F200000F094FA284400EB080507E04DE029E191
:103F30000DE01AF8010B5A4617999047B8F101089D
:103F4000F7D25B4621463846179A13E142E00A222F
:103F50000092C4F302524FF0000A022A08D059F826
:103F600004CB032A4FEAEC710AD00DE029E02AE0E5
:103F700009F1070121F00702F2E802C1914609E0C8
:103F80000FFA8CFC4FEAEC71042A03D14FFA8CFC37
:103F90004FEAEC71002907DA0A460021DCF1000C37
:103FA00061EB02012D2202E0220504D52B228DF8BF
:103FB0000420012203E0E20701D02022F7E7904627
:103FC00059E00A2102E010220DE010214FF0000A12
:103FD00000910BE010224FF0000A44F0040408277F
:103FE000009203E008224FF0000A0092C4F302524C
:103FF000022A05D059F804CB0021032A08D009E091
:1040000009F1070121F00702F2E802C1914605E03B
:104010001FFA8CFC042A01D10CF0FF0C4FF00008B1
:10402000220728D5702806D0009B83F0100353EA9E
:104030000A0305D00EE040228DF80420012208E09A
:104040005CEA010206D030228DF804208DF80500CC
:1040500002229046009B83F0080353EA0A030AD128
:104060005CEA010201D1620705D530228DF80420F7
:104070004FF001087F1E582804D034A003900EA8EA
:1040800002900DE036A0F9E753466046009AFCF72F
:1040900097F884460398825C0298401E0290027052
:1040A0005CEA0100F0D1029806A9081A00F1200A82
:1040B000600702D524F4803400E00127574502DD73
:1040C000A7EB0A0000E0002000EB0A010090059831
:1040D0004144401A0590E00306D45B462146179AF6
:1040E000059800F0B3F90544002706E001A85A46F8
:1040F000C05D179990476D1C7F1C4745F6DBE003B8
:104100000CD55B462146179A059800F09FF90544A7
:1041100004E030205A46179990476D1C0099481EBC
:1041200000900029F5DC08E0029802995A460078D0
:10413000491C0291179990476D1CBAF10001AAF130
:10414000010AF1DC65E10000092801003031323359
:1041500034353637383961626364656600000000C3
:1041600030313233343536373839414243444546AD
:104170000000000000F058F90544761C3078002853
:104180007FF4ECAD19B02846BDE8F08F620700D48B
:10419000062709F1070222F0070CFCE80223E1469A
:1041A00003F000485FEA080C02D00FF2702C0DE01B
:1041B0005FEA045C02D50FF2682C07E05FEAC47C7A
:1041C00002D00FF2602C01E0AFF2700C4FF0FF381C
:1041D00023F00043CDF850C065280CD006DC4528FC
:1041E00009D046281DD047283DD13DE0662818D08B
:1041F00067287ED138E00021112F01DB112000E07B
:10420000781CCDE9000106A90EA8FFF7EDFCDDE959
:104210000F010E9A03910021009207F1010A049107
:104220004DE04FF000400097CDE9011006A90EA81F
:10423000FFF7DAFCDDE90F0203920E9B11990022D1
:10424000DDF80CA00093049211B9791C00EB010A6F
:10425000B7EB0A0004D4C0F1FF3007F1010A049063
:10426000AAEB0700019044E0012F00DA01270021AA
:10427000112F01DD112000E03846CDE9000106A92B
:104280000EA8FFF7B1FCDDE90F010E9A03910021A2
:1042900004910092BA4621070CD40399514500DAE3
:1042A0008A46BAF1010F05DD009AAAF10101515CBD
:1042B000302908D0B84202DA10F1040F06DA0121E1
:1042C000CDE9011015E0AAF10101E9E7002805DCBC
:1042D000049901440491AAEB000102E0411C5145FC
:1042E00000DD8A460499401A401C01904FF00040BE
:1042F0000290200704D40198504501DBCDF80480DA
:1043000000208DF84F0002980DF14F07B0F1004FDB
:1043100025D02B200E9002984FF0020800280CDACE
:10432000404202902D200E9007E00A210298FBF7F0
:10433000C7FF3031029007F8011DB8F10001A8F164
:104340000108F2DC02980028EFD1791E0E9808705F
:10435000307800F0200040F0450007F8020D12A868
:10436000C01B00F107081498007800B1012000EB91
:104370000A01019801EBE07105984144401A401E82
:104380000590E00306D45B462146179A059800F095
:104390005DF805441498007818B15A46179990476B
:1043A0006D1CE00324D55B462146179A059800F062
:1043B0004DF805441CE00498002807DBDDE9030103
:1043C000884203DD0098405C179901E0179930207E
:1043D0005A469047049805F10105401C0490019845
:1043E000401E019004D12E205A46179990476D1C0B
:1043F000BAF10001AAF1010ADDDC05E017F8010BB2
:104400005A46179990476D1CB8F10001A8F10108B0
:10441000F4DC5B462146179A0598ABE62D000000B8
:104420002B000000200000002DE9F041044600258B
:104430001E461746880404D405E039462020B047BC
:104440006D1C641EF9D52846BDE8F0812DE9F041C8
:10445000044600251E469046C80301D5302700E0DB
:104460002027880404D505E041463846B0476D1C36
:10447000641EF9D52846BDE8F081D0ED000AF4EEBF
:10448000C00AF1EE10FA01DD80ED000AD0ED000A5D
:10449000B1EE401AF4EEC10AF1EE10FA03D2F1EED9
:1044A000400AC0ED000A70473EB504463348007824
:1044B000012862D1324860434FF4B47190FBF1F0AF
:1044C0003049086030480068406A3049B1F900104E
:1044D000C1EB014108442E4908602A4890ED000ACA
:1044E000F8EEC00A084690ED000AB8EEC00A294866
:1044F000FEF7ACFCBDEEC00A10EE100A00B2264971
:1045000008800846B0F9000000F0F0F82048006884
:104510004FF4B47148431A4990FBF1F01F49086009
:104520001F48008860B91FA021A123A225A3CDE9BF
:104530000021029026A229A12BA0FFF70FFB17E074
:1045400017480088C92813D11048B0F90000124953
:10455000B1F90010CDE900100B480068436A0F481C
:104560002146026827A0FFF7F9FA01200C490880CC
:104570000B480088401C0A4908803EBD000000200E
:10458000A02E630010000020B00200203C0000209C
:1045900014000020640000200C000020080000200F
:1045A00018000020D2E7B3F6B4CECAFD0000000028
:1045B000D5BCBFD5B1C80000D7DCC2F6B3E5CAFD93
:1045C00000000000B1E0C2EBC6F7CAFD0000000029
:1045D000CAB5BCCABDC7B6C800000000D4A4C6DABC
:1045E000BDC7B6C8000000002534732025347320F1
:1045F0002536732025377320253573202534730A1B
:1046000000000000253464253464253564253764B2
:1046100025342E31662534640D0A000013B50C468E
:104620004FF47A73012269460248FEF7CEF90098EA
:104630001CBD0000180400202DE9F04105460E467F
:10464000182E01DABDE8F081002425E0285D154927
:10465000097888421ED1601C285C1249497888423A
:1046600018D104F11700C7B212E0E85D0E490978CD
:1046700088420BD13A1B521ED1B2281900F082FA9F
:1046800018B1281900F0D6F8DCE7DBE7781CC7B2D0
:10469000B742EADB601CC4B2701EA042D6DC00BF89
:1046A000D0E700004000002042000020FCF77EFC24
:1046B000FEF7CCFC00F0FEF8FEF70EFAFEF7E8F984
:1046C000FEF7D8FAFEF712FBFEF77AFBFEF79EFB29
:1046D000FEF744FAFEF790FA00F0BAF903E0024858
:1046E000008800F021F8FAE74E0000200C49B1F9EB
:1046F0000010884213D0002807DD0A490968C86302
:104700000021084A1268116407E00021054A126876
:10471000D1634142034A126811640149088070471D
:10472000020000204003002010B50446274800780E
:10473000012849D1B4F57A7F43DBB4F5FA6F40DC48
:104740002348008884423CD021480088A0421ADADD
:1047500014E01F4800881F49096848631C48008806
:1047600040F6B831081A1B49096888630520FCF730
:10477000FDFA17480088401C154908801448008835
:10478000A042E6D11DE012480088A04219DD14E0E5
:104790000F4800880F49096848630D48008840F6B3
:1047A000B831081A0B49096888630520FCF7DEFA5E
:1047B00007480088401E0649088005480088844252
:1047C000E6D100200149087010BD00000100002062
:1047D0002A000020D00300200C49B1F900108842C3
:1047E00013D0002807DD0A49096848630021084AF8
:1047F0001268916307E00021054A12685163414243
:10480000034A126891630149088070470400002040
:1048100040030020C0ED170A80ED160A016680ED06
:10482000001AC0ED011A80ED022AC0ED142A80EDB5
:10483000153A704710B504461022611D1748FBF762
:10484000F0FC164890ED000ABDEEC00A10EE100A0A
:1048500000B213490880114890ED010ABDEEC00A6C
:1048600010EE100A00B20F4908800C4890ED020AC1
:10487000BDEEC00A10EE100A00B20B4908800748CE
:1048800090ED030ABDEEC00A10EE100A00B207490F
:104890000880607D40B20649087010BDA00200206B
:1048A0004400002046000020480000204A0000206C
:1048B0004C000020044800210160416081600348F1
:1048C0000149086000207047A8010020B4010020C1
:1048D0003EB5044635480078012866D13448604327
:1048E0004FF4B47190FBF1F032490860324800682F
:1048F000406A3249B1F900104FF0FF32A1FB0212B9
:1049000040182F4908602B4890ED000AF8EEC00AC5
:10491000084690ED000AB8EEC00A2A48FEF796FA5B
:10492000BDEEC00A10EE100A00B227490880084602
:10493000B0F90000FFF750FF214800684FF4B47150
:1049400048431B4990FBF1F000B220490880204801
:10495000008860B91FA022A123A226A3CDE90021CF
:10496000029027A229A12CA0FFF7F8F818E0184818
:104970000088C92814D11148B0F900001249B1F9D2
:104980000010CDE900100C480068436A0F48B0F9E8
:104990000020214627A0FFF7E1F801200C490880FC
:1049A0000B480088401C0A4908803EBD00000020DA
:1049B000A086010020000020F80200203E00002018
:1049C00024000020D00000201C0000201A0000203D
:1049D00028000020D2E7B3F6B4CECAFD00000000E4
:1049E000D5BCBFD5B1C80000D7DCC2F6B3E5CAFD5F
:1049F00000000000B1E0C2EBC6F7CAFD00000000F5
:104A0000CAB5BCCABDC7B6C800000000D4A4C6DA87
:104A1000BDC7B6C8000000002534732025347320BC
:104A2000253130732025313073202535732025340E
:104A3000730A00002534642534642531306425313F
:104A4000306425342E31662534640D0A00000000E0
:104A500010B500F06FF800F081F800F03FF800F0BA
:104A600035F89FED123ADFED122A9FED122AF7EE8C
:104A7000001A9FED111ADFED110A9FED0C0A0321B8
:104A80000F48FFF7C7FE9FED0F3ADFED092A9FEDB4
:104A9000092AF7EE001A9FED081ADFED080A9FEDCC
:104AA000030A03210848FFF7B5FE10BD0000FA43D2
:104AB00000401C46000000006666064000004843B7
:104AC0006400002000007A44D000002010B50248A5
:104AD000FCF7C2FF10BD00008803002010B50020C5
:104AE000124909684862124909684862801E0F49E4
:104AF000096808610E49096808610C480068C068C7
:104B000040F0010009490968C86009480068C068A8
:104B100040F0010006490968C8603C210348FDF7E0
:104B200081F93C210248FDF77DF910BDB00200205B
:104B3000F802002010B508210748FDF7A1FB0C2161
:104B40000548FDF79DFB00210348FDF799FB042173
:104B50000148FDF795FB10BD4003002010B5074844
:104B60000068C06840F0100004490968C86030223D
:104B700003490248FDF7DCFE10BD000018040020C8
:104B80004002002010B502460023002004E0145C1F
:104B90001C44E3B2441CE0B28842F8DB505C98420B
:104BA00001D1012010BD0020FCE700061016000610
:104BB00010160000000000000000010203040607B8
:104BC000080900000000010203040000EC4B00088B
:104BD0000000002064000000C83B0008504C0008A2
:104BE00064000020BC080000D83B00080000000062
:104BF00000000000000000000000000000000000B5
:104C000000000000000000000000000000000000A4
:104C1000000000000000DC05A40600000000000009
:104C2000000000000000000000000000FAAFFE00DD
:104C30000000000000000000000000000000000074
:104C400010000000010000000024F400000000003B
:040000050800018965
:00000001FF
