:020000040800F2
:1000000088080020CD010008291B00087D18000881
:10001000C51A0008B90300089D230008000000006D
:10002000000000000000000000000000C91D0008E2
:100030002104000800000000A51C0008CB1D0008DA
:10004000E7010008E7010008E7010008E7010008F0
:10005000E7010008E7010008E7010008E7010008E0
:10006000E7010008E7010008E7010008E7010008D0
:10007000E7010008E7010008E7010008E7010008C0
:10008000E7010008E7010008E7010008E7010008B0
:10009000E7010008E7010008E7010008E7010008A0
:1000A000E7010008E7010008E7010008E701000890
:1000B000E7010008E7010008E7010008E701000880
:1000C000E7010008E7010008E7010008E701000870
:1000D000E7010008E7010008252300089123000834
:1000E000E7010008E7010008E7010008E701000850
:1000F000E7010008E7010008E7010008E701000840
:10010000E7010008E7010008E7010008E70100082F
:10011000E7010008E7010008311E0008E7010008B8
:10012000E7010008E7010008E7010008E70100080F
:1001300000F002F800F03AF80AA090E8000C8244BF
:100140008344AAF10107DA4501D100F02FF8AFF29C
:10015000090EBAE80F0013F0010F18BFFB1A43F0A5
:1001600001031847F82C0000182D0000103A24BF96
:1001700078C878C1FAD8520724BF30C830C144BF0C
:1001800004680C607047000000230024002500264E
:10019000103A28BF78C1FBD8520728BF30C148BFEA
:1001A0000B6070471FB51FBD10B510BD00F0D1F832
:1001B0001146FFF7F7FF02F03BF900F0EFF803B448
:1001C000FFF7F2FF03BC02F0FAF80000094880478D
:1001D00009480047FEE7FEE7FEE7FEE7FEE7FEE729
:1001E000FEE7FEE7FEE7FEE704480549054A064B41
:1001F000704700002D1E0008310100088802002011
:100200008808002088040020880400207047032A02
:1002100040F2308010F0030C00F0158011F8013B23
:10022000BCF1020F624498BF11F801CB00F8013B0A
:1002300038BF11F8013BA2F1040298BF00F801CBCE
:1002400038BF00F8013B11F0030300F05080083A7A
:10025000C0F0088051F8043B083A51F804CBA0E8FC
:100260000810F5E7121D5CBF51F8043B40F8043B51
:10027000AFF30080D20724BF11F8013B11F801CB86
:1002800048BF11F8012B24BF00F8013B00F801CB57
:1002900048BF00F8012B70474FF0000200B513462D
:1002A00094469646203922BFA0E80C50A0E80C5096
:1002B000B1F12001BFF4F7AF090728BFA0E80C5047
:1002C00048BF0CC05DF804EB890028BF40F8042B40
:1002D00008BF704748BF20F8022B11F0804F18BFAD
:1002E00000F8012B7047704770477047704710B592
:1002F000203AC0F00B80B1E81850203AA0E818501E
:10030000B1E81850A0E81850BFF4F5AF5FEA027CDE
:1003100024BFB1E81850A0E8185044BF18C918C04D
:10032000BDE810405FEA827C24BF51F8043B40F8EE
:10033000043B08BF7047D20728BF31F8023B48BFD3
:1003400011F8012B28BF20F8023B48BF00F8012B11
:100350007047754600F02CF8AE46050069465346D6
:1003600020F00700854618B020B5FFF73DFFBDE837
:1003700020404FF000064FF000074FF000084FF00C
:10038000000B21F00701AC46ACE8C009ACE8C0099D
:10039000ACE8C009ACE8C0098D46704710B504460A
:1003A000AFF300802046BDE81040FFF708BF000013
:1003B0000048704724020020FEE7000070B50446A4
:1003C000084602F0CDFAA188084402B213484280E0
:1003D000B4F9021091421BD0B4F90830934203DB08
:1003E000B4F90A30934200DD4380B0F90220531A79
:1003F000002B01DC8B185B42B4F90650AB4202DAE9
:100400006280104670BD83685B1C8360022B01D044
:10041000084670BD00218160F2E700000400002062
:10042000704772B6FEE710B590F82110002202293D
:1004300005D00421816380F82020012010BD0168CF
:100440000B6823F00E030B6001680B6823F00103B7
:100450000B6090F84030C46B012101FA03F3636034
:1004600080F8211080F82020104610BD2DE9F05FA3
:1004700090F821100024022903D004218163012473
:1004800085E001680A6822F00E020A6001680A68C5
:1004900022F001020A603F4E3E4FB215DFF8F4C071
:1004A000DFF8F090DFF8ECA0DFF8E8B0DFF8E4E088
:1004B0000168783F13011502ACF1640CA9F15009F1
:1004C000AAF13C0AABF1280BAEF1140E4FF48018E0
:1004D000B14227D9B9420ED0614512D049451DD04D
:1004E000514518D0594518D0714501D1424615E003
:1004F000294EB14201D1012210E0274E1436B142FB
:1005000001D110220AE0244E2836B14206D0224AF8
:100510003C32914201D11A4600E02A461E49091F89
:100520000A602BE0B94213D0614517D0494522D06B
:1005300051451DD059451DD0714501D142461AE0A3
:10054000B14202D14FF0807215E0134EB14201D199
:10055000012210E0104E1436B14201D110220AE0FF
:100560000D4E2836B14206D00B4A3C32914201D1A1
:100570001A4600E02A46074980394A60012180F87E
:100580002110002180F82010416B01B188472046DE
:10059000BDE8F09F80000240080402402DE9F84FBA
:1005A000DFF8C8910024A9F1040B23460F2709F1B5
:1005B000040AABF1040ED1E00125A54006EA0502CC
:1005C000AA4276D1DFF8A8C14E68A6EB0C086645B2
:1005D0002BD00DDC032E34D005DC36B3012E19D020
:1005E000022E2FD11BE0112E16D0122E2AD119E087
:1005F000B8F5881F19D006DCB8F5803F15D0B8F5DE
:10060000801F1FD111E0B8F5001F0ED0B8F5041FF0
:1006100018D10AE0CB6815E0CB681B1D12E0CB684F
:1006200008330FE0CB680C330CE08B682BB1012B47
:100630004FF0080303D0456104E0042302E00561A4
:1006400000E00023FF2A01D8064601E000F104067D
:100650004FEA840501D9A5F12005D6F8008007FAF4
:1006600005FC28EA0C0803FA05F548EA0508C6F86F
:1006700000804D68ED0070D53E4DAE6946F0010634
:10068000AE61AD6924F0030605F0010500953A4D11
:1006900006EB050CDCF80850A607360F07FA06F83B
:1006A00025EA0805DFF8D480404503D14FF0000863
:1006B00025E052E0DFF8C880404502D14FF0010844
:1006C0001DE0DFF8C080404502D14FF0020816E07F
:1006D000DFF8B480404502D14FF003080FE0DFF8A7
:1006E000AC80404502D14FF0040808E0DFF8A0805C
:1006F000404502D14FF0050801E04FF0060808FA26
:1007000006F848EA0508CCF808804D68D9F800607A
:10071000ED024D4601D5164300E096432E604D682C
:10072000DAF80060AD02554601D5164300E0964365
:100730002E604D68DBF80060AD035D4601D51643C1
:1007400000E096432E604D68DEF80060ED037546CC
:1007500001D5164300E096432E60641C0A681646D5
:10076000E2407FF429AFBDE8F88F000008040140A3
:10077000000011100010024000000140000801407C
:10078000000C01400010014000140140001801401D
:10079000001C0140C26821EA02030A4043EA024108
:1007A000016170470AB1016170470904FBE700006D
:1007B00001488068704700002000002002488168DE
:1007C000027811448160704720000020074810B56E
:1007D000016841F010010160032000F079F8002069
:1007E00000F006F800F024F8002010BD00200240C0
:1007F00070B50D4D04464FF47A712878B1FBF0F0D6
:100800000A490968B1FBF0F000F0E0FA48B9102C91
:1008100007D200222146501E00F03AF800206C60FA
:1008200070BD012070BD0000200000202C000020C1
:100830000E4808B5816941F001018161816901F0CB
:1008400001010091C16941F08051C161C06900F0AE
:1008500080500090052000F03BF80548416821F0E9
:10086000E06141F00071416008BD000000100240ED
:1008700000000140002809DB00F01F020121914027
:100880004009800000F1E020C0F80011704700002E
:10089000F0B40E4B1B680C46C3F30223C3F10705EB
:1008A000042D00D90425191D072901D2002300E0D9
:1008B000DB1E012606FA05F1491E214099409E40A3
:1008C000761E16403143F0BC01F069BD0CED00E02E
:1008D000064900F0070208684FF6FF03184040EA97
:1008E0000220034A10430860704700000CED00E04E
:1008F0000000FA052DE9F0470F46050061D0434E90
:10090000306800F00700B84209D2306820F00700D4
:1009100038433060306800F00700B84251D1286891
:100920003B4C810712D5400703D5606840F4E06076
:1009300060602878000703D5606840F4605060600C
:100940006068A96820F0F000084360602878C0075C
:1009500028D06868012810D02168022810D08907A3
:1009600000292EDA616821F0030101436160FFF77D
:100970001FFF804641F288390DE021688903EFE7C7
:100980008901EDE7FFF714FFA0EB0801494502D903
:100990000320BDE8F0876068696800F00C00B0EBE8
:1009A000810FEFD1306800F00700B8420BD93068F2
:1009B00020F0070038433060306800F00700B8428C
:1009C00001D00120E5E72878400705D56068E9688F
:1009D00020F4E060084360602878000706D560686E
:1009E000296920F4605040EAC100606000F038F8E6
:1009F0006168084AC1F30311515CC84006490860A8
:100A000006480068FFF7F4FE0020C2E7002002401D
:100A100000100240442E00082C000020240000207A
:100A20000448054900684968044AC1F30221515C41
:100A3000C84070472C00002000100240542E0008CF
:100A40000448054900684968044AC1F3C221515C61
:100A5000C84070472C00002000100240542E0008AF
:100A60000E4A51680E4801F00C03042B11D0082BDC
:100A70000FD10C48C1F38343C903C05C0AD5516848
:100A8000084AC1F34041921E515C054A5043B0FBF5
:100A9000F1F07047044948437047000000100240DD
:100AA00000127A00342E000800093D002DE9F84FAD
:100AB000040070D02078C04DC00749D06868C0F3EA
:100AC0008100012807D06868C0F38100022809D19D
:100AD0006868C00306D52868800339D56068002897
:100AE000E7D035E06068B0F5803F0BD010B1B0F5CD
:100AF000A02F11D0286820F480302860286820F4C6
:100B0000802002E0286840F480302860606890B15E
:100B1000FFF74EFE06460AE0286840F48020286071
:100B2000F0E700BFFFF744FE801B642873D82868F5
:100B30008003F7D50CE0FFF73BFE064605E000BF5B
:100B4000FFF736FE801B6428F0D828688003F7D4AE
:100B500020789A4E80074FF001094FF0000839D5F0
:100B6000686810F00C0F07D06868C0F38100022895
:100B700009D16868C00306D42868800714D52069A5
:100B8000012808D110E02069B0B1C6F80090FFF745
:100B90000FFE074605E00AE1FFF70AFEC01B022828
:100BA000C4D828688007F7D52868616920F0F80064
:100BB00040EAC10028600DE0C6F80080FFF7F8FDAC
:100BC000074604E0FFF7F4FDC01B022823D828687D
:100BD0008007F7D4207800072CD57948A169D9B1CE
:100BE000C0F80090FFF7E4FD074604E0FFF7E0FDE2
:100BF000C01B02280FD8686A8007F7D571484FF4E8
:100C0000FA510068B0FBF1F0009000BF0098411E5F
:100C10000091FAD20EE080E0C0F80080FFF7C8FD36
:100C2000074604E0FFF7C4FDC01B022875D8686AB8
:100C30008007F7D42078400760D5E8690027C00016
:100C400008D4E86940F08050E861E869012700F0C5
:100C5000805000905C480168C90513D40168834640
:100C600041F480710160FFF7A3FD824606E000BFFA
:100C7000FFF79EFDA0EB0A0064284ED8DBF80000C9
:100C8000C005F5D5E06801280AD008B1052813D0C1
:100C9000286A20F001002862286A20F0040002E09F
:100CA000286A40F001002862E06841F2883B98B170
:100CB000FFF77EFD82460BE0286A40F004002862C0
:100CC000EEE700BFFFF774FDA0EB0A0159455AD8C3
:100CD000286A8007F6D50CE0FFF76AFD824605E03A
:100CE000FFF766FDA0EB0A0159454CD8286A80073A
:100CF000F6D41FB1E86920F08050E861E06988B35C
:100D00006968C1F38101022944D00228C6F86080D5
:100D100004D0FFF74DFD044638E034E0FFF748FD0E
:100D2000074604E0FFF744FDC01B02282BD82868C3
:100D30008001F7D4206AB0F5803F05D16868A168CA
:100D400020F4003008436860D4E90801084369686A
:100D500021F4741108436860C6F86090FFF728FD1D
:100D6000044606E025E000BFFFF722FD001B022835
:100D700009D828688001F7D51BE000BFFFF718FDF0
:100D8000001B022802D90320BDE8F88F28688001E3
:100D9000F4D40EE00128F7D06868226A00F48031AC
:100DA000914204D1616A00F47010884201D00120A0
:100DB000EAE70020E8E7000000100240000042429D
:100DC000800442422C0000200070004010B5401EFC
:100DD000B0F1807F01D3012010BD4FF0E0246061AD
:100DE0000F21601701F0DBFA0020A06107202061CD
:100DF000002010BD7047704770B590F83C20012A64
:100E00002CD0012480F83C40022280F83D20036869
:100E10005A689D6822F070060A6832435A60104B87
:100E200002689A420ED00F4B9A420BD0B2F1804F1B
:100E300008D00D4B9A4205D00C4B9A4202D00C4B75
:100E40009A4204D1496825F080031943916080F8E3
:100E50003D40002180F83C10084670BD022070BD66
:100E6000002C014000340140000400400008004014
:100E7000000C004010B5040003D094F83D0010B100
:100E800007E0012010BD002084F83C00204600F05F
:100E90001FF8022084F83D00211D206800F0CEFFDD
:100EA000012084F8460084F83E0084F83F0084F86E
:100EB000400084F8410084F8420084F8430084F83C
:100EC000440084F8450084F83D00002010BD000077
:100ED00008B5114A01681148914208D1C16941F031
:100EE0000201C161C06900F00200009008BD0C4A17
:100EF0009142FBD1C16941F01001C161C06900227A
:100F000000F01000009011463620FFF7C1FCBDE84C
:100F100008403620FFF7AEBC00040040001002403D
:100F20000010004090F83D10012901D001207047C9
:100F3000022180F83D100168CA6842F00102CA60CF
:100F400000680E4988420ED00D4988420BD0B0F19E
:100F5000804F08D00B49884205D00B49884202D007
:100F60000A49884204D1816801F00701062903D0AB
:100F7000016841F00101016000207047002C014030
:100F8000003401400004004000080040000C004014
:100F900070B5044690F83C000025012817D00126C2
:100FA00084F83C60022084F83D002068826822F0CA
:100FB000770222F47F4282600868502838D00DDC26
:100FC00020284FD005DC90B3102811D14AE0022030
:100FD00070BD302846D040280AD13BE060282FD091
:100FE00070280DD0B0F5805F03D0B0F5005F12D04F
:100FF000012584F83D60002084F83C00284670BD3F
:10100000CB68D1E90121206800F06BFF206881687E
:1010100041F0770109E0CB68D1E90121206800F0B7
:1010200060FF2068816841F480418160E1E719E058
:10103000CA684968206801F029F85021206806E054
:10104000CA684968206801F032F86021206800F021
:1010500052FFCEE7CA684968206801F017F84021BE
:101060002068F4E7226801461046F0E7704770B543
:101070000446006801694FF00005C943890715D48B
:10108000C168C943890711D4E91E01610120207795
:10109000206880698007204602D0FFF7E7FF04E060
:1010A00000F0BEF8204600F050F92577206801696D
:1010B000C943490717D4C168C943490713D46FF01E
:1010C00004010161022020772068806910F4407FCC
:1010D000204602D0FFF7CAFF04E000F0A1F8204646
:1010E00000F033F9257720680169C943090716D450
:1010F000C168C943090712D46FF0080101610420D7
:1011000020772068C0698007204602D0FFF7AEFF35
:1011100004E000F085F8204600F017F925772068F4
:101120000169C943C90617D4C168C943C90613D4A4
:101130006FF010010161082020772068C06910F469
:10114000407F204602D0FFF791FF04E000F068F8EE
:10115000204600F0FAF8257720680169C943C907DD
:1011600008D1C168C943C90704D1891E016120465D
:1011700000F046F920680169C943090609D4C1682D
:10118000C943090605D46FF0800101612046FFF7CD
:1011900031FE20680169C943490609D4C168C943C1
:1011A000490605D46FF040010161204600F034F992
:1011B00020680169C94389060BD4C168C9438906FF
:1011C00007D46FF0200101612046BDE87040FFF7B1
:1011D00012BE70BD00B585B0002100910191029151
:1011E000039100680B49884212D10B48816941F094
:1011F000040181618069694600F004000490C02008
:10120000009002200190032003900448FFF7C6F9E4
:1012100005B000BD0004004000100240000801407D
:10122000704770B5044690F83C0000260D46012832
:101230000FD0012084F83C006AB1042A1DD0082A8E
:101240002FD00C2A3FD00126002084F83C003046E5
:1012500070BD022070BD206800F056FE20688169D4
:1012600041F0080181612068816921F004018161F8
:10127000206881692A69114311E0206800F074FE3A
:101280002068816941F4006181612068816921F4ED
:1012900080618161206881692A6941EA0221816156
:1012A000D2E7206800F096FE2068C16941F008018D
:1012B000C1612068C16921F00401C1612068C16970
:1012C0002A69114311E0206800F0B8FE2068C16966
:1012D00041F40061C1612068C16921F48061C1618C
:1012E0002068C1692A6941EA0221C161ACE710B5F1
:1012F000040003D094F83D0010B107E0012010BDB8
:10130000002084F83C00204600F01EF8022084F8FB
:101310003D00211D206800F091FD012084F8460069
:1013200084F83E0084F83F0084F8400084F84100CF
:1013300084F8420084F8430084F8440084F84500AF
:1013400084F83D00002010BD7047704710B504467A
:10135000022249B104290ED0082913D094F8410083
:10136000012816D0012010BD94F83E000128F9D1C3
:1013700084F83E200FE094F83F000128F2D184F871
:101380003F2008E094F840000128EBD184F8402089
:1013900001E084F841200122206800F095FD134906
:1013A0002068134A884201D0904203D1436C43F431
:1013B00000434364206888420DD090420BD0B0F1C6
:1013C000804F08D00B49884205D00B49884202D093
:1013D0000A49884204D1816801F00701062903D037
:1013E000016841F001010160002010BD002C0140A6
:1013F000003401400004004000080040000C0040A0
:101400000349884203D10348006800F05DBB704780
:101410003801002018000020704770477047000016
:10142000F8B5016804460868CA684B6910F00F0FE8
:101430004FF000055AD003F0010602F490773743CD
:1014400065D0C10705D0D10503D5616C41F001011C
:101450006164410705D5D90703D0616C41F00201F1
:101460006164810705D5D90703D0616C41F004019F
:101470006164010707D502F02001314303D0616C9C
:1014800041F008016164616C00293BD0800604D5FD
:10149000900602D5204600F04BFE20684069616C42
:1014A000C0F3801001F00801014320462BD000F06A
:1014B00018FE20684069400621D52068143050E8A5
:1014C000001F21F0400140E80012002AF5D1E06B36
:1014D000A8B16D494163E06BFEF7C8FF002811D049
:1014E000E06B416B01B0BDE8F040084783060ED5C4
:1014F00093060CD52046BDE8F84000F019BE204602
:10150000FFF78CFFF8BDFFF789FF6564F8BD266B18
:101510002023012E7CD1C6067AD5D60678D5086858
:101520004868009048694FF00206400640D5E16BDC
:10153000086840680004000CE8D0A28D8242E5D91A
:10154000E085886920282DD020680C3050E8001FE5
:1015500021F4807140E80012002AF5D1216814318D
:1015600051E8000F20F0010041E80002002AF5D107
:101570002068143050E8001F21F0400140E80012BC
:10158000002AF5D184F84230256320680C3050E8F9
:10159000001F21F0100140E80012002AF5D1E06B95
:1015A000FEF741FF6663A08DE18D401A81B22AE00B
:1015B000A08DE18D401A81B2E08D0028A6D00029CF
:1015C000A4D022680C3252E8000F20F4907042E858
:1015D0000007002FF5D12068143050E8002F22F0CA
:1015E000010240E80027002FF5D184F8423025633E
:1015F00020680C3050E8002F22F0100240E8002351
:10160000002BF5D166632046FFF707FFF8BDFFE723
:1016100005062BD5150629D594F841002128F5D1CA
:10162000A068B0F5805F01D12069B0B1206A411C8B
:101630002162216800784860E08C401E0004000CA4
:10164000E084E3D12068C16821F08001C160206896
:10165000C16841F04001C160D8E7206A0088C0F34A
:1016600008004860206A801C2062E5E74006CDD56E
:101670005006CBD5CA68204622F04002CA6084F8E2
:10168000413000F0FAF8C1E7D320000870B504003B
:1016900004D094F84100002510B106E0012070BD8F
:1016A00084F84050204600F023F8242084F84100BC
:1016B0002068C16821F40051C160204600F09AFD05
:1016C0002068016921F4904101612068416921F09D
:1016D0002A0141612068C16841F40051C16065641C
:1016E000202084F8410084F842006563002070BD2A
:1016F00030B585B0002400940194029403942E4DDB
:1017000003682E4802210322AB4227D1C36943F468
:101710000033C361C36903F400330493836943F066
:10172000040383618069264D00F0040004900420C6
:10173000CDE90001039269462846FEF72FFF0820F5
:10174000CDE90004694628460294FEF727FF0122EE
:1017500000212620FFF79CF8262029E0194DAB42F6
:1017600028D1C36943F48023C361C36903F4802390
:101770000493836943F0080383618069039200F056
:10178000080004902815CDE900010F4D6946284650
:10179000FEF704FFE814CDE90004694628460294E8
:1017A000FEF7FCFE002211462720FFF771F82720E4
:1017B000FFF760F805B030BD004400400010024063
:1017C0000008014000480040000C01402DE9F843AA
:1017D000044690F84200994616460D46202802D04D
:1017E0000220BDE8F883ADB1A6B1002060642221DB
:1017F00084F842102063FEF7DBFFA6858046E6856D
:10180000A0684FF48057B84201D1206920B12E461C
:10181000002526E00120E4E7002622E043460022DE
:1018200020212046CDF8009000F040FD08B10320B3
:10183000D7E726B1A068B8421BD038B108E02068CD
:101840004068C0F3080025F8020B07E0206980B16A
:101850002068406800F07F0006F8010BE08D401E14
:10186000E085E08D0028D9D1202084F842000020B6
:10187000B7E720684068EFE770477047FEE700224F
:10188000134601E08354521C8A42FBDB7047000080
:101890002DE9F04385B00020009001900290039064
:1018A0002D48816941F040018161816901F0400169
:1018B0000491816941F010018161816901F0100199
:1018C0000491816941F004018161816901F00401A1
:1018D0000491816941F008018161816901F0080189
:1018E0000491816941F02001816180691B4F00F002
:1018F00020000490012220213846FEF753FFDFF834
:101900006080002280214046FEF74CFFDFF85490B3
:10191000012220214846FEF745FF01242026CDE97B
:101920000064032569463846CDE90245FEF736FED8
:101930008020CDE9000469464046CDE90245FEF726
:101940002DFECDE9006469464846CDE90245FEF723
:1019500025FE05B0BDE8F0830010024000180140EC
:1019600000140140000C014010B58EB00024079413
:10197000089409940A940B941C2168460C94FEF771
:101980008BFC2248204901604721C0E9011444F63C
:101990001F61C0E903148461FFF76CFA08B1FEF718
:1019A00040FD4FF48050079007A91848FFF7F0FA60
:1019B00008B1FEF736FD1548FFF799FC08B1FEF7B0
:1019C00030FD0B940BA911480C94FFF715FA08B1E0
:1019D000FEF727FD6020CDE900040294002269464D
:1019E0000A480494FFF71DFC08B1FEF71AFD042213
:1019F00069460648FFF715FC08B1FEF712FD0348DB
:101A0000FFF7E8FB0EB010BD00040040F00000201E
:101A10001CB500240E4800940C490194016031214A
:101A2000C0E9011441F61F418461C160FFF722FA49
:101A300008B1FEF7F6FC0094694605480194FFF7EB
:101A4000DBF9002801D0FEF7ECFC1CBD00100040C3
:101A5000380100200C4810B50A4901604FF4E1310B
:101A60004160002181600C22C160C0E904128161E3
:101A7000C161FFF70BFE002803D0BDE81040FEF760
:101A8000D0BC10BD00440040940100200C4810B5AB
:101A90000A4901604FF4E1314160002181600C226C
:101AA000C160C0E904128161C161FFF7EFFD002848
:101AB00003D0BDE81040FEF7B4BC10BD00480040A4
:101AC000DC010020FEE7000070B5124C05462078CE
:101AD00001281DD120211048FEF75CFE29460F4841
:101AE000226900F023F80146E0600D48FEF766FC2D
:101AF000A0800B48E1680C30FEF760FC094980B219
:101B0000E0800B68A2885A6309688863002020700F
:101B100070BD000004000020001801406C0000208F
:101B2000D8000020F0000020FEE700002DE9F04181
:101B3000426104460162104601F096F8E062216DB0
:101B40004FF4000511F0FF4F06D0A84201DA80F0F3
:101B5000004001F04DF80BD3616D11F0FF4F1BD029
:101B6000E06AA84201DA80F0004000F041FF02D2B2
:101B70000020BDE8F081606D10F0FF4F0CD04FF0F9
:101B8000814100F079FE0146E06AA84201DA80F066
:101B9000004000F02DFF01D8012000E00020404F60
:101BA00004F134053860206E032802D004282FD0B9
:101BB00063E0E66A2068314600F04EFF206331465C
:101BC000606800F049FF616B00F056FE60633046CC
:101BD000A16A01F049F8A16800F03EFFA063284621
:101BE000E16D00F0EDFB386800F0D6FE616B00F0AF
:101BF00033FF216B00F040FEA16B00F03DFEE0637F
:101C000004F13C00A16D00F0DBFBE06B206434E0EC
:101C1000D4E90A763946304601F026F8216800F00A
:101C20001BFF20633146606800F016FF60630121EE
:101C3000384601F0C0F8314601F00BF8616A00F057
:101C40001BFEA16800F008FFA0632846E16D00F0CC
:101C5000B7FBD4E90C0100F00FFEA16B00F00CFE05
:101C600001466064E06C00F007FEA06404F14800E7
:101C7000A16D00F0A5FBA06CE064A06A6062E06A60
:101C8000A062E069A061206AE0612069E0606069AB
:101C90002061206E032801D0A06C6AE7E06B68E742
:101CA0000000002070472DE9F0411646044650F828
:101CB0000C2B01254B1C0B2A14D2DFE802F0060F77
:101CC0001620305063676B707400FA2904D12560C8
:101CD000A268531CA3601154BDE8F081AF2902D063
:101CE000FA29F9D06CE0022257E0FA2902D0F12952
:101CF00003D065E02560A560EEE703224DE0FA29F8
:101D0000F8D0A18004222260A268551CA56011545D
:101D1000A068C0F11100984252DB91B3DCE7A268E1
:101D2000531CA3601154A088411E89B2A18006D320
:101D3000A36804F10B00A28E185C1044A086002951
:101D4000CAD1A07BE17B014494F8340000F2A910D1
:101D50000844C0B2A0862068401C2060BCE7A28E68
:101D60008A422DD1A268531CA3601154014630460B
:101D7000A268FEF74CFA2068401C206084F83650B8
:101D8000AAE71DE0FA291BD1072206E0AF2917D1E7
:101D9000082202E0F22913D10922226098E70A22E0
:101DA0002260E38094E7E288521EE280A268531C1E
:101DB000A3601154E18800298ED12821FFF75FFD2F
:101DC000BDE8F04100F0BEBB7047FEF7F7BC30B590
:101DD0008FB028216846FEF75FFA14210AA8FEF7A3
:101DE0005BFA01210804CDE90010002402940225C9
:101DF0000491CDE907504FF4E01009906846FEF7D2
:101E000055FE08B172B6FEE70F20CDE90A054FF482
:101E10008060CDE90C4002210AA80E94FEF76AFD0D
:101E2000002801D072B6FEE70FB030BD7047000049
:101E30000148FFF71CB9000038010020F0B5026826
:101E40001C4B1D4D1D4E1E4F1E4C4FF0804C98429A
:101E500009D0A04207D0604505D0A84203D0B042C7
:101E600001D0B84204D122F0700E4A6842EA0E0254
:101E7000984209D0A04207D0604505D0A84203D0BF
:101E8000B04201D0B84203D122F44075CA682A4357
:101E90004D6922F080022A4302608A68C2620A68A1
:101EA0008262984201D0A04201D1096901630121F7
:101EB0004161F0BD002C01400004004000080040DA
:101EC000000C00400034014010B501F01F03012157
:101ED000046A99408C430462016A9A40114301628A
:101EE00010BD10B5846842EA032224F47F440A43FB
:101EF0002243826010BD826822F070020A4342F0E1
:101F00000701816070470000F0B5036A026A22F0A1
:101F10000102026242688469124E24F073050C6863
:101F20002C4323F002058B682B430D4DA84201D0B2
:101F3000B04205D123F00807CB683B4323F00403EC
:101F4000A84201D0B04205D14D6922F44072154338
:101F50008A692A4342608461496841630362F0BD33
:101F6000002C014000340140F0B5026A036A23F0FE
:101F700010030362436884690D6824F4E64444EA6C
:101F800005248D6822F0200242EA05120F4D104E02
:101F9000A84201D0B04206D1CF6822F0800242EAC6
:101FA000071222F04002A84201D0B04207D14D6989
:101FB00023F4406343EA85038D6943EA8503436064
:101FC0008461496881630262F0BD0000002C014019
:101FD00000340140F0B5026A036A23F4807303629F
:101FE0004368C46922F4007224F073050C68124E31
:101FF0002C438D6842EA05220E4DA84201D0B04222
:1020000006D1CF6822F4006242EA072222F48062FD
:10201000A84201D0B04207D14D6923F4405343EAAE
:1020200005138D6943EA05134360C4614968C163C0
:102030000262F0BD002C01400034014030B5046A5A
:10204000026A22F4805202624268C3690D6823F476
:10205000E64343EA05238D6824F4005444EA05343A
:10206000084DA84202D0084DA84204D14D6922F47F
:10207000804242EA85124260C36149680164046299
:1020800030BD0000002C01400034014010B5036A4F
:10209000046A24F001040462846924F0F00444EA30
:1020A000021423F00A020A438461026210BD10B5D3
:1020B000036A046A24F010040462846923F0A00314
:1020C00024F4704444EA023243EA0111826101625D
:1020D00010BD10B5406A0021C185C184FFF79EF98B
:1020E00010BD01680C3151E8002F22F4907241E8D4
:1020F0000023002BF5D10168143151E8002F22F0A4
:10210000010241E80023002BF5D1016B012909D11F
:1021100001680C3151E8002F22F0100241E8002341
:10212000002BF5D1202180F8421000210163704777
:1021300008B590F84210222901D0022008BD82681B
:102140004FF480539A4201D1016921B1816A9A42C8
:102150001BD04AB10AE00268816A5268C2F30802E1
:102160000A80816A891C08E0026972B102685268BB
:1021700002F07F020A70816A491C8162C18D491E8A
:102180000904090CC18503D01BE002685268F1E71D
:102190000168CA6822F02002CA600168CA6822F495
:1021A0008072CA6001684A6922F001024A612021F6
:1021B00080F8421000214163026B012A03D0FFF72F
:1021C0005BFB002008BD016301680C3151E8002F62
:1021D00022F0100241E80023002BF5D101680A68C3
:1021E000D20602D50A6849680091818DFFF715F97A
:1021F000E7E7000070B5044600680169E26821F471
:102200004051114301612169A06808436169084395
:102210002168CA6841F20C639A430243CA6020688D
:102220004169A26921F44071114341611E4920684E
:10223000884202D1FEF704FC01E0FEF7F1FB00EB5F
:10224000C00101EB0012606864218000B2FBF0F372
:10225000B3FBF1F36FF018067343B2FBF0F5B2FB7A
:10226000F0F605EB8305322303EB0515B5FBF1F51D
:10227000B6FBF1F605F0F00505EB0615B2FBF0F63E
:10228000B2FBF0F0B0FBF1F06FF01802504306EB38
:10229000800003EB0010B0FBF1F0216800F00F00AC
:1022A0002844886070BD0000003801402DE9F041ED
:1022B000984617460E460446069D27E0681C25D022
:1022C0002DB1FEF775FAA0EB0800A8421ED92068D0
:1022D0000C3050E8001F21F4D07140E80012002AB1
:1022E000F5D12068143050E8001F21F0010140E8CA
:1022F0000012002AF5D1202084F8410084F8420021
:10230000002084F840000320BDE8F08120680068C8
:1023100036EA000004D00020B842CFD00020F3E716
:102320000120F9E7144810B500680068C043800632
:102330001CD44FF47A73012210490F48FFF746FA74
:102340000E480F4A01780F48FFF7ADFC0D4C94F88A
:10235000360001280AD10A4800F014F90A49086039
:102360000A4901200870002084F83600BDE81040BA
:102370000148FFF755B80000940100201C00002020
:1023800080010020340000201800002004000020FC
:102390000148FFF745B80000DC010020FEE709070F
:1023A000090E002804DB00F1E02080F800147047DB
:1023B00000F00F0000F1E02080F8141D7047704716
:1023C00070B504460E4681F00045006800F010FC30
:1023D00000D226602846216800F00AFC00D2256061
:1023E00070BD000001490860704700003000002007
:1023F0004FF47A71484300F001B8000070B54FF017
:10240000E024002265690949A36909684843A16974
:102410009942FCD002D2A3EB010302E0A5EB010636
:1024200033441A440B468242F1D370BD3000002081
:1024300086B0FEF7CBF94820FFF7D4FFFFF7C7FCC3
:10244000FFF726FAFFF790FAFFF704FBFFF7E0FA31
:10245000FFF71CFB00212D48FEF778FF04212B48D5
:10246000FEF774FF29484FF47A71026851630268DD
:1024700040F2DC555563026891630068856340F261
:102480006A50FFF7B5FF22482249CDE90310020246
:10249000214800268DE84500204B214A0321214890
:1024A00000F05AF8204840F20E634FF4BE6280F804
:1024B000366014211D48009500F05BF840F28C5006
:1024C00000902B4640F2BE521421194800F051F8FA
:1024D00018480068C16841F02001C16016480068D2
:1024E000C16841F02001C1601448FEF71BFD144D86
:1024F000641CE4B20A20FFF77BFF142CF8D12021E2
:102500002846FEF747F90024F2E70000F00000201B
:10251000000040400000B442CDCC4C3F0000A04140
:102520000000FA436C00002034000020D800002096
:10253000E400002094010020DC010020380100208C
:10254000000C01400348002101608180C18081604E
:102550008186704734000020F0B50DF1140E9EE81E
:10256000F0100765C0E91731C0E915C280E87000B6
:10257000F0BD10B5029C82804280C18003814481FD
:1025800010BD000070B5808840BA00F01DFA0949FE
:10259000094C0A4D884203DB4FF08F4100F064FB89
:1025A00000F03EF922462B4600F03CF8BDE87040B2
:1025B00000F006B800FEFF467B14AE47E17A843F88
:1025C00021F00042A2F16052B2F5801F01F00043F9
:1025D00028BFD2F17F6C0BD95FEA001C43EAC2022C
:1025E00042EB507018BF704728BF20F001007047C1
:1025F000B2F5801FBCBF184670474FEA410C1CF56E
:10260000001F02D2084600F0EEBA70B500F0B4F830
:1026100000000089FFF7F6BF4FF00040A0F58000F2
:1026200070470000DFF848C170B51CEA111E1EBFDC
:102630001CEA13159EEA0C0F95EA0C0F00F06F8050
:1026400081EA030423EA4C134EEAD47E21EA4C11BA
:1026500041F4801143F48013AE44A1FB024CA0FB73
:102660000365AEF17F7E361955EB0C05A1FB034CDB
:102670004CF10003A0FB021C16EB0C06654153F164
:102680000003094218BF46F0010613F4007F0BD186
:102690004FEA03314FEA0530340341EA155140EA6D
:1026A00016506FF003020AE04FEAC3214FEAC5203B
:1026B000F40241EA555140EA56506FF0020202EB33
:1026C0002E4201EB025585EACE710AD05FEA440C36
:1026D00018BF24F0004450F1000041F1000120EA4D
:1026E000D47040F2FE7C624500D270BDA84214BF97
:1026F0004FF080444FF04044002E08BF0024BEF14C
:10270000806FA8BFA1F1C041BDE8704080F2828017
:102710004FF0000001F1C04101F0004170479EEA16
:102720000C0F0CEA131518BF95EA0C0F06D04FF0EA
:10273000000081EA030E0EF0004170BD00F01CF8AD
:102740008900013E00F007B800F009B84FEA430CD9
:102750005FEA5C5C08D081EA030100F05BB84FEAF5
:10276000410C5FEA5C5CF6D14FF000000149704714
:102770000000FF070000F87F0EF1020E2EF0030E9E
:102780005EF8046B364205D4012A43EB030515F5C8
:10279000001F12D8012841EB010C1CF5001F0CD8BA
:1027A0000ED14FEAD17C15F5001F0CEB4C0C0CF14F
:1027B000020C08BF4CEBD37C04E04FF0080C01E0A6
:1027C0004FEAD37C0CEB4C0526FA05F606F007061B
:1027D000B6F1040C06D20EEB860CBDE870404CF04E
:1027E000010C6047DFE80CF0090B02024FF00041DA
:1027F0004FF00000A1F5002170BD194610460128D8
:1028000051EB010418BFD4F5001484BF002001F07F
:10281000004170BD0808A0F500114FEA3101704772
:1028200043004FEAD30C4FEA3C0C43401FBF400724
:102830000CF1605113F0FE4F70471CF0006F03D194
:1028400000200CF0004170470CF0004343EA507048
:1028500010B540EACC0000F080F900BF0000009203
:102860004FEA0001FFF7D6BF4FF000414FF00000E4
:10287000A1F500217047000090EA010F48BF81F0E8
:10288000004100F1F881421A3CBF801A89184FEAD2
:10289000D0524FF07F4C1CEA410FA2EBD15318BF2E
:1028A0009CEA026F00F03B804FF0004C4CEA0020A5
:1028B0004CEA012121FA03FC10EB0C0C1ED202F1B0
:1028C000FF325FEA1C2040EBC25038BF70471CF05B
:1028D0007F0F4FEA400C18BFBCF17F4F38BF7047E5
:1028E000C3F12003994008BF20F00100BCF17F4FE5
:1028F00038BF7047A0F1C04000F075B94FEA3C0006
:10290000000A40EBC25028BF1CF0FF0F4FEA400CFA
:10291000E6D018BFBCF17F4F38BF7047EAE79CEAAA
:10292000026F05D010EA5C0F08BF00F0004070474E
:1029300010B500F012F900BF64FBBE3E014800F084
:1029400008BA00BF0000C07F401058BFC0F140402F
:10295000491058BFC1F140418142EFF300807047F8
:1029600041000B0ED3F19E0208D950F400034FEA48
:10297000032323FA02F048BF4042704710B500F02D
:10298000ECF800BF49922480002070476FF00042AD
:1029900082EA20007047000010F0004148BF40422A
:1029A000B0FA80F310FA03F2C3F19D030BD051EAA1
:1029B000C35101EB1220530638BF704700F10100EC
:1029C00008BF20F001007047B0FA80F310FA03F25C
:1029D000C3F19D030AD0D90501EB1220530638BF7D
:1029E000704700F1010008BF20F0010070470000AF
:1029F00050EA010C00F113801CF5000F58BFBCF524
:102A0000000F01D48842704707D710F5000F58BF58
:102A100011F5000F15D488427047894270471CF5A4
:102A2000000F04D5BCF5000FF7D5814270474FF079
:102A3000807C1CEB400F38BF1CEB410F01D2814260
:102A4000704710B500F089F8922449004FF000500B
:102A50004FF08051FFF778BF4FF47F0C1CEAD01283
:102A60001EBF1CEAD11392EA0C0F93EA0C0F00F080
:102A7000478090EA010F48BF42F480724FF0004C4B
:102A80004CEA00204CEA012102EB0302A0FB0113F7
:102A9000A2F50002002918BF43F001035B0028BF24
:102AA0004FEA330342EB22425FEA132C4CEBC25055
:102AB0002EBFBCEB436FB2F57C0F70474FEA036C3F
:102AC000BCF1004F08BF20F00100B2F57C0F38BF09
:102AD00070470BD582F0FF0212F5803FC8BF7047E8
:102AE00000F1C040D8BF00F00040704700F5000C76
:102AF0005FEA4C0C48BF7047B0F1C04000F073B8BB
:102B000090EA010F0CEAD11348BF42F4807262458B
:102B100038BF634504D280EA010000F000407047EE
:102B200010B500F01AF800BF8900013E00F007B8A8
:102B300000F009B85FEA410C5FEA1C6C08D080EA3B
:102B4000010000F050B85FEA400C5FEA1C6CF6D15F
:102B50004FF00040A0F5800070470EF1020E2EF0FD
:102B6000030E5EF8044B244204D44FEA4102B2F152
:102B70007F4F11D84FEA4003B3F17F4F0CD80ED1ED
:102B80004FEAD07CB2F17F4F0CEB4C0C0CF1020CF5
:102B900008BF4CEBD17C04E04FF0080C01E04FEA99
:102BA000D17C0CEB4C0324FA03F404F00704B4F1D9
:102BB000040C06D20EEB840CBDE810404CF0010C66
:102BC0006047DFE80CF0070802024FF00040A0F574
:102BD000800010BD0846420018BFD2F1807288BF45
:102BE00000F0004010BDFF2141EAD050C005704701
:102BF00051EA000C00F113801CF5000F58BFBCF522
:102C0000000F01D48142704707D711F5000F58BF5C
:102C100010F5000F15D481427047894270471CF5AA
:102C2000000F04D5BCF5000FF7D5884270474FF070
:102C3000807C1CEB410F38BF1CEB400F01D2884257
:102C4000704780EA010081EA000180EA0100FFF795
:102C5000F8BE80F0004090EA010F7FF514AE81F0DD
:102C6000004100F008B8000090EA010F48BF81F071
:102C700000413FF508AE421A04D882F00042A0EBB2
:102C8000020011444FEAD0524FF07F4C1CEA410F32
:102C9000A2EBD15318BF9CEA026F4AD04FF0004C10
:102CA0004CEA00204CEA012121FA03FCB0EB0C0CA9
:102CB0000FD412F0FE0F36D05FEA4C001DD5001283
:102CC00040EBC25038BF70471CF03F0F18BF704731
:102CD0000BE0A2F101025FEA1C2040EBC25038BFBA
:102CE00070471CF07F0F18BF7047C3F12003994055
:102CF00014BF401E20F00100704780084FEA1223E5
:102D000008BF7047B0FA80FCA2EB0C02CCF1280C93
:102D100060FA0CF093EA122F04BF00EBC250704728
:102D20004FEAC3707047130A5FEADC1008BF7047B0
:102D3000F6E79CEA026F04D010EA5C0F08BF00209F
:102D4000704710B5FFF709FF40DFF63E81F0004005
:102D500070470CF00F03092B08BF082000F05180CA
:102D60000A2B0BD0082B18BF704708BF1CF0400F70
:102D70000AD04FF000004FF0000170471CF0400FE8
:102D800018BF4FF0004070471CF0100F08D020F023
:102D9000704300F07F4242EAD3014FEA437070472C
:102DA00000F0604021F07F4242EA000201F07F40E3
:102DB00040EA727070474FF0FF0212EAD0521CBF17
:102DC00092F0FF038B42C2BFD14200EBC15070476B
:102DD000002A0AD0002B0BD0002900F00040A4BF2D
:102DE00040F0FE4040F40000704700F000407047A3
:102DF00043024FF00B0C18BF4CF0806C7FF49EAD7B
:102E000070471CF4801F11D01CF4E02F03D06FEA30
:102E1000CC31490070474FF04050EFF3008222F070
:102E2000704242EA000282F3008870474FF00000CF
:102E30007047010202030405060708090A0B0C0D7E
:102E40000E0F10100000000000000000010203043B
:102E50000607080900000000010203047C2E000898
:102E600000000020340000006C010008B02E0008B3
:102E70003400002054080000880100080100000010
:102E80000000000000000000000000000000000042
:102E90000000000000000000000000000100000031
:102EA00010000000000000000024F40000000000FA
:0400000508000131BD
:00000001FF
