:020000040800F2
:1000000090080020ED010008392C00084D29000857
:10001000952B000887140008AD340008000000008C
:10002000000000000000000000000000D92E0008C1
:10003000F114000800000000B52D0008DB2E0008B8
:10004000070200080702000807020008070200086C
:10005000070200080702000807020008070200085C
:10006000070200080702000807020008070200084C
:10007000070200080702000807020008070200083C
:10008000070200080702000807020008070200082C
:10009000070200080702000807020008070200081C
:1000A000070200080702000807020008070200080C
:1000B00007020008070200080702000807020008FC
:1000C00007020008070200080702000807020008EC
:1000D000070200080702000835340008A1340008B0
:1000E00007020008070200080702000807020008CC
:1000F00007020008070200080702000807020008BC
:1001000007020008070200080702000807020008AB
:100110000702000807020008412F00080702000834
:10012000070200080702000807020008070200088B
:1001300000F002F800F04AF80AA090E8000C8244AF
:100140008344AAF10107DA4501D100F03FF8AFF28C
:10015000090EBAE80F0013F0010F18BFFB1A43F0A5
:1001600001031847C83F0000E83F0000103A24BFD1
:1001700078C878C1FAD8520724BF30C830C144BF0C
:1001800004680C607047000000230024002500264E
:10019000103A28BF78C1FBD8520728BF30C148BFEA
:1001A0000B607047662903F0F086642900F04C80EC
:1001B000002070471FB500F025FC0400002000213E
:1001C00003F0B0FAE0601FBD10B510BD00F032FDC5
:1001D0001146FFF7EFFF03F0D9F900F050FD03B42B
:1001E000FFF7F2FF03BC03F08DF9000009488047D8
:1001F00009480047FEE7FEE7FEE7FEE7FEE7FEE709
:10020000FEE7FEE7FEE7FEE704480549054A064B20
:10021000704700003D2F00083101000890020020C7
:1002200090080020900400209004002070470000F7
:100230000FB4044910B503AA029800F09FFB10BC4C
:100240005DF814FB1C0000202DE9F0410646002457
:1002500010687529314616A510D0AFF3008000282C
:1002600002DA404213A507E031688A0701D512A5DA
:1002700002E0490704D511A5012401E0AFF3008095
:1002800000210A2206F1240709E0B0FBF2FCB0FBD2
:10029000F2F302FB1C00303078541846491C002849
:1002A000F3D123462A463046BDE8F04100F0FFB8BE
:1002B000000000002D0000002B00000020000000C6
:1002C0002DE9F0474FF0000A89460446C0F820A007
:1002D0002046E1688847002876D0252806D0D4E952
:1002E00001219047206A401C2062F1E7E168204626
:1002F00000258847C4F81CA006460027C4F818A0AB
:100300002A2E09D0304603F0F6F838B304EB8708FC
:10031000303EC8F8186019E059F8041B204604EB79
:1003200087029161E1688847012F064618D1E0698C
:10033000002820DA25F020051DE0D8F8180000EB91
:10034000800006EB40003038C8F818002046E1680D
:100350008847064603F0CFF80028EED1012F0AD0D7
:100360002E2E08D12046E16888477F1C0646022FC2
:1003700045F02005C4DBA069002803DA404245F0BF
:100380000105A061E80701D025F01005B6B1A6F17E
:100390004100192802D8203645F400654A46314606
:1003A000204625604D46FFF7FDFE58B1012806D0D6
:1003B000ED1D25F0070000F1080989E704E005F1CB
:1003C000040985E730468AE7206ABDE8F087032AFA
:1003D00040F2308010F0030C00F0158011F8013B62
:1003E000BCF1020F624498BF11F801CB00F8013B49
:1003F00038BF11F8013BA2F1040298BF00F801CB0D
:1004000038BF00F8013B11F0030300F0C982083A3D
:10041000C0F0088051F8043B083A51F804CBA0E83A
:100420000810F5E7121D5CBF51F8043B40F8043B8F
:10043000AFF30080D20724BF11F8013B11F801CBC4
:1004400048BF11F8012B24BF00F8013B00F801CB95
:1004500048BF00F8012B70474FF0000200B513466B
:1004600094469646203922BFA0E80C50A0E80C50D4
:10047000B1F12001BFF4F7AF090728BFA0E80C5085
:1004800048BF0CC05DF804EB890028BF40F8042B7E
:1004900008BF704748BF20F8022B11F0804F18BFEB
:1004A00000F8012B704770477047704770472DE97F
:1004B000F0470D4699469246044600F1240801682B
:1004C000880604D5E06921F01001216000E00120D8
:1004D000A84201DD471B00E00027A1697A1902EB61
:1004E0000900081AA0612078C00602D42046AFF3A4
:1004F0000080002608E0D4E901211AF806009047A0
:10050000206A401C761C20624E45F4DB2078C00631
:100510000AD52046AFF3008006E0D4E9012130205F
:100520009047206A401C2062381EA7F10107F4DCC6
:1005300007E0D4E9012118F805009047206A401C23
:100540002062281EA5F10105F3DC2046AFF30080F0
:100550002078000602D50220BDE8F0870120FBE7E5
:1005600070472DE9FF4F0C461E464FF0FF378BB00A
:10057000D2E90001DDF860800A908A46C1F30A558D
:1005800005B93D46002108464FF00000BAF1000FC2
:1005900000F4400005DA00EB80004FF4400101EA6E
:1005A00050004FEA9059B9F1010F00DDB9460A98A1
:1005B00050EA4A000ED044F61050A5F2FF354543EC
:1005C0002F14B8F1000F1ED07542291E1EDDC9F18F
:1005D00000021CE0B8F1010F4FF0000001D0302103
:1005E00003E0F24305E02154401CB042FBDB3046FF
:1005F0000022002121540B99C1F80880C1E9002094
:100600000FB0BDE8F08FBD1B6D1CDEE74A4600DA77
:10061000694206A800F098FA06AB93E8070003AB1E
:1006200083E8070050460A9900F072FB8DE8070046
:10063000A0F500501F3800900398002D09DD42F20C
:100640001F014A46084403A90390684600F0D1FD03
:1006500008E0A0F500504A461F3803A903906846F9
:1006600000F0DBFD8DE807000004000C03D04FF024
:10067000FF30410800E01046B8F1000F03D000221F
:10068000009215461EE0751E05D400F0BFF9303209
:1006900062556D1EF9D5B3460122084302D00022EF
:1006A0007F1C04E02078302801D100227F1E002A20
:1006B000099786D01DE0112D07DA00F0A7F9303236
:1006C00062556D1C50EA0102F5D1084302D0009832
:1006D000C8B10EE00021681E05E0235C625C635433
:1006E0002254401E491C8142F7DBAB46A81B401E2A
:1006F0000990002004F80B000B98099AC0F80880B4
:10070000C0E9002B7CE711264FF0000859E72DE9DE
:10071000F04F88460446D21D22F0070191B0D1E97E
:100720000001CDE90A0102F0C2FE02460B98C00F9B
:1007300001D02D2007E02068810701D52B2002E0A1
:10074000202101EAC000032A099001D0072A05DB15
:1007500003464146204600F0B7F90BE120788006B9
:1007600001D5E06900E00620B8F1650F814606D0AA
:10077000B8F1660F18D0B8F1670F70D131E00020E2
:10078000B9F1110F009001DB112301E009F1010320
:100790000AAA01A90CA8FFF7E4FEDDE90C70002607
:1007A00009F10105834647E001204B4600904FF0D8
:1007B00000470AAA01A90CA8FFF7D3FEDDE90DB096
:1007C0000C995D46002610B909F101000D18B9EB2E
:1007D000050003D4C0F1FF3609F10105A5EB0900BE
:1007E0002BE0B9F1010F01DA4FF001090020B9F156
:1007F000110F0090484601DD112300E003460AAACC
:1008000001A90CA8FFF7ADFEDDE90C704D460026EE
:100810008346207800070AD4AB4500DA5D4601A87C
:10082000012D04DD411911F8011C302907D04F4575
:1008300002DA17F1040F04DA012082460FE06D1E80
:10084000EEE7002F02DCED1B3E4403E0781CA842DB
:1008500000DD7D1CB81B00F1010A4FF00047207835
:10086000000703D4AA4501DB4FF0FF3A0021B7F19E
:10087000004F0DF143088DF8431024D002202B23A4
:10088000002F01DA7F422D230A21021EA0F1010070
:1008900000DC5FB197FBF1FC97FBF1F201FB1C7CE4
:1008A00017460CF1300C08F801CDEEE7A8F1010075
:1008B00003702188090501D5452100E06521A0F1DB
:1008C000010800F8011C09980FA9A1EB0807FF1DFA
:1008D00000B10120411901EBEA70A1693844081AFE
:1008E000401EA0612078C00602D42046AFF30080ED
:1008F000099828B1D4E901219047206A401C206260
:100900002078C00622D52046AFF300801EE0002EDE
:1009100004DBB34502DD01A8805D00E03020D4E9AE
:1009200001219047206A401C2062761CAAF1010038
:100930005FEA000A0AD100F065F8C0680168405C0F
:10094000D4E901219047206A401C2062281EA5F1AD
:100950000105DCDC07E0D4E9012118F8010B904720
:10096000206A401C2062381EA7F10107F3DC2046F4
:10097000AFF30080032011B043E60000074B70B5D1
:100980000D467B4400F08DF80446284600F04AF9F5
:1009900010B14FF0FF3070BD204670BDEF2B00004E
:1009A00010B5203AC0F00B80B1E81850203AA0E80A
:1009B0001850B1E81850A0E81850BFF4F5AF5FEA3E
:1009C000027C24BFB1E81850A0E8185044BF18C9F1
:1009D00018C0BDE810405FEA827C24BF51F8043B98
:1009E00040F8043B08BF7047D20728BF31F8023BEC
:1009F00048BF11F8012B28BF20F8023B48BF00F880
:100A0000012B7047004870475002002030B5B0F10C
:100A10000A024FEA900E71F100034EEA817EB0EBBC
:100A20000E0061EB91014FEA101E4EEA017E10EBC1
:100A30000E0041EB11114FEA102E4EEA016E10EB41
:100A40000E0041EB11214FEA104E4EEA014E10EB21
:100A50000E0041EB1141401841F100014FEAD00076
:100A600040EA41704FEAD10110EB80054FEA810462
:100A700044EA907444EB01046D1944EB0404521BE6
:100A8000A3414FF0000348BF0A3200D530BD401CDF
:100A900041F1000130BD000001694A1C0261087883
:100AA000704700B58FB0CDE90131002105910549AE
:100AB0007944CDE9031011466846FFF701FC0FB0F9
:100AC00000BD0000E5FFFFFF2DE9F0411F46044691
:100AD00003260168072A01F4006004DB08B116A5AB
:100AE00005E016A503E008B115A500E015A521F065
:100AF00010002060A069C01EA0610FB1401EA0615F
:100B00002046AFF300804FB1D4E901213846904729
:100B1000206A401C2062C01C206206E0206AFAE7BE
:100B2000D4E9012115F8010B9047761EF8D2204632
:100B3000AFF30080BDE8F0814E414E006E616E0063
:100B4000494E4600696E66002DE9F047814616461B
:100B50008AB0334878440DC88DE80D003048784499
:100B6000801C03AC0DC884E80D0041F69B3008449E
:100B7000372190FBF1F290FBF1F5A5F1800501FB27
:100B800012041B3C02D56442012000E00020DFF883
:100B900090A080460027FA44AAF1BE0A0DE0E007C3
:100BA00009D03246684607EB47010AEB810100F0A5
:100BB00034FB8DE8070064107F1C002CEFD1184F28
:100BC0007F44AC3F18E0E80714D007EB04100DF1A8
:100BD000180A90E80E008AE80E00C068F04201D1C1
:100BE00098190890324606A903A800F016FB03AB3B
:100BF00083E807006D10641C002DE4D1324669467D
:100C0000B8F1000F03A802D000F0F3FA01E000F001
:100C100004FBC9E90001C9F808200AB0BDE8F08763
:100C2000BC350000007B00F0800070470048704732
:100C3000300200207546FFF7F9FFAE460500694611
:100C4000534620F00700854618B020B5FFF7DCFAC0
:100C5000BDE820404FF000064FF000074FF00008BD
:100C60004FF0000B21F00701AC46ACE8C009ACE83E
:100C7000C009ACE8C009ACE8C0098D46704710B5A2
:100C80000446AFF300802046BDE81040FFF7A7BA46
:100C90004FF0013C50F8042B51F8043B9A4221D10B
:100CA000A2EB0C03934313EACC1317D150F8042B97
:100CB00051F8043B9A4215D1A2EB0C03934313EA7B
:100CC000CC130BD150F8042B51F8043B9A4209D1B4
:100CD000A2EB0C03934313EACC13DBD04FF00000DC
:100CE000704700BFD01A01BAB1FA81F101F01801C2
:100CF00022FA01F0CB40C1F12001DBB2C0B2C01A30
:100D00002CFA01F3D11A914311EAC311E6D17047CD
:100D10005FEA400C08BF91F0000F4FEA8C234FEAC6
:100D2000C12243EA51514FEA1C5018BF00F5F04070
:100D30004FEA300018BF41F000415FEA6C5C00F000
:100D40002980BCF1FF3F08BF40F080407047130C82
:100D500006BF12044FF0100C4FF0000C130E04BF2E
:100D600012020CF1080C130F04BF12010CF1040C59
:100D7000930F04BF92000CF1020CD30F04BF52007A
:100D80000CF1010C11464FF00002A0F11F00A0EB86
:100D90000C00704711F0004F08BF704731F0004160
:100DA0003FF4D5AF0B0C06BF09044FF0100C4FF009
:100DB000000C0B0E04BF09020CF1080C0B0F04BF52
:100DC00009010CF1040C8B0F04BF89000CF1020C1B
:100DD000CB0F04BF49000CF1010CCCF12003A0EBB8
:100DE0000C0022FA03F302FA0CF241EA030100F1CB
:100DF0000100704720F07F4C80EA030023F07F471A
:100E0000ACEB070303F57C5300F0004003F1FF0354
:100E10002DE980494FEA154B09B44FEA144325EAFE
:100E20000B4E24EA03480FF2042606EB1327490869
:100E30003E785FEA320203FB0667C7F5000707FB4F
:100E400006F64FEA54374FEAD64606F1020607FB8C
:100E5000066CCCF1005C4FEA1C472CEA074C07FB00
:100E600006F40CFB06F504EB15464FEA961634BF64
:100E700000204FF000404FEAD13706FB07FC4FEA55
:100E80001C4C0CFB0BF7D21B03FB0CF761EB0701AF
:100E90000CFB0EF7B0EB074072EB17420CFB08F7A8
:100EA00034BFA2EB0742B2EB074261EB17414FEAB6
:100EB0000C444FEA910706FB07FC4FEA1C4C0CFB65
:100EC0000BF7B0EBC74072EB573203FB0CF734BFA4
:100ED000A2EBC742B2EBC74261EB57310CFB0EF7F6
:100EE000B0EBC70072EB57720CFB08F734BFA2EBF4
:100EF000C702B2EBC70261EB5771039F4FEA8161F2
:100F000041EA921104EBCC044FEAD1374FEA8262F6
:100F100006FB07FC42EA90124FEA80604FEA1C4C45
:100F20000CFB0BF7D21B03FB0CF761EB07010CFB6F
:100F30000EF7B0EB074072EB17420CFB08F734BF1B
:100F4000A2EB0742B2EB074261EB17414FEA8C5527
:100F50004FEA910704EB9C2406FB07FC4FEA1C4C6C
:100F60000CFB0BF7B0EBC74072EB573203FB0CF7EF
:100F700034BFA2EBC742B2EBC74261EB57310CFB67
:100F80000EF7B0EBC70072EB57720CFB08F734BFDB
:100F9000A2EBC702B2EBC70261EB577115EB4C2510
:100FA0004FEA816141EA92114FEA82624FEAD137FA
:100FB00042EA901206FB07FC44F100044FEA80600D
:100FC0004FEA1C4C0CFB0BF7D21B03FB0CF761EB3D
:100FD00007010CFB0EF7B0EB074072EB17420CFB5E
:100FE00008F734BFA2EB0742B2EB074261EB1741AF
:100FF00015EB1C154FEA813141EA92414FEA8232EA
:1010000042EA90424FEA80304FEA0C7644F1000405
:1010100048EA03434EEA0B484FF0000EB2EB080CCF
:1010200071EB030724BF624639464EEB0E0E4FF0BC
:10103000000B0018524149414BEB0B0BB2EB080C73
:1010400071EB03077BF1000B24BF624639464EEB80
:101050000E0E4FF0000B0018524149414BEB0B0BA9
:10106000B2EB080C71EB03077BF1000B24BF624667
:1010700039464EEB0E0E51EA020718BF46F0010644
:1010800016EB0E7655F1000254F1000103D5BDE8D0
:101090008901BDE80088BDE88901BDE80048B619AE
:1010A000524141EB0101A3F10103704780807F7E33
:1010B0007D7C7B7A797877767675747372717170CE
:1010C0006F6E6E6D6C6C6B6A6A6968686766666580
:1010D0006464636362616160605F5F5E5E5D5D5C0E
:1010E0005C5B5B5A5A59595858575756565555557F
:1010F0005454535352525251515050504F4F4F4EDF
:101100004E4D4D4D4C4C4C4B4B4B4A4A4A4949492C
:10111000484848474747474646464545454444446E
:10112000444343434342424242414141002B26D47F
:10113000770021D01CB54FEA370703B44FF01000F9
:101140004FF010014FF000000FBCBDE810400BF154
:10115000010BBBF1010F08BF5FEA170722BF12F1B5
:10116000010211F101014FF0004143F1000300F0D1
:10117000004043EA00007047F9D35708DAE746EA2F
:10118000064613F1400F4FEA16461FDD13F1200FFC
:10119000DFBF16430A46002120335B42C8D0C3F1AB
:1011A000200746EA064602FA07F74FEA164646EADD
:1011B0000706C3F1200722FA03F201FA07F721FA22
:1011C00003F14FF0000342EA0702B1E746EA0206E4
:1011D00046EA06464FEA164646EA0106BCBF46EA1C
:1011E0000646360C4FF000034FF000024FF00001AE
:1011F0009EE72DE9C048934630B491E8380007C80F
:1012000031EA400C48BF34EA430C03D5FFF7F2FD46
:10121000FFF78CFFF0BCBDE800882DE9C04893467D
:1012200030B491E8380007C810F0804F08BF13F0C1
:10123000804F03D100F005F8FFF778FFF0BCBDE860
:10124000008820F07F4780EA030023F07F4C07EB03
:101250000C03A3F57C5300F00040A3F1FE0392F0D1
:10126000000F00F0B38095F0000F00F077802DE9BB
:1012700001494FEA11404FEA144621EA004800FBB9
:1012800006FC24EA064708FB06F607FB08F800FB05
:1012900007F718EB06484CEB164C4FEA124B18EBCD
:1012A00007484FEA15464CEB174022EA0B4E0BFB62
:1012B00006FC25EA06470EFB06F607FB0EFE0BFBB7
:1012C00007F71EEB064E4CEB164C4FF000061EEBDC
:1012D000074E4CEB174B18EB0B0840F1000018EBD6
:1012E0000E0B58EB000840F100008F1A4FF0000180
:1012F0003CBFC943661B14BFB5EB040C00213CBFC7
:10130000C943F61B4FEA17444EEA8E0E27EA0445FE
:101310004FEA1C4704FB07622CEA074C05FB07F762
:101320000CFB05F604FB0CFC16EB074642EB1742E0
:1013300016EB0C4642EB1C421BEB060658EB020276
:10134000414146EA9E0601D5BDE80189B6195241E0
:1013500041EB0101A3F10103BDE801894FEA144506
:101360004FEA114724EA054621EA074C05FB07F43A
:1013700006FB07F70CFB06F105FB0CFC11EB074124
:1013800044EB17444FEA124711EB0C4144EB1C4469
:1013900022EA074C05FB07F206FB07F70CFB06F6F3
:1013A00005FB0CFC16EB074642EB174216EB0C460E
:1013B00042EB1C456A1854F1000148BF7047B6194A
:1013C000524141EB0101A3F10103704795F0000F79
:1013D00037D04FEA11424FEA144721EA024624EA85
:1013E000074C02FB07F106FB07F70CFB06F402FBB8
:1013F0000CFC14EB074441EB17414FEA154714EB83
:101400000C4441EB1C4125EA074C02FB07F506FBA7
:1014100007F70CFB06F602FB0CFC16EB074645EB48
:10142000174516EB0C4645EB1C42121951F1000111
:1014300048BF7047B619524141EB0101A3F10103C6
:1014400070474FEA14454FEA114724EA054621EA5E
:10145000074C05FB07F106FB07F70CFB06F24FF004
:10146000000605FB0CFC12EB074241EB174112EBA7
:101470000C4251EB1C4148BF7047921841EB0101EF
:10148000A3F101037047FEE72DE9F04105460C4644
:10149000084602F0B5FB696802F02AFB23D0688990
:1014A000A04202D3A889A04200D90446288902F0AC
:1014B000A7FB8046204602F0A3FB696807460E465C
:1014C00002F0EEFCB0F5000F05DA604202F080FB9E
:1014D000314602F0E5FC414602F0A6FB03D220466D
:1014E0006F60BDE8F081686802F052FB80B2F8E7F7
:1014F000704772B6FEE710B590F82110002202295D
:1015000005D00421816380F82020012010BD0168EE
:101510000B6823F00E030B6001680B6823F00103D6
:101520000B6090F84030C46B012101FA03F3636053
:1015300080F8211080F82020104610BD2DE9F05FC2
:1015400090F821100024022903D004218163012492
:1015500085E001680A6822F00E020A6001680A68E4
:1015600022F001020A603F4E3E4FB215DFF8F4C090
:10157000DFF8F090DFF8ECA0DFF8E8B0DFF8E4E0A7
:101580000168783F13011502ACF1640CA9F1500910
:10159000AAF13C0AABF1280BAEF1140E4FF48018FF
:1015A000B14227D9B9420ED0614512D049451DD06C
:1015B000514518D0594518D0714501D1424615E022
:1015C000294EB14201D1012210E0274E1436B1421A
:1015D00001D110220AE0244E2836B14206D0224A18
:1015E0003C32914201D11A4600E02A461E49091FA9
:1015F0000A602BE0B94213D0614517D0494522D08B
:1016000051451DD059451DD0714501D142461AE0C2
:10161000B14202D14FF0807215E0134EB14201D1B8
:10162000012210E0104E1436B14201D110220AE01E
:101630000D4E2836B14206D00B4A3C32914201D1C0
:101640001A4600E02A46074980394A60012180F89D
:101650002110002180F82010416B01B188472046FD
:10166000BDE8F09F80000240080402402DE9F84FD9
:10167000DFF8C8910024A9F1040B23460F2709F1D4
:10168000040AABF1040ED1E00125A54006EA0502EB
:10169000AA4276D1DFF8A8C14E68A6EB0C086645D1
:1016A0002BD00DDC032E34D005DC36B3012E19D03F
:1016B000022E2FD11BE0112E16D0122E2AD119E0A6
:1016C000B8F5881F19D006DCB8F5803F15D0B8F5FD
:1016D000801F1FD111E0B8F5001F0ED0B8F5041F10
:1016E00018D10AE0CB6815E0CB681B1D12E0CB686F
:1016F00008330FE0CB680C330CE08B682BB1012B67
:101700004FF0080303D0456104E0042302E00561C3
:1017100000E00023FF2A01D8064601E000F104069C
:101720004FEA840501D9A5F12005D6F8008007FA13
:1017300005FC28EA0C0803FA05F548EA0508C6F88E
:1017400000804D68ED0070D53E4DAE6946F0010653
:10175000AE61AD6924F0030605F0010500953A4D30
:1017600006EB050CDCF80850A607360F07FA06F85A
:1017700025EA0805DFF8D480404503D14FF0000882
:1017800025E052E0DFF8C880404502D14FF0010863
:101790001DE0DFF8C080404502D14FF0020816E09E
:1017A000DFF8B480404502D14FF003080FE0DFF8C6
:1017B000AC80404502D14FF0040808E0DFF8A0807B
:1017C000404502D14FF0050801E04FF0060808FA45
:1017D00006F848EA0508CCF808804D68D9F800609A
:1017E000ED024D4601D5164300E096432E604D684C
:1017F000DAF80060AD02554601D5164300E0964385
:101800002E604D68DBF80060AD035D4601D51643E0
:1018100000E096432E604D68DEF80060ED037546EB
:1018200001D5164300E096432E60641C0A681646F4
:10183000E2407FF429AFBDE8F88F000008040140C2
:10184000000011100010024000000140000801409B
:10185000000C01400010014000140140001801403C
:10186000001C0140C26821EA02030A4043EA024127
:10187000016170470AB1016170470904FBE700008C
:1018800001488068704700002400002002488168F9
:10189000027811448160704724000020074810B589
:1018A000016841F010010160032000F079F8002088
:1018B00000F006F800F024F8002010BD00200240DF
:1018C00070B50D4D04464FF47A712878B1FBF0F0F5
:1018D0000A490968B1FBF0F000F0E0FA48B9102CB1
:1018E00007D200222146501E00F03AF800206C601A
:1018F00070BD012070BD00002400002030000020D9
:101900000E4808B5816941F001018161816901F0EA
:1019100001010091C16941F08051C161C06900F0CD
:1019200080500090052000F03BF80548416821F008
:10193000E06141F00071416008BD0000001002400C
:1019400000000140002809DB00F01F020121914046
:101950004009800000F1E020C0F80011704700004D
:10196000F0B40E4B1B680C46C3F30223C3F107050A
:10197000042D00D90425191D072901D2002300E0F8
:10198000DB1E012606FA05F1491E214099409E40C2
:10199000761E16403143F0BC01F09DBD0CED00E019
:1019A000064900F0070208684FF6FF03184040EAB6
:1019B0000220034A10430860704700000CED00E06D
:1019C0000000FA052DE9F0470F46050061D0434EAF
:1019D000306800F00700B84209D2306820F00700F4
:1019E00038433060306800F00700B84251D12868B1
:1019F0003B4C810712D5400703D5606840F4E06096
:101A000060602878000703D5606840F4605060602B
:101A10006068A96820F0F000084360602878C0077B
:101A200028D06868012810D02168022810D08907C2
:101A300000292EDA616821F0030101436160FFF79C
:101A40001FFF804641F288390DE021688903EFE7E6
:101A50008901EDE7FFF714FFA0EB0801494502D922
:101A60000320BDE8F0876068696800F00C00B0EB07
:101A7000810FEFD1306800F00700B8420BD9306811
:101A800020F0070038433060306800F00700B842AB
:101A900001D00120E5E72878400705D56068E968AE
:101AA00020F4E060084360602878000706D560688D
:101AB000296920F4605040EAC100606000F038F805
:101AC0006168084AC1F30311515CC84006490860C7
:101AD00006480068FFF7F4FE0020C2E7002002403D
:101AE0000010024080400008300000202800002044
:101AF0000448054900684968044AC1F30221515C61
:101B0000C84070473000002000100240904000089C
:101B10000448054900684968044AC1F3C221515C80
:101B2000C84070473000002000100240904000087C
:101B30000E4A51680E4801F00C03042B11D0082BFB
:101B40000FD10C48C1F38343C903C05C0AD5516867
:101B5000084AC1F34041921E515C054A5043B0FB14
:101B6000F1F07047044948437047000000100240FC
:101B700000127A007040000800093D002DE9F84F7E
:101B8000040070D02078C04DC00749D06868C0F309
:101B90008100012807D06868C0F38100022809D1BC
:101BA0006868C00306D52868800339D560680028B6
:101BB000E7D035E06068B0F5803F0BD010B1B0F5EC
:101BC000A02F11D0286820F480302860286820F4E5
:101BD000802002E0286840F480302860606890B17E
:101BE000FFF74EFE06460AE0286840F48020286091
:101BF000F0E700BFFFF744FE801B642873D8286815
:101C00008003F7D50CE0FFF73BFE064605E000BF7A
:101C1000FFF736FE801B6428F0D828688003F7D4CD
:101C200020789A4E80074FF001094FF0000839D50F
:101C3000686810F00C0F07D06868C0F381000228B4
:101C400009D16868C00306D42868800714D52069C4
:101C5000012808D110E02069B0B1C6F80090FFF764
:101C60000FFE074605E00AE1FFF70AFEC01B022847
:101C7000C4D828688007F7D52868616920F0F80083
:101C800040EAC10028600DE0C6F80080FFF7F8FDCB
:101C9000074604E0FFF7F4FDC01B022823D828689C
:101CA0008007F7D4207800072CD57948A169D9B1ED
:101CB000C0F80090FFF7E4FD074604E0FFF7E0FD01
:101CC000C01B02280FD8686A8007F7D571484FF407
:101CD000FA510068B0FBF1F0009000BF0098411E7F
:101CE0000091FAD20EE080E0C0F80080FFF7C8FD56
:101CF000074604E0FFF7C4FDC01B022875D8686AD8
:101D00008007F7D42078400760D5E8690027C00035
:101D100008D4E86940F08050E861E869012700F0E4
:101D2000805000905C480168C90513D4016883465F
:101D300041F480710160FFF7A3FD824606E000BF19
:101D4000FFF79EFDA0EB0A0064284ED8DBF80000E8
:101D5000C005F5D5E06801280AD008B1052813D0E0
:101D6000286A20F001002862286A20F0040002E0BE
:101D7000286A40F001002862E06841F2883B98B18F
:101D8000FFF77EFD82460BE0286A40F004002862DF
:101D9000EEE700BFFFF774FDA0EB0A0159455AD8E2
:101DA000286A8007F6D50CE0FFF76AFD824605E059
:101DB000FFF766FDA0EB0A0159454CD8286A800759
:101DC000F6D41FB1E86920F08050E861E06988B37B
:101DD0006968C1F38101022944D00228C6F86080F5
:101DE00004D0FFF74DFD044638E034E0FFF748FD2E
:101DF000074604E0FFF744FDC01B02282BD82868E3
:101E00008001F7D4206AB0F5803F05D16868A168E9
:101E100020F4003008436860D4E908010843696889
:101E200021F4741108436860C6F86090FFF728FD3C
:101E3000044606E025E000BFFFF722FD001B022854
:101E400009D828688001F7D51BE000BFFFF718FD0F
:101E5000001B022802D90320BDE8F88F2868800102
:101E6000F4D40EE00128F7D06868226A00F48031CB
:101E7000914204D1616A00F47010884201D00120BF
:101E8000EAE70020E8E700000010024000004242BC
:101E900080044242300000200070004010B5401E17
:101EA000B0F1807F01D3012010BD4FF0E0246061CC
:101EB0000F21601701F00FFB0020A06107202061B7
:101EC000002010BD7047704770B590F83C20012A83
:101ED0002CD0012480F83C40022280F83D20036889
:101EE0005A689D6822F070060A6832435A60104BA7
:101EF00002689A420ED00F4B9A420BD0B2F1804F3B
:101F000008D00D4B9A4205D00C4B9A4202D00C4B94
:101F10009A4204D1496825F080031943916080F802
:101F20003D40002180F83C10084670BD022070BD85
:101F3000002C014000340140000400400008004033
:101F4000000C004010B5040003D094F83D0010B11F
:101F500007E0012010BD002084F83C00204600F07E
:101F60001FF8022084F83D00211D206800F0EEFFDC
:101F7000012084F8460084F83E0084F83F0084F88D
:101F8000400084F8410084F8420084F8430084F85B
:101F9000440084F8450084F83D00002010BD000096
:101FA00008B5114A01681148914208D1C16941F050
:101FB0000201C161C06900F00200009008BD0C4A36
:101FC0009142FBD1C16941F01001C161C069002299
:101FD00000F01000009011463620FFF7C1FCBDE86C
:101FE00008403620FFF7AEBC00040040001002405D
:101FF0000010004090F83D10012901D001207047E9
:10200000022180F83D100168CA6842F00102CA60EE
:1020100000680E4988420ED00D4988420BD0B0F1BD
:10202000804F08D00B49884205D00B49884202D026
:102030000A49884204D1816801F00701062903D0CA
:10204000016841F00101016000207047002C01404F
:10205000003401400004004000080040000C004033
:1020600070B5044690F83C000025012817D00126E1
:1020700084F83C60022084F83D002068826822F0E9
:10208000770222F47F4282600868502838D00DDC45
:1020900020284FD005DC90B3102811D14AE002204F
:1020A00070BD302846D040280AD13BE060282FD0B0
:1020B00070280DD0B0F5805F03D0B0F5005F12D06E
:1020C000012584F83D60002084F83C00284670BD5E
:1020D000CB68D1E90121206800F08BFF206881687E
:1020E00041F0770109E0CB68D1E90121206800F0D7
:1020F00080FF2068816841F480418160E1E719E058
:10210000CA684968206801F049F85021206806E053
:10211000CA684968206801F052F86021206800F020
:1021200072FFCEE7CA684968206801F037F840219D
:102130002068F4E7226801461046F0E7704770B562
:102140000446006801694FF00005C943890715D4AA
:10215000C168C943890711D4E91E016101202077B4
:10216000206880698007204602D0FFF7E7FF04E07F
:1021700000F0BEF8204600F050F92577206801698C
:10218000C943490717D4C168C943490713D46FF03D
:1021900004010161022020772068806910F4407FEB
:1021A000204602D0FFF7CAFF04E000F0A1F8204665
:1021B00000F033F9257720680169C943090716D46F
:1021C000C168C943090712D46FF0080101610420F6
:1021D00020772068C0698007204602D0FFF7AEFF55
:1021E00004E000F085F8204600F017F92577206814
:1021F0000169C943C90617D4C168C943C90613D4C4
:102200006FF010010161082020772068C06910F488
:10221000407F204602D0FFF791FF04E000F068F80D
:10222000204600F0FAF8257720680169C943C907FC
:1022300008D1C168C943C90704D1891E016120467C
:1022400000F046F920680169C943090609D4C1684C
:10225000C943090605D46FF0800101612046FFF7EC
:1022600031FE20680169C943490609D4C168C943E0
:10227000490605D46FF040010161204600F034F9B1
:1022800020680169C94389060BD4C168C94389061E
:1022900007D46FF0200101612046BDE87040FFF7D0
:1022A00012BE70BD00B585B0002100910191029170
:1022B000039100680B49884212D10B48816941F0B3
:1022C000040181618069694600F004000490C02027
:1022D000009002200190032003900448FFF7C6F904
:1022E00005B000BD0004004000100240000801409D
:1022F000704770B5044690F83C0000260D46012852
:102300000FD0012084F83C006AB1042A1DD0082AAD
:102310002FD00C2A3FD00126002084F83C00304604
:1023200070BD022070BD206800F076FE20688169D3
:1023300041F0080181612068816921F00401816117
:10234000206881692A69114311E0206800F094FE39
:102350002068816941F4006181612068816921F40C
:1023600080618161206881692A6941EA0221816175
:10237000D2E7206800F0B6FE2068C16941F008018C
:10238000C1612068C16921F00401C1612068C1698F
:102390002A69114311E0206800F0D8FE2068C16965
:1023A00041F40061C1612068C16921F48061C161AB
:1023B0002068C1692A6941EA0221C161ACE710B510
:1023C000040003D094F83D0010B107E0012010BDD7
:1023D000002084F83C00204600F01EF8022084F81B
:1023E0003D00211D206800F0B1FD012084F8460069
:1023F00084F83E0084F83F0084F8400084F84100EF
:1024000084F8420084F8430084F8440084F84500CE
:1024100084F83D00002010BD7047704710B5044699
:10242000022249B104290ED0082913D094F84100A2
:10243000012816D0012010BD94F83E000128F9D1E2
:1024400084F83E200FE094F83F000128F2D184F890
:102450003F2008E094F840000128EBD184F84020A8
:1024600001E084F841200122206800F0B5FD134905
:102470002068134A884201D0904203D1436C43F450
:1024800000434364206888420DD090420BD0B0F1E5
:10249000804F08D00B49884205D00B49884202D0B2
:1024A0000A49884204D1816801F00701062903D056
:1024B000016841F001010160002010BD002C0140C5
:1024C000003401400004004000080040000C0040BF
:1024D0000349884203D10348006800F05DBB7047A0
:1024E000440100201800002070477047704700002A
:1024F000F8B5016804460868CA684B6910F00F0F08
:102500004FF000055AD003F0010602F490773743EC
:1025100065D0C10705D0D10503D5616C41F001013B
:102520006164410705D5D90703D0616C41F0020110
:102530006164810705D5D90703D0616C41F00401BE
:102540006164010707D502F02001314303D0616CBB
:1025500041F008016164616C00293BD0800604D51C
:10256000900602D5204600F06BFE20684069616C41
:10257000C0F3801001F00801014320462BD000F089
:1025800038FE20684069400621D52068143050E8A4
:10259000001F21F0400140E80012002AF5D1E06B55
:1025A000A8B16D494163E06BFEF7C8FF002811D068
:1025B000E06B416B01B0BDE8F040084783060ED5E3
:1025C00093060CD52046BDE8F84000F039BE204601
:1025D000FFF78CFFF8BDFFF789FF6564F8BD266B38
:1025E0002023012E7CD1C6067AD5D60678D5086878
:1025F0004868009048694FF00206400640D5E16BFC
:10260000086840680004000CE8D0A28D8242E5D939
:10261000E085886920282DD020680C3050E8001F04
:1026200021F4807140E80012002AF5D121681431AC
:1026300051E8000F20F0010041E80002002AF5D126
:102640002068143050E8001F21F0400140E80012DB
:10265000002AF5D184F84230256320680C3050E818
:10266000001F21F0100140E80012002AF5D1E06BB4
:10267000FEF741FF6663A08DE18D401A81B22AE02A
:10268000A08DE18D401A81B2E08D0028A6D00029EE
:10269000A4D022680C3252E8000F20F4907042E877
:1026A0000007002FF5D12068143050E8002F22F0E9
:1026B000010240E80027002FF5D184F8423025635D
:1026C00020680C3050E8002F22F0100240E8002370
:1026D000002BF5D166632046FFF707FFF8BDFFE743
:1026E00005062BD5150629D594F841002128F5D1EA
:1026F000A068B0F5805F01D12069B0B1206A411CAB
:102700002162216800784860E08C401E0004000CC3
:10271000E084E3D12068C16821F08001C1602068B5
:10272000C16841F04001C160D8E7206A0088C0F369
:1027300008004860206A801C2062E5E74006CDD58D
:102740005006CBD5CA68204622F04002CA6084F801
:10275000413000F0FAF8C1E7E331000870B5040039
:1027600004D094F84100002510B106E0012070BDAE
:1027700084F84050204600F023F8242084F84100DB
:102780002068C16821F40051C160204600F0BAFD04
:102790002068016921F4904101612068416921F0BC
:1027A0002A0141612068C16841F40051C16065643B
:1027B000202084F8410084F842006563002070BD49
:1027C00030B585B0002400940194029403942E4DFA
:1027D00003682E4802210322AB4227D1C36943F488
:1027E0000033C361C36903F400330493836943F086
:1027F000040383618069264D00F0040004900420E6
:10280000CDE90001039269462846FEF72FFF082014
:10281000CDE90004694628460294FEF727FF01220D
:1028200000212620FFF79CF8262029E0194DAB4215
:1028300028D1C36943F48023C361C36903F48023AF
:102840000493836943F0080383618069039200F075
:10285000080004902815CDE900010F4D694628466F
:10286000FEF704FFE814CDE9000469462846029407
:10287000FEF7FCFE002211462720FFF771F8272003
:10288000FFF760F805B030BD004400400010024082
:102890000008014000480040000C01402DE9F843C9
:1028A000044690F84200994616460D46202802D06C
:1028B0000220BDE8F883ADB1A6B1002060642221FA
:1028C00084F842102063FEF7DBFFA6858046E6858C
:1028D000A0684FF48057B84201D1206920B12E463C
:1028E000002526E00120E4E7002622E043460022FE
:1028F00020212046CDF8009000F060FD08B10320B3
:10290000D7E726B1A068B8421BD038B108E02068EC
:102910004068C0F3080025F8020B07E0206980B189
:102920002068406800F07F0006F8010BE08D401E33
:10293000E085E08D0028D9D1202084F842000020D5
:10294000B7E720684068EFE770477047FEE700226E
:10295000134601E08354521C8A42FBDB704700009F
:102960002DE9F04385B00020009001900290039083
:102970002D48816941F040018161816901F0400188
:102980000491816941F010018161816901F01001B8
:102990000491816941F004018161816901F00401C0
:1029A0000491816941F008018161816901F00801A8
:1029B0000491816941F02001816180691B4F00F021
:1029C00020000490012220213846FEF753FFDFF853
:1029D0006080002280214046FEF74CFFDFF85490D3
:1029E000012220214846FEF745FF01242026CDE99B
:1029F0000064032569463846CDE90245FEF736FEF8
:102A00008020CDE9000469464046CDE90245FEF745
:102A10002DFECDE9006469464846CDE90245FEF742
:102A200025FE05B0BDE8F08300100240001801400B
:102A300000140140000C014010B58EB00024079432
:102A4000089409940A940B941C2168460C94FDF791
:102A500003FD2248204901604721C0E9011444F6E2
:102A60001F61C0E903148461FFF76CFA08B1FEF737
:102A700040FD4FF48050079007A91848FFF7F0FA7F
:102A800008B1FEF736FD1548FFF799FC08B1FEF7CF
:102A900030FD0B940BA911480C94FFF715FA08B1FF
:102AA000FEF727FD6020CDE900040294002269466C
:102AB0000A480494FFF71DFC08B1FEF71AFD042232
:102AC00069460648FFF715FC08B1FEF712FD0348FA
:102AD000FFF7E8FB0EB010BD00040040FC00002032
:102AE0001CB500240E4800940C4901940160632138
:102AF000C0E9011441F61F418461C160FFF722FA69
:102B000008B1FEF7F6FC0094694605480194FFF70A
:102B1000DBF9002801D0FEF7ECFC1CBD00100040E2
:102B2000440100200C4810B50A4901604FF4E1311E
:102B30004160002181600C22C160C0E90412816102
:102B4000C161FFF70BFE002803D0BDE81040FEF77F
:102B5000D0BC10BD00440040A00100200C4810B5BE
:102B60000A4901604FF4E1314160002181600C228B
:102B7000C160C0E904128161C161FFF7EFFD002867
:102B800003D0BDE81040FEF7B4BC10BD00480040C3
:102B9000E8010020FEE700007CB51D4C05462078CA
:102BA000012833D120211B48FEF75CFE29461A4834
:102BB000226900F043F8E06000F0CEFF228981181E
:102BC00089B26180101AA0801448FEF75DFC608015
:102BD0001248A1881030FEF757FC0546A080104827
:102BE000006880F0004000F0E3FE6288CDE9002537
:102BF00002460B460BA0FDF71BFB0E4861880268DE
:102C000051630068A1888163002020707CBD0000B2
:102C1000040000200018014070000020DC000020AB
:102C200018000020252E32662C2564202C25640AED
:102C300000000000FC000020FEE700002DE9F0414C
:102C4000426104460162104601F02AF9E062216DFA
:102C50004FF4000511F0FF4F06D0A84201DA80F0D2
:102C6000004001F0E1F80BD3616D11F0FF4F1BD074
:102C7000E06AA84201DA80F0004000F0D5FF02D2FD
:102C80000020BDE8F081606D10F0FF4F0CD04FF0D8
:102C9000814100F0B9FE0146E06AA84201DA80F005
:102CA000004000F0C1FF01D8012000E00020404FAB
:102CB00004F134053860206E032802D004282FD098
:102CC00063E0E66A2068314600F0E2FF20633146A7
:102CD000606800F0DDFF616B00F096FE60633046D7
:102CE000A16A01F0DDF8A16800F0D2FFA0632846D8
:102CF000E16D00F008FC386800F06AFF616B00F0DD
:102D0000C7FF216B00F080FEA16B00F07DFEE06349
:102D100004F13C00A16D00F0F6FBE06B206434E0B0
:102D2000D4E90A763946304601F0BAF8216800F055
:102D3000AFFF20633146606800F0AAFF60630121A5
:102D4000384601F056F9314601F09FF8616A00F00B
:102D50005BFEA16800F09CFFA0632846E16D00F0D7
:102D6000D2FBD4E90C0100F04FFEA16B00F04CFE49
:102D700001466064E06C00F047FEA06404F1480086
:102D8000A16D00F0C0FBA06CE064A06A6062E06A24
:102D9000A062E069A061206AE0612069E06060698A
:102DA0002061206E032801D0A06C6AE7E06B68E721
:102DB0000000002070472DE9F0411646044650F807
:102DC0000C2B01254B1C0B2A14D2DFE802F0060F56
:102DD0001620305063676B707400FA2904D12560A7
:102DE000A268531CA3601154BDE8F081AF2902D042
:102DF000FA29F9D06CE0022257E0FA2902D0F12931
:102E000003D065E02560A560EEE703224DE0FA29D6
:102E1000F8D0A18004222260A268551CA56011543C
:102E2000A068C0F11100984252DB91B3DCE7A268C0
:102E3000531CA3601154A088411E89B2A18006D3FF
:102E4000A36804F10B00A28E185C1044A086002930
:102E5000CAD1A07BE17B014494F8340000F2A910B0
:102E60000844C0B2A0862068401C2060BCE7A28E47
:102E70008A422DD1A268531CA360115401463046EA
:102E8000A268FDF7A4FA2068401C206084F8365040
:102E9000AAE71DE0FA291BD1072206E0AF2917D1C6
:102EA000082202E0F22913D10922226098E70A22BF
:102EB0002260E38094E7E288521EE280A268531CFD
:102EC000A3601154E18800298ED12821FFF73FFD2E
:102ED000BDE8F04100F0E2BB7047FEF7D7BC30B56B
:102EE0008FB028216846FDF7B7FA14210AA8FDF72C
:102EF000B3FA01210804CDE9001000240294022550
:102F00000491CDE907504FF4E01009906846FEF7B0
:102F100035FE08B172B6FEE70F20CDE90A054FF481
:102F20008060CDE90C4002210AA80E94FEF74AFD0C
:102F3000002801D072B6FEE70FB030BD7047000028
:102F40000148FFF7FCB8000044010020F0B502681A
:102F50001C4B1D4D1D4E1E4F1E4C4FF0804C984279
:102F600009D0A04207D0604505D0A84203D0B042A6
:102F700001D0B84204D122F0700E4A6842EA0E0233
:102F8000984209D0A04207D0604505D0A84203D09E
:102F9000B04201D0B84203D122F44075CA682A4336
:102FA0004D6922F080022A4302608A68C2620A6880
:102FB0008262984201D0A04201D1096901630121D6
:102FC0004161F0BD002C01400004004000080040B9
:102FD000000C00400034014010B501F01F03012136
:102FE000046A99408C430462016A9A401143016269
:102FF00010BD10B5846842EA032224F47F440A43DA
:103000002243826010BD826822F070020A4342F0BF
:103010000701816070470000F0B5036A026A22F080
:103020000102026242688469124E24F073050C6842
:103030002C4323F002058B682B430D4DA84201D091
:10304000B04205D123F00807CB683B4323F00403CB
:10305000A84201D0B04205D14D6922F44072154317
:103060008A692A4342608461496841630362F0BD12
:10307000002C014000340140F0B5026A036A23F0DD
:1030800010030362436884690D6824F4E64444EA4B
:1030900005248D6822F0200242EA05120F4D104EE1
:1030A000A84201D0B04206D1CF6822F0800242EAA5
:1030B000071222F04002A84201D0B04207D14D6968
:1030C00023F4406343EA85038D6943EA8503436043
:1030D0008461496881630262F0BD0000002C0140F8
:1030E00000340140F0B5026A036A23F4807303627E
:1030F0004368C46922F4007224F073050C68124E10
:103100002C438D6842EA05220E4DA84201D0B04200
:1031100006D1CF6822F4006242EA072222F48062DC
:10312000A84201D0B04207D14D6923F4405343EA8D
:1031300005138D6943EA05134360C4614968C1639F
:103140000262F0BD002C01400034014030B5046A39
:10315000026A22F4805202624268C3690D6823F455
:10316000E64343EA05238D6824F4005444EA053419
:10317000084DA84202D0084DA84204D14D6922F45E
:10318000804242EA85124260C36149680164046278
:1031900030BD0000002C01400034014010B5036A2E
:1031A000046A24F001040462846924F0F00444EA0F
:1031B000021423F00A020A438461026210BD10B5B2
:1031C000036A046A24F010040462846923F0A003F3
:1031D00024F4704444EA023243EA0111826101623C
:1031E00010BD10B5406A0021C185C184FFF77EF98A
:1031F00010BD01680C3151E8002F22F4907241E8B3
:103200000023002BF5D10168143151E8002F22F082
:10321000010241E80023002BF5D1016B012909D1FE
:1032200001680C3151E8002F22F0100241E8002320
:10323000002BF5D1202180F8421000210163704756
:1032400008B590F84210222901D0022008BD8268FA
:103250004FF480539A4201D1016921B1816A9A42A7
:103260001BD04AB10AE00268816A5268C2F30802C0
:103270000A80816A891C08E0026972B1026852689A
:1032800002F07F020A70816A491C8162C18D491E69
:103290000904090CC18503D01BE002685268F1E7FC
:1032A0000168CA6822F02002CA600168CA6822F474
:1032B0008072CA6001684A6922F001024A612021D5
:1032C00080F8421000214163026B012A03D0FFF70E
:1032D0003BFB002008BD016301680C3151E8002F61
:1032E00022F0100241E80023002BF5D101680A68A2
:1032F000D20602D50A6849680091818DFFF7F5F87A
:10330000E7E7000070B5044600680169E26821F44F
:103310004051114301612169A06808436169084374
:103320002168CA6841F20C639A430243CA6020686C
:103330004169A26921F44071114341611E4920682D
:10334000884202D1FEF7E4FB01E0FEF7D1FB00EB7F
:10335000C00101EB0012606864218000B2FBF0F351
:10336000B3FBF1F36FF018067343B2FBF0F5B2FB59
:10337000F0F605EB8305322303EB0515B5FBF1F5FC
:10338000B6FBF1F605F0F00505EB0615B2FBF0F61D
:10339000B2FBF0F0B0FBF1F06FF01802504306EB17
:1033A000800003EB0010B0FBF1F0216800F00F008B
:1033B0002844886070BD0000003801402DE9F041CC
:1033C000984617460E460446069D27E0681C25D001
:1033D0002DB1FEF755FAA0EB0800A8421ED92068CF
:1033E0000C3050E8001F21F4D07140E80012002A90
:1033F000F5D12068143050E8001F21F0010140E8A9
:103400000012002AF5D1202084F8410084F84200FF
:10341000002084F840000320BDE8F08120680068A7
:1034200036EA000004D00020B842CFD00020F3E7F5
:103430000120F9E7144810B500680068C043800611
:103440001CD44FF47A73012210490F48FFF726FA73
:103450000E480F4A01780F48FFF7ADFC0D4C94F869
:10346000360001280AD10A4800F03EF90A490860EE
:103470000A4901200870002084F83600BDE8104099
:103480000148FFF735B80000A0010020200000200F
:103490008C010020380000201800002004000020CB
:1034A0000148FFF725B80000E8010020FEE74900C9
:1034B00050EAC12018BF04204A0D18BF40F0010097
:1034C00040F2FF72B2EB515F08BF40F002000128EA
:1034D00008BF052070470907090E002804DB00F12A
:1034E000E02080F80014704700F00F0000F1E020A9
:1034F00080F8141D704730380A2801D20120704727
:1035000000207047704770B504460E4681F00045B4
:10351000006800F089FC00D226602846216800F08F
:1035200083FC00D2256070BD01490860704700002F
:10353000340000204FF47A71484300F001B80000D5
:1035400070B54FF0E024002265690949A369096854
:103550004843A1699942FCD002D2A3EB010302E0E7
:10356000A5EB010633441A440B468242F1D370BDE9
:103570003400002004490A685206FCD5024AC1B250
:10358000121D1160704700000048004086B0FEF731
:1035900085F94820FFF7C8FFFFF7A1FCFFF7E0F926
:1035A000FFF74AFAFFF7BEFAFFF79AFAFFF7D6FAE3
:1035B00000212C48FEF732FF04212A48FEF72EFF97
:1035C00028484FF4FA6102685163026840F2DC5502
:1035D0005563026891630068856340F26A50FFF7A3
:1035E000A9FF21482149CDE9031002022048002605
:1035F0008DE845001F4B204A0321204800F058F871
:103600001F4840F2FF573A4680F8366040F22C6679
:10361000334619211B48009500F057F833463A46C7
:1036200019211948009500F050F818480068C16841
:1036300041F02001C16016480068C16841F02001D6
:10364000C1601448FEF7D6FC134D641CE4B20A2096
:10365000FFF770FF142CF8D120212846FEF702F95D
:103660000024F2E7FC000020000040400000B442CB
:10367000CDCC4C3F0000A0410000FA437000002078
:1036800038000020DC000020EC000020A001002019
:10369000E801002044010020000C01400348002103
:1036A00001608180C1808160818670473800002080
:1036B000F0B50DF1140E9EE8F0100765C0E9173162
:1036C000C0E915C280E87000F0BD2DE9F041044664
:1036D0001D460E461046069F00F092FA6060268155
:1036E0006581A781BDE8F08170B5808840BA00F09F
:1036F00087FA0949094C0A4D884203DB4FF08F4194
:1037000000F0CEFB00F054F922462B4600F052F8B0
:10371000BDE8704000F01CB800FEFF467B14AE47C9
:10372000E17A843F10B500290AD00878002807D034
:1037300005487844FDF7ACFA002801D0002010BD00
:103740000248784410BD00001A0A0000120A000066
:1037500021F00042A2F16052B2F5801F01F0004357
:1037600028BFD2F17F6C0BD95FEA001C43EAC2028A
:1037700042EB507018BF704728BF20F0010070471F
:10378000B2F5801FBCBF184670474FEA410C1CF5CC
:10379000001F02D2084600F042BB70B500F0B4F83A
:1037A00000000089FFF7F6BF4FF00040A0F5800051
:1037B00070470000DFF848C170B51CEA111E1EBF3B
:1037C0001CEA13159EEA0C0F95EA0C0F00F06F80AF
:1037D00081EA030423EA4C134EEAD47E21EA4C1119
:1037E00041F4801143F48013AE44A1FB024CA0FBD2
:1037F0000365AEF17F7E361955EB0C05A1FB034C3A
:103800004CF10003A0FB021C16EB0C06654153F1C2
:103810000003094218BF46F0010613F4007F0BD1E4
:103820004FEA03314FEA0530340341EA155140EACB
:1038300016506FF003020AE04FEAC3214FEAC52099
:10384000F40241EA555140EA56506FF0020202EB91
:103850002E4201EB025585EACE710AD05FEA440C94
:1038600018BF24F0004450F1000041F1000120EAAB
:10387000D47040F2FE7C624500D270BDA84214BFF5
:103880004FF080444FF04044002E08BF0024BEF1AA
:10389000806FA8BFA1F1C041BDE8704080F2828076
:1038A0004FF0000001F1C04101F0004170479EEA75
:1038B0000C0F0CEA131518BF95EA0C0F06D04FF049
:1038C000000081EA030E0EF0004170BD00F01CF80C
:1038D0008900013E00F007B800F009B84FEA430C38
:1038E0005FEA5C5C08D081EA030100F05BB84FEA54
:1038F000410C5FEA5C5CF6D14FF000000149704773
:103900000000FF070000F87F0EF1020E2EF0030EFC
:103910005EF8046B364205D4012A43EB030515F526
:10392000001F12D8012841EB010C1CF5001F0CD818
:103930000ED14FEAD17C15F5001F0CEB4C0C0CF1AD
:10394000020C08BF4CEBD37C04E04FF0080C01E004
:103950004FEAD37C0CEB4C0526FA05F606F0070679
:10396000B6F1040C06D20EEB860CBDE870404CF0AC
:10397000010C6047DFE80CF0090B02024FF0004138
:103980004FF00000A1F5002170BD19461046012836
:1039900051EB010418BFD4F5001484BF002001F0DE
:1039A000004170BD0808A0F500114FEA31017047D1
:1039B00043004FEAD30C4FEA3C0C43401FBF400783
:1039C0000CF1605113F0FE4F70471CF0006F03D1F3
:1039D00000200CF0004170470CF0004343EA5070A7
:1039E00010B540EACC0000F0D4F900BF000000920E
:1039F0004FEA0001FFF7D6BF4FF000414FF0000043
:103A0000A1F500217047000090EA010F48BF81F046
:103A1000004100F14C82421A3CBF801A89184FEADB
:103A2000D0524FF07F4C1CEA410FA2EBD15318BF8C
:103A30009CEA026F00F03B804FF0004C4CEA002003
:103A40004CEA012121FA03FC10EB0C0C1ED202F10E
:103A5000FF325FEA1C2040EBC25038BF70471CF0B9
:103A60007F0F4FEA400C18BFBCF17F4F38BF704743
:103A7000C3F12003994008BF20F00100BCF17F4F43
:103A800038BF7047A0F1C04000F0C9B94FEA3C0010
:103A9000000A40EBC25028BF1CF0FF0F4FEA400C59
:103AA000E6D018BFBCF17F4F38BF7047EAE79CEA09
:103AB000026F05D010EA5C0F08BF00F000407047AD
:103AC00010B500F066F900BF64FBBE3E014800F08F
:103AD0005EBA00BF0000C07F401058BFC0F1404038
:103AE000491058BFC1F140418142EFF30080704757
:103AF00050EA010C00F113801CF5000F58BFBCF513
:103B0000000F01D48842704707D710F5000F58BF47
:103B100011F5000F15D488427047894270471CF593
:103B2000000F04D5BCF5000FF7D5814270474FF068
:103B3000807C1CEB400F38BF1CEB410F01D281424F
:103B4000704710B500F025F9922449004FF000505D
:103B50004FF08051FFF7C0BF41000B0ED3F19E0222
:103B600008D950F400034FEA032323FA02F048BFB8
:103B70004042704710B500F00CF900BF4992248014
:103B8000002070476FF0004282EA2000704700007A
:103B9000C10DD1F19E0206DB4FEA002343F0004342
:103BA00023FA02F07047004207D54FEA4001B1F115
:103BB000FE4F02D24FF00000704710B500F0E9F858
:103BC00049922480002070476FEA2000704700006F
:103BD00010F0004148BF4042B0FA80F310FA03F2FF
:103BE000C3F19D030BD051EAC35101EB12205306E0
:103BF00038BF704700F1010008BF20F00100704796
:103C0000B0FA80F310FA03F2C3F19D030AD0D9058C
:103C100001EB1220530638BF704700F1010008BFC6
:103C200020F001007047000050EA010C00F1138001
:103C30001CF5000F58BFBCF5000F01D48842704737
:103C400007D710F5000F58BF11F5000F15D48842A3
:103C50007047894270471CF5000F04D5BCF5000F72
:103C6000F7D5814270474FF0807C1CEB400F38BF86
:103C70001CEB410F01D28142704710B500F089F86A
:103C8000922449004FF000504FF08051FFF724BFBD
:103C90004FF47F0C1CEAD0121EBF1CEAD11392EA2B
:103CA0000C0F93EA0C0F00F0478090EA010F48BF19
:103CB00042F480724FF0004C4CEA00204CEA0121A3
:103CC00002EB0302A0FB0113A2F50002002918BFBA
:103CD00043F001035B0028BF4FEA330342EB22426B
:103CE0005FEA132C4CEBC2502EBFBCEB436FB2F516
:103CF0007C0F70474FEA036CBCF1004F08BF20F007
:103D00000100B2F57C0F38BF70470BD582F0FF027F
:103D100012F5803FC8BF704700F1C040D8BF00F027
:103D20000040704700F5000C5FEA4C0C48BF70473C
:103D3000B0F1C04000F073B890EA010F0CEAD11363
:103D400048BF42F48072624538BF634504D280EABE
:103D5000010000F00040704710B500F01AF800BFF5
:103D60008900013E00F007B800F009B85FEA410C95
:103D70005FEA1C6C08D080EA010000F050B85FEAEE
:103D8000400C5FEA1C6CF6D14FF00040A0F58000BB
:103D900070470EF1020E2EF0030E5EF8044B244223
:103DA00004D44FEA4102B2F17F4F11D84FEA4003E9
:103DB000B3F17F4F0CD80ED14FEAD07CB2F17F4FD8
:103DC0000CEB4C0C0CF1020C08BF4CEBD17C04E06A
:103DD0004FF0080C01E04FEAD17C0CEB4C0324FAC5
:103DE00003F404F00704B4F1040C06D20EEB840CC7
:103DF000BDE810404CF0010C6047DFE80CF007080C
:103E000002024FF00040A0F5800010BD08464200BD
:103E100018BFD2F1807288BF00F0004010BDFF21B2
:103E200041EAD050C005704751EA000C00F1138000
:103E30001CF5000F58BFBCF5000F01D4814270473C
:103E400007D711F5000F58BF10F5000F15D48142A8
:103E50007047894270471CF5000F04D5BCF5000F70
:103E6000F7D5884270474FF0807C1CEB410F38BF7C
:103E70001CEB400F01D28842704780EA010081EAC2
:103E8000000180EA0100FFF7F8BE80F0004090EAF0
:103E9000010F7FF5C0AD81F0004100F008B80000CF
:103EA00090EA010F48BF81F000413FF5B4AD421ADE
:103EB00004D882F00042A0EB020011444FEAD05235
:103EC0004FF07F4C1CEA410FA2EBD15318BF9CEA84
:103ED000026F4AD04FF0004C4CEA00204CEA01211E
:103EE00021FA03FCB0EB0C0C0FD412F0FE0F36D00D
:103EF0005FEA4C001DD5001240EBC25038BF70473E
:103F00001CF03F0F18BF70470BE0A2F101025FEAFF
:103F10001C2040EBC25038BF70471CF07F0F18BF09
:103F20007047C3F12003994014BF401E20F00100E8
:103F3000704780084FEA122308BF7047B0FA80FC30
:103F4000A2EB0C02CCF1280C60FA0CF093EA122FD1
:103F500004BF00EBC25070474FEAC3707047130AAA
:103F60005FEADC1008BF7047F6E79CEA026F04D0F6
:103F700010EA5C0F08BF0020704710B5FFF709FF7B
:103F800040DFF63E81F000407047FCF7C0BB0CF00C
:103F90000F03092B08BF082000F051800A2B0BD01B
:103FA000082B18BF704708BF1CF0400F0AD04FF015
:103FB00000004FF0000170471CF0400F18BF4FF099
:103FC000004070471CF0100F08D020F0704300F044
:103FD0007F4242EAD3014FEA4370704700F06040ED
:103FE00021F07F4242EA000201F07F4040EA727015
:103FF00070474FF0FF0212EAD0521CBF92F0FF034D
:104000008B42C2BFD14200EBC1507047002A0AD098
:10401000002B0BD0002900F00040A4BF40F0FE4070
:1040200040F40000704700F00040704743024FF03A
:104030000B0C18BF4CF0806C7FF448AD70471CF43B
:10404000801F11D01CF4E02F03D06FEACC3149005F
:1040500070474FF04050EFF3008222F0704242EA86
:10406000000282F3008870474FF0000070470102A1
:1040700002030405060708090A0B0C0D0E0F1010A9
:104080000000000000000000010203040607080908
:10409000000000000102030402400000000000A034
:1040A0000000000005400000000000C80000000003
:1040B0000C4000000000409C00000000194000007F
:1040C0000020BCBE0000000034400000BFC91B8EB1
:1040D00000000004B5400000504BCFD06607E2CF8F
:1040E000010000006C4100003E8251AADFEEA734BF
:1040F00001000000D9420000DCB5A0E23A301F9771
:10410000FFFFFFFFB4450000FD25A0C8E9A3C14F94
:10411000FFFFFFFFFF3F00000000008000000000E5
:10412000FF3F000000000080000000006841000820
:1041300000000020380000006C010008A0410008C9
:104140003800002058080000880100081C0000000A
:1041500043000000F8FFFFFF0C0000000E0000000D
:104160000F0000002E000000010000000000000011
:1041700000000000FF05000000000000000000003B
:10418000000000000000000000000000010000002E
:1041900010000000000000000024F40000000000F7
:0400000508000131BD
:00000001FF
